{
  "address": "0x6F3B7Cc3D3C8c201373900402Ea0F5a61DA61ddE",
  "abi": [
    {
      "inputs": [
        {
          "internalType": "address",
          "name": "dStakeToken_",
          "type": "address"
        },
        {
          "internalType": "address",
          "name": "collateralVault_",
          "type": "address"
        }
      ],
      "stateMutability": "nonpayable",
      "type": "constructor"
    },
    {
      "inputs": [],
      "name": "AccessControlBadConfirmation",
      "type": "error"
    },
    {
      "inputs": [
        {
          "internalType": "address",
          "name": "account",
          "type": "address"
        },
        {
          "internalType": "bytes32",
          "name": "neededRole",
          "type": "bytes32"
        }
      ],
      "name": "AccessControlUnauthorizedAccount",
      "type": "error"
    },
    {
      "inputs": [
        {
          "internalType": "address",
          "name": "adapter",
          "type": "address"
        },
        {
          "internalType": "address",
          "name": "expectedAsset",
          "type": "address"
        },
        {
          "internalType": "address",
          "name": "actualAsset",
          "type": "address"
        }
      ],
      "name": "AdapterAssetMismatch",
      "type": "error"
    },
    {
      "inputs": [
        {
          "internalType": "address",
          "name": "strategyShare",
          "type": "address"
        }
      ],
      "name": "AdapterNotFound",
      "type": "error"
    },
    {
      "inputs": [],
      "name": "EnforcedPause",
      "type": "error"
    },
    {
      "inputs": [],
      "name": "ExpectedPause",
      "type": "error"
    },
    {
      "inputs": [],
      "name": "InsufficientActiveVaults",
      "type": "error"
    },
    {
      "inputs": [],
      "name": "InvalidAmount",
      "type": "error"
    },
    {
      "inputs": [],
      "name": "InvalidVaultConfig",
      "type": "error"
    },
    {
      "inputs": [],
      "name": "NoLiquidityAvailable",
      "type": "error"
    },
    {
      "inputs": [],
      "name": "ReentrancyGuardReentrantCall",
      "type": "error"
    },
    {
      "inputs": [
        {
          "internalType": "address",
          "name": "token",
          "type": "address"
        }
      ],
      "name": "SafeERC20FailedOperation",
      "type": "error"
    },
    {
      "inputs": [
        {
          "internalType": "address",
          "name": "asset",
          "type": "address"
        },
        {
          "internalType": "uint256",
          "name": "actualAmount",
          "type": "uint256"
        },
        {
          "internalType": "uint256",
          "name": "requiredAmount",
          "type": "uint256"
        }
      ],
      "name": "SlippageCheckFailed",
      "type": "error"
    },
    {
      "inputs": [
        {
          "internalType": "address",
          "name": "vault",
          "type": "address"
        }
      ],
      "name": "VaultNotActive",
      "type": "error"
    },
    {
      "inputs": [
        {
          "internalType": "address",
          "name": "vault",
          "type": "address"
        }
      ],
      "name": "VaultNotFound",
      "type": "error"
    },
    {
      "inputs": [],
      "name": "ZeroAddress",
      "type": "error"
    },
    {
      "inputs": [
        {
          "internalType": "address",
          "name": "fromAsset",
          "type": "address"
        },
        {
          "internalType": "uint256",
          "name": "fromAmount",
          "type": "uint256"
        }
      ],
      "name": "ZeroInputDStableValue",
      "type": "error"
    },
    {
      "inputs": [
        {
          "internalType": "address",
          "name": "strategyShare",
          "type": "address"
        }
      ],
      "name": "ZeroPreviewWithdrawAmount",
      "type": "error"
    },
    {
      "anonymous": false,
      "inputs": [
        {
          "indexed": false,
          "internalType": "address",
          "name": "account",
          "type": "address"
        }
      ],
      "name": "Paused",
      "type": "event"
    },
    {
      "anonymous": false,
      "inputs": [
        {
          "indexed": true,
          "internalType": "bytes32",
          "name": "role",
          "type": "bytes32"
        },
        {
          "indexed": true,
          "internalType": "bytes32",
          "name": "previousAdminRole",
          "type": "bytes32"
        },
        {
          "indexed": true,
          "internalType": "bytes32",
          "name": "newAdminRole",
          "type": "bytes32"
        }
      ],
      "name": "RoleAdminChanged",
      "type": "event"
    },
    {
      "anonymous": false,
      "inputs": [
        {
          "indexed": true,
          "internalType": "bytes32",
          "name": "role",
          "type": "bytes32"
        },
        {
          "indexed": true,
          "internalType": "address",
          "name": "account",
          "type": "address"
        },
        {
          "indexed": true,
          "internalType": "address",
          "name": "sender",
          "type": "address"
        }
      ],
      "name": "RoleGranted",
      "type": "event"
    },
    {
      "anonymous": false,
      "inputs": [
        {
          "indexed": true,
          "internalType": "bytes32",
          "name": "role",
          "type": "bytes32"
        },
        {
          "indexed": true,
          "internalType": "address",
          "name": "account",
          "type": "address"
        },
        {
          "indexed": true,
          "internalType": "address",
          "name": "sender",
          "type": "address"
        }
      ],
      "name": "RoleRevoked",
      "type": "event"
    },
    {
      "anonymous": false,
      "inputs": [
        {
          "indexed": true,
          "internalType": "address",
          "name": "fromVault",
          "type": "address"
        },
        {
          "indexed": true,
          "internalType": "address",
          "name": "toVault",
          "type": "address"
        },
        {
          "indexed": false,
          "internalType": "uint256",
          "name": "amount",
          "type": "uint256"
        },
        {
          "indexed": true,
          "internalType": "address",
          "name": "initiator",
          "type": "address"
        }
      ],
      "name": "StrategiesRebalanced",
      "type": "event"
    },
    {
      "anonymous": false,
      "inputs": [
        {
          "indexed": true,
          "internalType": "address",
          "name": "fromStrategyShare",
          "type": "address"
        },
        {
          "indexed": true,
          "internalType": "address",
          "name": "toStrategyShare",
          "type": "address"
        },
        {
          "indexed": false,
          "internalType": "uint256",
          "name": "fromShareAmount",
          "type": "uint256"
        },
        {
          "indexed": false,
          "internalType": "uint256",
          "name": "toShareAmount",
          "type": "uint256"
        },
        {
          "indexed": false,
          "internalType": "uint256",
          "name": "dStableAmountEquivalent",
          "type": "uint256"
        },
        {
          "indexed": true,
          "internalType": "address",
          "name": "exchanger",
          "type": "address"
        }
      ],
      "name": "StrategySharesExchanged",
      "type": "event"
    },
    {
      "anonymous": false,
      "inputs": [
        {
          "indexed": false,
          "internalType": "address",
          "name": "account",
          "type": "address"
        }
      ],
      "name": "Unpaused",
      "type": "event"
    },
    {
      "inputs": [],
      "name": "DEFAULT_ADMIN_ROLE",
      "outputs": [
        {
          "internalType": "bytes32",
          "name": "",
          "type": "bytes32"
        }
      ],
      "stateMutability": "view",
      "type": "function"
    },
    {
      "inputs": [],
      "name": "MAX_REINVEST_INCENTIVE_BPS",
      "outputs": [
        {
          "internalType": "uint256",
          "name": "",
          "type": "uint256"
        }
      ],
      "stateMutability": "view",
      "type": "function"
    },
    {
      "inputs": [],
      "name": "MAX_WITHDRAWAL_FEE_BPS",
      "outputs": [
        {
          "internalType": "uint256",
          "name": "",
          "type": "uint256"
        }
      ],
      "stateMutability": "view",
      "type": "function"
    },
    {
      "inputs": [],
      "name": "depositCap",
      "outputs": [
        {
          "internalType": "uint256",
          "name": "",
          "type": "uint256"
        }
      ],
      "stateMutability": "view",
      "type": "function"
    },
    {
      "inputs": [],
      "name": "dustTolerance",
      "outputs": [
        {
          "internalType": "uint256",
          "name": "",
          "type": "uint256"
        }
      ],
      "stateMutability": "view",
      "type": "function"
    },
    {
      "inputs": [
        {
          "internalType": "bytes32",
          "name": "role",
          "type": "bytes32"
        }
      ],
      "name": "getRoleAdmin",
      "outputs": [
        {
          "internalType": "bytes32",
          "name": "",
          "type": "bytes32"
        }
      ],
      "stateMutability": "view",
      "type": "function"
    },
    {
      "inputs": [],
      "name": "governanceModule",
      "outputs": [
        {
          "internalType": "address",
          "name": "",
          "type": "address"
        }
      ],
      "stateMutability": "view",
      "type": "function"
    },
    {
      "inputs": [
        {
          "internalType": "bytes32",
          "name": "role",
          "type": "bytes32"
        },
        {
          "internalType": "address",
          "name": "account",
          "type": "address"
        }
      ],
      "name": "grantRole",
      "outputs": [],
      "stateMutability": "nonpayable",
      "type": "function"
    },
    {
      "inputs": [
        {
          "internalType": "bytes32",
          "name": "role",
          "type": "bytes32"
        },
        {
          "internalType": "address",
          "name": "account",
          "type": "address"
        }
      ],
      "name": "hasRole",
      "outputs": [
        {
          "internalType": "bool",
          "name": "",
          "type": "bool"
        }
      ],
      "stateMutability": "view",
      "type": "function"
    },
    {
      "inputs": [],
      "name": "maxVaultCount",
      "outputs": [
        {
          "internalType": "uint256",
          "name": "",
          "type": "uint256"
        }
      ],
      "stateMutability": "view",
      "type": "function"
    },
    {
      "inputs": [],
      "name": "moduleMetadata",
      "outputs": [
        {
          "internalType": "bytes32",
          "name": "storageFingerprint",
          "type": "bytes32"
        },
        {
          "internalType": "address",
          "name": "dStakeTokenAddress",
          "type": "address"
        },
        {
          "internalType": "address",
          "name": "collateralVaultAddress",
          "type": "address"
        }
      ],
      "stateMutability": "view",
      "type": "function"
    },
    {
      "inputs": [],
      "name": "paused",
      "outputs": [
        {
          "internalType": "bool",
          "name": "",
          "type": "bool"
        }
      ],
      "stateMutability": "view",
      "type": "function"
    },
    {
      "inputs": [],
      "name": "rebalanceModule",
      "outputs": [
        {
          "internalType": "address",
          "name": "",
          "type": "address"
        }
      ],
      "stateMutability": "view",
      "type": "function"
    },
    {
      "inputs": [
        {
          "internalType": "address",
          "name": "fromStrategyShare",
          "type": "address"
        },
        {
          "internalType": "address",
          "name": "toStrategyShare",
          "type": "address"
        },
        {
          "internalType": "uint256",
          "name": "fromShareAmount",
          "type": "uint256"
        },
        {
          "internalType": "uint256",
          "name": "minToShareAmount",
          "type": "uint256"
        }
      ],
      "name": "rebalanceStrategiesByShares",
      "outputs": [],
      "stateMutability": "nonpayable",
      "type": "function"
    },
    {
      "inputs": [
        {
          "internalType": "address",
          "name": "fromStrategyShare",
          "type": "address"
        },
        {
          "internalType": "address",
          "name": "toStrategyShare",
          "type": "address"
        },
        {
          "internalType": "uint256",
          "name": "fromShareAmount",
          "type": "uint256"
        },
        {
          "internalType": "uint256",
          "name": "minToShareAmount",
          "type": "uint256"
        }
      ],
      "name": "rebalanceStrategiesBySharesViaExternalLiquidity",
      "outputs": [],
      "stateMutability": "nonpayable",
      "type": "function"
    },
    {
      "inputs": [
        {
          "internalType": "address",
          "name": "fromVault",
          "type": "address"
        },
        {
          "internalType": "address",
          "name": "toVault",
          "type": "address"
        },
        {
          "internalType": "uint256",
          "name": "amount",
          "type": "uint256"
        },
        {
          "internalType": "uint256",
          "name": "minToShareAmount",
          "type": "uint256"
        }
      ],
      "name": "rebalanceStrategiesByValue",
      "outputs": [],
      "stateMutability": "nonpayable",
      "type": "function"
    },
    {
      "inputs": [],
      "name": "reinvestIncentiveBps",
      "outputs": [
        {
          "internalType": "uint256",
          "name": "",
          "type": "uint256"
        }
      ],
      "stateMutability": "view",
      "type": "function"
    },
    {
      "inputs": [
        {
          "internalType": "bytes32",
          "name": "role",
          "type": "bytes32"
        },
        {
          "internalType": "address",
          "name": "callerConfirmation",
          "type": "address"
        }
      ],
      "name": "renounceRole",
      "outputs": [],
      "stateMutability": "nonpayable",
      "type": "function"
    },
    {
      "inputs": [
        {
          "internalType": "bytes32",
          "name": "role",
          "type": "bytes32"
        },
        {
          "internalType": "address",
          "name": "account",
          "type": "address"
        }
      ],
      "name": "revokeRole",
      "outputs": [],
      "stateMutability": "nonpayable",
      "type": "function"
    },
    {
      "inputs": [],
      "name": "settlementShortfall",
      "outputs": [
        {
          "internalType": "uint256",
          "name": "",
          "type": "uint256"
        }
      ],
      "stateMutability": "view",
      "type": "function"
    },
    {
      "inputs": [
        {
          "internalType": "bytes4",
          "name": "interfaceId",
          "type": "bytes4"
        }
      ],
      "name": "supportsInterface",
      "outputs": [
        {
          "internalType": "bool",
          "name": "",
          "type": "bool"
        }
      ],
      "stateMutability": "view",
      "type": "function"
    },
    {
      "inputs": [
        {
          "internalType": "uint256",
          "name": "",
          "type": "uint256"
        }
      ],
      "name": "vaultConfigs",
      "outputs": [
        {
          "internalType": "address",
          "name": "strategyVault",
          "type": "address"
        },
        {
          "internalType": "address",
          "name": "adapter",
          "type": "address"
        },
        {
          "internalType": "uint256",
          "name": "targetBps",
          "type": "uint256"
        },
        {
          "internalType": "enum DStakeRouterV2Storage.VaultStatus",
          "name": "status",
          "type": "uint8"
        }
      ],
      "stateMutability": "view",
      "type": "function"
    },
    {
      "inputs": [
        {
          "internalType": "address",
          "name": "",
          "type": "address"
        }
      ],
      "name": "vaultExists",
      "outputs": [
        {
          "internalType": "bool",
          "name": "",
          "type": "bool"
        }
      ],
      "stateMutability": "view",
      "type": "function"
    },
    {
      "inputs": [
        {
          "internalType": "address",
          "name": "",
          "type": "address"
        }
      ],
      "name": "vaultToIndex",
      "outputs": [
        {
          "internalType": "uint256",
          "name": "",
          "type": "uint256"
        }
      ],
      "stateMutability": "view",
      "type": "function"
    }
  ],
  "transactionHash": "0xf6455f6bb68ea4e432cf2135e80d8be8d04a361c60ed5c4094c1860ef87f4192",
  "args": [
    "0x7CB20517776636eD76b68EdB3D99DCce356ABf02",
    "0x4aCBcFa29fb085097c5f31783403EF7A7930F6Fe"
  ],
  "numDeployments": 1,
  "solcInputHash": "6a00e9aaba010a341218c5f7ed2041bf",
  "bytecode": "0x60e06040523480156200001157600080fd5b506040516200213638038062002136833981016040819052620000349162000158565b6001805581816001600160a01b03821615806200005857506001600160a01b038116155b15620000775760405163d92e233d60e01b815260040160405180910390fd5b6001600160a01b03808316608052811660a0819052604080516306617c6960e11b8152905160009291630cc2f8d29160048083019260209291908290030181865afa158015620000cb573d6000803e3d6000fd5b505050506040513d601f19601f82011682018060405250810190620000f1919062000190565b90506001600160a01b0381166200011b5760405163d92e233d60e01b815260040160405180910390fd5b6001600160a01b031660c052505060016003555050600a600455620001b5565b80516001600160a01b03811681146200015357600080fd5b919050565b600080604083850312156200016c57600080fd5b62000177836200013b565b915062000187602084016200013b565b90509250929050565b600060208284031215620001a357600080fd5b620001ae826200013b565b9392505050565b60805160a05160c051611f196200021d60003960008181610c1201528181610dad01528181610e5e015281816115330152818161164e015261170f0152600081816101a101528181610aff0152818161116e0152611430015260006101800152611f196000f3fe608060405234801561001057600080fd5b50600436106101585760003560e01c806358fdc055116100c3578063cabc3a481161007c578063cabc3a4814610366578063d547741f1461036f578063dbd5edc714610382578063ecd041f11461038b578063f575a8fe14610393578063f9b06b1c146103a657600080fd5b806358fdc055146103055780635c975abb146103185780638404c1c11461032357806391d1485414610343578063a217fddf14610356578063b6783edd1461035e57600080fd5b8063248a9ca311610115578063248a9ca314610265578063295891fd146102885780632b0a7032146102915780632f2ff15d146102bc57806336568abe146102cf578063583d50fb146102e257600080fd5b806301b2bdc61461015d57806301ffc9a7146101ea578063163e4d961461020d57806316d37595146102225780631e99981414610245578063204d44d11461025c575b600080fd5b7faa07e19dc1a09ad498122c9564c3d9610395746397d8ff4f049dfd65cbf363227f00000000000000000000000000000000000000000000000000000000000000007f0000000000000000000000000000000000000000000000000000000000000000604080519384526001600160a01b0392831660208501529116908201526060015b60405180910390f35b6101fd6101f8366004611c50565b6103b9565b60405190151581526020016101e1565b61022061021b366004611c8f565b6103f0565b005b6101fd610230366004611cd5565b600d6020526000908152604090205460ff1681565b61024e60035481565b6040519081526020016101e1565b61024e60065481565b61024e610273366004611cf2565b60009081526020819052604090206001015490565b61024e60045481565b600e546102a4906001600160a01b031681565b6040516001600160a01b0390911681526020016101e1565b6102206102ca366004611d0b565b610628565b6102206102dd366004611d0b565b610653565b6102f56102f0366004611cf2565b61068b565b6040516101e19493929190611d51565b610220610313366004611c8f565b6106d4565b60025460ff166101fd565b61024e610331366004611cd5565b600c6020526000908152604090205481565b6101fd610351366004611d0b565b6106e0565b61024e600081565b61024e610709565b61024e60075481565b61022061037d366004611d0b565b61071b565b61024e60055481565b61024e610740565b6102206103a1366004611c8f565b610763565b600f546102a4906001600160a01b031681565b60006001600160e01b03198216637965db0b60e01b14806103ea57506301ffc9a760e01b6001600160e01b03198316145b92915050565b816000036104115760405163162908e360e11b815260040160405180910390fd5b826001600160a01b0316846001600160a01b03160361044357604051639d282ec960e01b815260040160405180910390fd5b600061044e85610eed565b9050600061045b85610eed565b905060008260600151600281111561047557610475611d3b565b141580610498575060008160600151600281111561049557610495611d3b565b14155b156104ec576000826060015160028111156104b5576104b5611d3b565b146104c057856104c2565b845b604051630f6762e560e01b81526001600160a01b0390911660048201526024015b60405180910390fd5b6104f585611009565b61051d57604051630f6762e560e01b81526001600160a01b03861660048201526024016104e3565b610526866110ef565b61054e57604051630f6762e560e01b81526001600160a01b03871660048201526024016104e3565b604051630a28a47760e01b8152600481018590526000906001600160a01b03881690630a28a47790602401602060405180830381865afa158015610596573d6000803e3d6000fd5b505050506040513d601f19601f820116820180604052508101906105ba9190611d9d565b90506105c887878387611272565b336001600160a01b0316866001600160a01b0316886001600160a01b03167fe1d93f120ffb2a2bea84f0a341c47a4e5b450227b526b3888b3e94efa33935d68860405161061791815260200190565b60405180910390a450505050505050565b600082815260208190526040902060010154610643816117c8565b61064d83836117d5565b50505050565b6001600160a01b038116331461067c5760405163334bd91960e11b815260040160405180910390fd5b6106868282611867565b505050565b600b818154811061069b57600080fd5b600091825260209091206004909102018054600182015460028301546003909301546001600160a01b0392831694509116919060ff1684565b61064d84848484611272565b6000918252602082815260408084206001600160a01b0393909316845291905290205460ff1690565b610714606480611dcc565b61ffff1681565b600082815260208190526040902060010154610736816117c8565b61064d8383611867565b61074b606480611dcc565b61075a9061ffff166014611df2565b63ffffffff1681565b81600003610796576040516354f076c560e11b81526001600160a01b0385166004820152600060248201526044016104e3565b6001600160a01b03841615806107b357506001600160a01b038316155b156107d15760405163d92e233d60e01b815260040160405180910390fd5b6040805160c08101825260008082526020808301828152838501839052606084018390526080840183905260a084018390526001600160a01b03898116845260098084528685205482168652898216855290925293909120548116909252805190911661085c5760405163dfc24d3d60e01b81526001600160a01b03861660048201526024016104e3565b60208101516001600160a01b03166108925760405163dfc24d3d60e01b81526001600160a01b03851660048201526024016104e3565b600061089d86610eed565b90506108ae816060015160016118d2565b6108d657604051630f6762e560e01b81526001600160a01b03871660048201526024016104e3565b60006108e186610eed565b90506108f2816060015160006118d2565b61091a57604051630f6762e560e01b81526001600160a01b03871660048201526024016104e3565b82516001600160a01b039081166040808601829052602086015190921660608601529051639c544e9f60e01b815260048101879052639c544e9f90602401602060405180830381865afa158015610975573d6000803e3d6000fd5b505050506040513d601f19601f820116820180604052508101906109999190611d9d565b608084018190526000036109d2576040516354f076c560e11b81526001600160a01b0388166004820152602481018690526044016104e3565b60008084606001516001600160a01b031663a412fa2886608001516040518263ffffffff1660e01b8152600401610a0b91815260200190565b6040805180830381865afa158015610a27573d6000803e3d6000fd5b505050506040513d601f19601f82011682018060405250810190610a4b9190611e12565b91509150876001600160a01b0316826001600160a01b031614610aa257602085015160405163e8eebd3760e01b81526001600160a01b039182166004820152818a16602482015290831660448201526064016104e3565b60a0850181905285811015610ad35760a0850151604051636f85e6ff60e11b81526104e3918a918990600401611e40565b60405163989a5e6760e01b81526001600160a01b038a81166004830152602482018990523060448301527f0000000000000000000000000000000000000000000000000000000000000000169063989a5e6790606401600060405180830381600087803b158015610b4357600080fd5b505af1158015610b57573d6000803e3d6000fd5b50508651610b7292506001600160a01b038c16915089611940565b60408086015190516348b1933560e01b8152600481018990526000916001600160a01b0316906348b19335906024016020604051808303816000875af1158015610bc0573d6000803e3d6000fd5b505050506040513d601f19601f82011682018060405250810190610be49190611d9d565b8651909150610bff906001600160a01b038c16906000611940565b6020860151610c39906001600160a01b037f0000000000000000000000000000000000000000000000000000000000000000169083611940565b60008087606001516001600160a01b0316636f81a6b0846040518263ffffffff1660e01b8152600401610c6e91815260200190565b60408051808303816000875af1158015610c8c573d6000803e3d6000fd5b505050506040513d601f19601f82011682018060405250810190610cb09190611e12565b915091508a6001600160a01b0316826001600160a01b031614610d0757602088015160405163e8eebd3760e01b81526001600160a01b039182166004820152818d16602482015290831660448201526064016104e3565b6060880151604051639c544e9f60e01b8152600481018390526000916001600160a01b031690639c544e9f90602401602060405180830381865afa158015610d53573d6000803e3d6000fd5b505050506040513d601f19601f82011682018060405250810190610d779190611d9d565b905060006003548a6080015111610d8f576000610da1565b6003548a60800151610da19190611e61565b905080821015610dea577f00000000000000000000000000000000000000000000000000000000000000008282604051636f85e6ff60e11b81526004016104e393929190611e40565b505088811015610e4b576000610e00828b611e61565b60808a015160a08b0151919250600091610e1d91849160016119f4565b9050600354811115610e48578c838c604051636f85e6ff60e11b81526004016104e393929190611e40565b50505b6020880151610e86906001600160a01b037f000000000000000000000000000000000000000000000000000000000000000016906000611940565b6080880151604080518c8152602081018490529081019190915233906001600160a01b038d811691908f16907f36c4f2b15de48531e02d669121f9e49b8428450fd9775d5472dc217fdd5e6b909060600160405180910390a4505050505050505050505050565b610f156040805160808101825260008082526020820181905291810182905290606082015290565b6001600160a01b0382166000908152600d602052604090205460ff16610f595760405163c02219d960e01b81526001600160a01b03831660048201526024016104e3565b6001600160a01b0382166000908152600c6020526040902054600b80549091908110610f8757610f87611e74565b600091825260209182902060408051608081018252600490930290910180546001600160a01b03908116845260018201541693830193909352600280840154918301919091526003830154919291606084019160ff90911690811115610fef57610fef611d3b565b600281111561100057611000611d3b565b90525092915050565b6000816001600160a01b03166301e1d1146040518163ffffffff1660e01b8152600401602060405180830381865afa925050508015611065575060408051601f3d908101601f1916820190925261106291810190611d9d565b60015b61107157506000919050565b60405163ef8b30f760e01b8152670de0b6b3a764000060048201526001600160a01b0384169063ef8b30f790602401602060405180830381865afa9250505080156110d9575060408051601f3d908101601f191682019092526110d691810190611d9d565b60015b6110e65750600092915050565b15159392505050565b6000816001600160a01b03166301e1d1146040518163ffffffff1660e01b8152600401602060405180830381865afa92505050801561114b575060408051601f3d908101601f1916820190925261114891810190611d9d565b60015b61115757506000919050565b6040516370a0823160e01b81526001600160a01b037f000000000000000000000000000000000000000000000000000000000000000081166004830152600091908516906370a0823190602401602060405180830381865afa1580156111c1573d6000803e3d6000fd5b505050506040513d601f19601f820116820180604052508101906111e59190611d9d565b9050806000036111f9575060009392505050565b60405163266d6a8360e11b8152600481018290526001600160a01b03851690634cdad50690602401602060405180830381865afa92505050801561125a575060408051601f3d908101601f1916820190925261125791810190611d9d565b60015b611268575060009392505050565b1515949350505050565b6001600160a01b038085166000908152600960205260408082205486841683529120549082169116816112c35760405163dfc24d3d60e01b81526001600160a01b03871660048201526024016104e3565b6001600160a01b0381166112f55760405163dfc24d3d60e01b81526001600160a01b03861660048201526024016104e3565b600061130087610eed565b9050611311816060015160016118d2565b61133957604051630f6762e560e01b81526001600160a01b03881660048201526024016104e3565b600061134487610eed565b9050611355816060015160006118d2565b61137d57604051630f6762e560e01b81526001600160a01b03881660048201526024016104e3565b604051639c544e9f60e01b815260048101879052849084906000906001600160a01b03841690639c544e9f90602401602060405180830381865afa1580156113c9573d6000803e3d6000fd5b505050506040513d601f19601f820116820180604052508101906113ed9190611d9d565b90506003548111611404575050505050505061064d565b60405163989a5e6760e01b81526001600160a01b038c81166004830152602482018b90523060448301527f0000000000000000000000000000000000000000000000000000000000000000169063989a5e6790606401600060405180830381600087803b15801561147457600080fd5b505af1158015611488573d6000803e3d6000fd5b506114a1925050506001600160a01b038c16888b611940565b6040516348b1933560e01b8152600481018a90526000906001600160a01b038516906348b19335906024016020604051808303816000875af11580156114eb573d6000803e3d6000fd5b505050506040513d601f19601f8201168201806040525081019061150f9190611d9d565b90506115266001600160a01b038d16896000611940565b61155a6001600160a01b037f0000000000000000000000000000000000000000000000000000000000000000168883611940565b6040516306f81a6b60e41b81526004810182905260009081906001600160a01b03861690636f81a6b09060240160408051808303816000875af11580156115a5573d6000803e3d6000fd5b505050506040513d601f19601f820116820180604052508101906115c99190611e12565b915091508c6001600160a01b0316826001600160a01b03161461161a5760405163e8eebd3760e01b81526001600160a01b03808b166004830152808f166024830152831660448201526064016104e3565b8a811015611641578c818c604051636f85e6ff60e11b81526004016104e393929190611e40565b6116766001600160a01b037f0000000000000000000000000000000000000000000000000000000000000000168a6000611940565b604051639c544e9f60e01b8152600481018290526000906001600160a01b03871690639c544e9f90602401602060405180830381865afa1580156116be573d6000803e3d6000fd5b505050506040513d601f19601f820116820180604052508101906116e29190611d9d565b9050600060035486116116f6576000611703565b6003546117039087611e61565b90508082101561174c577f00000000000000000000000000000000000000000000000000000000000000008282604051636f85e6ff60e11b81526004016104e393929190611e40565b5050336001600160a01b03168d6001600160a01b03168f6001600160a01b03167f36c4f2b15de48531e02d669121f9e49b8428450fd9775d5472dc217fdd5e6b908f85896040516117b0939291909283526020830191909152604082015260600190565b60405180910390a45050505050505050505050505050565b6117d28133611a41565b50565b60006117e183836106e0565b61185f576000838152602081815260408083206001600160a01b03861684529091529020805460ff191660011790556118173390565b6001600160a01b0316826001600160a01b0316847f2f8788117e7eff1d82e926ec794901d17c78024a50270940304540a733656f0d60405160405180910390a45060016103ea565b5060006103ea565b600061187383836106e0565b1561185f576000838152602081815260408083206001600160a01b0386168085529252808320805460ff1916905551339286917ff6391f5c32d9c69d2a47ea670b442974b53935d1edc7fd64eb21e047a839171b9190a45060016103ea565b6000808260018111156118e7576118e7611d3b565b0361190857600083600281111561190057611900611d3b565b1490506103ea565b600083600281111561191c5761191c611d3b565b14806119395750600283600281111561193757611937611d3b565b145b9392505050565b604080516001600160a01b038416602482015260448082018490528251808303909101815260649091019091526020810180516001600160e01b031663095ea7b360e01b1790526119918482611a7e565b61064d57604080516001600160a01b038516602482015260006044808301919091528251808303909101815260649091019091526020810180516001600160e01b031663095ea7b360e01b1790526119ea908590611acd565b61064d8482611acd565b6000611a23611a0283611b3e565b8015611a1e575060008480611a1957611a19611e8a565b868809115b151590565b611a2e868686611b6b565b611a389190611ea0565b95945050505050565b611a4b82826106e0565b611a7a5760405163e2517d3f60e01b81526001600160a01b0382166004820152602481018390526044016104e3565b5050565b6000806000806020600086516020880160008a5af192503d91506000519050828015611ac357508115611ab45780600114611ac3565b6000866001600160a01b03163b115b9695505050505050565b600080602060008451602086016000885af180611af0576040513d6000823e3d81fd5b50506000513d91508115611b08578060011415611b15565b6001600160a01b0384163b155b1561064d57604051635274afe760e01b81526001600160a01b03851660048201526024016104e3565b60006002826003811115611b5457611b54611d3b565b611b5e9190611eb3565b60ff166001149050919050565b6000806000611b7a8686611c20565b9150915081600003611b9f57838181611b9557611b95611e8a565b0492505050611939565b818411611bb657611bb66003851502601118611c3e565b6000848688096000868103871696879004966002600389028118808a02820302808a02820302808a02820302808a02820302808a02820302808a02909103029181900381900460010185841190960395909502919093039390930492909217029150509392505050565b60008060001983850993909202808410938190039390930393915050565b634e487b71600052806020526024601cfd5b600060208284031215611c6257600080fd5b81356001600160e01b03198116811461193957600080fd5b6001600160a01b03811681146117d257600080fd5b60008060008060808587031215611ca557600080fd5b8435611cb081611c7a565b93506020850135611cc081611c7a565b93969395505050506040820135916060013590565b600060208284031215611ce757600080fd5b813561193981611c7a565b600060208284031215611d0457600080fd5b5035919050565b60008060408385031215611d1e57600080fd5b823591506020830135611d3081611c7a565b809150509250929050565b634e487b7160e01b600052602160045260246000fd5b6001600160a01b03858116825284166020820152604081018390526080810160038310611d8e57634e487b7160e01b600052602160045260246000fd5b82606083015295945050505050565b600060208284031215611daf57600080fd5b5051919050565b634e487b7160e01b600052601160045260246000fd5b61ffff818116838216028082169190828114611dea57611dea611db6565b505092915050565b63ffffffff818116838216028082169190828114611dea57611dea611db6565b60008060408385031215611e2557600080fd5b8251611e3081611c7a565b6020939093015192949293505050565b6001600160a01b039390931683526020830191909152604082015260600190565b818103818111156103ea576103ea611db6565b634e487b7160e01b600052603260045260246000fd5b634e487b7160e01b600052601260045260246000fd5b808201808211156103ea576103ea611db6565b600060ff831680611ed457634e487b7160e01b600052601260045260246000fd5b8060ff8416069150509291505056fea264697066735822122007d8f31e1951d1d83fc7cb192aa2dfb5b797cdd6f324720a1a839015511aa06364736f6c63430008160033",
  "devdoc": {
    "details": "Storage layout mirrors the router, including inherited OpenZeppelin base contracts. All functions assume they      are executed through delegatecall from the router, which enforces access control.",
    "errors": {
      "AccessControlBadConfirmation()": [
        {
          "details": "The caller of a function is not the expected one. NOTE: Don't confuse with {AccessControlUnauthorizedAccount}."
        }
      ],
      "AccessControlUnauthorizedAccount(address,bytes32)": [
        {
          "details": "The `account` is missing a role."
        }
      ],
      "EnforcedPause()": [
        {
          "details": "The operation failed because the contract is paused."
        }
      ],
      "ExpectedPause()": [
        {
          "details": "The operation failed because the contract is not paused."
        }
      ],
      "ReentrancyGuardReentrantCall()": [
        {
          "details": "Unauthorized reentrant call."
        }
      ],
      "SafeERC20FailedOperation(address)": [
        {
          "details": "An operation with an ERC-20 token failed."
        }
      ]
    },
    "events": {
      "Paused(address)": {
        "details": "Emitted when the pause is triggered by `account`."
      },
      "RoleAdminChanged(bytes32,bytes32,bytes32)": {
        "details": "Emitted when `newAdminRole` is set as ``role``'s admin role, replacing `previousAdminRole` `DEFAULT_ADMIN_ROLE` is the starting admin for all roles, despite {RoleAdminChanged} not being emitted to signal this."
      },
      "RoleGranted(bytes32,address,address)": {
        "details": "Emitted when `account` is granted `role`. `sender` is the account that originated the contract call. This account bears the admin role (for the granted role). Expected in cases where the role was granted using the internal {AccessControl-_grantRole}."
      },
      "RoleRevoked(bytes32,address,address)": {
        "details": "Emitted when `account` is revoked `role`. `sender` is the account that originated the contract call:   - if using `revokeRole`, it is the admin role bearer   - if using `renounceRole`, it is the role bearer (i.e. `account`)"
      },
      "Unpaused(address)": {
        "details": "Emitted when the pause is lifted by `account`."
      }
    },
    "kind": "dev",
    "methods": {
      "getRoleAdmin(bytes32)": {
        "details": "Returns the admin role that controls `role`. See {grantRole} and {revokeRole}. To change a role's admin, use {_setRoleAdmin}."
      },
      "grantRole(bytes32,address)": {
        "details": "Grants `role` to `account`. If `account` had not been already granted `role`, emits a {RoleGranted} event. Requirements: - the caller must have ``role``'s admin role. May emit a {RoleGranted} event."
      },
      "hasRole(bytes32,address)": {
        "details": "Returns `true` if `account` has been granted `role`."
      },
      "moduleMetadata()": {
        "returns": {
          "collateralVaultAddress": "Immutable collateral vault address baked into the module.",
          "dStakeTokenAddress": "Immutable dSTAKE token address baked into the module.",
          "storageFingerprint": "Unique identifier for the expected storage layout version."
        }
      },
      "paused()": {
        "details": "Returns true if the contract is paused, and false otherwise."
      },
      "renounceRole(bytes32,address)": {
        "details": "Revokes `role` from the calling account. Roles are often managed via {grantRole} and {revokeRole}: this function's purpose is to provide a mechanism for accounts to lose their privileges if they are compromised (such as when a trusted device is misplaced). If the calling account had been revoked `role`, emits a {RoleRevoked} event. Requirements: - the caller must be `callerConfirmation`. May emit a {RoleRevoked} event."
      },
      "revokeRole(bytes32,address)": {
        "details": "Revokes `role` from `account`. If `account` had been granted `role`, emits a {RoleRevoked} event. Requirements: - the caller must have ``role``'s admin role. May emit a {RoleRevoked} event."
      },
      "supportsInterface(bytes4)": {
        "details": "Returns true if this contract implements the interface defined by `interfaceId`. See the corresponding https://eips.ethereum.org/EIPS/eip-165#how-interfaces-are-identified[ERC section] to learn more about how these ids are created. This function call must use less than 30 000 gas."
      }
    },
    "title": "DStakeRouterV2RebalanceModule",
    "version": 1
  },
  "userdoc": {
    "kind": "user",
    "methods": {
      "moduleMetadata()": {
        "notice": "Returns module wiring metadata used to validate compatibility during router configuration."
      }
    },
    "notice": "Handles rebalancing flows for {@link DStakeRouterV2} via delegatecall.",
    "version": 1
  },
  "storageLayout": {
    "storage": [
      {
        "astId": 3317,
        "contract": "contracts/vaults/dstake/DStakeRouterV2RebalanceModule.sol:DStakeRouterV2RebalanceModule",
        "label": "_roles",
        "offset": 0,
        "slot": "0",
        "type": "t_mapping(t_bytes32,t_struct(RoleData)3312_storage)"
      },
      {
        "astId": 10141,
        "contract": "contracts/vaults/dstake/DStakeRouterV2RebalanceModule.sol:DStakeRouterV2RebalanceModule",
        "label": "_status",
        "offset": 0,
        "slot": "1",
        "type": "t_uint256"
      },
      {
        "astId": 10031,
        "contract": "contracts/vaults/dstake/DStakeRouterV2RebalanceModule.sol:DStakeRouterV2RebalanceModule",
        "label": "_paused",
        "offset": 0,
        "slot": "2",
        "type": "t_bool"
      },
      {
        "astId": 96264,
        "contract": "contracts/vaults/dstake/DStakeRouterV2RebalanceModule.sol:DStakeRouterV2RebalanceModule",
        "label": "dustTolerance",
        "offset": 0,
        "slot": "3",
        "type": "t_uint256"
      },
      {
        "astId": 96266,
        "contract": "contracts/vaults/dstake/DStakeRouterV2RebalanceModule.sol:DStakeRouterV2RebalanceModule",
        "label": "maxVaultCount",
        "offset": 0,
        "slot": "4",
        "type": "t_uint256"
      },
      {
        "astId": 96268,
        "contract": "contracts/vaults/dstake/DStakeRouterV2RebalanceModule.sol:DStakeRouterV2RebalanceModule",
        "label": "depositCap",
        "offset": 0,
        "slot": "5",
        "type": "t_uint256"
      },
      {
        "astId": 96270,
        "contract": "contracts/vaults/dstake/DStakeRouterV2RebalanceModule.sol:DStakeRouterV2RebalanceModule",
        "label": "settlementShortfall",
        "offset": 0,
        "slot": "6",
        "type": "t_uint256"
      },
      {
        "astId": 96272,
        "contract": "contracts/vaults/dstake/DStakeRouterV2RebalanceModule.sol:DStakeRouterV2RebalanceModule",
        "label": "reinvestIncentiveBps",
        "offset": 0,
        "slot": "7",
        "type": "t_uint256"
      },
      {
        "astId": 96274,
        "contract": "contracts/vaults/dstake/DStakeRouterV2RebalanceModule.sol:DStakeRouterV2RebalanceModule",
        "label": "_withdrawalFeeBps",
        "offset": 0,
        "slot": "8",
        "type": "t_uint256"
      },
      {
        "astId": 96278,
        "contract": "contracts/vaults/dstake/DStakeRouterV2RebalanceModule.sol:DStakeRouterV2RebalanceModule",
        "label": "_strategyShareToAdapter",
        "offset": 0,
        "slot": "9",
        "type": "t_mapping(t_address,t_address)"
      },
      {
        "astId": 96280,
        "contract": "contracts/vaults/dstake/DStakeRouterV2RebalanceModule.sol:DStakeRouterV2RebalanceModule",
        "label": "_defaultDepositStrategyShare",
        "offset": 0,
        "slot": "10",
        "type": "t_address"
      },
      {
        "astId": 96301,
        "contract": "contracts/vaults/dstake/DStakeRouterV2RebalanceModule.sol:DStakeRouterV2RebalanceModule",
        "label": "vaultConfigs",
        "offset": 0,
        "slot": "11",
        "type": "t_array(t_struct(VaultConfig)96297_storage)dyn_storage"
      },
      {
        "astId": 96305,
        "contract": "contracts/vaults/dstake/DStakeRouterV2RebalanceModule.sol:DStakeRouterV2RebalanceModule",
        "label": "vaultToIndex",
        "offset": 0,
        "slot": "12",
        "type": "t_mapping(t_address,t_uint256)"
      },
      {
        "astId": 96309,
        "contract": "contracts/vaults/dstake/DStakeRouterV2RebalanceModule.sol:DStakeRouterV2RebalanceModule",
        "label": "vaultExists",
        "offset": 0,
        "slot": "13",
        "type": "t_mapping(t_address,t_bool)"
      },
      {
        "astId": 96311,
        "contract": "contracts/vaults/dstake/DStakeRouterV2RebalanceModule.sol:DStakeRouterV2RebalanceModule",
        "label": "governanceModule",
        "offset": 0,
        "slot": "14",
        "type": "t_address"
      },
      {
        "astId": 96313,
        "contract": "contracts/vaults/dstake/DStakeRouterV2RebalanceModule.sol:DStakeRouterV2RebalanceModule",
        "label": "rebalanceModule",
        "offset": 0,
        "slot": "15",
        "type": "t_address"
      }
    ],
    "types": {
      "t_address": {
        "encoding": "inplace",
        "label": "address",
        "numberOfBytes": "20"
      },
      "t_array(t_struct(VaultConfig)96297_storage)dyn_storage": {
        "base": "t_struct(VaultConfig)96297_storage",
        "encoding": "dynamic_array",
        "label": "struct DStakeRouterV2Storage.VaultConfig[]",
        "numberOfBytes": "32"
      },
      "t_bool": {
        "encoding": "inplace",
        "label": "bool",
        "numberOfBytes": "1"
      },
      "t_bytes32": {
        "encoding": "inplace",
        "label": "bytes32",
        "numberOfBytes": "32"
      },
      "t_enum(VaultStatus)96287": {
        "encoding": "inplace",
        "label": "enum DStakeRouterV2Storage.VaultStatus",
        "numberOfBytes": "1"
      },
      "t_mapping(t_address,t_address)": {
        "encoding": "mapping",
        "key": "t_address",
        "label": "mapping(address => address)",
        "numberOfBytes": "32",
        "value": "t_address"
      },
      "t_mapping(t_address,t_bool)": {
        "encoding": "mapping",
        "key": "t_address",
        "label": "mapping(address => bool)",
        "numberOfBytes": "32",
        "value": "t_bool"
      },
      "t_mapping(t_address,t_uint256)": {
        "encoding": "mapping",
        "key": "t_address",
        "label": "mapping(address => uint256)",
        "numberOfBytes": "32",
        "value": "t_uint256"
      },
      "t_mapping(t_bytes32,t_struct(RoleData)3312_storage)": {
        "encoding": "mapping",
        "key": "t_bytes32",
        "label": "mapping(bytes32 => struct AccessControl.RoleData)",
        "numberOfBytes": "32",
        "value": "t_struct(RoleData)3312_storage"
      },
      "t_struct(RoleData)3312_storage": {
        "encoding": "inplace",
        "label": "struct AccessControl.RoleData",
        "members": [
          {
            "astId": 3309,
            "contract": "contracts/vaults/dstake/DStakeRouterV2RebalanceModule.sol:DStakeRouterV2RebalanceModule",
            "label": "hasRole",
            "offset": 0,
            "slot": "0",
            "type": "t_mapping(t_address,t_bool)"
          },
          {
            "astId": 3311,
            "contract": "contracts/vaults/dstake/DStakeRouterV2RebalanceModule.sol:DStakeRouterV2RebalanceModule",
            "label": "adminRole",
            "offset": 0,
            "slot": "1",
            "type": "t_bytes32"
          }
        ],
        "numberOfBytes": "64"
      },
      "t_struct(VaultConfig)96297_storage": {
        "encoding": "inplace",
        "label": "struct DStakeRouterV2Storage.VaultConfig",
        "members": [
          {
            "astId": 96289,
            "contract": "contracts/vaults/dstake/DStakeRouterV2RebalanceModule.sol:DStakeRouterV2RebalanceModule",
            "label": "strategyVault",
            "offset": 0,
            "slot": "0",
            "type": "t_address"
          },
          {
            "astId": 96291,
            "contract": "contracts/vaults/dstake/DStakeRouterV2RebalanceModule.sol:DStakeRouterV2RebalanceModule",
            "label": "adapter",
            "offset": 0,
            "slot": "1",
            "type": "t_address"
          },
          {
            "astId": 96293,
            "contract": "contracts/vaults/dstake/DStakeRouterV2RebalanceModule.sol:DStakeRouterV2RebalanceModule",
            "label": "targetBps",
            "offset": 0,
            "slot": "2",
            "type": "t_uint256"
          },
          {
            "astId": 96296,
            "contract": "contracts/vaults/dstake/DStakeRouterV2RebalanceModule.sol:DStakeRouterV2RebalanceModule",
            "label": "status",
            "offset": 0,
            "slot": "3",
            "type": "t_enum(VaultStatus)96287"
          }
        ],
        "numberOfBytes": "128"
      },
      "t_uint256": {
        "encoding": "inplace",
        "label": "uint256",
        "numberOfBytes": "32"
      }
    }
  }
}