{
  "address": "0xdD26C236ec95d03DDf3cB67b7f54864719E9Be5a",
  "abi": [
    {
      "inputs": [
        {
          "internalType": "address",
          "name": "_dStakeToken",
          "type": "address"
        },
        {
          "internalType": "address",
          "name": "_collateralVault",
          "type": "address"
        }
      ],
      "stateMutability": "nonpayable",
      "type": "constructor"
    },
    {
      "inputs": [],
      "name": "AccessControlBadConfirmation",
      "type": "error"
    },
    {
      "inputs": [
        {
          "internalType": "address",
          "name": "account",
          "type": "address"
        },
        {
          "internalType": "bytes32",
          "name": "neededRole",
          "type": "bytes32"
        }
      ],
      "name": "AccessControlUnauthorizedAccount",
      "type": "error"
    },
    {
      "inputs": [
        {
          "internalType": "address",
          "name": "adapter",
          "type": "address"
        },
        {
          "internalType": "address",
          "name": "expectedAsset",
          "type": "address"
        },
        {
          "internalType": "address",
          "name": "actualAsset",
          "type": "address"
        }
      ],
      "name": "AdapterAssetMismatch",
      "type": "error"
    },
    {
      "inputs": [
        {
          "internalType": "address",
          "name": "strategyShare",
          "type": "address"
        }
      ],
      "name": "AdapterNotFound",
      "type": "error"
    },
    {
      "inputs": [
        {
          "internalType": "uint256",
          "name": "actualShares",
          "type": "uint256"
        },
        {
          "internalType": "uint256",
          "name": "reportedShares",
          "type": "uint256"
        }
      ],
      "name": "AdapterSharesMismatch",
      "type": "error"
    },
    {
      "inputs": [],
      "name": "ArrayLengthMismatch",
      "type": "error"
    },
    {
      "inputs": [],
      "name": "ArrayLengthMismatch",
      "type": "error"
    },
    {
      "inputs": [
        {
          "internalType": "uint256",
          "name": "cap",
          "type": "uint256"
        },
        {
          "internalType": "uint256",
          "name": "currentManaged",
          "type": "uint256"
        },
        {
          "internalType": "uint256",
          "name": "incomingAssets",
          "type": "uint256"
        }
      ],
      "name": "DepositCapExceeded",
      "type": "error"
    },
    {
      "inputs": [],
      "name": "EmptyArrays",
      "type": "error"
    },
    {
      "inputs": [],
      "name": "EnforcedPause",
      "type": "error"
    },
    {
      "inputs": [],
      "name": "ExpectedPause",
      "type": "error"
    },
    {
      "inputs": [],
      "name": "IndexOutOfBounds",
      "type": "error"
    },
    {
      "inputs": [],
      "name": "InsufficientActiveVaults",
      "type": "error"
    },
    {
      "inputs": [],
      "name": "InsufficientItems",
      "type": "error"
    },
    {
      "inputs": [],
      "name": "InvalidAmount",
      "type": "error"
    },
    {
      "inputs": [
        {
          "internalType": "uint256",
          "name": "newCap",
          "type": "uint256"
        },
        {
          "internalType": "uint256",
          "name": "currentManaged",
          "type": "uint256"
        }
      ],
      "name": "InvalidDepositCap",
      "type": "error"
    },
    {
      "inputs": [
        {
          "internalType": "uint256",
          "name": "count",
          "type": "uint256"
        }
      ],
      "name": "InvalidMaxVaultCount",
      "type": "error"
    },
    {
      "inputs": [
        {
          "internalType": "uint256",
          "name": "incentiveBps",
          "type": "uint256"
        },
        {
          "internalType": "uint256",
          "name": "maxBps",
          "type": "uint256"
        }
      ],
      "name": "InvalidReinvestIncentive",
      "type": "error"
    },
    {
      "inputs": [],
      "name": "InvalidSelectionCount",
      "type": "error"
    },
    {
      "inputs": [],
      "name": "InvalidVaultConfig",
      "type": "error"
    },
    {
      "inputs": [
        {
          "internalType": "uint256",
          "name": "feeBps",
          "type": "uint256"
        },
        {
          "internalType": "uint256",
          "name": "maxFeeBps",
          "type": "uint256"
        }
      ],
      "name": "InvalidWithdrawalFee",
      "type": "error"
    },
    {
      "inputs": [],
      "name": "ModuleCallFailed",
      "type": "error"
    },
    {
      "inputs": [
        {
          "internalType": "address",
          "name": "expected",
          "type": "address"
        },
        {
          "internalType": "address",
          "name": "actual",
          "type": "address"
        }
      ],
      "name": "ModuleCollateralVaultMismatch",
      "type": "error"
    },
    {
      "inputs": [
        {
          "internalType": "address",
          "name": "module",
          "type": "address"
        }
      ],
      "name": "ModuleMetadataQueryFailed",
      "type": "error"
    },
    {
      "inputs": [],
      "name": "ModuleNotSet",
      "type": "error"
    },
    {
      "inputs": [
        {
          "internalType": "bytes32",
          "name": "expected",
          "type": "bytes32"
        },
        {
          "internalType": "bytes32",
          "name": "actual",
          "type": "bytes32"
        }
      ],
      "name": "ModuleStorageMismatch",
      "type": "error"
    },
    {
      "inputs": [
        {
          "internalType": "address",
          "name": "expected",
          "type": "address"
        },
        {
          "internalType": "address",
          "name": "actual",
          "type": "address"
        }
      ],
      "name": "ModuleTokenMismatch",
      "type": "error"
    },
    {
      "inputs": [],
      "name": "NoItemsAvailable",
      "type": "error"
    },
    {
      "inputs": [],
      "name": "NoLiquidityAvailable",
      "type": "error"
    },
    {
      "inputs": [],
      "name": "ReceiverZero",
      "type": "error"
    },
    {
      "inputs": [],
      "name": "ReentrancyGuardReentrantCall",
      "type": "error"
    },
    {
      "inputs": [
        {
          "internalType": "address",
          "name": "token",
          "type": "address"
        }
      ],
      "name": "SafeERC20FailedOperation",
      "type": "error"
    },
    {
      "inputs": [
        {
          "internalType": "uint256",
          "name": "shortfall",
          "type": "uint256"
        },
        {
          "internalType": "uint256",
          "name": "managedAssets",
          "type": "uint256"
        }
      ],
      "name": "SettlementShortfallTooHigh",
      "type": "error"
    },
    {
      "inputs": [],
      "name": "ShareWithdrawalConversionFailed",
      "type": "error"
    },
    {
      "inputs": [
        {
          "internalType": "uint256",
          "name": "actualShares",
          "type": "uint256"
        },
        {
          "internalType": "uint256",
          "name": "minShares",
          "type": "uint256"
        }
      ],
      "name": "SharesBelowMinimum",
      "type": "error"
    },
    {
      "inputs": [
        {
          "internalType": "uint256",
          "name": "requestedShares",
          "type": "uint256"
        },
        {
          "internalType": "uint256",
          "name": "maxShares",
          "type": "uint256"
        }
      ],
      "name": "SharesExceedMaxRedeem",
      "type": "error"
    },
    {
      "inputs": [
        {
          "internalType": "address",
          "name": "asset",
          "type": "address"
        },
        {
          "internalType": "uint256",
          "name": "actualAmount",
          "type": "uint256"
        },
        {
          "internalType": "uint256",
          "name": "requiredAmount",
          "type": "uint256"
        }
      ],
      "name": "SlippageCheckFailed",
      "type": "error"
    },
    {
      "inputs": [
        {
          "internalType": "address",
          "name": "vault",
          "type": "address"
        },
        {
          "internalType": "uint256",
          "name": "expectedShares",
          "type": "uint256"
        },
        {
          "internalType": "uint256",
          "name": "actualShares",
          "type": "uint256"
        }
      ],
      "name": "SolverShareDepositShortfall",
      "type": "error"
    },
    {
      "inputs": [
        {
          "internalType": "uint256",
          "name": "total",
          "type": "uint256"
        }
      ],
      "name": "TotalAllocationInvalid",
      "type": "error"
    },
    {
      "inputs": [],
      "name": "UnauthorizedConfigCaller",
      "type": "error"
    },
    {
      "inputs": [
        {
          "internalType": "address",
          "name": "vault",
          "type": "address"
        }
      ],
      "name": "VaultAlreadyExists",
      "type": "error"
    },
    {
      "inputs": [
        {
          "internalType": "address",
          "name": "strategyShare",
          "type": "address"
        },
        {
          "internalType": "address",
          "name": "existingAdapter",
          "type": "address"
        }
      ],
      "name": "VaultAssetManagedByDifferentAdapter",
      "type": "error"
    },
    {
      "inputs": [
        {
          "internalType": "address",
          "name": "vault",
          "type": "address"
        }
      ],
      "name": "VaultMustBeSuspended",
      "type": "error"
    },
    {
      "inputs": [
        {
          "internalType": "address",
          "name": "vault",
          "type": "address"
        }
      ],
      "name": "VaultNotActive",
      "type": "error"
    },
    {
      "inputs": [
        {
          "internalType": "address",
          "name": "vault",
          "type": "address"
        }
      ],
      "name": "VaultNotFound",
      "type": "error"
    },
    {
      "inputs": [
        {
          "internalType": "address",
          "name": "vault",
          "type": "address"
        },
        {
          "internalType": "uint256",
          "name": "targetBps",
          "type": "uint256"
        }
      ],
      "name": "VaultTargetNotZero",
      "type": "error"
    },
    {
      "inputs": [
        {
          "internalType": "uint256",
          "name": "expectedNet",
          "type": "uint256"
        },
        {
          "internalType": "uint256",
          "name": "actualNet",
          "type": "uint256"
        }
      ],
      "name": "WithdrawalShortfall",
      "type": "error"
    },
    {
      "inputs": [],
      "name": "ZeroAddress",
      "type": "error"
    },
    {
      "inputs": [
        {
          "internalType": "address",
          "name": "fromAsset",
          "type": "address"
        },
        {
          "internalType": "uint256",
          "name": "fromAmount",
          "type": "uint256"
        }
      ],
      "name": "ZeroInputDStableValue",
      "type": "error"
    },
    {
      "inputs": [
        {
          "internalType": "address",
          "name": "strategyShare",
          "type": "address"
        }
      ],
      "name": "ZeroPreviewWithdrawAmount",
      "type": "error"
    },
    {
      "anonymous": false,
      "inputs": [
        {
          "indexed": true,
          "internalType": "address",
          "name": "strategyShare",
          "type": "address"
        },
        {
          "indexed": false,
          "internalType": "address",
          "name": "adapterAddress",
          "type": "address"
        }
      ],
      "name": "AdapterRemoved",
      "type": "event"
    },
    {
      "anonymous": false,
      "inputs": [
        {
          "indexed": true,
          "internalType": "address",
          "name": "strategyShare",
          "type": "address"
        },
        {
          "indexed": false,
          "internalType": "address",
          "name": "adapterAddress",
          "type": "address"
        }
      ],
      "name": "AdapterSet",
      "type": "event"
    },
    {
      "anonymous": false,
      "inputs": [
        {
          "indexed": true,
          "internalType": "address",
          "name": "strategyShare",
          "type": "address"
        }
      ],
      "name": "DefaultDepositStrategyShareSet",
      "type": "event"
    },
    {
      "anonymous": false,
      "inputs": [
        {
          "indexed": false,
          "internalType": "uint256",
          "name": "previousCap",
          "type": "uint256"
        },
        {
          "indexed": false,
          "internalType": "uint256",
          "name": "newCap",
          "type": "uint256"
        }
      ],
      "name": "DepositCapUpdated",
      "type": "event"
    },
    {
      "anonymous": false,
      "inputs": [
        {
          "indexed": false,
          "internalType": "uint256",
          "name": "newDustTolerance",
          "type": "uint256"
        }
      ],
      "name": "DustToleranceSet",
      "type": "event"
    },
    {
      "anonymous": false,
      "inputs": [
        {
          "indexed": true,
          "internalType": "address",
          "name": "governanceModule",
          "type": "address"
        }
      ],
      "name": "GovernanceModuleSet",
      "type": "event"
    },
    {
      "anonymous": false,
      "inputs": [
        {
          "indexed": false,
          "internalType": "uint256",
          "name": "oldCount",
          "type": "uint256"
        },
        {
          "indexed": false,
          "internalType": "uint256",
          "name": "newCount",
          "type": "uint256"
        }
      ],
      "name": "MaxVaultCountUpdated",
      "type": "event"
    },
    {
      "anonymous": false,
      "inputs": [
        {
          "indexed": false,
          "internalType": "address",
          "name": "account",
          "type": "address"
        }
      ],
      "name": "Paused",
      "type": "event"
    },
    {
      "anonymous": false,
      "inputs": [
        {
          "indexed": true,
          "internalType": "address",
          "name": "rebalanceModule",
          "type": "address"
        }
      ],
      "name": "RebalanceModuleSet",
      "type": "event"
    },
    {
      "anonymous": false,
      "inputs": [
        {
          "indexed": false,
          "internalType": "uint256",
          "name": "newIncentiveBps",
          "type": "uint256"
        }
      ],
      "name": "ReinvestIncentiveSet",
      "type": "event"
    },
    {
      "anonymous": false,
      "inputs": [
        {
          "indexed": true,
          "internalType": "bytes32",
          "name": "role",
          "type": "bytes32"
        },
        {
          "indexed": true,
          "internalType": "bytes32",
          "name": "previousAdminRole",
          "type": "bytes32"
        },
        {
          "indexed": true,
          "internalType": "bytes32",
          "name": "newAdminRole",
          "type": "bytes32"
        }
      ],
      "name": "RoleAdminChanged",
      "type": "event"
    },
    {
      "anonymous": false,
      "inputs": [
        {
          "indexed": true,
          "internalType": "bytes32",
          "name": "role",
          "type": "bytes32"
        },
        {
          "indexed": true,
          "internalType": "address",
          "name": "account",
          "type": "address"
        },
        {
          "indexed": true,
          "internalType": "address",
          "name": "sender",
          "type": "address"
        }
      ],
      "name": "RoleGranted",
      "type": "event"
    },
    {
      "anonymous": false,
      "inputs": [
        {
          "indexed": true,
          "internalType": "bytes32",
          "name": "role",
          "type": "bytes32"
        },
        {
          "indexed": true,
          "internalType": "address",
          "name": "account",
          "type": "address"
        },
        {
          "indexed": true,
          "internalType": "address",
          "name": "sender",
          "type": "address"
        }
      ],
      "name": "RoleRevoked",
      "type": "event"
    },
    {
      "anonymous": false,
      "inputs": [
        {
          "indexed": true,
          "internalType": "address",
          "name": "initiator",
          "type": "address"
        },
        {
          "indexed": true,
          "internalType": "address",
          "name": "receiver",
          "type": "address"
        },
        {
          "indexed": true,
          "internalType": "address",
          "name": "strategyVault",
          "type": "address"
        },
        {
          "indexed": false,
          "internalType": "uint256",
          "name": "assets",
          "type": "uint256"
        },
        {
          "indexed": false,
          "internalType": "uint256",
          "name": "shares",
          "type": "uint256"
        }
      ],
      "name": "RouterDepositRouted",
      "type": "event"
    },
    {
      "anonymous": false,
      "inputs": [
        {
          "indexed": false,
          "internalType": "uint256",
          "name": "amountReinvested",
          "type": "uint256"
        },
        {
          "indexed": false,
          "internalType": "uint256",
          "name": "incentivePaid",
          "type": "uint256"
        },
        {
          "indexed": true,
          "internalType": "address",
          "name": "caller",
          "type": "address"
        }
      ],
      "name": "RouterFeesReinvested",
      "type": "event"
    },
    {
      "anonymous": false,
      "inputs": [
        {
          "indexed": true,
          "internalType": "address",
          "name": "caller",
          "type": "address"
        },
        {
          "indexed": true,
          "internalType": "address",
          "name": "receiver",
          "type": "address"
        },
        {
          "indexed": false,
          "internalType": "uint256",
          "name": "totalAssets",
          "type": "uint256"
        },
        {
          "indexed": false,
          "internalType": "uint256",
          "name": "sharesMinted",
          "type": "uint256"
        }
      ],
      "name": "RouterSolverDeposit",
      "type": "event"
    },
    {
      "anonymous": false,
      "inputs": [
        {
          "indexed": true,
          "internalType": "address",
          "name": "caller",
          "type": "address"
        },
        {
          "indexed": true,
          "internalType": "address",
          "name": "receiver",
          "type": "address"
        },
        {
          "indexed": false,
          "internalType": "uint256",
          "name": "grossAssets",
          "type": "uint256"
        },
        {
          "indexed": false,
          "internalType": "uint256",
          "name": "netAssets",
          "type": "uint256"
        },
        {
          "indexed": false,
          "internalType": "uint256",
          "name": "fee",
          "type": "uint256"
        },
        {
          "indexed": false,
          "internalType": "uint256",
          "name": "sharesBurned",
          "type": "uint256"
        }
      ],
      "name": "RouterSolverWithdraw",
      "type": "event"
    },
    {
      "anonymous": false,
      "inputs": [
        {
          "indexed": true,
          "internalType": "address",
          "name": "initiator",
          "type": "address"
        },
        {
          "indexed": true,
          "internalType": "address",
          "name": "receiver",
          "type": "address"
        },
        {
          "indexed": true,
          "internalType": "address",
          "name": "strategyVault",
          "type": "address"
        },
        {
          "indexed": false,
          "internalType": "uint256",
          "name": "grossAssets",
          "type": "uint256"
        },
        {
          "indexed": false,
          "internalType": "uint256",
          "name": "netAssets",
          "type": "uint256"
        },
        {
          "indexed": false,
          "internalType": "uint256",
          "name": "fee",
          "type": "uint256"
        }
      ],
      "name": "RouterWithdrawSettled",
      "type": "event"
    },
    {
      "anonymous": false,
      "inputs": [
        {
          "indexed": false,
          "internalType": "uint256",
          "name": "previousShortfall",
          "type": "uint256"
        },
        {
          "indexed": false,
          "internalType": "uint256",
          "name": "newShortfall",
          "type": "uint256"
        }
      ],
      "name": "SettlementShortfallUpdated",
      "type": "event"
    },
    {
      "anonymous": false,
      "inputs": [
        {
          "indexed": true,
          "internalType": "address",
          "name": "fromVault",
          "type": "address"
        },
        {
          "indexed": true,
          "internalType": "address",
          "name": "toVault",
          "type": "address"
        },
        {
          "indexed": false,
          "internalType": "uint256",
          "name": "amount",
          "type": "uint256"
        },
        {
          "indexed": true,
          "internalType": "address",
          "name": "initiator",
          "type": "address"
        }
      ],
      "name": "StrategiesRebalanced",
      "type": "event"
    },
    {
      "anonymous": false,
      "inputs": [
        {
          "indexed": false,
          "internalType": "address[]",
          "name": "selectedVaults",
          "type": "address[]"
        },
        {
          "indexed": false,
          "internalType": "uint256[]",
          "name": "depositAmounts",
          "type": "uint256[]"
        },
        {
          "indexed": false,
          "internalType": "uint256",
          "name": "totalDStableAmount",
          "type": "uint256"
        }
      ],
      "name": "StrategyDepositRouted",
      "type": "event"
    },
    {
      "anonymous": false,
      "inputs": [
        {
          "indexed": true,
          "internalType": "address",
          "name": "fromStrategyShare",
          "type": "address"
        },
        {
          "indexed": true,
          "internalType": "address",
          "name": "toStrategyShare",
          "type": "address"
        },
        {
          "indexed": false,
          "internalType": "uint256",
          "name": "fromShareAmount",
          "type": "uint256"
        },
        {
          "indexed": false,
          "internalType": "uint256",
          "name": "toShareAmount",
          "type": "uint256"
        },
        {
          "indexed": false,
          "internalType": "uint256",
          "name": "dStableAmountEquivalent",
          "type": "uint256"
        },
        {
          "indexed": true,
          "internalType": "address",
          "name": "exchanger",
          "type": "address"
        }
      ],
      "name": "StrategySharesExchanged",
      "type": "event"
    },
    {
      "anonymous": false,
      "inputs": [
        {
          "indexed": false,
          "internalType": "address[]",
          "name": "selectedVaults",
          "type": "address[]"
        },
        {
          "indexed": false,
          "internalType": "uint256[]",
          "name": "withdrawalAmounts",
          "type": "uint256[]"
        },
        {
          "indexed": false,
          "internalType": "uint256",
          "name": "totalDStableAmount",
          "type": "uint256"
        }
      ],
      "name": "StrategyWithdrawalRouted",
      "type": "event"
    },
    {
      "anonymous": false,
      "inputs": [
        {
          "indexed": false,
          "internalType": "uint256",
          "name": "amount",
          "type": "uint256"
        },
        {
          "indexed": false,
          "internalType": "address",
          "name": "vaultAsset",
          "type": "address"
        }
      ],
      "name": "SurplusSwept",
      "type": "event"
    },
    {
      "anonymous": false,
      "inputs": [
        {
          "indexed": false,
          "internalType": "address",
          "name": "account",
          "type": "address"
        }
      ],
      "name": "Unpaused",
      "type": "event"
    },
    {
      "anonymous": false,
      "inputs": [
        {
          "indexed": true,
          "internalType": "address",
          "name": "vault",
          "type": "address"
        },
        {
          "indexed": true,
          "internalType": "address",
          "name": "adapter",
          "type": "address"
        },
        {
          "indexed": false,
          "internalType": "uint256",
          "name": "targetBps",
          "type": "uint256"
        },
        {
          "indexed": false,
          "internalType": "enum DStakeRouterV2Storage.VaultStatus",
          "name": "status",
          "type": "uint8"
        }
      ],
      "name": "VaultConfigAdded",
      "type": "event"
    },
    {
      "anonymous": false,
      "inputs": [
        {
          "indexed": true,
          "internalType": "address",
          "name": "vault",
          "type": "address"
        }
      ],
      "name": "VaultConfigRemoved",
      "type": "event"
    },
    {
      "anonymous": false,
      "inputs": [
        {
          "indexed": true,
          "internalType": "address",
          "name": "vault",
          "type": "address"
        },
        {
          "indexed": true,
          "internalType": "address",
          "name": "adapter",
          "type": "address"
        },
        {
          "indexed": false,
          "internalType": "uint256",
          "name": "targetBps",
          "type": "uint256"
        },
        {
          "indexed": false,
          "internalType": "enum DStakeRouterV2Storage.VaultStatus",
          "name": "status",
          "type": "uint8"
        }
      ],
      "name": "VaultConfigUpdated",
      "type": "event"
    },
    {
      "anonymous": false,
      "inputs": [
        {
          "indexed": false,
          "internalType": "uint256",
          "name": "previousFeeBps",
          "type": "uint256"
        },
        {
          "indexed": false,
          "internalType": "uint256",
          "name": "newFeeBps",
          "type": "uint256"
        }
      ],
      "name": "WithdrawalFeeSet",
      "type": "event"
    },
    {
      "inputs": [],
      "name": "ADAPTER_MANAGER_ROLE",
      "outputs": [
        {
          "internalType": "bytes32",
          "name": "",
          "type": "bytes32"
        }
      ],
      "stateMutability": "view",
      "type": "function"
    },
    {
      "inputs": [],
      "name": "CONFIG_MANAGER_ROLE",
      "outputs": [
        {
          "internalType": "bytes32",
          "name": "",
          "type": "bytes32"
        }
      ],
      "stateMutability": "view",
      "type": "function"
    },
    {
      "inputs": [],
      "name": "DEFAULT_ADMIN_ROLE",
      "outputs": [
        {
          "internalType": "bytes32",
          "name": "",
          "type": "bytes32"
        }
      ],
      "stateMutability": "view",
      "type": "function"
    },
    {
      "inputs": [],
      "name": "DSTAKE_TOKEN_ROLE",
      "outputs": [
        {
          "internalType": "bytes32",
          "name": "",
          "type": "bytes32"
        }
      ],
      "stateMutability": "view",
      "type": "function"
    },
    {
      "inputs": [],
      "name": "MAX_REINVEST_INCENTIVE_BPS",
      "outputs": [
        {
          "internalType": "uint256",
          "name": "",
          "type": "uint256"
        }
      ],
      "stateMutability": "view",
      "type": "function"
    },
    {
      "inputs": [],
      "name": "MAX_WITHDRAWAL_FEE_BPS",
      "outputs": [
        {
          "internalType": "uint256",
          "name": "",
          "type": "uint256"
        }
      ],
      "stateMutability": "view",
      "type": "function"
    },
    {
      "inputs": [],
      "name": "PAUSER_ROLE",
      "outputs": [
        {
          "internalType": "bytes32",
          "name": "",
          "type": "bytes32"
        }
      ],
      "stateMutability": "view",
      "type": "function"
    },
    {
      "inputs": [],
      "name": "STRATEGY_REBALANCER_ROLE",
      "outputs": [
        {
          "internalType": "bytes32",
          "name": "",
          "type": "bytes32"
        }
      ],
      "stateMutability": "view",
      "type": "function"
    },
    {
      "inputs": [],
      "name": "VAULT_MANAGER_ROLE",
      "outputs": [
        {
          "internalType": "bytes32",
          "name": "",
          "type": "bytes32"
        }
      ],
      "stateMutability": "view",
      "type": "function"
    },
    {
      "inputs": [
        {
          "internalType": "address",
          "name": "",
          "type": "address"
        },
        {
          "internalType": "address",
          "name": "",
          "type": "address"
        }
      ],
      "name": "addAdapter",
      "outputs": [],
      "stateMutability": "nonpayable",
      "type": "function"
    },
    {
      "inputs": [
        {
          "internalType": "address",
          "name": "",
          "type": "address"
        },
        {
          "internalType": "address",
          "name": "",
          "type": "address"
        },
        {
          "internalType": "uint256",
          "name": "",
          "type": "uint256"
        },
        {
          "internalType": "enum DStakeRouterV2Storage.VaultStatus",
          "name": "",
          "type": "uint8"
        }
      ],
      "name": "addVaultConfig",
      "outputs": [],
      "stateMutability": "nonpayable",
      "type": "function"
    },
    {
      "inputs": [
        {
          "components": [
            {
              "internalType": "address",
              "name": "strategyVault",
              "type": "address"
            },
            {
              "internalType": "address",
              "name": "adapter",
              "type": "address"
            },
            {
              "internalType": "uint256",
              "name": "targetBps",
              "type": "uint256"
            },
            {
              "internalType": "enum DStakeRouterV2Storage.VaultStatus",
              "name": "status",
              "type": "uint8"
            }
          ],
          "internalType": "struct DStakeRouterV2Storage.VaultConfig",
          "name": "",
          "type": "tuple"
        }
      ],
      "name": "addVaultConfig",
      "outputs": [],
      "stateMutability": "nonpayable",
      "type": "function"
    },
    {
      "inputs": [],
      "name": "clearDefaultDepositStrategyShare",
      "outputs": [],
      "stateMutability": "nonpayable",
      "type": "function"
    },
    {
      "inputs": [
        {
          "internalType": "uint256",
          "name": "",
          "type": "uint256"
        }
      ],
      "name": "clearShortfall",
      "outputs": [],
      "stateMutability": "nonpayable",
      "type": "function"
    },
    {
      "inputs": [],
      "name": "collateralVault",
      "outputs": [
        {
          "internalType": "contract IDStakeCollateralVaultV2",
          "name": "",
          "type": "address"
        }
      ],
      "stateMutability": "view",
      "type": "function"
    },
    {
      "inputs": [],
      "name": "currentShortfall",
      "outputs": [
        {
          "internalType": "uint256",
          "name": "",
          "type": "uint256"
        }
      ],
      "stateMutability": "view",
      "type": "function"
    },
    {
      "inputs": [],
      "name": "dStakeToken",
      "outputs": [
        {
          "internalType": "address",
          "name": "",
          "type": "address"
        }
      ],
      "stateMutability": "view",
      "type": "function"
    },
    {
      "inputs": [],
      "name": "defaultDepositStrategyShare",
      "outputs": [
        {
          "internalType": "address",
          "name": "",
          "type": "address"
        }
      ],
      "stateMutability": "view",
      "type": "function"
    },
    {
      "inputs": [],
      "name": "depositCap",
      "outputs": [
        {
          "internalType": "uint256",
          "name": "",
          "type": "uint256"
        }
      ],
      "stateMutability": "view",
      "type": "function"
    },
    {
      "inputs": [],
      "name": "dustTolerance",
      "outputs": [
        {
          "internalType": "uint256",
          "name": "",
          "type": "uint256"
        }
      ],
      "stateMutability": "view",
      "type": "function"
    },
    {
      "inputs": [
        {
          "internalType": "address",
          "name": "",
          "type": "address"
        }
      ],
      "name": "emergencyPauseVault",
      "outputs": [],
      "stateMutability": "nonpayable",
      "type": "function"
    },
    {
      "inputs": [],
      "name": "getActiveVaultsForDeposits",
      "outputs": [
        {
          "internalType": "address[]",
          "name": "activeVaults",
          "type": "address[]"
        }
      ],
      "stateMutability": "view",
      "type": "function"
    },
    {
      "inputs": [],
      "name": "getActiveVaultsForWithdrawals",
      "outputs": [
        {
          "internalType": "address[]",
          "name": "activeVaults",
          "type": "address[]"
        }
      ],
      "stateMutability": "view",
      "type": "function"
    },
    {
      "inputs": [],
      "name": "getCurrentAllocations",
      "outputs": [
        {
          "internalType": "address[]",
          "name": "vaults",
          "type": "address[]"
        },
        {
          "internalType": "uint256[]",
          "name": "currentAllocations",
          "type": "uint256[]"
        },
        {
          "internalType": "uint256[]",
          "name": "targetAllocations",
          "type": "uint256[]"
        },
        {
          "internalType": "uint256",
          "name": "totalBalance",
          "type": "uint256"
        }
      ],
      "stateMutability": "view",
      "type": "function"
    },
    {
      "inputs": [],
      "name": "getMaxSingleVaultWithdraw",
      "outputs": [
        {
          "internalType": "uint256",
          "name": "",
          "type": "uint256"
        }
      ],
      "stateMutability": "view",
      "type": "function"
    },
    {
      "inputs": [
        {
          "internalType": "bytes32",
          "name": "role",
          "type": "bytes32"
        }
      ],
      "name": "getRoleAdmin",
      "outputs": [
        {
          "internalType": "bytes32",
          "name": "",
          "type": "bytes32"
        }
      ],
      "stateMutability": "view",
      "type": "function"
    },
    {
      "inputs": [
        {
          "internalType": "address",
          "name": "vault",
          "type": "address"
        }
      ],
      "name": "getVaultConfig",
      "outputs": [
        {
          "components": [
            {
              "internalType": "address",
              "name": "strategyVault",
              "type": "address"
            },
            {
              "internalType": "address",
              "name": "adapter",
              "type": "address"
            },
            {
              "internalType": "uint256",
              "name": "targetBps",
              "type": "uint256"
            },
            {
              "internalType": "enum DStakeRouterV2Storage.VaultStatus",
              "name": "status",
              "type": "uint8"
            }
          ],
          "internalType": "struct DStakeRouterV2Storage.VaultConfig",
          "name": "config",
          "type": "tuple"
        }
      ],
      "stateMutability": "view",
      "type": "function"
    },
    {
      "inputs": [
        {
          "internalType": "uint256",
          "name": "index",
          "type": "uint256"
        }
      ],
      "name": "getVaultConfigByIndex",
      "outputs": [
        {
          "components": [
            {
              "internalType": "address",
              "name": "strategyVault",
              "type": "address"
            },
            {
              "internalType": "address",
              "name": "adapter",
              "type": "address"
            },
            {
              "internalType": "uint256",
              "name": "targetBps",
              "type": "uint256"
            },
            {
              "internalType": "enum DStakeRouterV2Storage.VaultStatus",
              "name": "status",
              "type": "uint8"
            }
          ],
          "internalType": "struct DStakeRouterV2Storage.VaultConfig",
          "name": "config",
          "type": "tuple"
        }
      ],
      "stateMutability": "view",
      "type": "function"
    },
    {
      "inputs": [],
      "name": "getVaultCount",
      "outputs": [
        {
          "internalType": "uint256",
          "name": "",
          "type": "uint256"
        }
      ],
      "stateMutability": "view",
      "type": "function"
    },
    {
      "inputs": [],
      "name": "governanceModule",
      "outputs": [
        {
          "internalType": "address",
          "name": "",
          "type": "address"
        }
      ],
      "stateMutability": "view",
      "type": "function"
    },
    {
      "inputs": [
        {
          "internalType": "bytes32",
          "name": "role",
          "type": "bytes32"
        },
        {
          "internalType": "address",
          "name": "account",
          "type": "address"
        }
      ],
      "name": "grantRole",
      "outputs": [],
      "stateMutability": "nonpayable",
      "type": "function"
    },
    {
      "inputs": [
        {
          "internalType": "address",
          "name": "initiator",
          "type": "address"
        },
        {
          "internalType": "uint256",
          "name": "assets",
          "type": "uint256"
        },
        {
          "internalType": "uint256",
          "name": "shares",
          "type": "uint256"
        },
        {
          "internalType": "address",
          "name": "receiver",
          "type": "address"
        }
      ],
      "name": "handleDeposit",
      "outputs": [],
      "stateMutability": "nonpayable",
      "type": "function"
    },
    {
      "inputs": [
        {
          "internalType": "address",
          "name": "initiator",
          "type": "address"
        },
        {
          "internalType": "address",
          "name": "receiver",
          "type": "address"
        },
        {
          "internalType": "address",
          "name": "",
          "type": "address"
        },
        {
          "internalType": "uint256",
          "name": "grossAssets",
          "type": "uint256"
        },
        {
          "internalType": "uint256",
          "name": "expectedNetAssets",
          "type": "uint256"
        }
      ],
      "name": "handleWithdraw",
      "outputs": [
        {
          "internalType": "uint256",
          "name": "netAssets",
          "type": "uint256"
        },
        {
          "internalType": "uint256",
          "name": "fee",
          "type": "uint256"
        }
      ],
      "stateMutability": "nonpayable",
      "type": "function"
    },
    {
      "inputs": [
        {
          "internalType": "bytes32",
          "name": "role",
          "type": "bytes32"
        },
        {
          "internalType": "address",
          "name": "account",
          "type": "address"
        }
      ],
      "name": "hasRole",
      "outputs": [
        {
          "internalType": "bool",
          "name": "",
          "type": "bool"
        }
      ],
      "stateMutability": "view",
      "type": "function"
    },
    {
      "inputs": [
        {
          "internalType": "address",
          "name": "vault",
          "type": "address"
        }
      ],
      "name": "isVaultHealthyForDeposits",
      "outputs": [
        {
          "internalType": "bool",
          "name": "healthy",
          "type": "bool"
        }
      ],
      "stateMutability": "view",
      "type": "function"
    },
    {
      "inputs": [
        {
          "internalType": "address",
          "name": "vault",
          "type": "address"
        }
      ],
      "name": "isVaultHealthyForWithdrawals",
      "outputs": [
        {
          "internalType": "bool",
          "name": "healthy",
          "type": "bool"
        }
      ],
      "stateMutability": "view",
      "type": "function"
    },
    {
      "inputs": [
        {
          "internalType": "address",
          "name": "",
          "type": "address"
        }
      ],
      "name": "maxDeposit",
      "outputs": [
        {
          "internalType": "uint256",
          "name": "",
          "type": "uint256"
        }
      ],
      "stateMutability": "view",
      "type": "function"
    },
    {
      "inputs": [
        {
          "internalType": "address",
          "name": "",
          "type": "address"
        }
      ],
      "name": "maxMint",
      "outputs": [
        {
          "internalType": "uint256",
          "name": "",
          "type": "uint256"
        }
      ],
      "stateMutability": "view",
      "type": "function"
    },
    {
      "inputs": [
        {
          "internalType": "address",
          "name": "owner",
          "type": "address"
        }
      ],
      "name": "maxRedeem",
      "outputs": [
        {
          "internalType": "uint256",
          "name": "",
          "type": "uint256"
        }
      ],
      "stateMutability": "view",
      "type": "function"
    },
    {
      "inputs": [],
      "name": "maxVaultCount",
      "outputs": [
        {
          "internalType": "uint256",
          "name": "",
          "type": "uint256"
        }
      ],
      "stateMutability": "view",
      "type": "function"
    },
    {
      "inputs": [
        {
          "internalType": "address",
          "name": "owner",
          "type": "address"
        }
      ],
      "name": "maxWithdraw",
      "outputs": [
        {
          "internalType": "uint256",
          "name": "",
          "type": "uint256"
        }
      ],
      "stateMutability": "view",
      "type": "function"
    },
    {
      "inputs": [],
      "name": "maxWithdrawalFeeBps",
      "outputs": [
        {
          "internalType": "uint256",
          "name": "",
          "type": "uint256"
        }
      ],
      "stateMutability": "pure",
      "type": "function"
    },
    {
      "inputs": [],
      "name": "pause",
      "outputs": [],
      "stateMutability": "nonpayable",
      "type": "function"
    },
    {
      "inputs": [],
      "name": "paused",
      "outputs": [
        {
          "internalType": "bool",
          "name": "",
          "type": "bool"
        }
      ],
      "stateMutability": "view",
      "type": "function"
    },
    {
      "inputs": [],
      "name": "rebalanceModule",
      "outputs": [
        {
          "internalType": "address",
          "name": "",
          "type": "address"
        }
      ],
      "stateMutability": "view",
      "type": "function"
    },
    {
      "inputs": [
        {
          "internalType": "address",
          "name": "",
          "type": "address"
        },
        {
          "internalType": "address",
          "name": "",
          "type": "address"
        },
        {
          "internalType": "uint256",
          "name": "",
          "type": "uint256"
        },
        {
          "internalType": "uint256",
          "name": "",
          "type": "uint256"
        }
      ],
      "name": "rebalanceStrategiesByShares",
      "outputs": [],
      "stateMutability": "nonpayable",
      "type": "function"
    },
    {
      "inputs": [
        {
          "internalType": "address",
          "name": "",
          "type": "address"
        },
        {
          "internalType": "address",
          "name": "",
          "type": "address"
        },
        {
          "internalType": "uint256",
          "name": "",
          "type": "uint256"
        },
        {
          "internalType": "uint256",
          "name": "",
          "type": "uint256"
        }
      ],
      "name": "rebalanceStrategiesBySharesViaExternalLiquidity",
      "outputs": [],
      "stateMutability": "nonpayable",
      "type": "function"
    },
    {
      "inputs": [
        {
          "internalType": "address",
          "name": "",
          "type": "address"
        },
        {
          "internalType": "address",
          "name": "",
          "type": "address"
        },
        {
          "internalType": "uint256",
          "name": "",
          "type": "uint256"
        },
        {
          "internalType": "uint256",
          "name": "",
          "type": "uint256"
        }
      ],
      "name": "rebalanceStrategiesByValue",
      "outputs": [],
      "stateMutability": "nonpayable",
      "type": "function"
    },
    {
      "inputs": [
        {
          "internalType": "uint256",
          "name": "",
          "type": "uint256"
        }
      ],
      "name": "recordShortfall",
      "outputs": [],
      "stateMutability": "nonpayable",
      "type": "function"
    },
    {
      "inputs": [],
      "name": "reinvestFees",
      "outputs": [
        {
          "internalType": "uint256",
          "name": "amountReinvested",
          "type": "uint256"
        },
        {
          "internalType": "uint256",
          "name": "incentivePaid",
          "type": "uint256"
        }
      ],
      "stateMutability": "nonpayable",
      "type": "function"
    },
    {
      "inputs": [],
      "name": "reinvestIncentiveBps",
      "outputs": [
        {
          "internalType": "uint256",
          "name": "",
          "type": "uint256"
        }
      ],
      "stateMutability": "view",
      "type": "function"
    },
    {
      "inputs": [
        {
          "internalType": "address",
          "name": "",
          "type": "address"
        }
      ],
      "name": "removeAdapter",
      "outputs": [],
      "stateMutability": "nonpayable",
      "type": "function"
    },
    {
      "inputs": [
        {
          "internalType": "address",
          "name": "",
          "type": "address"
        }
      ],
      "name": "removeVault",
      "outputs": [],
      "stateMutability": "nonpayable",
      "type": "function"
    },
    {
      "inputs": [
        {
          "internalType": "address",
          "name": "",
          "type": "address"
        }
      ],
      "name": "removeVaultConfig",
      "outputs": [],
      "stateMutability": "nonpayable",
      "type": "function"
    },
    {
      "inputs": [
        {
          "internalType": "bytes32",
          "name": "role",
          "type": "bytes32"
        },
        {
          "internalType": "address",
          "name": "callerConfirmation",
          "type": "address"
        }
      ],
      "name": "renounceRole",
      "outputs": [],
      "stateMutability": "nonpayable",
      "type": "function"
    },
    {
      "inputs": [
        {
          "internalType": "bytes32",
          "name": "role",
          "type": "bytes32"
        },
        {
          "internalType": "address",
          "name": "account",
          "type": "address"
        }
      ],
      "name": "revokeRole",
      "outputs": [],
      "stateMutability": "nonpayable",
      "type": "function"
    },
    {
      "inputs": [
        {
          "internalType": "address",
          "name": "",
          "type": "address"
        }
      ],
      "name": "setDefaultDepositStrategyShare",
      "outputs": [],
      "stateMutability": "nonpayable",
      "type": "function"
    },
    {
      "inputs": [
        {
          "internalType": "uint256",
          "name": "",
          "type": "uint256"
        }
      ],
      "name": "setDepositCap",
      "outputs": [],
      "stateMutability": "nonpayable",
      "type": "function"
    },
    {
      "inputs": [
        {
          "internalType": "uint256",
          "name": "",
          "type": "uint256"
        }
      ],
      "name": "setDustTolerance",
      "outputs": [],
      "stateMutability": "nonpayable",
      "type": "function"
    },
    {
      "inputs": [
        {
          "internalType": "address",
          "name": "newModule",
          "type": "address"
        }
      ],
      "name": "setGovernanceModule",
      "outputs": [],
      "stateMutability": "nonpayable",
      "type": "function"
    },
    {
      "inputs": [
        {
          "internalType": "uint256",
          "name": "",
          "type": "uint256"
        }
      ],
      "name": "setMaxVaultCount",
      "outputs": [],
      "stateMutability": "nonpayable",
      "type": "function"
    },
    {
      "inputs": [
        {
          "internalType": "address",
          "name": "newModule",
          "type": "address"
        }
      ],
      "name": "setRebalanceModule",
      "outputs": [],
      "stateMutability": "nonpayable",
      "type": "function"
    },
    {
      "inputs": [
        {
          "internalType": "uint256",
          "name": "",
          "type": "uint256"
        }
      ],
      "name": "setReinvestIncentive",
      "outputs": [],
      "stateMutability": "nonpayable",
      "type": "function"
    },
    {
      "inputs": [
        {
          "components": [
            {
              "internalType": "address",
              "name": "strategyVault",
              "type": "address"
            },
            {
              "internalType": "address",
              "name": "adapter",
              "type": "address"
            },
            {
              "internalType": "uint256",
              "name": "targetBps",
              "type": "uint256"
            },
            {
              "internalType": "enum DStakeRouterV2Storage.VaultStatus",
              "name": "status",
              "type": "uint8"
            }
          ],
          "internalType": "struct DStakeRouterV2Storage.VaultConfig[]",
          "name": "",
          "type": "tuple[]"
        }
      ],
      "name": "setVaultConfigs",
      "outputs": [],
      "stateMutability": "nonpayable",
      "type": "function"
    },
    {
      "inputs": [
        {
          "internalType": "address",
          "name": "",
          "type": "address"
        },
        {
          "internalType": "enum DStakeRouterV2Storage.VaultStatus",
          "name": "",
          "type": "uint8"
        }
      ],
      "name": "setVaultStatus",
      "outputs": [],
      "stateMutability": "nonpayable",
      "type": "function"
    },
    {
      "inputs": [
        {
          "internalType": "uint256",
          "name": "",
          "type": "uint256"
        }
      ],
      "name": "setWithdrawalFee",
      "outputs": [],
      "stateMutability": "nonpayable",
      "type": "function"
    },
    {
      "inputs": [],
      "name": "settlementShortfall",
      "outputs": [
        {
          "internalType": "uint256",
          "name": "",
          "type": "uint256"
        }
      ],
      "stateMutability": "view",
      "type": "function"
    },
    {
      "inputs": [
        {
          "internalType": "address[]",
          "name": "vaults",
          "type": "address[]"
        },
        {
          "internalType": "uint256[]",
          "name": "assets",
          "type": "uint256[]"
        },
        {
          "internalType": "uint256",
          "name": "minShares",
          "type": "uint256"
        },
        {
          "internalType": "address",
          "name": "receiver",
          "type": "address"
        }
      ],
      "name": "solverDepositAssets",
      "outputs": [
        {
          "internalType": "uint256",
          "name": "sharesMinted",
          "type": "uint256"
        }
      ],
      "stateMutability": "nonpayable",
      "type": "function"
    },
    {
      "inputs": [
        {
          "internalType": "address[]",
          "name": "vaults",
          "type": "address[]"
        },
        {
          "internalType": "uint256[]",
          "name": "shares",
          "type": "uint256[]"
        },
        {
          "internalType": "uint256",
          "name": "minShares",
          "type": "uint256"
        },
        {
          "internalType": "address",
          "name": "receiver",
          "type": "address"
        }
      ],
      "name": "solverDepositShares",
      "outputs": [
        {
          "internalType": "uint256",
          "name": "sharesMinted",
          "type": "uint256"
        }
      ],
      "stateMutability": "nonpayable",
      "type": "function"
    },
    {
      "inputs": [
        {
          "internalType": "address[]",
          "name": "vaults",
          "type": "address[]"
        },
        {
          "internalType": "uint256[]",
          "name": "assets",
          "type": "uint256[]"
        },
        {
          "internalType": "uint256",
          "name": "maxShares",
          "type": "uint256"
        },
        {
          "internalType": "address",
          "name": "receiver",
          "type": "address"
        },
        {
          "internalType": "address",
          "name": "owner",
          "type": "address"
        }
      ],
      "name": "solverWithdrawAssets",
      "outputs": [
        {
          "internalType": "uint256",
          "name": "netAssets",
          "type": "uint256"
        },
        {
          "internalType": "uint256",
          "name": "fee",
          "type": "uint256"
        },
        {
          "internalType": "uint256",
          "name": "sharesBurned",
          "type": "uint256"
        }
      ],
      "stateMutability": "nonpayable",
      "type": "function"
    },
    {
      "inputs": [
        {
          "internalType": "address[]",
          "name": "vaults",
          "type": "address[]"
        },
        {
          "internalType": "uint256[]",
          "name": "strategyShares",
          "type": "uint256[]"
        },
        {
          "internalType": "uint256",
          "name": "maxShares",
          "type": "uint256"
        },
        {
          "internalType": "address",
          "name": "receiver",
          "type": "address"
        },
        {
          "internalType": "address",
          "name": "owner",
          "type": "address"
        }
      ],
      "name": "solverWithdrawShares",
      "outputs": [
        {
          "internalType": "uint256",
          "name": "netAssets",
          "type": "uint256"
        },
        {
          "internalType": "uint256",
          "name": "fee",
          "type": "uint256"
        },
        {
          "internalType": "uint256",
          "name": "sharesBurned",
          "type": "uint256"
        }
      ],
      "stateMutability": "nonpayable",
      "type": "function"
    },
    {
      "inputs": [
        {
          "internalType": "address",
          "name": "strategyShare",
          "type": "address"
        }
      ],
      "name": "strategyShareToAdapter",
      "outputs": [
        {
          "internalType": "address",
          "name": "",
          "type": "address"
        }
      ],
      "stateMutability": "view",
      "type": "function"
    },
    {
      "inputs": [
        {
          "internalType": "bytes4",
          "name": "interfaceId",
          "type": "bytes4"
        }
      ],
      "name": "supportsInterface",
      "outputs": [
        {
          "internalType": "bool",
          "name": "",
          "type": "bool"
        }
      ],
      "stateMutability": "view",
      "type": "function"
    },
    {
      "inputs": [
        {
          "internalType": "address",
          "name": "",
          "type": "address"
        }
      ],
      "name": "suspendVaultForRemoval",
      "outputs": [],
      "stateMutability": "nonpayable",
      "type": "function"
    },
    {
      "inputs": [
        {
          "internalType": "uint256",
          "name": "",
          "type": "uint256"
        }
      ],
      "name": "sweepSurplus",
      "outputs": [],
      "stateMutability": "nonpayable",
      "type": "function"
    },
    {
      "inputs": [],
      "name": "totalManagedAssets",
      "outputs": [
        {
          "internalType": "uint256",
          "name": "",
          "type": "uint256"
        }
      ],
      "stateMutability": "view",
      "type": "function"
    },
    {
      "inputs": [],
      "name": "unpause",
      "outputs": [],
      "stateMutability": "nonpayable",
      "type": "function"
    },
    {
      "inputs": [
        {
          "internalType": "address",
          "name": "",
          "type": "address"
        },
        {
          "internalType": "address",
          "name": "",
          "type": "address"
        },
        {
          "internalType": "uint256",
          "name": "",
          "type": "uint256"
        },
        {
          "internalType": "enum DStakeRouterV2Storage.VaultStatus",
          "name": "",
          "type": "uint8"
        }
      ],
      "name": "updateVaultConfig",
      "outputs": [],
      "stateMutability": "nonpayable",
      "type": "function"
    },
    {
      "inputs": [
        {
          "components": [
            {
              "internalType": "address",
              "name": "strategyVault",
              "type": "address"
            },
            {
              "internalType": "address",
              "name": "adapter",
              "type": "address"
            },
            {
              "internalType": "uint256",
              "name": "targetBps",
              "type": "uint256"
            },
            {
              "internalType": "enum DStakeRouterV2Storage.VaultStatus",
              "name": "status",
              "type": "uint8"
            }
          ],
          "internalType": "struct DStakeRouterV2Storage.VaultConfig",
          "name": "",
          "type": "tuple"
        }
      ],
      "name": "updateVaultConfig",
      "outputs": [],
      "stateMutability": "nonpayable",
      "type": "function"
    },
    {
      "inputs": [
        {
          "internalType": "uint256",
          "name": "",
          "type": "uint256"
        }
      ],
      "name": "vaultConfigs",
      "outputs": [
        {
          "internalType": "address",
          "name": "strategyVault",
          "type": "address"
        },
        {
          "internalType": "address",
          "name": "adapter",
          "type": "address"
        },
        {
          "internalType": "uint256",
          "name": "targetBps",
          "type": "uint256"
        },
        {
          "internalType": "enum DStakeRouterV2Storage.VaultStatus",
          "name": "status",
          "type": "uint8"
        }
      ],
      "stateMutability": "view",
      "type": "function"
    },
    {
      "inputs": [
        {
          "internalType": "address",
          "name": "",
          "type": "address"
        }
      ],
      "name": "vaultExists",
      "outputs": [
        {
          "internalType": "bool",
          "name": "",
          "type": "bool"
        }
      ],
      "stateMutability": "view",
      "type": "function"
    },
    {
      "inputs": [
        {
          "internalType": "address",
          "name": "",
          "type": "address"
        }
      ],
      "name": "vaultToIndex",
      "outputs": [
        {
          "internalType": "uint256",
          "name": "",
          "type": "uint256"
        }
      ],
      "stateMutability": "view",
      "type": "function"
    },
    {
      "inputs": [],
      "name": "withdrawalFeeBps",
      "outputs": [
        {
          "internalType": "uint256",
          "name": "",
          "type": "uint256"
        }
      ],
      "stateMutability": "view",
      "type": "function"
    }
  ],
  "transactionHash": "0x705c4ad4c44f3677fc44ebd72c059bd354516e4a7e26a7d7f477ad91a8e23310",
  "args": [
    "0x7CB20517776636eD76b68EdB3D99DCce356ABf02",
    "0x4aCBcFa29fb085097c5f31783403EF7A7930F6Fe"
  ],
  "numDeployments": 1,
  "solcInputHash": "e19aee67b3ade8c7a038aac03cd47acf",
  "bytecode": "0x60e0604090808252346200025b57818162005874803803809162000024828562000260565b8339810103126200025b5762000048602062000040836200029a565b92016200029a565b600180556001600160a01b039082821615801562000250575b6200023f579060208160049385608052168060a0528551938480926306617c6960e11b82525afa9182156200023457600092620001ee575b50811615620001dd5760c0526001600355600a600455620000f690620000bf33620002af565b50620000cb336200032f565b50620000d733620003d1565b50620000e3336200046e565b50620000ef336200050b565b50620005a8565b505161520e90816200064682396080518181816107b20152818161101001528181611618015281816118f101528181611b40015281816121770152818161275e01528181612aa401528181612b370152612c42015260a051818181610b410152818161273a0152818161291c01528181612efd0152818161396401528181613d9b01528181613ef0015281816141cb0152818161421e01528181614277015281816146f801526148f8015260c0518181816108d50152818161106801528181611a7701528181611b8e0152818161296e01528181613296015281816135a101526139c40152f35b825163d92e233d60e01b8152600490fd5b90916020823d82116200022b575b816200020b6020938362000260565b8101031262000228575062000220906200029a565b903862000099565b80fd5b3d9150620001fc565b84513d6000823e3d90fd5b835163d92e233d60e01b8152600490fd5b508181161562000061565b600080fd5b601f909101601f19168101906001600160401b038211908210176200028457604052565b634e487b7160e01b600052604160045260246000fd5b51906001600160a01b03821682036200025b57565b6001600160a01b031660008181527fad3228b676f7d3cd4284a5443f17f1962b36e491b30a40b2405849e597ba5fb5602052604081205490919060ff166200032b57818052816020526040822081835260205260408220600160ff198254161790553391600080516020620058548339815191528180a4600190565b5090565b6001600160a01b031660008181527f6e98dd9cebd68294c714043e0bade2c9294a848cd8241ee0a4ddd32338d6eab260205260408120549091907f59ca4ce6e783b097a9f11fb884d7979754b2eaecccdca81c43de092ef5d947939060ff16620003cc57808352826020526040832082845260205260408320600160ff1982541617905560008051602062005854833981519152339380a4600190565b505090565b6001600160a01b031660008181527f1a98536394a89bde21c352fe1c1076b59f564e1e17e1afe0b735e553ce9ce04460205260408120549091907fbbfb55d933c2bfa638763473275b1d84c4418e58d26cf9d2cd5758237756d9f09060ff16620003cc57808352826020526040832082845260205260408320600160ff1982541617905560008051602062005854833981519152339380a4600190565b6001600160a01b031660008181527f892718e7a1a469066675b5f782493ac861b4f98b3c42b6d42b67d853aabe987b60205260408120549091907fd1473398bb66596de5d1ea1fc8e303ff2ac23265adc9144b1b52065dc4f0934b9060ff16620003cc57808352826020526040832082845260205260408320600160ff1982541617905560008051602062005854833981519152339380a4600190565b6001600160a01b031660008181527ff7c9542c591017a21c74b6f3fab6263c7952fc0aaf9db4c22a2a04ddc7f8674f60205260408120549091907f65d7a28e3265b37a6474929f336521b332c1681b933f6cb9f3376673440d862a9060ff16620003cc57808352826020526040832082845260205260408320600160ff1982541617905560008051602062005854833981519152339380a4600190565b6001600160a01b031660008181527fee6598bb9d8813ec5dcf0988fbc9935f3bd23c22de3e37b2654f2216372e6c0860205260408120549091907f7fee0d6ae731e4c26a7bffbf1bb702cb3aaa110506f5b2a78cc9372669d439ae9060ff16620003cc57808352826020526040832082845260205260408320600160ff1982541617905560008051602062005854833981519152339380a460019056fe6080604052600436101561001257600080fd5b60003560e01c806301ffc9a71461050657806304336bb3146105015780630489788a146104fc57806305b2bfb0146104f75780630b19ebb1146104f25780630bece79c146104ed5780630c345759146104ca5780630f04b978146104e8578063100d0e99146104e357806311b2cd02146104de578063163e4d96146103b257806316d37595146104d95780631bbf12241461041b5780631e999814146104d45780631f0f1398146104ac5780631fb51daa146104cf578063204d44d1146104ca578063248a9ca3146104c55780632591cfc8146104c0578063295891fd146104bb5780632b0a7032146104b65780632f2ff15d146104b157806334bad320146104ac57806336568abe146104a75780633a092075146103fd5780633ded0000146104a25780633f4ba83a1461049d578063402d267d1461049857806341826c2d14610493578063583d50fb1461048e578063585cd34b1461048957806358fdc055146103b25780635c47df42146104845780635c975abb1461047f5780635e5a24a41461047a5780636dacd3d71461047557806373814cbb1461047057806374d4e4911461046b578063772447f8146103d05780637b1870d6146104665780637e45f1e1146104615780638351812e1461045c5780638404c1c1146104575780638456cb59146104525780638562537c1461044d57806386651203146103f35780638f1ace301461044857806391d148541461044357806392f5491c1461043e578063965a90e6146104395780639bb9461f14610434578063a0c7f7991461042f578063a217fddf1461042a578063ac1e5025146103f3578063ad07f2d1146103f3578063ad8aecc614610425578063b4da09f014610420578063b6783edd1461041b578063bc6d5a1014610416578063c63d75b614610411578063c72a3dce146103df578063cabc3a481461040c578063cb4750cb146103f3578063cc88bd5d14610407578063cd24728b14610402578063cd7c7505146103fd578063ce96cb77146103f8578063ceb68c23146103d0578063cf1638ba146103f3578063d547741f146103ee578063d905777e146103e9578063dbd5edc7146103e4578063dc369c65146103df578063dd16dfdc146103da578063de1eb9a3146103d5578063df180cd5146103d0578063e63ab1e9146103cb578063ebf091f2146103c6578063ecd041f1146103c1578063f00d1ae9146103bc578063f343cff0146103b7578063f575a8fe146103b25763f9b06b1c146103ad57600080fd5b612309565b610c48565b6122da565b6120f6565b6120d8565b6120bc565b612081565b61171c565b612059565b611fe1565b611e59565b611fc3565b611f9c565b611f5a565b6118d5565b611f33565b610f19565b611f1a565b611e90565b611e72565b611e33565b611df8565b610d4c565b611da3565b611d7a565b611d5e565b611d23565b611cf4565b611ac6565b6119e7565b611991565b611976565b6118ae565b611854565b611817565b6117ba565b61177f565b611740565b6116fe565b6116cc565b6116a5565b61166a565b611647565b611602565b6115de565b611573565b611479565b6113a3565b611339565b610f8a565b610ece565b610d87565b610e8c565b610e63565b610e45565b610e14565b610de5565b610b70565b610dc1565b610d69565b610d0a565b610c24565b610be9565b610b8e565b610b2b565b610725565b610659565b6105fb565b61056c565b3461055c57602036600319011261055c5760043563ffffffff60e01b811680910361055c57602090637965db0b60e01b811490811561054b575b506040519015158152f35b6301ffc9a760e01b14905038610540565b600080fd5b600091031261055c57565b3461055c57600036600319011261055c576020600854604051908152f35b634e487b7160e01b600052602160045260246000fd5b600311156105aa57565b61058a565b9060038210156105aa5752565b81516001600160a01b03908116825260208084015190911690820152604080830151908201526060918201516080820193926105f99201906105af565b565b3461055c57602036600319011261055c57600435610617613785565b50600b548110156106475761063761063161064392611534565b506137aa565b604051918291826105bc565b0390f35b604051634e23d03560e01b8152600490fd5b3461055c57600036600319011261055c5760206106746128fc565b604051908152f35b9181601f8401121561055c578235916001600160401b03831161055c576020808501948460051b01011161055c57565b6001600160a01b0381160361055c57565b60a060031982011261055c576001600160401b039160043583811161055c57826106e99160040161067c565b9390939260243591821161055c576107039160040161067c565b909160443590606435610715816106ac565b90608435610722816106ac565b90565b3461055c57610733366106bd565b929593919094610741613040565b610749613022565b6000926001600160a01b03878116929091908315610b19578015610b0757898103610af55785978661077a8c613140565b93885b8d808210610aa2575050508915610a905761079a6008548b6134fa565b818111610a19575b5050909192809495969798999a507f000000000000000000000000000000000000000000000000000000000000000016998a966107fd60208c60409a8b518080958194630a28a47760e01b8352600483019190602083019252565b03915afa998a1561098757996109e9575b508089116109c957506108228484846140c6565b9461082f60085487612cc8565b9b61083a8d886129f5565b9b808d106109a957808d1161098c575b50803b1561055c578851630ef1a41b60e11b81523360048201526001600160a01b0384811660248301529b909b1660448c015260648b018c905260848b018a90528a60a4815a6000948591f1948515610987576108fa8c6109059489946106439e7fb935df7c8ec5ab928816ed97360488365f862650eeaf5f9f96c9fc6897fb134b9a61096e575b507f000000000000000000000000000000000000000000000000000000000000000016613377565b8851948594856134df565b0390a1825190815260208101869052604081018790526060810184905233907fa191992edf1e50e292cf5996aae0dc5fc118dd8377c887fd047a8e6b6444fe5890608090a361095360018055565b51938493846040919493926060820195825260208201520152565b8061097b61098192612697565b80610561565b386108d2565b612715565b9c61099b8e6109a1939e6129f5565b906128ef565b9b9a3861084a565b8951631f5c25a360e01b81526004810191909152602481018d9052604490fd5b875163f6ee017160e01b8152600481018a90526024810191909152604490fd5b610a0b91995060203d8111610a12575b610a0381836126ca565b8101906128cd565b973861080e565b503d6109f9565b90610a23916129f5565b9a805b610a31575b806107a2565b610a3a816129e6565b610a448186612e52565b51610a5457506000190180610a26565b9192939495969798999a9b610a7f9150610a7890610a728488612e52565b516128ef565b9185612e52565b529089989796959493929138610a2b565b60405163162908e360e11b8152600490fd5b610ab082610ab89285613429565b35809d6128ef565b9b80610ac8575b5060010161077d565b60019193610adc610aee92600854906134fa565b9081610ae8878b612e52565b526128ef565b9290610abf565b60405163512509d360e11b8152600490fd5b60405163a600c81d60e01b8152600490fd5b60405163220a42fb60e11b8152600490fd5b3461055c57600036600319011261055c576040517f00000000000000000000000000000000000000000000000000000000000000006001600160a01b03168152602090f35b3461055c57600036600319011261055c576020600654604051908152f35b3461055c57602036600319011261055c576001600160401b0360043581811161055c573660238201121561055c57806004013591821161055c57602490369260071b01011161055c57610bdf612390565b610be761376d565b005b3461055c57600036600319011261055c5760206040517f59ca4ce6e783b097a9f11fb884d7979754b2eaecccdca81c43de092ef5d947938152f35b3461055c57602036600319011261055c57610c406004356106ac565b610bdf612332565b3461055c57608036600319011261055c57610c646004356106ac565b610c6f6024356106ac565b3360009081527f558dbed4104813a007d4614c5b743b91381b1a980614ba356594057f2c67b8ce60205260409020547fcf2f6d4b287b5b3ebfc9620610a356b6fff07ad64add1cd9a07a3a9f3d45f50c9060ff1615610cec57610cd0613040565b600f54610ce5906001600160a01b03166136ca565b5060018055005b6044906040519063e2517d3f60e01b82523360048301526024820152fd5b3461055c57602036600319011261055c57600435610d27816106ac565b60018060a01b0316600052600d602052602060ff604060002054166040519015158152f35b3461055c57600036600319011261055c5760206040516127108152f35b3461055c57600036600319011261055c576020600354604051908152f35b3461055c57608036600319011261055c57610da36004356106ac565b610dae6024356106ac565b6003606435101561055c57610bdf612390565b3461055c57602036600319011261055c57610ddd6004356106ac565b610bdf6123e8565b3461055c57602036600319011261055c5760043560005260006020526020600160406000200154604051908152f35b3461055c57602036600319011261055c576020610e3b600435610e36816106ac565b6148b1565b6040519015158152f35b3461055c57600036600319011261055c576020600454604051908152f35b3461055c57600036600319011261055c57600e546040516001600160a01b039091168152602090f35b3461055c57604036600319011261055c57610be7602435600435610eaf826106ac565b806000526000602052610ec9600160406000200154612548565b612567565b3461055c57604036600319011261055c57602435610eeb816106ac565b336001600160a01b03821603610f0757610be7906004356125f8565b60405163334bd91960e11b8152600490fd5b3461055c57608036600319011261055c57610bdf612390565b608060031982011261055c576001600160401b039160043583811161055c5782610f5e9160040161067c565b9390939260243591821161055c57610f789160040161067c565b909160443590606435610722816106ac565b3461055c57610f9836610f32565b610fa6959295939193613040565b610fae613022565b6001600160a01b0394818616938415610b19578115610b0757878203610af557610fd782613140565b92600094855b84811061125857508515610a90578590610ff682613063565b6040805163ef8b30f760e01b81526004808201949094529b7f00000000000000000000000000000000000000000000000000000000000000008c169b919a90919060208e8e81806024810103915afa9d8e156109875760009e611238575b50808e1061121457508861108d91309033907f000000000000000000000000000000000000000000000000000000000000000016612f72565b60005b86811061118c57505050883b1561055c5787516325b4f06160e11b8152339181019182526001600160a01b03909216602082015260408101869052606081018a90529098976000918a919082908490829060800103925af197881561098757847f532f13a056b54c036d5c3fc8feef04beb2a99aa9aac9dfc1ae768acbb52a11539461112b926106439b611179575b508851948594856134df565b0390a182519081526020810184905233907fd1b7862c3523b3d49407e56072f1ef23224f9c1afaf15b3726ef601fa8bc292390604090a361116b60018055565b519081529081906020820190565b8061097b61118692612697565b3861111f565b611197818385613429565b35806111a7575b50600101611090565b6111ba6111b5838a8a613429565b613439565b906111cf6111c8848c612e52565b51836138c0565b908082106111de57505061119e565b8d5163a77b078360e01b81526001600160a01b039093168388019081526020810191909152604081019190915281906060010390fd5b8b5163d6781d5760e01b81528086018f815260208101929092529081906040010390fd5b819e506112529060203d8111610a1257610a0381836126ca565b9d611054565b611263818c84613429565b3580611273575b50600101610fdd565b90966112836111b5898888613429565b916112986060611292856137f2565b016134d2565b6112a1816105a0565b6113185760405163b3d7f6b960e01b81526004810191909152916020919082908490818f81602481010392165afa908115610987576001936112f2936000936112f9575b505081610ae88b8b612e52565b969061126a565b611310929350803d10610a1257610a0381836126ca565b9038806112e5565b604051630f6762e560e01b81526001600160a01b0384166004820152602490fd5b3461055c57600036600319011261055c576113526123e8565b60025460ff8116156113915760ff19166002557f5db9ee0a495bf2e6ff9c91a7834c1ba4fdd244a5e8aa4e537bd38aeae4b073aa6020604051338152a1005b604051638dfc202b60e01b8152600490fd5b3461055c57602036600319011261055c576113bf6004356106ac565b6020610674612a02565b90815180825260208080930193019160005b8281106113e9575050505090565b83516001600160a01b0316855293810193928101926001016113db565b90815180825260208080930193019160005b828110611426575050505090565b835185529381019392810192600101611418565b9493926114666060936114586114749460808a5260808a01906113c9565b9088820360208a0152611406565b908682036040880152611406565b930152565b3461055c57600036600319011261055c57600b5461149681613140565b61149f82613140565b6114a883613140565b9260005b8181106114cf5750506114c1610643916149ce565b90936040519485948561143a565b8060406114e0610631600194611534565b611500848060a01b03808351166114f7868b612e52565b528251166146e1565b61150a8488612e52565b5201516115178288612e52565b52016114ac565b634e487b7160e01b600052603260045260246000fd5b600b5481101561156e57600b60005260021b7f0175b7a638427703f0dbe7bb9bbf987a2551717b34e79f33b5b1008d1fa01db90190600090565b61151e565b3461055c57602036600319011261055c57600435600b5481101561055c5761159c608091611534565b506115dc60018060a01b039182815416926001820154169060ff6003600283015492015416916040519485526020850152604084015260608301906105af565bf35b3461055c57602036600319011261055c576115fa6004356106ac565b610bdf612440565b3461055c57600036600319011261055c576040517f00000000000000000000000000000000000000000000000000000000000000006001600160a01b03168152602090f35b3461055c57600036600319011261055c57602060ff600254166040519015158152f35b3461055c57600036600319011261055c5760206040517fd1473398bb66596de5d1ea1fc8e303ff2ac23265adc9144b1b52065dc4f0934b8152f35b3461055c57604036600319011261055c576116c16004356106ac565b6115fa6024356106ac565b3461055c57600036600319011261055c576106436116e86143ca565b50506040519182916020835260208301906113c9565b3461055c57600036600319011261055c576020600b54604051908152f35b3461055c57602036600319011261055c576117386004356106ac565b610bdf612390565b3461055c57600036600319011261055c57611759613040565b611761613022565b611769613583565b6001805560408051928352602083019190915290f35b3461055c57600036600319011261055c5760206040517fcf2f6d4b287b5b3ebfc9620610a356b6fff07ad64add1cd9a07a3a9f3d45f50c8152f35b3461055c5760a036600319011261055c576117696004356117da816106ac565b602435906117e7826106ac565b6117f26044356106ac565b6117fa612498565b611802613040565b61180a613022565b608435916064359161321a565b3461055c57602036600319011261055c57600435611834816106ac565b60018060a01b0316600052600c6020526020604060002054604051908152f35b3461055c57600036600319011261055c5761186d6123e8565b611875613022565b600160ff1960025416176002557f62e78cea01bee320cd4e420270b5ea74000d11b0c9f74754ebdbfc544b05a2586020604051338152a1005b3461055c57602036600319011261055c576020610e3b6004356118d0816106ac565b6147f7565b3461055c57602036600319011261055c576001600160a01b03337f0000000000000000000000000000000000000000000000000000000000000000821614158061193d575b61192b57610be790600e54166136ca565b60405163753a613d60e01b8152600490fd5b503360009081527f1a98536394a89bde21c352fe1c1076b59f564e1e17e1afe0b735e553ce9ce044602052604090205460ff161561191a565b3461055c57600036600319011261055c57602061067461384c565b3461055c57604036600319011261055c57602060ff6119db6024356119b5816106ac565b6004356000526000845260406000209060018060a01b0316600052602052604060002090565b54166040519015158152f35b3461055c57608036600319011261055c57600435611a04816106ac565b606435602435611a13826106ac565b611a1b612498565b611a23613040565b611a2b613022565b6001600160a01b03918216918215610b19578115610a90577f65de205f6d75275ee9af2a4c295a8327d0af9970af2db8dd0f9c2d8974c15e7a90611a6e83613063565b611a9c833033847f000000000000000000000000000000000000000000000000000000000000000016612f72565b611aa58361319b565b6040805194855260443560208601529082169590911692a4610be760018055565b3461055c57611ad436610f32565b909392611ae2959295613040565b611aea613022565b6001600160a01b0393828516938415610b19578115610b0757878203610af557600093845b898110611cd457508415610a9057611b2685613063565b6040805163ef8b30f760e01b8152600481018790529890977f000000000000000000000000000000000000000000000000000000000000000081169160208b602481865afa9a8b156109875760009b611cb4575b50808b10611c94575086611bb391309033907f000000000000000000000000000000000000000000000000000000000000000016612f72565b60005b848110611c5a5750803b1561055c5787516325b4f06160e11b81523360048201526001600160a01b0392909216602483015260448201869052606482018990526000908290608490829084905af1801561098757610643997f532f13a056b54c036d5c3fc8feef04beb2a99aa9aac9dfc1ae768acbb52a11539561112b938893611c47575b5089519586958661348b565b8061097b611c5492612697565b38611c3b565b80611c686001928d89613429565b3580611c76575b5001611bb6565b611c8d90611c886111b5848a8a613429565b6138c0565b5038611c6f565b895163d6781d5760e01b8152600481018c90526024810191909152604490fd5b611ccd919b5060203d8111610a1257610a0381836126ca565b9938611b7a565b94611ced600191611ce6888d89613429565b35906128ef565b9501611b0f565b3461055c57602036600319011261055c57611d0d6124f0565b611d15613040565b611d1d61376d565b60018055005b3461055c57600036600319011261055c5760206040517fbbfb55d933c2bfa638763473275b1d84c4418e58d26cf9d2cd5758237756d9f08152f35b3461055c57600036600319011261055c57602060405160008152f35b3461055c57600036600319011261055c57600a546040516001600160a01b039091168152602090f35b3461055c57602036600319011261055c576020600435611dc2816106ac565b60018060a01b038091166000526009825260406000205416604051908152f35b634e487b7160e01b600052601160045260246000fd5b3461055c57600036600319011261055c5760206040517f7fee0d6ae731e4c26a7bffbf1bb702cb3aaa110506f5b2a78cc9372669d439ae8152f35b3461055c57602036600319011261055c57611e4f6004356106ac565b6020610674612a79565b3461055c57602036600319011261055c57610bdf612332565b3461055c57600036600319011261055c576020600754604051908152f35b3461055c57602036600319011261055c57600435611ead816106ac565b611eb56124f0565b6001600160a01b038116908115611f0857611ecf90612721565b600f80546001600160a01b031916821790557fbeef3b5508060a5c16820fa912c3580a296e5c9998cab97ec8999d823590ee74600080a2005b60405163d92e233d60e01b8152600490fd5b3461055c57600036600319011261055c57610bdf612332565b3461055c57602036600319011261055c576020610674600435611f55816106ac565b612af8565b3461055c57604036600319011261055c57610be7602435600435611f7d826106ac565b806000526000602052611f97600160406000200154612548565b6125f8565b3461055c57602036600319011261055c576020610674600435611fbe816106ac565b612c16565b3461055c57600036600319011261055c576020600554604051908152f35b3461055c57602036600319011261055c57600435611ffe816106ac565b6120066124f0565b6001600160a01b038116908115611f085761202090612721565b600e80546001600160a01b031916821790557f4cf0b78387d5b4cad8a97c3daee2b7106997db0ae19cf71c1054d53275fb1027600080a2005b3461055c57602036600319011261055c5761064361063760043561207c816106ac565b6137f2565b3461055c57600036600319011261055c5760206040517f65d7a28e3265b37a6474929f336521b332c1681b933f6cb9f3376673440d862a8152f35b3461055c57600036600319011261055c576106436116e861451d565b3461055c57600036600319011261055c57602060405162030d408152f35b3461055c57612104366106bd565b939461211296919396613040565b61211a613022565b6000936001600160a01b03808216939092908415610b19578115610b0757898203610af55761214882613140565b92879a885b818c868310612222575050508b15610a905761216e60209c60085490612c8e565b9a8b986121bc887f0000000000000000000000000000000000000000000000000000000000000000169e8f9b60409c8d518080958194630a28a47760e01b8352600483019190602083019252565b03915afa9b8c15610987579b612202575b50808b116121e2575090610822918585614126565b895163f6ee017160e01b8152600481018c90526024810191909152604490fd5b61221b919b5060203d8111610a1257610a0381836126ca565b99386121cd565b61222d918391613429565b358061223d575b5060010161214d565b909c612289906122648f6122586111b5612258928b8b613429565b6001600160a01b031690565b92604051809463266d6a8360e11b825281806020968795600483019190602083019252565b03915afa908115610987578f6001946122b0948f946122b7575b5050610ae883918b612e52565b9c90612234565b610ae8945090816122d392903d10610a1257610a0381836126ca565b92386122a3565b3461055c57604036600319011261055c576122f66004356106ac565b6003602435101561055c57610bdf612390565b3461055c57600036600319011261055c57600f546040516001600160a01b039091168152602090f35b3360009081527f1a98536394a89bde21c352fe1c1076b59f564e1e17e1afe0b735e553ce9ce044602052604090207fbbfb55d933c2bfa638763473275b1d84c4418e58d26cf9d2cd5758237756d9f09060ff905b541615610cec5750565b3360009081527f892718e7a1a469066675b5f782493ac861b4f98b3c42b6d42b67d853aabe987b602052604090207fd1473398bb66596de5d1ea1fc8e303ff2ac23265adc9144b1b52065dc4f0934b9060ff90612386565b3360009081527ff7c9542c591017a21c74b6f3fab6263c7952fc0aaf9db4c22a2a04ddc7f8674f602052604090207f65d7a28e3265b37a6474929f336521b332c1681b933f6cb9f3376673440d862a9060ff90612386565b3360009081527f6e98dd9cebd68294c714043e0bade2c9294a848cd8241ee0a4ddd32338d6eab2602052604090207f59ca4ce6e783b097a9f11fb884d7979754b2eaecccdca81c43de092ef5d947939060ff90612386565b3360009081527fee6598bb9d8813ec5dcf0988fbc9935f3bd23c22de3e37b2654f2216372e6c08602052604090207f7fee0d6ae731e4c26a7bffbf1bb702cb3aaa110506f5b2a78cc9372669d439ae9060ff90612386565b3360009081527fad3228b676f7d3cd4284a5443f17f1962b36e491b30a40b2405849e597ba5fb5602052604090205460ff161561252957565b60405163e2517d3f60e01b815233600482015260006024820152604490fd5b600081815260208181526040808320338452909152902060ff90612386565b6000818152602081815260408083206001600160a01b038616845290915281205490919060ff166125f257808252602082815260408084206001600160a01b038616600090815292529020805460ff1916600117905533926001600160a01b0316917f2f8788117e7eff1d82e926ec794901d17c78024a50270940304540a733656f0d9080a4600190565b50905090565b6000818152602081815260408083206001600160a01b038616845290915281205490919060ff16156125f257808252602082815260408084206001600160a01b038616600090815292529020805460ff1916905533926001600160a01b0316917ff6391f5c32d9c69d2a47ea670b442974b53935d1edc7fd64eb21e047a839171b9080a4600190565b634e487b7160e01b600052604160045260246000fd5b6001600160401b0381116126aa57604052565b612681565b608081019081106001600160401b038211176126aa57604052565b90601f801991011681019081106001600160401b038211176126aa57604052565b9081606091031261055c5780519160406020830151612709816106ac565b920151610722816106ac565b6040513d6000823e3d90fd5b60405162d95ee360e11b81526000906001600160a01b037f00000000000000000000000000000000000000000000000000000000000000008116917f00000000000000000000000000000000000000000000000000000000000000006060826004818987165afa918286918794612895575b506127b957604051634d5f621960e11b81526001600160a01b0388166004820152602490fd5b91955092939192907f55f81e623e5f652b67edd36a9b3c269efc6a8b9c682700b0fb62029a340c9cde810161285557508281168383160361282c5750508190831603612803575050565b6040516373f79df560e11b81526001600160a01b03918216600482015291166024820152604490fd5b60405163ab06191360e01b81526001600160a01b03918216600482015291166024820152604490fd5b6040516365ee57cf60e01b81527faa07e19dc1a09ad498122c9564c3d9610395746397d8ff4f049dfd65cbf3632260048201526024810191909152604490fd5b915092506128bb91955060603d81116128c6575b6128b381836126ca565b8101906126eb565b959190959238612793565b503d6128a9565b9081602091031261055c575190565b90600182018092116128ea57565b611de2565b919082018092116128ea57565b60405163700af38360e11b81526020906001600160a01b039082816004817f000000000000000000000000000000000000000000000000000000000000000086165afa908115610987576000916129c9575b506040516370a0823160e01b8152306004820152918390839060249082907f0000000000000000000000000000000000000000000000000000000000000000165afa91821561098757610722936000936129aa575b50506128ef565b6129c1929350803d10610a1257610a0381836126ca565b9038806129a3565b6129e09150833d8511610a1257610a0381836126ca565b3861294e565b6000198101919082116128ea57565b919082039182116128ea57565b60ff60025416612a7457612a1461451d565b50505115612a7457612a2c612a27612e66565b612ea9565b8015612a6e57600554908115612a6157612a446128fc565b80831115612a665782039182116128ea5780821015612a61575090565b905090565b505050600090565b50600090565b600090565b612a81612a02565b8015612a6e5760405163ef8b30f760e01b815260048101919091526020816024817f00000000000000000000000000000000000000000000000000000000000000006001600160a01b03165afa90811561098757600091612ae0575090565b610722915060203d8111610a1257610a0381836126ca565b60ff60025416612a6e57612b11612b0d612c7e565b1590565b612a6e576040516370a0823160e01b81526001600160a01b0391821660048201526020917f0000000000000000000000000000000000000000000000000000000000000000168282602481845afa91821561098757600092612bf7575b508115612a665760405163266d6a8360e11b815260048101929092528290829060249082905afa91821561098757600092612bda575b50508015612a6e57612bb461384c565b8015612bd357600854612bc691612c8e565b9080821015612a61575090565b5050600090565b612bf09250803d10610a1257610a0381836126ca565b3880612ba4565b612c0f919250833d8511610a1257610a0381836126ca565b9038612b6e565b612c1f90612af8565b8015612a6e57604051630a28a47760e01b815260048101919091526020816024817f00000000000000000000000000000000000000000000000000000000000000006001600160a01b03165afa90811561098757600091612ae0575090565b612c866143ca565b505051151590565b908115612bd3578015612cc457620f4240811015612bd357612cb09082612cc8565b81811015612bd35781039081116128ea5790565b5090565b9081158015612cea575b612bd357620f4240811015612cc45761072291612d17565b508015612cd2565b634e487b7160e01b600052601260045260246000fd5b8115612d12570490565b612cf2565b9060001981830981830291828083109203918083039214612d8857620f42409082821115612d75577fde8f6cefed634549b62c77574f722e1ac57e23f24d8fd5cb790fb65668c26139940990828211900360fa1b910360061c170290565b634e487b7160005260116020526024601cfd5b5050620f424091500490565b90612d9e82612e2e565b9190928315612e115783821115612e0457620f424082910981600003821680920460028082600302188083028203028083028203028083028203028083028203028083028203028092029003029360018380600003040190848311900302920304170290565b5015600302601118612e1d565b50906107229250612d08565b634e487b716000526020526024601cfd5b620f42406000198183099102908180821091030391565b80511561156e5760200190565b805182101561156e5760209160051b010190565b612e6e61451d565b90825115612e9757612e7f92614a72565b5080511561156e57602001516001600160a01b031690565b6040516354d0492760e01b8152600490fd5b6001600160a01b0390808216908115612a66576001600160a01b03166000908152600960205260409020612ee990612258905b546001600160a01b031690565b15612bd35760405163402d267d60e01b81527f0000000000000000000000000000000000000000000000000000000000000000929092166001600160a01b03166004830152602090829081806024810103915afa60009181612f52575b50610722575060001990565b612f6b91925060203d8111610a1257610a0381836126ca565b9038612f46565b6040516323b872dd60e01b60208201526001600160a01b03928316602482015292909116604483015260648083019390935291815260a08101918183106001600160401b038411176126aa576105f9926040525b906000602091828151910182855af115612715576000513d61301957506001600160a01b0381163b155b612ff75750565b604051635274afe760e01b81526001600160a01b039091166004820152602490fd5b60011415612ff0565b60ff6002541661302e57565b60405163d93c066560e01b8152600490fd5b600260015414613051576002600155565b604051633ee5aeb560e01b8152600490fd5b60055480156130b4576130746128fc565b918083018084116128ea57821061308a57505050565b604051634b98504560e01b8152600481019290925260248201929092526044810191909152606490fd5b5050565b60405190606082018281106001600160401b038211176126aa57604052565b6001600160401b0381116126aa5760051b60200190565b60405190604082018281106001600160401b038211176126aa576040526001825260203681840137565b604051602081018181106001600160401b038211176126aa5760405260008152906000368137565b9061314a826130d7565b61315760405191826126ca565b8281528092613168601f19916130d7565b0190602036910137565b9392916114749061318d6040936060885260608801906113c9565b908682036020880152611406565b906131a4612e66565b916131af81846138c0565b506131b86130ee565b6131c06130ee565b9080511561156e576001600160a01b038516602082015281511561156e57613215837f532f13a056b54c036d5c3fc8feef04beb2a99aa9aac9dfc1ae768acbb52a115394602085015260405193849384613172565b0390a1565b909392916001600160a01b0380861691908215610b195781156133685761324a613243836133b8565b9283613e3e565b9161325760085484612cc8565b9761326289856129f5565b968088106133475750906132bb8784937f29fadedc9c067ceeb57f3d2497d942790271fb6e607c73874532f99031c1f0d8957f000000000000000000000000000000000000000000000000000000000000000016613377565b7fb935df7c8ec5ab928816ed97360488365f862650eeaf5f9f96c9fc6897fb134b6132e46130ee565b6132ec6130ee565b90613309846132fa83612e45565b6001600160a01b039091169052565b8661331383612e45565b526133248760405193849384613172565b0390a1604080519485526020850188905284018990528116941691606090a49190565b604051631f5c25a360e01b8152600481019190915260248101889052604490fd5b50505050509050600090600090565b60405163a9059cbb60e01b60208201526001600160a01b039290921660248301526044808301939093529181526105f9916133b36064836126ca565b612fc6565b6133c06143ca565b8291925115612e97576133d592825192614c16565b509081519160005b8381106133f657604051636cdaa7bb60e01b8152600490fd5b6001600160a01b036134088284612e52565b51166134148482613d3d565b61342157506001016133dd565b935050505090565b919081101561156e5760051b0190565b35610722816106ac565b91908082526020809201929160005b828110613460575050505090565b9091929382806001928735613474816106ac565b848060a01b03168152019501910192919092613452565b95949391906134a291606088526060880191613443565b8581036020870152818152916001600160fb1b03821161055c5760409260209260051b8092848301370101930152565b5160038110156105aa5790565b94939261318d61147492604094606089526060890191613443565b8015801561357b575b612a6157620f42409081831015612a66578282038281116128ea576135288183612d94565b92848114612d12578209151582018092116128ea5781928261354b575b50505090565b61355d90613558846129e6565b612c8e565b101561356b575b8080613545565b61357591506129e6565b38613564565b508115613503565b6040516370a0823160e01b8152306004820152906001600160a01b037f000000000000000000000000000000000000000000000000000000000000000016602083602481845afa928315610987576000936136aa575b5082156136a157613601906135f060075485612d17565b938491828061368f575b50506129f5565b8015613648576136108161319b565b50604080518281526020810185905233917ffb024939c95e49083f2b22887a9c2d0ca4169bbecca9b2a86015ae5a1635832c91a29190565b506040517ffb024939c95e49083f2b22887a9c2d0ca4169bbecca9b2a86015ae5a1635832c3391806136868682919060206040840193600081520152565b0390a260009190565b61369a913390613377565b38826135fa565b50600091508190565b6136c391935060203d8111610a1257610a0381836126ca565b91386135d9565b6001600160a01b0381161561375b57604051600080928192368382378036810184815203915af43d15613752573d6001600160401b0381116126aa576040519061371e601f8201601f1916602001836126ca565b8152809260203d92013e5b156137315790565b80511561374057602081519101fd5b604051633badd6bb60e21b8152600490fd5b60609150613729565b6040516303bca7b760e01b8152600490fd5b600e54613782906001600160a01b03166136ca565b50565b60405190613792826126af565b60006060838281528260208201528260408201520152565b906040516137b7816126af565b60ff6003829460018060a01b038082541685526001820154166020850152600281015460408501520154169060038210156105aa5760600152565b6137fa613785565b506001600160a01b03166000818152600d602052604090205460ff161561383457600052600c602052610722610631604060002054611534565b6024906040519063c02219d960e01b82526004820152fd5b6000906138576143ca565b505080519060005b82811061386b57505050565b6138876001600160a01b036138808385612e52565b51166146e1565b858111613898575b5060010161385f565b9450600161388f565b919082604091031261055c57602082516138ba816106ac565b92015190565b906138da612b0d6138d56060611292866137f2565b6146ad565b613c04576001600160a01b03821660009081526009602052604090206138ff90612edc565b6001600160a01b0380821693919291908415613be357604080516314825f4560e31b81526004808201869052939082816024818b5afa978815610987576000918299613bc2575b50848316918286821603613b8c575083516370a0823160e01b8082527f000000000000000000000000000000000000000000000000000000000000000087166001600160a01b03811689840190815260209591939192919086908290819083010381865afa948515610987578a89918e8e94600099613b6d575b508c7f0000000000000000000000000000000000000000000000000000000000000000169e8f916139f092613d02565b825180809581946306f81a6b60e41b8352820190613a1090602083019252565b03915a90600091f198891561098757600091829a613b3a575b508390821603613b04575086519081526001600160a01b03909216888301908152849183918290819060200103915afa90811561098757613a7293600092613ae75750506129f5565b96808810613ab2575050818603613a90575050509061072291613c25565b51636232875560e11b8152918201858152602081019190915281906040010390fd5b8251636f85e6ff60e11b81526001600160a01b0390921682860190815260208101899052604081019190915281906060010390fd5b613afd9250803d10610a1257610a0381836126ca565b38806135fa565b875163e8eebd3760e01b81526001600160a01b03808e16828d01908152818a166020820152921660408301529081906060010390fd5b613b5e919a50849250893d8b11613b66575b613b5681836126ca565b8101906138a1565b999091613a29565b503d613b4c565b613b859199508a3d8c11610a1257610a0381836126ca565b97386139c0565b845163e8eebd3760e01b81526001600160a01b03808b16828a019081528187166020820152921660408301529081906060010390fd5b909850613bdc9150833d8511613b6657613b5681836126ca565b9738613946565b60405163dfc24d3d60e01b81526001600160a01b0383166004820152602490fd5b604051630f6762e560e01b81526001600160a01b0383166004820152602490fd5b60405163095ea7b360e01b60208083018281526001600160a01b03861660248501526000604485018190529295939493909290919085606481015b0393613c74601f19958681018952886126ca565b86519082875af16000513d82613cdd575b505015613c94575b5050505050565b60405160208101959095526001600160a01b031660248501526000604485015260649081018452613cd3936133b391613ccd90826126ca565b82612fc6565b3880808080613c8d565b909150613cfa57506001600160a01b0383163b15155b3880613c85565b600114613cf3565b60405163095ea7b360e01b60208083018281526001600160a01b03861660248501526044840196909652909491939060008560648101613c60565b908015613e3757604051630a28a47760e01b815260048101919091526020916001600160a01b039081168383602481845afa60009381613e18575b50613d865750505050600090565b8215613e0f576040516370a0823160e01b81527f0000000000000000000000000000000000000000000000000000000000000000929092166001600160a01b031660048301528390829081806024810103915afa92831561098757600093613df0575b5050111590565b613e07929350803d10610a1257610a0381836126ca565b903880613de9565b50505050600090565b613e30919450853d8711610a1257610a0381836126ca565b9238613d78565b5050600190565b90613e58612b0d613e536060611292866137f2565b6146ba565b613c04576001600160a01b0382166000908152600960205260409020613e7d90612edc565b6001600160a01b0380821693919291908415613be3578082169260408051630a28a47760e01b8152602097600494898380613ebf888a83019190602083019252565b03818b5afa928315610987576000936140a7575b5082156140825783516370a0823160e01b81526001600160a01b037f0000000000000000000000000000000000000000000000000000000000000000929092169182168782019081529192918b908290819060200103818c5afa90811561098757600091614065575b50831161405557813b1561055c57835163989a5e6760e01b81526001600160a01b03881681880190815260208101859052306040820152909260009184919082908490829060600103925af1908115610987576000938b93613fc893614042575b50613fa9818c8c613d02565b85519485809481936348b1933560e01b83528b83019190602083019252565b03925af197881561098757600098614023575b5050818710613ff257505050509061072291613c25565b51636f85e6ff60e11b81526001600160a01b0390931691830191825260208201869052604082015281906060010390fd5b61403a929850803d10610a1257610a0381836126ca565b953880613fdb565b8061097b61404f92612697565b38613f9d565b8351636cdaa7bb60e01b81528690fd5b61407c91508b3d8d11610a1257610a0381836126ca565b38613f3c565b83516352e4307960e11b81526001600160a01b03881681880190815281906020010390fd5b6140bf9193508a3d8c11610a1257610a0381836126ca565b9138613ed3565b6000939291845b8181106140da5750505050565b6140e48185612e52565b51806140f4575b506001016140cd565b614115906141068385879a959a613429565b35614110816106ac565b613e3e565b81018091116128ea579460016140eb565b9093929360009460005b82811061413e575050505050565b614149818387613429565b3580614159575b50600101614130565b6141678285879a949a613429565b35614171816106ac565b614185612b0d613e536060611292856137f2565b6143a7576001600160a01b03811660009081526009602052604090206141aa90612edc565b926001600160a01b039283851615614386576040516370a0823160e01b81527f000000000000000000000000000000000000000000000000000000000000000085166001600160a01b031660048201526020816024818789165afa90811561098757600091614367575b50811161435557837f0000000000000000000000000000000000000000000000000000000000000000163b1561055c5760405163989a5e6760e01b81526001600160a01b03841660048201526024810182905230604482015290600082606481837f00000000000000000000000000000000000000000000000000000000000000008a165af1908115610987576142da92602092614342575b506142bb8188888816613d02565b604051809381926348b1933560e01b8352600483019190602083019252565b03816000888a165af160009181614321575b50614303576040516371f1bd7d60e01b8152600490fd5b60019461431a94614315929416613c25565b6128ef565b9690614150565b61433b91925060203d602011610a1257610a0381836126ca565b90386142ec565b8061097b61434f92612697565b386142ad565b604051636cdaa7bb60e01b8152600490fd5b614380915060203d602011610a1257610a0381836126ca565b38614214565b60405163dfc24d3d60e01b81526001600160a01b0384166004820152602490fd5b604051630f6762e560e01b81526001600160a01b03919091166004820152602490fd5b600b54600091825b8281106144d1575082156144af576143e983613140565b926143fc6143f682613140565b91613140565b926000805b82811061441957505050614414906149ce565b509190565b61442561063182611534565b61442e8161463d565b61443c575b50600101614401565b8051614450906001600160a01b03166148b1565b15614433578260408261447b8b6132fa6001979861447589985160018060a01b031690565b92612e52565b805161448f906001600160a01b03166146e1565b614499848a612e52565b5201516144a6828a612e52565b52019190614433565b9150506144ba613118565b6144c2613118565b916144cb613118565b91929190565b6144dd61063182611534565b6144e68161463d565b6144f4575b506001016143d2565b51614507906001600160a01b03166148b1565b614512575b386144eb565b60019093019261450c565b600b54600091825b8281106145f1575082156144af5761453c83613140565b926145496143f682613140565b926000805b82811061456157505050614414906149ce565b61456d61063182611534565b61457681614670565b614584575b5060010161454e565b8051614598906001600160a01b03166147f7565b1561457b57826040826145bd8b6132fa6001979861447589985160018060a01b031690565b80516145d1906001600160a01b03166146e1565b6145db848a612e52565b5201516145e8828a612e52565b5201919061457b565b6145fd61063182611534565b61460681614670565b614614575b50600101614525565b51614627906001600160a01b03166147f7565b614632575b3861460b565b60019093019261462c565b606081015160038110156105aa57614654906146ba565b15612a6e57602001516001600160a01b031615612a7457600190565b606081015160038110156105aa57614687906146ad565b15612a6e5760208101516001600160a01b031615612a6e576040015115612a7457600190565b60038110156105aa571590565b6146c3816105a0565b80159081156146d0575090565b600291506146dd816105a0565b1490565b6040516370a0823160e01b81526001600160a01b037f000000000000000000000000000000000000000000000000000000000000000081166004830152909160209182846024818585165afa600094816147d8575b506147445750505050600090565b8315613e0f576001600160a01b038216600090815260096020526040902061476b90612edc565b16928315613e0f57604051630147414360e31b81526001600160a01b039290921660048301526024820152918190839060449082905afa9182916000936147b9575b50506107225750600090565b6147d0929350803d10610a1257610a0381836126ca565b9038806147ad565b6147f0919550843d8611610a1257610a0381836126ca565b9338614736565b6040516278744560e21b81526001600160a01b0391909116906020908181600481865afa9081614894575b5061482e575050600090565b60405163ef8b30f760e01b8152670de0b6b3a7640000600482015291819083908180602481015b03915afa918291600093614875575b50506148705750600090565b151590565b61488c929350803d10610a1257610a0381836126ca565b903880614864565b6148aa90833d8511610a1257610a0381836126ca565b5038614822565b6040516278744560e21b81526001600160a01b0391602091908316908281600481855afa908161498a575b506148e957505050600090565b6040516370a0823160e01b81527f0000000000000000000000000000000000000000000000000000000000000000939093166001600160a01b031660048401528183602481845afa9283156109875760009361496b575b508215612a665760405163266d6a8360e11b8152600481019390935281908390818060248101614855565b614983919350823d8411610a1257610a0381836126ca565b9138614940565b6149a090843d8611610a1257610a0381836126ca565b50386148dc565b60001981146128ea5760010190565b90620f4240918281029281840414901517156128ea57565b90815115614a6257600091825b8151841015614a08576149fc614a02916149f58685612e52565b51906128ef565b936149a7565b926149db565b9250614a148151613140565b9083156144145760005b8151811015614a5c5780614a4786614a42614a3c614a579587612e52565b516149b6565b612d08565b614a518286612e52565b526149a7565b614a1e565b50509190565b9050614a6c613118565b90600090565b9291908351815180911490811591614b82575b50610af557835115614b70578351916001928311614b5e57614aa691614b8e565b9060008181815b614b28575b505015614ac85750614ac49192614dec565b9091565b9050614ad26130ee565b90614adb6130ee565b9360005b828110614aed575050509190565b80614b18614b0e614b01614b239486612e52565b516001600160a01b031690565b6132fa8388612e52565b80614a518189612e52565b614adf565b8451811015614b5957614b3b8186612e52565b51614b4f57614b49906149a7565b81614aad565b5090508138614ab2565b614ab2565b60405163229bbef160e01b8152600490fd5b60405163012a9aeb60e31b8152600490fd5b90508251141538614a85565b9190918051835103610af557614ba48151613140565b926000805b8351811015614c1057614bbc8184612e52565b51614bc78286612e52565b511015614c0157614bd88184612e52565b5190614be48186612e52565b5182039182116128ea57614bfc91614a518289612e52565b614ba9565b8082614a51614bfc9389612e52565b50505050565b93918451825180911490811591614ce8575b50610af557845115614b70578315614cd65784518411614b5e57614c4b91614cf4565b91600092835b8151811015614ccd57614c648183612e52565b51614c7757614c72906149a7565b614c51565b509091925060015b15614c8e57614ac49293615005565b50614c9881613140565b90614ca281613140565b9360005b828110614cb4575050509190565b80614b18614b0e614b01614cc89486612e52565b614ca6565b50909192614c7f565b604051636eb50e3160e11b8152600490fd5b90508151141538614c28565b91908251815103610af557614d098351613140565b926000805b8251811015614c1057614d218184612e52565b51614d2c8286612e52565b511015614d6657614d3d8184612e52565b5190614d498186612e52565b5182039182116128ea57614d6191614a518289612e52565b614d0e565b8082614a51614d619389612e52565b90614d7f826130d7565b604090614d8e825191826126ca565b8381528093614d9f601f19916130d7565b0190600092835b838110614db4575050505050565b81519060608201918083106001600160401b038411176126aa5760209284528681528287818301528785830152828601015201614da6565b90614df78251614d75565b9160005b8151811015614e655780614e15614b01614e609385612e52565b614e1f8286612e52565b51614e3a614e2b6130b8565b6001600160a01b039093168352565b6020820152816040820152614e4f8287612e52565b52614e5a8186612e52565b506149a7565b614dfb565b505050906000915b60019283811015614f96578093602080614e878486612e52565b51015182614e94856128dc565b905b614f01575b505050508381614eb293949503614eb957506149a7565b9190614e6d565b614efa90614ec78386612e52565b51614ed28287612e52565b51614edd8588612e52565b52614ee88487612e52565b50614ef38287612e52565b5284612e52565b5038614e5a565b8551811015614f91578183614f168389612e52565b510151118015614f55575b614f36575b614f3084916149a7565b90614e96565b9650508582614f3083614f498489612e52565b51015192915050614f26565b508183614f628389612e52565b510151148015614f215750604080614f7a8389612e52565b51015190614f888a89612e52565b51015111614f21565b614e9b565b509150614fa16130ee565b614fa96130ee565b9260005b60018110614fbb5750509190565b80614fe7614fdd614fcf6150009486612e52565b51516001600160a01b031690565b6132fa8387612e52565b6040614ff38285612e52565b510151614a518288612e52565b614fad565b61500f8151614d75565b9360005b8251811015615068578061502d614b016150639386612e52565b6150378287612e52565b51615043614e2b6130b8565b60208201528160408201526150588289612e52565b52614e5a8188612e52565b615013565b509291505060005b8181106150cf575061508181613140565b9061508b81613140565b9360005b82811061509d575050509190565b806150b1614b0e614fcf6150ca9486612e52565b60406150bd8285612e52565b510151614a518289612e52565b61508f565b928392602092836150e08685612e52565b510151916150ed866128dc565b845181101561517a5783866151028388612e52565b51015111801561513e575b615120575b61511b906149a7565b6150ed565b965086925061511b856151338587612e52565b510151939050615112565b50838661514b8388612e52565b51015114801561510d57506040806151638388612e52565b510151906151718a88612e52565b5101511161510d565b509491509250615192919481810361519757506149a7565b615070565b614efa906151a58388612e52565b516151b08289612e52565b516151bb858a612e52565b526151c68489612e52565b506151d18289612e52565b5286612e5256fea26469706673582212205a2cb379f4d725bbd5f210f1c20f9c2f35bb5789f7509545cb6af19b03fdaa2f64736f6c634300081400332f8788117e7eff1d82e926ec794901d17c78024a50270940304540a733656f0d"
}