{
  "address": "0x93d2e552f0aC25927Bbd3f6C71CaB43B73A3ACdF",
  "abi": [
    {
      "inputs": [
        {
          "internalType": "address",
          "name": "_dStakeCollateralVault",
          "type": "address"
        },
        {
          "internalType": "address",
          "name": "_dStakeRouter",
          "type": "address"
        },
        {
          "internalType": "address",
          "name": "_dLendRewardsController",
          "type": "address"
        },
        {
          "internalType": "address",
          "name": "_targetStaticATokenWrapper",
          "type": "address"
        },
        {
          "internalType": "address",
          "name": "_dLendAssetToClaimFor",
          "type": "address"
        },
        {
          "internalType": "address",
          "name": "_treasury",
          "type": "address"
        },
        {
          "internalType": "uint256",
          "name": "_maxTreasuryFeeBps",
          "type": "uint256"
        },
        {
          "internalType": "uint256",
          "name": "_initialTreasuryFeeBps",
          "type": "uint256"
        },
        {
          "internalType": "uint256",
          "name": "_initialExchangeThreshold",
          "type": "uint256"
        }
      ],
      "stateMutability": "nonpayable",
      "type": "constructor"
    },
    {
      "inputs": [],
      "name": "AccessControlBadConfirmation",
      "type": "error"
    },
    {
      "inputs": [
        {
          "internalType": "address",
          "name": "account",
          "type": "address"
        },
        {
          "internalType": "bytes32",
          "name": "neededRole",
          "type": "bytes32"
        }
      ],
      "name": "AccessControlUnauthorizedAccount",
      "type": "error"
    },
    {
      "inputs": [],
      "name": "AdapterNotSetForDefaultAsset",
      "type": "error"
    },
    {
      "inputs": [
        {
          "internalType": "address",
          "name": "expected",
          "type": "address"
        },
        {
          "internalType": "address",
          "name": "actual",
          "type": "address"
        }
      ],
      "name": "AdapterReturnedUnexpectedAsset",
      "type": "error"
    },
    {
      "inputs": [],
      "name": "DefaultDepositAssetNotSet",
      "type": "error"
    },
    {
      "inputs": [
        {
          "internalType": "uint256",
          "name": "amount",
          "type": "uint256"
        },
        {
          "internalType": "uint256",
          "name": "threshold",
          "type": "uint256"
        }
      ],
      "name": "ExchangeAmountTooLow",
      "type": "error"
    },
    {
      "inputs": [
        {
          "internalType": "address",
          "name": "adapter",
          "type": "address"
        }
      ],
      "name": "InvalidAdapter",
      "type": "error"
    },
    {
      "inputs": [],
      "name": "InvalidRouter",
      "type": "error"
    },
    {
      "inputs": [
        {
          "internalType": "uint256",
          "name": "maxTreasuryFeeBps",
          "type": "uint256"
        }
      ],
      "name": "MaxTreasuryFeeTooHigh",
      "type": "error"
    },
    {
      "inputs": [],
      "name": "ReentrancyGuardReentrantCall",
      "type": "error"
    },
    {
      "inputs": [
        {
          "internalType": "uint256",
          "name": "claimedAmountsLength",
          "type": "uint256"
        },
        {
          "internalType": "uint256",
          "name": "rewardTokensLength",
          "type": "uint256"
        }
      ],
      "name": "RewardAmountsLengthMismatch",
      "type": "error"
    },
    {
      "inputs": [
        {
          "internalType": "address",
          "name": "token",
          "type": "address"
        }
      ],
      "name": "SafeERC20FailedOperation",
      "type": "error"
    },
    {
      "inputs": [
        {
          "internalType": "uint256",
          "name": "treasuryFee",
          "type": "uint256"
        },
        {
          "internalType": "uint256",
          "name": "rewardAmount",
          "type": "uint256"
        }
      ],
      "name": "TreasuryFeeExceedsRewardAmount",
      "type": "error"
    },
    {
      "inputs": [
        {
          "internalType": "uint256",
          "name": "treasuryFeeBps",
          "type": "uint256"
        },
        {
          "internalType": "uint256",
          "name": "maxTreasuryFeeBps",
          "type": "uint256"
        }
      ],
      "name": "TreasuryFeeTooHigh",
      "type": "error"
    },
    {
      "inputs": [],
      "name": "ZeroAddress",
      "type": "error"
    },
    {
      "inputs": [],
      "name": "ZeroExchangeAssetAddress",
      "type": "error"
    },
    {
      "inputs": [],
      "name": "ZeroExchangeThreshold",
      "type": "error"
    },
    {
      "inputs": [],
      "name": "ZeroReceiverAddress",
      "type": "error"
    },
    {
      "inputs": [],
      "name": "ZeroRewardTokens",
      "type": "error"
    },
    {
      "inputs": [],
      "name": "ZeroTreasuryAddress",
      "type": "error"
    },
    {
      "anonymous": false,
      "inputs": [
        {
          "indexed": false,
          "internalType": "address",
          "name": "oldController",
          "type": "address"
        },
        {
          "indexed": false,
          "internalType": "address",
          "name": "newController",
          "type": "address"
        }
      ],
      "name": "DLendRewardsControllerUpdated",
      "type": "event"
    },
    {
      "anonymous": false,
      "inputs": [
        {
          "indexed": true,
          "internalType": "address",
          "name": "token",
          "type": "address"
        },
        {
          "indexed": false,
          "internalType": "uint256",
          "name": "amount",
          "type": "uint256"
        },
        {
          "indexed": true,
          "internalType": "address",
          "name": "recipient",
          "type": "address"
        }
      ],
      "name": "EmergencyWithdraw",
      "type": "event"
    },
    {
      "anonymous": false,
      "inputs": [
        {
          "indexed": true,
          "internalType": "address",
          "name": "vaultAsset",
          "type": "address"
        },
        {
          "indexed": false,
          "internalType": "uint256",
          "name": "vaultAssetAmount",
          "type": "uint256"
        },
        {
          "indexed": false,
          "internalType": "uint256",
          "name": "dStableCompoundedAmount",
          "type": "uint256"
        }
      ],
      "name": "ExchangeAssetProcessed",
      "type": "event"
    },
    {
      "anonymous": false,
      "inputs": [
        {
          "indexed": false,
          "internalType": "uint256",
          "name": "oldExchangeThreshold",
          "type": "uint256"
        },
        {
          "indexed": false,
          "internalType": "uint256",
          "name": "newExchangeThreshold",
          "type": "uint256"
        }
      ],
      "name": "ExchangeThresholdUpdated",
      "type": "event"
    },
    {
      "anonymous": false,
      "inputs": [
        {
          "indexed": false,
          "internalType": "address",
          "name": "exchangeAsset",
          "type": "address"
        },
        {
          "indexed": false,
          "internalType": "uint256",
          "name": "amount",
          "type": "uint256"
        },
        {
          "indexed": false,
          "internalType": "address[]",
          "name": "rewardTokens",
          "type": "address[]"
        }
      ],
      "name": "RewardCompounded",
      "type": "event"
    },
    {
      "anonymous": false,
      "inputs": [
        {
          "indexed": true,
          "internalType": "bytes32",
          "name": "role",
          "type": "bytes32"
        },
        {
          "indexed": true,
          "internalType": "bytes32",
          "name": "previousAdminRole",
          "type": "bytes32"
        },
        {
          "indexed": true,
          "internalType": "bytes32",
          "name": "newAdminRole",
          "type": "bytes32"
        }
      ],
      "name": "RoleAdminChanged",
      "type": "event"
    },
    {
      "anonymous": false,
      "inputs": [
        {
          "indexed": true,
          "internalType": "bytes32",
          "name": "role",
          "type": "bytes32"
        },
        {
          "indexed": true,
          "internalType": "address",
          "name": "account",
          "type": "address"
        },
        {
          "indexed": true,
          "internalType": "address",
          "name": "sender",
          "type": "address"
        }
      ],
      "name": "RoleGranted",
      "type": "event"
    },
    {
      "anonymous": false,
      "inputs": [
        {
          "indexed": true,
          "internalType": "bytes32",
          "name": "role",
          "type": "bytes32"
        },
        {
          "indexed": true,
          "internalType": "address",
          "name": "account",
          "type": "address"
        },
        {
          "indexed": true,
          "internalType": "address",
          "name": "sender",
          "type": "address"
        }
      ],
      "name": "RoleRevoked",
      "type": "event"
    },
    {
      "anonymous": false,
      "inputs": [
        {
          "indexed": false,
          "internalType": "uint256",
          "name": "oldTreasuryFeeBps",
          "type": "uint256"
        },
        {
          "indexed": false,
          "internalType": "uint256",
          "name": "newTreasuryFeeBps",
          "type": "uint256"
        }
      ],
      "name": "TreasuryFeeBpsUpdated",
      "type": "event"
    },
    {
      "anonymous": false,
      "inputs": [
        {
          "indexed": false,
          "internalType": "address",
          "name": "oldTreasury",
          "type": "address"
        },
        {
          "indexed": false,
          "internalType": "address",
          "name": "newTreasury",
          "type": "address"
        }
      ],
      "name": "TreasuryUpdated",
      "type": "event"
    },
    {
      "inputs": [],
      "name": "DEFAULT_ADMIN_ROLE",
      "outputs": [
        {
          "internalType": "bytes32",
          "name": "",
          "type": "bytes32"
        }
      ],
      "stateMutability": "view",
      "type": "function"
    },
    {
      "inputs": [],
      "name": "REWARDS_MANAGER_ROLE",
      "outputs": [
        {
          "internalType": "bytes32",
          "name": "",
          "type": "bytes32"
        }
      ],
      "stateMutability": "view",
      "type": "function"
    },
    {
      "inputs": [
        {
          "internalType": "uint256",
          "name": "amount",
          "type": "uint256"
        },
        {
          "internalType": "address[]",
          "name": "rewardTokens",
          "type": "address[]"
        },
        {
          "internalType": "address",
          "name": "receiver",
          "type": "address"
        }
      ],
      "name": "compoundRewards",
      "outputs": [],
      "stateMutability": "nonpayable",
      "type": "function"
    },
    {
      "inputs": [],
      "name": "dLendAssetToClaimFor",
      "outputs": [
        {
          "internalType": "address",
          "name": "",
          "type": "address"
        }
      ],
      "stateMutability": "view",
      "type": "function"
    },
    {
      "inputs": [],
      "name": "dLendRewardsController",
      "outputs": [
        {
          "internalType": "contract IDLendRewardsController",
          "name": "",
          "type": "address"
        }
      ],
      "stateMutability": "view",
      "type": "function"
    },
    {
      "inputs": [],
      "name": "dStakeCollateralVault",
      "outputs": [
        {
          "internalType": "address",
          "name": "",
          "type": "address"
        }
      ],
      "stateMutability": "view",
      "type": "function"
    },
    {
      "inputs": [],
      "name": "dStakeRouter",
      "outputs": [
        {
          "internalType": "contract IDStakeRouterV2",
          "name": "",
          "type": "address"
        }
      ],
      "stateMutability": "view",
      "type": "function"
    },
    {
      "inputs": [
        {
          "internalType": "address",
          "name": "token",
          "type": "address"
        },
        {
          "internalType": "uint256",
          "name": "amount",
          "type": "uint256"
        }
      ],
      "name": "emergencyWithdraw",
      "outputs": [],
      "stateMutability": "nonpayable",
      "type": "function"
    },
    {
      "inputs": [],
      "name": "exchangeAsset",
      "outputs": [
        {
          "internalType": "address",
          "name": "",
          "type": "address"
        }
      ],
      "stateMutability": "view",
      "type": "function"
    },
    {
      "inputs": [],
      "name": "exchangeThreshold",
      "outputs": [
        {
          "internalType": "uint256",
          "name": "",
          "type": "uint256"
        }
      ],
      "stateMutability": "view",
      "type": "function"
    },
    {
      "inputs": [
        {
          "internalType": "bytes32",
          "name": "role",
          "type": "bytes32"
        }
      ],
      "name": "getRoleAdmin",
      "outputs": [
        {
          "internalType": "bytes32",
          "name": "",
          "type": "bytes32"
        }
      ],
      "stateMutability": "view",
      "type": "function"
    },
    {
      "inputs": [
        {
          "internalType": "uint256",
          "name": "amount",
          "type": "uint256"
        }
      ],
      "name": "getTreasuryFee",
      "outputs": [
        {
          "internalType": "uint256",
          "name": "",
          "type": "uint256"
        }
      ],
      "stateMutability": "view",
      "type": "function"
    },
    {
      "inputs": [
        {
          "internalType": "bytes32",
          "name": "role",
          "type": "bytes32"
        },
        {
          "internalType": "address",
          "name": "account",
          "type": "address"
        }
      ],
      "name": "grantRole",
      "outputs": [],
      "stateMutability": "nonpayable",
      "type": "function"
    },
    {
      "inputs": [
        {
          "internalType": "bytes32",
          "name": "role",
          "type": "bytes32"
        },
        {
          "internalType": "address",
          "name": "account",
          "type": "address"
        }
      ],
      "name": "hasRole",
      "outputs": [
        {
          "internalType": "bool",
          "name": "",
          "type": "bool"
        }
      ],
      "stateMutability": "view",
      "type": "function"
    },
    {
      "inputs": [],
      "name": "maxTreasuryFeeBps",
      "outputs": [
        {
          "internalType": "uint256",
          "name": "",
          "type": "uint256"
        }
      ],
      "stateMutability": "view",
      "type": "function"
    },
    {
      "inputs": [
        {
          "internalType": "bytes32",
          "name": "role",
          "type": "bytes32"
        },
        {
          "internalType": "address",
          "name": "callerConfirmation",
          "type": "address"
        }
      ],
      "name": "renounceRole",
      "outputs": [],
      "stateMutability": "nonpayable",
      "type": "function"
    },
    {
      "inputs": [
        {
          "internalType": "bytes32",
          "name": "role",
          "type": "bytes32"
        },
        {
          "internalType": "address",
          "name": "account",
          "type": "address"
        }
      ],
      "name": "revokeRole",
      "outputs": [],
      "stateMutability": "nonpayable",
      "type": "function"
    },
    {
      "inputs": [
        {
          "internalType": "address",
          "name": "_newDLendRewardsController",
          "type": "address"
        }
      ],
      "name": "setDLendRewardsController",
      "outputs": [],
      "stateMutability": "nonpayable",
      "type": "function"
    },
    {
      "inputs": [
        {
          "internalType": "uint256",
          "name": "newExchangeThreshold",
          "type": "uint256"
        }
      ],
      "name": "setExchangeThreshold",
      "outputs": [],
      "stateMutability": "nonpayable",
      "type": "function"
    },
    {
      "inputs": [
        {
          "internalType": "address",
          "name": "newTreasury",
          "type": "address"
        }
      ],
      "name": "setTreasury",
      "outputs": [],
      "stateMutability": "nonpayable",
      "type": "function"
    },
    {
      "inputs": [
        {
          "internalType": "uint256",
          "name": "newTreasuryFeeBps",
          "type": "uint256"
        }
      ],
      "name": "setTreasuryFeeBps",
      "outputs": [],
      "stateMutability": "nonpayable",
      "type": "function"
    },
    {
      "inputs": [
        {
          "internalType": "bytes4",
          "name": "interfaceId",
          "type": "bytes4"
        }
      ],
      "name": "supportsInterface",
      "outputs": [
        {
          "internalType": "bool",
          "name": "",
          "type": "bool"
        }
      ],
      "stateMutability": "view",
      "type": "function"
    },
    {
      "inputs": [],
      "name": "targetStaticATokenWrapper",
      "outputs": [
        {
          "internalType": "address",
          "name": "",
          "type": "address"
        }
      ],
      "stateMutability": "view",
      "type": "function"
    },
    {
      "inputs": [],
      "name": "treasury",
      "outputs": [
        {
          "internalType": "address",
          "name": "",
          "type": "address"
        }
      ],
      "stateMutability": "view",
      "type": "function"
    },
    {
      "inputs": [],
      "name": "treasuryFeeBps",
      "outputs": [
        {
          "internalType": "uint256",
          "name": "",
          "type": "uint256"
        }
      ],
      "stateMutability": "view",
      "type": "function"
    }
  ],
  "transactionHash": "0x97d8e4ca4f599ffeab3c435b11b7ffbdffce4d5ab203fe79735738d82bca1861",
  "args": [
    "0xf93Fb0aDd57133AecD56fA48350684B5A7A1A5b9",
    "0x2E89DF2934AFF1B671923a45BaCF2b21f3cf64A8",
    "0x04f07d28127d9c1D767664d961f9a20Bb8689579",
    "0xeb5260bAFf0F2018e2fAA4FC81d82d0De1c07776",
    "0x3D927cE50B4Ad904d247f4eb5c0A5a8989488Df8",
    "0x4B4B5cC616be4cd1947B93f2304d36b3e80D3ef6",
    50000,
    10000,
    "1000000000000000000"
  ],
  "numDeployments": 1,
  "solcInputHash": "fa7a26051a5dff239e5ac8472f29634e",
  "bytecode": "0x6101406040818152346200030b57819062001aa1803803809162000024828662000310565b8439610120928391810103126200030b5762000040836200034a565b6200004e602085016200034a565b6200005b8386016200034a565b916200006a606087016200034a565b9162000079608088016200034a565b936200008860a089016200034a565b60c089015160e08a01516101009a8b015189516306617c6960e11b8152966001600160a01b0396949093600493888616939290919060208b8781885afa9a8b15620003005760009b620002ba575b5060018055898b1615620002aa578916998a156200029a57620f424082116200028357818311620002655783156200025557608052600280546001600160a01b0319908116909b17905560a052600355825562000133336200035f565b506200013f33620003df565b501580156200024a575b80156200023f575b801562000234575b801562000229575b6200021b578460805116156200020d575090839160c0521660e052169060055416176005558452825262000195336200035f565b50620001a133620003df565b5051906115ff928362000482843960805183818161055e015281816106fd015261127c015260a0518381816104b70152610cc0015260c05183610519015260e051838181610c2c01526111d70152518281816102b201526109f90152518181816108180152610dc20152f35b885163466d7fef60e01b8152fd5b885163d92e233d60e01b8152fd5b508488161562000161565b508487161562000159565b508484161562000151565b508483161562000149565b8d516354a62ce560e01b81528690fd5b508c51636cef961f60e11b8152808601929092526024820152604490fd5b50846024918e519163a7519f3f60e01b8352820152fd5b8d516351dc806d60e11b81528690fd5b8d51631810b12760e21b81528690fd5b909a6020823d8211620002f7575b81620002d76020938362000310565b81010312620002f45750620002ec906200034a565b9938620000d6565b80fd5b3d9150620002c8565b8e513d6000823e3d90fd5b600080fd5b601f909101601f19168101906001600160401b038211908210176200033457604052565b634e487b7160e01b600052604160045260246000fd5b51906001600160a01b03821682036200030b57565b6001600160a01b031660008181527fad3228b676f7d3cd4284a5443f17f1962b36e491b30a40b2405849e597ba5fb5602052604081205490919060ff16620003db57818052816020526040822081835260205260408220600160ff19825416179055339160008051602062001a818339815191528180a4600190565b5090565b6001600160a01b031660008181527ff6c17da3865d9645546db4630d07c45803fb99f9b61dd452de8de1cd2159d25460205260408120549091907f51785d261c3b3e8c2cfe2d0e108b9ab2b1fb703ff9e9e49aba4ebdc85c36152b9060ff166200047c57808352826020526040832082845260205260408320600160ff1982541617905560008051602062001a81833981519152339380a4600190565b50509056fe608080604052600436101561001357600080fd5b60003560e01c90816301ffc9a714610df1575080631f52be6414610dac578063248a9ca314610d7d5780632f2ff15d14610d3e578063331fb00f14610ca257806336568abe14610c5b5780633c9f23f014610c165780634603be6f1461061857806349b40402146105fa57806356d1d4a21461058d5780635898ec3b1461054857806358a879131461050357806361d027b3146104da5780637dd38d9a1461049f57806391d148541461045257806395ccea67146103c7578063a1b2736a14610326578063a217fddf1461030a578063acfec690146102e1578063ae37f4791461029c578063d547741f1461025b578063e0dd245714610220578063e80cfa5e14610202578063eaff4592146101d95763f0f442601461013257600080fd5b346101d45760203660031901126101d45761014b610e5a565b610153610e70565b6001600160a01b0381811680156101c257600280546001600160a01b031981169092179055604080516001600160a01b0393909216831682529190921660208301527f4ab5be82436d353e61ca18726e984e561f5c1cc7c6d38b29d2553c790434705a9190819081015b0390a1005b6040516351dc806d60e11b8152600490fd5b600080fd5b346101d45760203660031901126101d45760206101fa60035460043561154c565b604051908152f35b346101d45760003660031901126101d4576020600354604051908152f35b346101d45760003660031901126101d45760206040517f51785d261c3b3e8c2cfe2d0e108b9ab2b1fb703ff9e9e49aba4ebdc85c36152b8152f35b346101d45760403660031901126101d45761029a60043561027a610e44565b90806000526000602052610295600160406000200154610f24565b610fc8565b005b346101d45760003660031901126101d4576040517f00000000000000000000000000000000000000000000000000000000000000006001600160a01b03168152602090f35b346101d45760003660031901126101d4576005546040516001600160a01b039091168152602090f35b346101d45760003660031901126101d457602060405160008152f35b346101d45760203660031901126101d45761033f610e5a565b610347610eea565b6001600160a01b0381811680156103b557600580546001600160a01b031981169092179055604080516001600160a01b0393909216831682529190921660208301527fd41ddf0add6cf5f4e7067e117b677c4bf3a6b26973090e908241a081fae54a4b9190819081016101bd565b60405163d92e233d60e01b8152600490fd5b346101d45760403660031901126101d4576103e0610e5a565b602435906103ec610eea565b6002546001600160a01b039081169182158015610448575b6103b5578161043a857faaeda929aa102e867049528ec7cd2499e3a2f8846e736ae7935f234dfbf500d9946020941695866110e5565b6002541693604051908152a3005b5081811615610404565b346101d45760403660031901126101d45761046b610e44565b600435600052600060205260406000209060018060a01b0316600052602052602060ff604060002054166040519015158152f35b346101d45760003660031901126101d45760206040517f00000000000000000000000000000000000000000000000000000000000000008152f35b346101d45760003660031901126101d4576002546040516001600160a01b039091168152602090f35b346101d45760003660031901126101d4576040517f00000000000000000000000000000000000000000000000000000000000000006001600160a01b03168152602090f35b346101d45760003660031901126101d4576040517f00000000000000000000000000000000000000000000000000000000000000006001600160a01b03168152602090f35b346101d45760203660031901126101d4576004356105a9610e70565b80156105e85760407f46c287b860f967b39d89a1692e6486d60e4d66ea2cde369816239edaf4e0656991600454908060045582519182526020820152a1005b6040516354a62ce560e01b8152600490fd5b346101d45760003660031901126101d4576020600454604051908152f35b346101d45760603660031901126101d45767ffffffffffffffff602435116101d4573660236024350112156101d45767ffffffffffffffff60243560040135116101d45736602480356004013560051b81350101116101d4576044356001600160a01b038116908190036101d457600260015414610c045760026001556004548060043510610be4575015610b8e576024356004013515610bd2576040516323b872dd60e01b60208201523360248201523060448201526004356064820152606481528060a081011067ffffffffffffffff60a083011117610b785760a081016040527f00000000000000000000000000000000000000000000000000000000000000006001600160a01b0316906107309082611128565b61073b6004356111b0565b604051906060820190825260043560208301526060604083015260243560040135905260808101906024803501918260005b602435600401358110610ba057847fc8efbc392b57771291983f003bd32ae9dc5e87ff1388a259b9acf272db4531d885850386a13015610b8e576107b660243560040135611184565b6107c360405191826110c3565b60046024350135808252601f19906107da90611184565b0136602083013760405180604081011067ffffffffffffffff604083011117610b7857604081016040526001815260203681830137805115610b62577f00000000000000000000000000000000000000000000000000000000000000006001600160a01b0316602082015260005b6024356004013581106109585750508051602435600401358103610934575060005b60243560040135811061087d5760018055005b6108878183611062565b516108946003548261154c565b81811161091757610912929161090d91610903906108e0816001600160a01b036108cd6108c889600460243501358e611076565b611086565b6002546001600160a01b031691166110e5565b6001600160a01b036108fc6108c887600460243501358c611076565b169261109a565b90604435906110e5565b61103d565b61086a565b6044916040519163270c46bf60e01b835260048301526024820152fd5b60449060405190631aff8a1160e01b82526004820152602435600401356024820152fd5b6001600160a01b036109746108c8836004602435013588611076565b169081156103b5576040516370a0823160e01b815230600482015291602083602481845afa928315610ad257600093610b2e575b506005546040516333028b9960e01b815260a06004820152855160a4820181905290916001600160a01b031690829060c482019060208901906000905b808210610b095750506000196024840152507f00000000000000000000000000000000000000000000000000000000000000006001600160a01b0316604483015230606483015260848201859052602092908290039082906000905af18015610ad257610ade575b506020602491604051928380926370a0823160e01b82523060048301525afa908115610ad257600091610a9e575b50610a9992610a899161109a565b610a938286611062565b5261103d565b610848565b90506020813d602011610aca575b81610ab9602093836110c3565b810103126101d45751610a99610a7b565b3d9150610aac565b6040513d6000823e3d90fd5b602090813d8311610b02575b610af481836110c3565b810103126101d45786610a4d565b503d610aea565b82516001600160a01b03168452869450602093840193909201916001909101906109e5565b9092506020813d602011610b5a575b81610b4a602093836110c3565b810103126101d4575191866109a8565b3d9150610b3d565b634e487b7160e01b600052603260045260246000fd5b634e487b7160e01b600052604160045260246000fd5b6040516313e6c64360e31b8152600490fd5b90918235906001600160a01b03821682036101d4576001600160a01b039091168152602090810192019060010161076d565b604051633ce287ef60e21b8152600490fd5b604490604051906301959e9f60e51b825260043560048301526024820152fd5b604051633ee5aeb560e01b8152600490fd5b346101d45760003660031901126101d4576040517f00000000000000000000000000000000000000000000000000000000000000006001600160a01b03168152602090f35b346101d45760403660031901126101d457610c74610e44565b336001600160a01b03821603610c905761029a90600435610fc8565b60405163334bd91960e11b8152600490fd5b346101d45760203660031901126101d457600435610cbe610e70565b7f0000000000000000000000000000000000000000000000000000000000000000808211610d1f577f7af7c1a20ca2d95ef775c520be0e875415f760d01d8ab209ad45bfe84839d68e604083600354908060035582519182526020820152a1005b604051636cef961f60e11b815260048101929092526024820152604490fd5b346101d45760403660031901126101d45761029a600435610d5d610e44565b90806000526000602052610d78600160406000200154610f24565b610f4a565b346101d45760203660031901126101d45760043560005260006020526020600160406000200154604051908152f35b346101d45760003660031901126101d4576040517f00000000000000000000000000000000000000000000000000000000000000006001600160a01b03168152602090f35b346101d45760203660031901126101d4576004359063ffffffff60e01b82168092036101d457602091637965db0b60e01b8114908115610e33575b5015158152f35b6301ffc9a760e01b14905083610e2c565b602435906001600160a01b03821682036101d457565b600435906001600160a01b03821682036101d457565b3360009081527ff6c17da3865d9645546db4630d07c45803fb99f9b61dd452de8de1cd2159d25460205260409020547f51785d261c3b3e8c2cfe2d0e108b9ab2b1fb703ff9e9e49aba4ebdc85c36152b9060ff1615610ecc5750565b6044906040519063e2517d3f60e01b82523360048301526024820152fd5b3360009081527fad3228b676f7d3cd4284a5443f17f1962b36e491b30a40b2405849e597ba5fb5602052604081205460ff1615610ecc5750565b80600052600060205260406000203360005260205260ff6040600020541615610ecc5750565b9060009180835282602052604083209160018060a01b03169182845260205260ff60408420541615600014610fc357808352826020526040832082845260205260408320600160ff198254161790557f2f8788117e7eff1d82e926ec794901d17c78024a50270940304540a733656f0d339380a4600190565b505090565b9060009180835282602052604083209160018060a01b03169182845260205260ff604084205416600014610fc35780835282602052604083208284526020526040832060ff1981541690557ff6391f5c32d9c69d2a47ea670b442974b53935d1edc7fd64eb21e047a839171b339380a4600190565b600019811461104c5760010190565b634e487b7160e01b600052601160045260246000fd5b8051821015610b625760209160051b010190565b9190811015610b625760051b0190565b356001600160a01b03811681036101d45790565b9190820391821161104c57565b6080810190811067ffffffffffffffff821117610b7857604052565b90601f8019910116810190811067ffffffffffffffff821117610b7857604052565b60405163a9059cbb60e01b60208201526001600160a01b03929092166024830152604480830193909352918152611126916111216064836110c3565b611128565b565b906000602091828151910182855af115610ad2576000513d61117b57506001600160a01b0381163b155b6111595750565b604051635274afe760e01b81526001600160a01b039091166004820152602490fd5b60011415611152565b67ffffffffffffffff8111610b785760051b60200190565b51906001600160a01b03821682036101d457565b90811561154857604080516356c5766360e11b8152926001600160a01b03919060209060047f0000000000000000000000000000000000000000000000000000000000000000851683888381845afa97881561153d57600098611506575b508588169586156114f65790849291865195868093630b4da09f60e41b82528a8683015260249889915afa9182156114eb576000926114b4575b5080821680156114a457875163095ea7b360e01b8187018181526001600160a01b03909516828a01908152602081018990527f00000000000000000000000000000000000000000000000000000000000000008516959192918891600091906112be90859060400103601f1981018652856110c3565b83519082895af16000513d82611488575b50501561144f575b5088516306f81a6b60e41b81528581018890529389858a816000875af198891561144457600095869a611404575b508a519288600081860183815287858801528160448801526044875261132a876110a7565b86519082875af16000513d826113e8575b5050156113b2575b505050505081169687036113835750507f34ae61830bdb58e6775b07f85ca1a832e6ea8a2485a6730c4f2399ddb6b9bf8f949596508351928352820152a2565b8551634ccd3caf60e01b81526001600160a01b03808b1693820193845290911660208301529081906040010390fd5b6113de94611121928d51928b84015282015260006044820152604481526113d8816110a7565b82611128565b3880808080611343565b9091506113fc5750823b15155b388061133b565b6001146113f5565b959099508a86813d831161143d575b61141d81836110c3565b8101031261143a5750866114308661119c565b9501519838611305565b80fd5b503d611413565b8a513d6000823e3d90fd5b6114829061147c8b51848a820152858c8201526000604482015260448152611476816110a7565b87611128565b85611128565b386112d7565b90915061149c5750843b15155b38806112cf565b600114611495565b8751630de1e8a360e41b81528490fd5b90918482813d83116114e4575b6114cb81836110c3565b8101031261143a57506114dd9061119c565b9038611248565b503d6114c1565b87513d6000823e3d90fd5b855163130e394160e01b81528390fd5b90978482813d8311611536575b61151d81836110c3565b8101031261143a575061152f9061119c565b963861120e565b503d611513565b85513d6000823e3d90fd5b9050565b90600019818309818302918280831092039180830392146115bd57620f424090828211156115aa577fde8f6cefed634549b62c77574f722e1ac57e23f24d8fd5cb790fb65668c26139940990828211900360fa1b910360061c170290565b634e487b7160005260116020526024601cfd5b5050620f42409150049056fea26469706673582212205fec6b474b7e043496c1eebb460fcecf13a135e80d219428eb1b4cb53a4263c464736f6c634300081400332f8788117e7eff1d82e926ec794901d17c78024a50270940304540a733656f0d"
}