{
  "address": "0xEdBCCD4fC36a67429f74376c36F134Ae3f28a88b",
  "abi": [
    {
      "inputs": [
        {
          "internalType": "address",
          "name": "dStakeToken_",
          "type": "address"
        },
        {
          "internalType": "address",
          "name": "collateralVault_",
          "type": "address"
        }
      ],
      "stateMutability": "nonpayable",
      "type": "constructor"
    },
    {
      "inputs": [],
      "name": "AccessControlBadConfirmation",
      "type": "error"
    },
    {
      "inputs": [
        {
          "internalType": "address",
          "name": "account",
          "type": "address"
        },
        {
          "internalType": "bytes32",
          "name": "neededRole",
          "type": "bytes32"
        }
      ],
      "name": "AccessControlUnauthorizedAccount",
      "type": "error"
    },
    {
      "inputs": [
        {
          "internalType": "address",
          "name": "adapter",
          "type": "address"
        },
        {
          "internalType": "address",
          "name": "expectedAsset",
          "type": "address"
        },
        {
          "internalType": "address",
          "name": "actualAsset",
          "type": "address"
        }
      ],
      "name": "AdapterAssetMismatch",
      "type": "error"
    },
    {
      "inputs": [
        {
          "internalType": "address",
          "name": "strategyShare",
          "type": "address"
        }
      ],
      "name": "AdapterNotFound",
      "type": "error"
    },
    {
      "inputs": [
        {
          "internalType": "uint256",
          "name": "actualShares",
          "type": "uint256"
        },
        {
          "internalType": "uint256",
          "name": "reportedShares",
          "type": "uint256"
        }
      ],
      "name": "AdapterSharesMismatch",
      "type": "error"
    },
    {
      "inputs": [
        {
          "internalType": "uint256",
          "name": "cap",
          "type": "uint256"
        },
        {
          "internalType": "uint256",
          "name": "currentManaged",
          "type": "uint256"
        },
        {
          "internalType": "uint256",
          "name": "incomingAssets",
          "type": "uint256"
        }
      ],
      "name": "DepositCapExceeded",
      "type": "error"
    },
    {
      "inputs": [],
      "name": "EmptyArrays",
      "type": "error"
    },
    {
      "inputs": [],
      "name": "EnforcedPause",
      "type": "error"
    },
    {
      "inputs": [],
      "name": "ExpectedPause",
      "type": "error"
    },
    {
      "inputs": [],
      "name": "IndexOutOfBounds",
      "type": "error"
    },
    {
      "inputs": [],
      "name": "InsufficientActiveVaults",
      "type": "error"
    },
    {
      "inputs": [],
      "name": "InvalidAmount",
      "type": "error"
    },
    {
      "inputs": [
        {
          "internalType": "uint256",
          "name": "newCap",
          "type": "uint256"
        },
        {
          "internalType": "uint256",
          "name": "currentManaged",
          "type": "uint256"
        }
      ],
      "name": "InvalidDepositCap",
      "type": "error"
    },
    {
      "inputs": [
        {
          "internalType": "uint256",
          "name": "count",
          "type": "uint256"
        }
      ],
      "name": "InvalidMaxVaultCount",
      "type": "error"
    },
    {
      "inputs": [
        {
          "internalType": "uint256",
          "name": "incentiveBps",
          "type": "uint256"
        },
        {
          "internalType": "uint256",
          "name": "maxBps",
          "type": "uint256"
        }
      ],
      "name": "InvalidReinvestIncentive",
      "type": "error"
    },
    {
      "inputs": [],
      "name": "InvalidVaultConfig",
      "type": "error"
    },
    {
      "inputs": [
        {
          "internalType": "uint256",
          "name": "feeBps",
          "type": "uint256"
        },
        {
          "internalType": "uint256",
          "name": "maxFeeBps",
          "type": "uint256"
        }
      ],
      "name": "InvalidWithdrawalFee",
      "type": "error"
    },
    {
      "inputs": [],
      "name": "NoLiquidityAvailable",
      "type": "error"
    },
    {
      "inputs": [],
      "name": "ReceiverZero",
      "type": "error"
    },
    {
      "inputs": [],
      "name": "ReentrancyGuardReentrantCall",
      "type": "error"
    },
    {
      "inputs": [
        {
          "internalType": "address",
          "name": "token",
          "type": "address"
        }
      ],
      "name": "SafeERC20FailedOperation",
      "type": "error"
    },
    {
      "inputs": [
        {
          "internalType": "uint256",
          "name": "shortfall",
          "type": "uint256"
        },
        {
          "internalType": "uint256",
          "name": "managedAssets",
          "type": "uint256"
        }
      ],
      "name": "SettlementShortfallTooHigh",
      "type": "error"
    },
    {
      "inputs": [
        {
          "internalType": "uint256",
          "name": "actualShares",
          "type": "uint256"
        },
        {
          "internalType": "uint256",
          "name": "minShares",
          "type": "uint256"
        }
      ],
      "name": "SharesBelowMinimum",
      "type": "error"
    },
    {
      "inputs": [
        {
          "internalType": "uint256",
          "name": "requestedShares",
          "type": "uint256"
        },
        {
          "internalType": "uint256",
          "name": "maxShares",
          "type": "uint256"
        }
      ],
      "name": "SharesExceedMaxRedeem",
      "type": "error"
    },
    {
      "inputs": [
        {
          "internalType": "address",
          "name": "asset",
          "type": "address"
        },
        {
          "internalType": "uint256",
          "name": "actualAmount",
          "type": "uint256"
        },
        {
          "internalType": "uint256",
          "name": "requiredAmount",
          "type": "uint256"
        }
      ],
      "name": "SlippageCheckFailed",
      "type": "error"
    },
    {
      "inputs": [
        {
          "internalType": "uint256",
          "name": "total",
          "type": "uint256"
        }
      ],
      "name": "TotalAllocationInvalid",
      "type": "error"
    },
    {
      "inputs": [],
      "name": "UnauthorizedConfigCaller",
      "type": "error"
    },
    {
      "inputs": [
        {
          "internalType": "address",
          "name": "vault",
          "type": "address"
        }
      ],
      "name": "VaultAlreadyExists",
      "type": "error"
    },
    {
      "inputs": [
        {
          "internalType": "address",
          "name": "strategyShare",
          "type": "address"
        },
        {
          "internalType": "address",
          "name": "existingAdapter",
          "type": "address"
        }
      ],
      "name": "VaultAssetManagedByDifferentAdapter",
      "type": "error"
    },
    {
      "inputs": [
        {
          "internalType": "address",
          "name": "vault",
          "type": "address"
        }
      ],
      "name": "VaultMustBeSuspended",
      "type": "error"
    },
    {
      "inputs": [
        {
          "internalType": "address",
          "name": "vault",
          "type": "address"
        }
      ],
      "name": "VaultNotActive",
      "type": "error"
    },
    {
      "inputs": [
        {
          "internalType": "address",
          "name": "vault",
          "type": "address"
        }
      ],
      "name": "VaultNotFound",
      "type": "error"
    },
    {
      "inputs": [
        {
          "internalType": "address",
          "name": "vault",
          "type": "address"
        },
        {
          "internalType": "uint256",
          "name": "targetBps",
          "type": "uint256"
        }
      ],
      "name": "VaultTargetNotZero",
      "type": "error"
    },
    {
      "inputs": [
        {
          "internalType": "uint256",
          "name": "expectedNet",
          "type": "uint256"
        },
        {
          "internalType": "uint256",
          "name": "actualNet",
          "type": "uint256"
        }
      ],
      "name": "WithdrawalShortfall",
      "type": "error"
    },
    {
      "inputs": [],
      "name": "ZeroAddress",
      "type": "error"
    },
    {
      "inputs": [
        {
          "internalType": "address",
          "name": "fromAsset",
          "type": "address"
        },
        {
          "internalType": "uint256",
          "name": "fromAmount",
          "type": "uint256"
        }
      ],
      "name": "ZeroInputDStableValue",
      "type": "error"
    },
    {
      "inputs": [
        {
          "internalType": "address",
          "name": "strategyShare",
          "type": "address"
        }
      ],
      "name": "ZeroPreviewWithdrawAmount",
      "type": "error"
    },
    {
      "anonymous": false,
      "inputs": [
        {
          "indexed": true,
          "internalType": "address",
          "name": "strategyShare",
          "type": "address"
        },
        {
          "indexed": false,
          "internalType": "address",
          "name": "adapterAddress",
          "type": "address"
        }
      ],
      "name": "AdapterRemoved",
      "type": "event"
    },
    {
      "anonymous": false,
      "inputs": [
        {
          "indexed": true,
          "internalType": "address",
          "name": "strategyShare",
          "type": "address"
        },
        {
          "indexed": false,
          "internalType": "address",
          "name": "adapterAddress",
          "type": "address"
        }
      ],
      "name": "AdapterSet",
      "type": "event"
    },
    {
      "anonymous": false,
      "inputs": [
        {
          "indexed": true,
          "internalType": "address",
          "name": "strategyShare",
          "type": "address"
        }
      ],
      "name": "DefaultDepositStrategyShareSet",
      "type": "event"
    },
    {
      "anonymous": false,
      "inputs": [
        {
          "indexed": false,
          "internalType": "uint256",
          "name": "previousCap",
          "type": "uint256"
        },
        {
          "indexed": false,
          "internalType": "uint256",
          "name": "newCap",
          "type": "uint256"
        }
      ],
      "name": "DepositCapUpdated",
      "type": "event"
    },
    {
      "anonymous": false,
      "inputs": [
        {
          "indexed": false,
          "internalType": "uint256",
          "name": "newDustTolerance",
          "type": "uint256"
        }
      ],
      "name": "DustToleranceSet",
      "type": "event"
    },
    {
      "anonymous": false,
      "inputs": [
        {
          "indexed": false,
          "internalType": "uint256",
          "name": "oldCount",
          "type": "uint256"
        },
        {
          "indexed": false,
          "internalType": "uint256",
          "name": "newCount",
          "type": "uint256"
        }
      ],
      "name": "MaxVaultCountUpdated",
      "type": "event"
    },
    {
      "anonymous": false,
      "inputs": [
        {
          "indexed": false,
          "internalType": "address",
          "name": "account",
          "type": "address"
        }
      ],
      "name": "Paused",
      "type": "event"
    },
    {
      "anonymous": false,
      "inputs": [
        {
          "indexed": false,
          "internalType": "uint256",
          "name": "newIncentiveBps",
          "type": "uint256"
        }
      ],
      "name": "ReinvestIncentiveSet",
      "type": "event"
    },
    {
      "anonymous": false,
      "inputs": [
        {
          "indexed": true,
          "internalType": "bytes32",
          "name": "role",
          "type": "bytes32"
        },
        {
          "indexed": true,
          "internalType": "bytes32",
          "name": "previousAdminRole",
          "type": "bytes32"
        },
        {
          "indexed": true,
          "internalType": "bytes32",
          "name": "newAdminRole",
          "type": "bytes32"
        }
      ],
      "name": "RoleAdminChanged",
      "type": "event"
    },
    {
      "anonymous": false,
      "inputs": [
        {
          "indexed": true,
          "internalType": "bytes32",
          "name": "role",
          "type": "bytes32"
        },
        {
          "indexed": true,
          "internalType": "address",
          "name": "account",
          "type": "address"
        },
        {
          "indexed": true,
          "internalType": "address",
          "name": "sender",
          "type": "address"
        }
      ],
      "name": "RoleGranted",
      "type": "event"
    },
    {
      "anonymous": false,
      "inputs": [
        {
          "indexed": true,
          "internalType": "bytes32",
          "name": "role",
          "type": "bytes32"
        },
        {
          "indexed": true,
          "internalType": "address",
          "name": "account",
          "type": "address"
        },
        {
          "indexed": true,
          "internalType": "address",
          "name": "sender",
          "type": "address"
        }
      ],
      "name": "RoleRevoked",
      "type": "event"
    },
    {
      "anonymous": false,
      "inputs": [
        {
          "indexed": false,
          "internalType": "uint256",
          "name": "previousShortfall",
          "type": "uint256"
        },
        {
          "indexed": false,
          "internalType": "uint256",
          "name": "newShortfall",
          "type": "uint256"
        }
      ],
      "name": "SettlementShortfallUpdated",
      "type": "event"
    },
    {
      "anonymous": false,
      "inputs": [
        {
          "indexed": false,
          "internalType": "uint256",
          "name": "amount",
          "type": "uint256"
        },
        {
          "indexed": false,
          "internalType": "address",
          "name": "vaultAsset",
          "type": "address"
        }
      ],
      "name": "SurplusSwept",
      "type": "event"
    },
    {
      "anonymous": false,
      "inputs": [
        {
          "indexed": false,
          "internalType": "address",
          "name": "account",
          "type": "address"
        }
      ],
      "name": "Unpaused",
      "type": "event"
    },
    {
      "anonymous": false,
      "inputs": [
        {
          "indexed": true,
          "internalType": "address",
          "name": "vault",
          "type": "address"
        },
        {
          "indexed": true,
          "internalType": "address",
          "name": "adapter",
          "type": "address"
        },
        {
          "indexed": false,
          "internalType": "uint256",
          "name": "targetBps",
          "type": "uint256"
        },
        {
          "indexed": false,
          "internalType": "enum DStakeRouterV2Storage.VaultStatus",
          "name": "status",
          "type": "uint8"
        }
      ],
      "name": "VaultConfigAdded",
      "type": "event"
    },
    {
      "anonymous": false,
      "inputs": [
        {
          "indexed": true,
          "internalType": "address",
          "name": "vault",
          "type": "address"
        }
      ],
      "name": "VaultConfigRemoved",
      "type": "event"
    },
    {
      "anonymous": false,
      "inputs": [
        {
          "indexed": true,
          "internalType": "address",
          "name": "vault",
          "type": "address"
        },
        {
          "indexed": true,
          "internalType": "address",
          "name": "adapter",
          "type": "address"
        },
        {
          "indexed": false,
          "internalType": "uint256",
          "name": "targetBps",
          "type": "uint256"
        },
        {
          "indexed": false,
          "internalType": "enum DStakeRouterV2Storage.VaultStatus",
          "name": "status",
          "type": "uint8"
        }
      ],
      "name": "VaultConfigUpdated",
      "type": "event"
    },
    {
      "anonymous": false,
      "inputs": [
        {
          "indexed": false,
          "internalType": "uint256",
          "name": "previousFeeBps",
          "type": "uint256"
        },
        {
          "indexed": false,
          "internalType": "uint256",
          "name": "newFeeBps",
          "type": "uint256"
        }
      ],
      "name": "WithdrawalFeeSet",
      "type": "event"
    },
    {
      "inputs": [],
      "name": "DEFAULT_ADMIN_ROLE",
      "outputs": [
        {
          "internalType": "bytes32",
          "name": "",
          "type": "bytes32"
        }
      ],
      "stateMutability": "view",
      "type": "function"
    },
    {
      "inputs": [],
      "name": "MAX_REINVEST_INCENTIVE_BPS",
      "outputs": [
        {
          "internalType": "uint256",
          "name": "",
          "type": "uint256"
        }
      ],
      "stateMutability": "view",
      "type": "function"
    },
    {
      "inputs": [],
      "name": "MAX_WITHDRAWAL_FEE_BPS",
      "outputs": [
        {
          "internalType": "uint256",
          "name": "",
          "type": "uint256"
        }
      ],
      "stateMutability": "view",
      "type": "function"
    },
    {
      "inputs": [
        {
          "internalType": "address",
          "name": "strategyShare",
          "type": "address"
        },
        {
          "internalType": "address",
          "name": "adapterAddress",
          "type": "address"
        }
      ],
      "name": "addAdapter",
      "outputs": [],
      "stateMutability": "nonpayable",
      "type": "function"
    },
    {
      "inputs": [
        {
          "internalType": "address",
          "name": "vault",
          "type": "address"
        },
        {
          "internalType": "address",
          "name": "adapter",
          "type": "address"
        },
        {
          "internalType": "uint256",
          "name": "targetBps",
          "type": "uint256"
        },
        {
          "internalType": "enum DStakeRouterV2Storage.VaultStatus",
          "name": "status",
          "type": "uint8"
        }
      ],
      "name": "addVaultConfig",
      "outputs": [],
      "stateMutability": "nonpayable",
      "type": "function"
    },
    {
      "inputs": [
        {
          "components": [
            {
              "internalType": "address",
              "name": "strategyVault",
              "type": "address"
            },
            {
              "internalType": "address",
              "name": "adapter",
              "type": "address"
            },
            {
              "internalType": "uint256",
              "name": "targetBps",
              "type": "uint256"
            },
            {
              "internalType": "enum DStakeRouterV2Storage.VaultStatus",
              "name": "status",
              "type": "uint8"
            }
          ],
          "internalType": "struct DStakeRouterV2Storage.VaultConfig",
          "name": "config",
          "type": "tuple"
        }
      ],
      "name": "addVaultConfig",
      "outputs": [],
      "stateMutability": "nonpayable",
      "type": "function"
    },
    {
      "inputs": [],
      "name": "clearDefaultDepositStrategyShare",
      "outputs": [],
      "stateMutability": "nonpayable",
      "type": "function"
    },
    {
      "inputs": [
        {
          "internalType": "uint256",
          "name": "amount",
          "type": "uint256"
        }
      ],
      "name": "clearShortfall",
      "outputs": [],
      "stateMutability": "nonpayable",
      "type": "function"
    },
    {
      "inputs": [],
      "name": "depositCap",
      "outputs": [
        {
          "internalType": "uint256",
          "name": "",
          "type": "uint256"
        }
      ],
      "stateMutability": "view",
      "type": "function"
    },
    {
      "inputs": [],
      "name": "dustTolerance",
      "outputs": [
        {
          "internalType": "uint256",
          "name": "",
          "type": "uint256"
        }
      ],
      "stateMutability": "view",
      "type": "function"
    },
    {
      "inputs": [
        {
          "internalType": "address",
          "name": "vault",
          "type": "address"
        }
      ],
      "name": "emergencyPauseVault",
      "outputs": [],
      "stateMutability": "nonpayable",
      "type": "function"
    },
    {
      "inputs": [
        {
          "internalType": "bytes32",
          "name": "role",
          "type": "bytes32"
        }
      ],
      "name": "getRoleAdmin",
      "outputs": [
        {
          "internalType": "bytes32",
          "name": "",
          "type": "bytes32"
        }
      ],
      "stateMutability": "view",
      "type": "function"
    },
    {
      "inputs": [],
      "name": "governanceModule",
      "outputs": [
        {
          "internalType": "address",
          "name": "",
          "type": "address"
        }
      ],
      "stateMutability": "view",
      "type": "function"
    },
    {
      "inputs": [
        {
          "internalType": "bytes32",
          "name": "role",
          "type": "bytes32"
        },
        {
          "internalType": "address",
          "name": "account",
          "type": "address"
        }
      ],
      "name": "grantRole",
      "outputs": [],
      "stateMutability": "nonpayable",
      "type": "function"
    },
    {
      "inputs": [
        {
          "internalType": "bytes32",
          "name": "role",
          "type": "bytes32"
        },
        {
          "internalType": "address",
          "name": "account",
          "type": "address"
        }
      ],
      "name": "hasRole",
      "outputs": [
        {
          "internalType": "bool",
          "name": "",
          "type": "bool"
        }
      ],
      "stateMutability": "view",
      "type": "function"
    },
    {
      "inputs": [],
      "name": "maxVaultCount",
      "outputs": [
        {
          "internalType": "uint256",
          "name": "",
          "type": "uint256"
        }
      ],
      "stateMutability": "view",
      "type": "function"
    },
    {
      "inputs": [],
      "name": "moduleMetadata",
      "outputs": [
        {
          "internalType": "bytes32",
          "name": "storageFingerprint",
          "type": "bytes32"
        },
        {
          "internalType": "address",
          "name": "dStakeTokenAddress",
          "type": "address"
        },
        {
          "internalType": "address",
          "name": "collateralVaultAddress",
          "type": "address"
        }
      ],
      "stateMutability": "view",
      "type": "function"
    },
    {
      "inputs": [],
      "name": "paused",
      "outputs": [
        {
          "internalType": "bool",
          "name": "",
          "type": "bool"
        }
      ],
      "stateMutability": "view",
      "type": "function"
    },
    {
      "inputs": [],
      "name": "rebalanceModule",
      "outputs": [
        {
          "internalType": "address",
          "name": "",
          "type": "address"
        }
      ],
      "stateMutability": "view",
      "type": "function"
    },
    {
      "inputs": [
        {
          "internalType": "uint256",
          "name": "delta",
          "type": "uint256"
        }
      ],
      "name": "recordShortfall",
      "outputs": [],
      "stateMutability": "nonpayable",
      "type": "function"
    },
    {
      "inputs": [],
      "name": "reinvestIncentiveBps",
      "outputs": [
        {
          "internalType": "uint256",
          "name": "",
          "type": "uint256"
        }
      ],
      "stateMutability": "view",
      "type": "function"
    },
    {
      "inputs": [
        {
          "internalType": "address",
          "name": "strategyShare",
          "type": "address"
        }
      ],
      "name": "removeAdapter",
      "outputs": [],
      "stateMutability": "nonpayable",
      "type": "function"
    },
    {
      "inputs": [
        {
          "internalType": "address",
          "name": "vault",
          "type": "address"
        }
      ],
      "name": "removeVault",
      "outputs": [],
      "stateMutability": "nonpayable",
      "type": "function"
    },
    {
      "inputs": [
        {
          "internalType": "address",
          "name": "vault",
          "type": "address"
        }
      ],
      "name": "removeVaultConfig",
      "outputs": [],
      "stateMutability": "nonpayable",
      "type": "function"
    },
    {
      "inputs": [
        {
          "internalType": "bytes32",
          "name": "role",
          "type": "bytes32"
        },
        {
          "internalType": "address",
          "name": "callerConfirmation",
          "type": "address"
        }
      ],
      "name": "renounceRole",
      "outputs": [],
      "stateMutability": "nonpayable",
      "type": "function"
    },
    {
      "inputs": [
        {
          "internalType": "bytes32",
          "name": "role",
          "type": "bytes32"
        },
        {
          "internalType": "address",
          "name": "account",
          "type": "address"
        }
      ],
      "name": "revokeRole",
      "outputs": [],
      "stateMutability": "nonpayable",
      "type": "function"
    },
    {
      "inputs": [
        {
          "internalType": "address",
          "name": "strategyShare",
          "type": "address"
        }
      ],
      "name": "setDefaultDepositStrategyShare",
      "outputs": [],
      "stateMutability": "nonpayable",
      "type": "function"
    },
    {
      "inputs": [
        {
          "internalType": "uint256",
          "name": "newCap",
          "type": "uint256"
        }
      ],
      "name": "setDepositCap",
      "outputs": [],
      "stateMutability": "nonpayable",
      "type": "function"
    },
    {
      "inputs": [
        {
          "internalType": "uint256",
          "name": "newDustTolerance",
          "type": "uint256"
        }
      ],
      "name": "setDustTolerance",
      "outputs": [],
      "stateMutability": "nonpayable",
      "type": "function"
    },
    {
      "inputs": [
        {
          "internalType": "uint256",
          "name": "newMax",
          "type": "uint256"
        }
      ],
      "name": "setMaxVaultCount",
      "outputs": [],
      "stateMutability": "nonpayable",
      "type": "function"
    },
    {
      "inputs": [
        {
          "internalType": "uint256",
          "name": "newIncentiveBps",
          "type": "uint256"
        }
      ],
      "name": "setReinvestIncentive",
      "outputs": [],
      "stateMutability": "nonpayable",
      "type": "function"
    },
    {
      "inputs": [
        {
          "components": [
            {
              "internalType": "address",
              "name": "strategyVault",
              "type": "address"
            },
            {
              "internalType": "address",
              "name": "adapter",
              "type": "address"
            },
            {
              "internalType": "uint256",
              "name": "targetBps",
              "type": "uint256"
            },
            {
              "internalType": "enum DStakeRouterV2Storage.VaultStatus",
              "name": "status",
              "type": "uint8"
            }
          ],
          "internalType": "struct DStakeRouterV2Storage.VaultConfig[]",
          "name": "configs",
          "type": "tuple[]"
        }
      ],
      "name": "setVaultConfigs",
      "outputs": [],
      "stateMutability": "nonpayable",
      "type": "function"
    },
    {
      "inputs": [
        {
          "internalType": "address",
          "name": "vault",
          "type": "address"
        },
        {
          "internalType": "enum DStakeRouterV2Storage.VaultStatus",
          "name": "status",
          "type": "uint8"
        }
      ],
      "name": "setVaultStatus",
      "outputs": [],
      "stateMutability": "nonpayable",
      "type": "function"
    },
    {
      "inputs": [
        {
          "internalType": "uint256",
          "name": "newFeeBps",
          "type": "uint256"
        }
      ],
      "name": "setWithdrawalFee",
      "outputs": [],
      "stateMutability": "nonpayable",
      "type": "function"
    },
    {
      "inputs": [],
      "name": "settlementShortfall",
      "outputs": [
        {
          "internalType": "uint256",
          "name": "",
          "type": "uint256"
        }
      ],
      "stateMutability": "view",
      "type": "function"
    },
    {
      "inputs": [
        {
          "internalType": "bytes4",
          "name": "interfaceId",
          "type": "bytes4"
        }
      ],
      "name": "supportsInterface",
      "outputs": [
        {
          "internalType": "bool",
          "name": "",
          "type": "bool"
        }
      ],
      "stateMutability": "view",
      "type": "function"
    },
    {
      "inputs": [
        {
          "internalType": "address",
          "name": "vault",
          "type": "address"
        }
      ],
      "name": "suspendVaultForRemoval",
      "outputs": [],
      "stateMutability": "nonpayable",
      "type": "function"
    },
    {
      "inputs": [
        {
          "internalType": "uint256",
          "name": "maxAmount",
          "type": "uint256"
        }
      ],
      "name": "sweepSurplus",
      "outputs": [],
      "stateMutability": "nonpayable",
      "type": "function"
    },
    {
      "inputs": [
        {
          "internalType": "address",
          "name": "vault",
          "type": "address"
        },
        {
          "internalType": "address",
          "name": "adapter",
          "type": "address"
        },
        {
          "internalType": "uint256",
          "name": "targetBps",
          "type": "uint256"
        },
        {
          "internalType": "enum DStakeRouterV2Storage.VaultStatus",
          "name": "status",
          "type": "uint8"
        }
      ],
      "name": "updateVaultConfig",
      "outputs": [],
      "stateMutability": "nonpayable",
      "type": "function"
    },
    {
      "inputs": [
        {
          "components": [
            {
              "internalType": "address",
              "name": "strategyVault",
              "type": "address"
            },
            {
              "internalType": "address",
              "name": "adapter",
              "type": "address"
            },
            {
              "internalType": "uint256",
              "name": "targetBps",
              "type": "uint256"
            },
            {
              "internalType": "enum DStakeRouterV2Storage.VaultStatus",
              "name": "status",
              "type": "uint8"
            }
          ],
          "internalType": "struct DStakeRouterV2Storage.VaultConfig",
          "name": "config",
          "type": "tuple"
        }
      ],
      "name": "updateVaultConfig",
      "outputs": [],
      "stateMutability": "nonpayable",
      "type": "function"
    },
    {
      "inputs": [
        {
          "internalType": "uint256",
          "name": "",
          "type": "uint256"
        }
      ],
      "name": "vaultConfigs",
      "outputs": [
        {
          "internalType": "address",
          "name": "strategyVault",
          "type": "address"
        },
        {
          "internalType": "address",
          "name": "adapter",
          "type": "address"
        },
        {
          "internalType": "uint256",
          "name": "targetBps",
          "type": "uint256"
        },
        {
          "internalType": "enum DStakeRouterV2Storage.VaultStatus",
          "name": "status",
          "type": "uint8"
        }
      ],
      "stateMutability": "view",
      "type": "function"
    },
    {
      "inputs": [
        {
          "internalType": "address",
          "name": "",
          "type": "address"
        }
      ],
      "name": "vaultExists",
      "outputs": [
        {
          "internalType": "bool",
          "name": "",
          "type": "bool"
        }
      ],
      "stateMutability": "view",
      "type": "function"
    },
    {
      "inputs": [
        {
          "internalType": "address",
          "name": "",
          "type": "address"
        }
      ],
      "name": "vaultToIndex",
      "outputs": [
        {
          "internalType": "uint256",
          "name": "",
          "type": "uint256"
        }
      ],
      "stateMutability": "view",
      "type": "function"
    }
  ],
  "transactionHash": "0xaee10b7b76dfad22b2413df6c1203e67cb6e1bc6d4d35d28628490719cafd69d",
  "args": [
    "0x20b1884c9347BEBC13E9aca1965c5Ae56b0a8590",
    "0xf93Fb0aDd57133AecD56fA48350684B5A7A1A5b9"
  ],
  "numDeployments": 1,
  "solcInputHash": "63c6b5a67c8da68e47696e48ce85ec7a",
  "bytecode": "0x60e06040523480156200001157600080fd5b5060405162002ff738038062002ff7833981016040819052620000349162000158565b6001805581816001600160a01b03821615806200005857506001600160a01b038116155b15620000775760405163d92e233d60e01b815260040160405180910390fd5b6001600160a01b03808316608052811660a0819052604080516306617c6960e11b8152905160009291630cc2f8d29160048083019260209291908290030181865afa158015620000cb573d6000803e3d6000fd5b505050506040513d601f19601f82011682018060405250810190620000f1919062000190565b90506001600160a01b0381166200011b5760405163d92e233d60e01b815260040160405180910390fd5b6001600160a01b031660c052505060016003555050600a600455620001b5565b80516001600160a01b03811681146200015357600080fd5b919050565b600080604083850312156200016c57600080fd5b62000177836200013b565b915062000187602084016200013b565b90509250929050565b600060208284031215620001a357600080fd5b620001ae826200013b565b9392505050565b60805160a05160c051612dda6200021d60003960008181610bb401528181610c4801528181610da001528181610e9101526121d10152600081816102b201528181611bc601528181611f630152818161212e0152612771015260006102910152612dda6000f3fe608060405234801561001057600080fd5b50600436106102695760003560e01c80638404c1c111610151578063cd24728b116100c3578063dbd5edc711610087578063dbd5edc7146105cb578063dc369c65146105d4578063df180cd514610592578063ecd041f1146105e7578063f343cff0146105ef578063f9b06b1c1461060257600080fd5b8063cd24728b14610577578063cd7c75051461057f578063ceb68c2314610592578063cf1638ba146105a5578063d547741f146105b857600080fd5b8063ac1e502511610115578063ac1e50251461051a578063ad07f2d11461052d578063b6783edd14610540578063c72a3dce14610548578063cabc3a481461055b578063cb4750cb1461056457600080fd5b80638404c1c1146104b957806386651203146104d957806391d14854146104ec5780639bb9461f146104ff578063a217fddf1461051257600080fd5b8063295891fd116101ea5780633a092075116101ae5780633a0920751461043f578063583d50fb14610452578063585cd34b146104755780635c975abb146104885780636dacd3d714610493578063772447f8146104a657600080fd5b8063295891fd146103d25780632b0a7032146103db5780632f2ff15d1461040657806334bad3201461041957806336568abe1461042c57600080fd5b80631e999814116102315780631e999814146103695780631f0f1398146103805780631fb51daa14610393578063204d44d1146103a6578063248a9ca3146103af57600080fd5b806301b2bdc61461026e57806301ffc9a7146102fb5780630f04b9781461031e57806311b2cd021461033357806316d3759514610346575b600080fd5b7faa07e19dc1a09ad498122c9564c3d9610395746397d8ff4f049dfd65cbf363227f00000000000000000000000000000000000000000000000000000000000000007f0000000000000000000000000000000000000000000000000000000000000000604080519384526001600160a01b0392831660208501529116908201526060015b60405180910390f35b61030e61030936600461296f565b610615565b60405190151581526020016102f2565b61033161032c366004612999565b61064c565b005b610331610341366004612a23565b610724565b61030e610354366004612a23565b600d6020526000908152604090205460ff1681565b61037260035481565b6040519081526020016102f2565b61033161038e366004612a54565b610818565b6103316103a1366004612a23565b610869565b61037260065481565b6103726103bd366004612aa5565b60009081526020819052604090206001015490565b61037260045481565b600e546103ee906001600160a01b031681565b6040516001600160a01b0390911681526020016102f2565b610331610414366004612abe565b610998565b610331610427366004612a54565b6109bd565b61033161043a366004612abe565b610a08565b61033161044d366004612aee565b610a40565b610465610460366004612aa5565b610a5a565b6040516102f29493929190612b3e565b610331610483366004612a23565b610aa3565b60025460ff1661030e565b6103316104a1366004612b73565b610ad4565b6103316104b4366004612a23565b610ae2565b6103726104c7366004612a23565b600c6020526000908152604090205481565b6103316104e7366004612aa5565b610aeb565b61030e6104fa366004612abe565b610b73565b61033161050d366004612aa5565b610b9c565b610372600081565b610331610528366004612aa5565b610f04565b61033161053b366004612aa5565b610f9d565b610372611038565b610331610556366004612aa5565b61104a565b61037260075481565b610331610572366004612aa5565b6110c2565b610331611129565b61033161058d366004612aee565b611133565b6103316105a0366004612a23565b611145565b6103316105b3366004612aa5565b611192565b6103316105c6366004612abe565b611238565b61037260055481565b6103316105e2366004612aa5565b61125d565b610372611292565b6103316105fd366004612ba1565b6112b5565b600f546103ee906001600160a01b031681565b60006001600160e01b03198216637965db0b60e01b148061064657506301ffc9a760e01b6001600160e01b03198316145b92915050565b600081815b8181101561068a5784848281811061066b5761066b612bd6565b90506080020160400135836106809190612c02565b9250600101610651565b50610696606480612c15565b6106a59061ffff166064612c3b565b63ffffffff1682146106d2576040516344e2e3c960e11b8152600481018390526024015b60405180910390fd5b6106da6113dd565b60005b8181101561071d576107158585838181106106fa576106fa612bd6565b9050608002018036038101906107109190612c5b565b611470565b6001016106dd565b5050505050565b6001600160a01b03818116600090815260096020526040902054166107675760405163dfc24d3d60e01b81526001600160a01b03821660048201526024016106c9565b6001600160a01b0381166000908152600d602052604090205460ff16156107ce576000610793826116bb565b90506107a4816060015160006117d7565b6107cc57604051630f6762e560e01b81526001600160a01b03831660048201526024016106c9565b505b600a80546001600160a01b0319166001600160a01b0383169081179091556040517fa2b4e93c3dbab8bd9cfadc119626143f2d49765b9a910ef4a873588634a36db390600090a250565b6108636040518060800160405280866001600160a01b03168152602001856001600160a01b0316815260200184815260200183600281111561085c5761085c612b06565b9052611845565b50505050565b6001600160a01b0381166000908152600d602052604090205460ff166108ad5760405163c02219d960e01b81526001600160a01b03821660048201526024016106c9565b6001600160a01b0381166000908152600c6020526040902054600b805460019190839081106108de576108de612bd6565b60009182526020909120600360049092020101805460ff1916600183600281111561090b5761090b612b06565b0217905550600b818154811061092357610923612bd6565b6000918252602090912060016004909202010154600b80546001600160a01b0392831692851691600080516020612d85833981519152918590811061096a5761096a612bd6565b906000526020600020906004020160020154600160405161098c929190612ce3565b60405180910390a35050565b6000828152602081905260409020600101546109b381611993565b610863838361199d565b6108636040518060800160405280866001600160a01b03168152602001856001600160a01b03168152602001848152602001836002811115610a0157610a01612b06565b9052611470565b6001600160a01b0381163314610a315760405163334bd91960e11b815260040160405180910390fd5b610a3b8282611a2f565b505050565b610a57610a5236839003830183612c5b565b611845565b50565b600b8181548110610a6a57600080fd5b600091825260209091206004909102018054600182015460028301546003909301546001600160a01b0392831694509116919060ff1684565b610aac81611a9a565b610a575760405163dfc24d3d60e01b81526001600160a01b03821660048201526024016106c9565b610ade8282611d27565b5050565b610a5781611ffe565b6000610af5612129565b90508115801590610b0557508082105b15610b2d57604051630e7f2d0160e01b815260048101839052602481018290526044016106c9565b600580549083905560408051828152602081018590527ffbe912fdd0185617e8cafd12d97b59175b90e15f5c629faf6413469af54ee080910160405180910390a1505050565b6000918252602082815260408084206001600160a01b0393909316845291905290205460ff1690565b6040516370a0823160e01b81523060048201526000907f00000000000000000000000000000000000000000000000000000000000000006001600160a01b0316906370a0823190602401602060405180830381865afa158015610c03573d6000803e3d6000fd5b505050506040513d601f19601f82011682018060405250810190610c279190612cf7565b905080600003610c7c576040516354f076c560e11b81526001600160a01b037f0000000000000000000000000000000000000000000000000000000000000000166004820152600060248201526044016106c9565b6000821580610c8a57508183115b610c945782610c96565b815b600a546001600160a01b039081166000908152600960205260409020549192501680610ce457600a5460405163dfc24d3d60e01b81526001600160a01b0390911660048201526024016106c9565b60008190506000816001600160a01b031663dd5ead8f6040518163ffffffff1660e01b8152600401602060405180830381865afa158015610d29573d6000803e3d6000fd5b505050506040513d601f19601f82011682018060405250810190610d4d9190612d10565b90506000610d5a826116bb565b9050610d6b816060015160006117d7565b610d9357604051630f6762e560e01b81526001600160a01b03831660048201526024016106c9565b610dc76001600160a01b037f000000000000000000000000000000000000000000000000000000000000000016858761224f565b6040516306f81a6b60e41b8152600481018690526000906001600160a01b03851690636f81a6b09060240160408051808303816000875af1158015610e10573d6000803e3d6000fd5b505050506040513d601f19601f82011682018060405250810190610e349190612d2d565b509050826001600160a01b0316816001600160a01b031614610e845760405163e8eebd3760e01b81526001600160a01b0380871660048301528085166024830152821660448201526064016106c9565b610eb96001600160a01b037f00000000000000000000000000000000000000000000000000000000000000001686600061224f565b604080518781526001600160a01b03831660208201527fde5535ecf375c1fc5a04be89bec3dee7e25472f1a743e5da0ee098dd9d700bad910160405180910390a15050505050505050565b610f0f606480612c15565b61ffff16811115610f4c5780610f26606480612c15565b6040516316d828c760e31b8152600481019290925261ffff1660248201526044016106c9565b600854818103610f5a575050565b600882905560408051828152602081018490527f28a572c8c759d40c2d26dcdaaefd9650e9e37ff11ee147ce0f645cd7664048cb91015b60405180910390a15050565b80600003610fa85750565b6000610fb2612129565b9050600082600654610fc49190612c02565b905081811115610ff1576040516374bac3cb60e01b815260048101829052602481018390526044016106c9565b600680549082905560408051828152602081018490527fcdbdd5e95c8a4fc489b41d752f5418832afa4925348aefddd50993622f71d53a910160405180910390a150505050565b611043606480612c15565b61ffff1681565b8015806110585750600b5481105b1561107957604051637bec533760e01b8152600481018290526024016106c9565b600454808203611087575050565b600482905560408051828152602081018490527f1d7cc0cfd277faf442dd7d57638a0405e4722d5a1cd16ee52920a8c8fa8462ab9101610f91565b806000036110cd5750565b6006548082106110e15760006006556110ef565b6110eb8282612d5b565b6006555b6006546040805183815260208101929092527fcdbdd5e95c8a4fc489b41d752f5418832afa4925348aefddd50993622f71d53a9101610f91565b611131612303565b565b610a5761071036839003830183612c5b565b6001600160a01b0381166000908152600d602052604090205460ff166111895760405163c02219d960e01b81526001600160a01b03821660048201526024016106c9565b610a5781612352565b61119d606480612c15565b6111ac9061ffff166014612c3b565b63ffffffff168111156111fc57806111c5606480612c15565b6111d49061ffff166014612c3b565b60405163682185c160e11b8152600481019290925263ffffffff1660248201526044016106c9565b60078190556040518181527fc0e71e1b0d90b99479d299cf430b0b2012d62800e07867893485b5c37616b57a906020015b60405180910390a150565b60008281526020819052604090206001015461125381611993565b6108638383611a2f565b60038190556040518181527fbd575a5650fa5dbcfe03ab798aec3c80a935c6d293729c1ede529f46efbfbd479060200161122d565b61129d606480612c15565b6112ac9061ffff166014612c3b565b63ffffffff1681565b6001600160a01b0382166000908152600d602052604090205460ff166112f95760405163c02219d960e01b81526001600160a01b03831660048201526024016106c9565b6001600160a01b0382166000908152600c6020526040812054600b80549192918390811061132957611329612bd6565b9060005260206000209060040201905082600281111561134b5761134b612b06565b600382015460ff16600281111561136457611364612b06565b0361136f5750505050565b60038101805484919060ff1916600183600281111561139057611390612b06565b02179055506001810154815460028301546040516001600160a01b039384169390921691600080516020612d85833981519152916113cf918890612ce3565b60405180910390a350505050565b600b5460005b81811015611463576000600b828154811061140057611400612bd6565b60009182526020909120600490910201546001600160a01b0316905061142581611ffe565b61142e81611a9a565b506001600160a01b03166000908152600c60209081526040808320839055600d9091529020805460ff191690556001016113e3565b50610a57600b6000612910565b80516001600160a01b03161580611492575060208101516001600160a01b0316155b156114b05760405163d92e233d60e01b815260040160405180910390fd5b80516001600160a01b03166000908152600d602052604090205460ff16156114f9578051604051634293864f60e01b81526001600160a01b0390911660048201526024016106c9565b600454600b541061151d57604051639d282ec960e01b815260040160405180910390fd5b600b8054600180820183556000929092528251600482027f0175b7a638427703f0dbe7bb9bbf987a2551717b34e79f33b5b1008d1fa01db9810180546001600160a01b039384166001600160a01b031991821617825560208701517f0175b7a638427703f0dbe7bb9bbf987a2551717b34e79f33b5b1008d1fa01dba840180549190951691161790925560408501517f0175b7a638427703f0dbe7bb9bbf987a2551717b34e79f33b5b1008d1fa01dbb82015560608501517f0175b7a638427703f0dbe7bb9bbf987a2551717b34e79f33b5b1008d1fa01dbc90910180549394869460ff19169083600281111561161657611616612b06565b02179055505082516001600160a01b039081166000908152600c6020908152604080832086905586519093168252600d8152919020805460ff1916600117905583519084015161166692506125b1565b81602001516001600160a01b031682600001516001600160a01b03167fdca30534a4262453618e5f6ba3e6e860c66f3385857da4242675fa53dea97ccb8460400151856060015160405161098c929190612ce3565b6116e36040805160808101825260008082526020820181905291810182905290606082015290565b6001600160a01b0382166000908152600d602052604090205460ff166117275760405163c02219d960e01b81526001600160a01b03831660048201526024016106c9565b6001600160a01b0382166000908152600c6020526040902054600b8054909190811061175557611755612bd6565b600091825260209182902060408051608081018252600490930290910180546001600160a01b03908116845260018201541693830193909352600280840154918301919091526003830154919291606084019160ff909116908111156117bd576117bd612b06565b60028111156117ce576117ce612b06565b90525092915050565b6000808260018111156117ec576117ec612b06565b0361180d57600083600281111561180557611805612b06565b149050610646565b600083600281111561182157611821612b06565b148061183e5750600283600281111561183c5761183c612b06565b145b9392505050565b80516001600160a01b03166000908152600d602052604090205460ff1661188d57805160405163c02219d960e01b81526001600160a01b0390911660048201526024016106c9565b80516001600160a01b03166000908152600c6020526040902054600b8054839190839081106118be576118be612bd6565b600091825260209182902083516004929092020180546001600160a01b03199081166001600160a01b0393841617825592840151600180830180549095169190931617909255604083015160028084019190915560608401516003840180549193909260ff1990921691849081111561193957611939612b06565b0217905550508251602084015161195092506125b1565b81602001516001600160a01b031682600001516001600160a01b0316600080516020612d858339815191528460400151856060015160405161098c929190612ce3565b610a578133612817565b60006119a98383610b73565b611a27576000838152602081815260408083206001600160a01b03861684529091529020805460ff191660011790556119df3390565b6001600160a01b0316826001600160a01b0316847f2f8788117e7eff1d82e926ec794901d17c78024a50270940304540a733656f0d60405160405180910390a4506001610646565b506000610646565b6000611a3b8383610b73565b15611a27576000838152602081815260408083206001600160a01b0386168085529252808320805460ff1916905551339286917ff6391f5c32d9c69d2a47ea670b442974b53935d1edc7fd64eb21e047a839171b9190a4506001610646565b6001600160a01b0380821660009081526009602052604081205490911680611ac55750600092915050565b6001600160a01b0383166000908152600d602052604090205460ff1615611ba7576001600160a01b0383166000908152600c6020526040812054600b80549091908110611b1457611b14612bd6565b6000918252602090912060049091020190506001600382015460ff166002811115611b4157611b41612b06565b14611b6a5760405163eb09b79960e01b81526001600160a01b03851660048201526024016106c9565b600281015415611ba5576002810154604051631d59d50160e01b81526001600160a01b038616600482015260248101919091526044016106c9565b505b6040516316ddcae760e01b81526001600160a01b0384811660048301527f000000000000000000000000000000000000000000000000000000000000000016906316ddcae790602401600060405180830381600087803b158015611c0a57600080fd5b505af1158015611c1e573d6000803e3d6000fd5b5050600a546001600160a01b038087169116039150611c41905057611c41612303565b6001600160a01b038316600090815260096020908152604080832080546001600160a01b0319169055600d90915290205460ff1615611cde576001600160a01b0383166000908152600c6020526040812054600b80549091908110611ca857611ca8612bd6565b906000526020600020906004020160010160006101000a8154816001600160a01b0302191690836001600160a01b031602179055505b6040516001600160a01b0382811682528416907f80d565a25be79c22ac744d2eb2cf727b98545a88dd1396b53ce6a045aacd55829060200160405180910390a250600192915050565b6001600160a01b0381161580611d4457506001600160a01b038216155b15611d625760405163d92e233d60e01b815260040160405180910390fd5b6000816001600160a01b031663dd5ead8f6040518163ffffffff1660e01b8152600401602060405180830381865afa158015611da2573d6000803e3d6000fd5b505050506040513d601f19601f82011682018060405250810190611dc69190612d10565b9050826001600160a01b0316816001600160a01b031614611e155760405163e8eebd3760e01b81526001600160a01b0380841660048301528085166024830152821660448201526064016106c9565b6001600160a01b038381166000908152600960205260409020541615801590611e5b57506001600160a01b03838116600090815260096020526040902054811690831614155b15611ea0576001600160a01b038381166000818152600960205260409081902054905163fa9938bf60e01b8152600481019290925290911660248201526044016106c9565b6001600160a01b03838116600090815260096020908152604080832080546001600160a01b03191694871694909417909355600d9052205460ff1615611f44576001600160a01b0383166000908152600c6020526040902054600b80548492908110611f0e57611f0e612bd6565b906000526020600020906004020160010160006101000a8154816001600160a01b0302191690836001600160a01b031602179055505b60405163820a118760e01b81526001600160a01b0384811660048301527f0000000000000000000000000000000000000000000000000000000000000000169063820a118790602401600060405180830381600087803b158015611fa757600080fd5b505af1925050508015611fb8575060015b506040516001600160a01b0383811682528416907fe5e39617beb2a298b9fa1c3928582d9a96ba7ef7c920acd1117d1d415568670a9060200160405180910390a2505050565b6001600160a01b0381166000908152600d602052604090205460ff166120425760405163c02219d960e01b81526001600160a01b03821660048201526024016106c9565b6001600160a01b0381166000908152600c6020526040812054600b80549192918390811061207257612072612bd6565b60009182526020822060049091020191506001600383015460ff16600281111561209e5761209e612b06565b146120b7575060038101805460ff191660019081179091555b6002820154156120cc57506000600282015560015b600a546001600160a01b038086169116036120e9576120e9612303565b80156108635760018083015460028401546040516001600160a01b039283169392881692600080516020612d85833981519152926113cf92909190612ce3565b6000807f00000000000000000000000000000000000000000000000000000000000000006001600160a01b031663e015e7066040518163ffffffff1660e01b8152600401602060405180830381865afa15801561218a573d6000803e3d6000fd5b505050506040513d601f19601f820116820180604052508101906121ae9190612cf7565b6040516370a0823160e01b81523060048201529091506000906001600160a01b037f000000000000000000000000000000000000000000000000000000000000000016906370a0823190602401602060405180830381865afa158015612218573d6000803e3d6000fd5b505050506040513d601f19601f8201168201806040525081019061223c9190612cf7565b90506122488183612c02565b9250505090565b604080516001600160a01b038416602482015260448082018490528251808303909101815260649091019091526020810180516001600160e01b031663095ea7b360e01b1790526122a08482612850565b61086357604080516001600160a01b038516602482015260006044808301919091528251808303909101815260649091019091526020810180516001600160e01b031663095ea7b360e01b1790526122f990859061289f565b610863848261289f565b600a546001600160a01b031661231557565b600a80546001600160a01b03191690556040516000907fa2b4e93c3dbab8bd9cfadc119626143f2d49765b9a910ef4a873588634a36db3908290a2565b6001600160a01b0381166000908152600c6020526040812054600b5490919061237d90600190612d5b565b905061238883611ffe565b6001600160a01b0383811660009081526009602052604090205416156123b3576123b183611a9a565b505b808214612501576000600b82815481106123cf576123cf612bd6565b600091825260209182902060408051608081018252600490930290910180546001600160a01b03908116845260018201541693830193909352600280840154918301919091526003830154919291606084019160ff9091169081111561243757612437612b06565b600281111561244857612448612b06565b81525050905080600b848154811061246257612462612bd6565b600091825260209182902083516004929092020180546001600160a01b03199081166001600160a01b0393841617825592840151600180830180549095169190931617909255604083015160028084019190915560608401516003840180549193909260ff199092169184908111156124dd576124dd612b06565b02179055505090516001600160a01b03166000908152600c60205260409020839055505b600b80548061251257612512612d6e565b6000828152602080822060046000199094019384020180546001600160a01b03199081168255600182018054909116905560028101839055600301805460ff19908116909155929093556001600160a01b038616808252600c84526040808320839055600d9094528382208054909316909255915190917f1c03dfa30b2c4f1bd639f8142365488575300c0ea2b74c6e17edff9093c4676f91a2505050565b6001600160a01b0380831660009081526009602052604090205481169082166125ec576001600160a01b03811615610a3b5761086383611a9a565b6001600160a01b0381161561280d576000826001600160a01b031663dd5ead8f6040518163ffffffff1660e01b8152600401602060405180830381865afa15801561263b573d6000803e3d6000fd5b505050506040513d601f19601f8201168201806040525081019061265f9190612d10565b9050836001600160a01b0316816001600160a01b0316146126ae5760405163e8eebd3760e01b81526001600160a01b0380851660048301528086166024830152821660448201526064016106c9565b6001600160a01b03848116600090815260096020908152604080832080546001600160a01b03191694881694909417909355600d9052205460ff1615612752576001600160a01b0384166000908152600c6020526040902054600b8054859290811061271c5761271c612bd6565b906000526020600020906004020160010160006101000a8154816001600160a01b0302191690836001600160a01b031602179055505b60405163820a118760e01b81526001600160a01b0385811660048301527f0000000000000000000000000000000000000000000000000000000000000000169063820a118790602401600060405180830381600087803b1580156127b557600080fd5b505af19250505080156127c6575060015b506040516001600160a01b0384811682528516907fe5e39617beb2a298b9fa1c3928582d9a96ba7ef7c920acd1117d1d415568670a9060200160405180910390a250505050565b610a3b8383611d27565b6128218282610b73565b610ade5760405163e2517d3f60e01b81526001600160a01b0382166004820152602481018390526044016106c9565b6000806000806020600086516020880160008a5af192503d91506000519050828015612895575081156128865780600114612895565b6000866001600160a01b03163b115b9695505050505050565b600080602060008451602086016000885af1806128c2576040513d6000823e3d81fd5b50506000513d915081156128da5780600114156128e7565b6001600160a01b0384163b155b1561086357604051635274afe760e01b81526001600160a01b03851660048201526024016106c9565b5080546000825560040290600052602060002090810190610a5791905b8082111561296b5780546001600160a01b0319908116825560018201805490911690556000600282015560038101805460ff1916905560040161292d565b5090565b60006020828403121561298157600080fd5b81356001600160e01b03198116811461183e57600080fd5b600080602083850312156129ac57600080fd5b823567ffffffffffffffff808211156129c457600080fd5b818501915085601f8301126129d857600080fd5b8135818111156129e757600080fd5b8660208260071b85010111156129fc57600080fd5b60209290920196919550909350505050565b6001600160a01b0381168114610a5757600080fd5b600060208284031215612a3557600080fd5b813561183e81612a0e565b803560038110612a4f57600080fd5b919050565b60008060008060808587031215612a6a57600080fd5b8435612a7581612a0e565b93506020850135612a8581612a0e565b925060408501359150612a9a60608601612a40565b905092959194509250565b600060208284031215612ab757600080fd5b5035919050565b60008060408385031215612ad157600080fd5b823591506020830135612ae381612a0e565b809150509250929050565b600060808284031215612b0057600080fd5b50919050565b634e487b7160e01b600052602160045260246000fd5b60038110612b3a57634e487b7160e01b600052602160045260246000fd5b9052565b6001600160a01b038581168252841660208201526040810183905260808101612b6a6060830184612b1c565b95945050505050565b60008060408385031215612b8657600080fd5b8235612b9181612a0e565b91506020830135612ae381612a0e565b60008060408385031215612bb457600080fd5b8235612bbf81612a0e565b9150612bcd60208401612a40565b90509250929050565b634e487b7160e01b600052603260045260246000fd5b634e487b7160e01b600052601160045260246000fd5b8082018082111561064657610646612bec565b61ffff818116838216028082169190828114612c3357612c33612bec565b505092915050565b63ffffffff818116838216028082169190828114612c3357612c33612bec565b600060808284031215612c6d57600080fd5b6040516080810181811067ffffffffffffffff82111715612c9e57634e487b7160e01b600052604160045260246000fd5b6040528235612cac81612a0e565b81526020830135612cbc81612a0e565b602082015260408381013590820152612cd760608401612a40565b60608201529392505050565b8281526040810161183e6020830184612b1c565b600060208284031215612d0957600080fd5b5051919050565b600060208284031215612d2257600080fd5b815161183e81612a0e565b60008060408385031215612d4057600080fd5b8251612d4b81612a0e565b6020939093015192949293505050565b8181038181111561064657610646612bec565b634e487b7160e01b600052603160045260246000fdfe0190bc976bd071d0004a69a0d2049dffb881be351f92df9a1799aba69379f1dca2646970667358221220c7fd81dca3e5ed8f5afd99a41d1f6aeff606db61d591a942073efe0df96e5c6564736f6c63430008160033",
  "devdoc": {
    "details": "This contract is designed to be delegate-called from the router. Storage layout **must** match the router's      layout for all shared state variables, including inherited OpenZeppelin base contracts. Access control checks      are enforced at the router level before delegating to this module.",
    "errors": {
      "AccessControlBadConfirmation()": [
        {
          "details": "The caller of a function is not the expected one. NOTE: Don't confuse with {AccessControlUnauthorizedAccount}."
        }
      ],
      "AccessControlUnauthorizedAccount(address,bytes32)": [
        {
          "details": "The `account` is missing a role."
        }
      ],
      "EnforcedPause()": [
        {
          "details": "The operation failed because the contract is paused."
        }
      ],
      "ExpectedPause()": [
        {
          "details": "The operation failed because the contract is not paused."
        }
      ],
      "ReentrancyGuardReentrantCall()": [
        {
          "details": "Unauthorized reentrant call."
        }
      ],
      "SafeERC20FailedOperation(address)": [
        {
          "details": "An operation with an ERC-20 token failed."
        }
      ]
    },
    "events": {
      "Paused(address)": {
        "details": "Emitted when the pause is triggered by `account`."
      },
      "RoleAdminChanged(bytes32,bytes32,bytes32)": {
        "details": "Emitted when `newAdminRole` is set as ``role``'s admin role, replacing `previousAdminRole` `DEFAULT_ADMIN_ROLE` is the starting admin for all roles, despite {RoleAdminChanged} not being emitted to signal this."
      },
      "RoleGranted(bytes32,address,address)": {
        "details": "Emitted when `account` is granted `role`. `sender` is the account that originated the contract call. This account bears the admin role (for the granted role). Expected in cases where the role was granted using the internal {AccessControl-_grantRole}."
      },
      "RoleRevoked(bytes32,address,address)": {
        "details": "Emitted when `account` is revoked `role`. `sender` is the account that originated the contract call:   - if using `revokeRole`, it is the admin role bearer   - if using `renounceRole`, it is the role bearer (i.e. `account`)"
      },
      "Unpaused(address)": {
        "details": "Emitted when the pause is lifted by `account`."
      }
    },
    "kind": "dev",
    "methods": {
      "getRoleAdmin(bytes32)": {
        "details": "Returns the admin role that controls `role`. See {grantRole} and {revokeRole}. To change a role's admin, use {_setRoleAdmin}."
      },
      "grantRole(bytes32,address)": {
        "details": "Grants `role` to `account`. If `account` had not been already granted `role`, emits a {RoleGranted} event. Requirements: - the caller must have ``role``'s admin role. May emit a {RoleGranted} event."
      },
      "hasRole(bytes32,address)": {
        "details": "Returns `true` if `account` has been granted `role`."
      },
      "moduleMetadata()": {
        "returns": {
          "collateralVaultAddress": "Immutable collateral vault address baked into the module.",
          "dStakeTokenAddress": "Immutable dSTAKE token address baked into the module.",
          "storageFingerprint": "Unique identifier for the expected storage layout version."
        }
      },
      "paused()": {
        "details": "Returns true if the contract is paused, and false otherwise."
      },
      "renounceRole(bytes32,address)": {
        "details": "Revokes `role` from the calling account. Roles are often managed via {grantRole} and {revokeRole}: this function's purpose is to provide a mechanism for accounts to lose their privileges if they are compromised (such as when a trusted device is misplaced). If the calling account had been revoked `role`, emits a {RoleRevoked} event. Requirements: - the caller must be `callerConfirmation`. May emit a {RoleRevoked} event."
      },
      "revokeRole(bytes32,address)": {
        "details": "Revokes `role` from `account`. If `account` had been granted `role`, emits a {RoleRevoked} event. Requirements: - the caller must have ``role``'s admin role. May emit a {RoleRevoked} event."
      },
      "supportsInterface(bytes4)": {
        "details": "Returns true if this contract implements the interface defined by `interfaceId`. See the corresponding https://eips.ethereum.org/EIPS/eip-165#how-interfaces-are-identified[ERC section] to learn more about how these ids are created. This function call must use less than 30 000 gas."
      }
    },
    "title": "DStakeRouterV2GovernanceModule",
    "version": 1
  },
  "userdoc": {
    "kind": "user",
    "methods": {
      "moduleMetadata()": {
        "notice": "Returns module wiring metadata used to validate compatibility during router configuration."
      }
    },
    "notice": "Contains governance and configuration mutators for {@link DStakeRouterV2} executed via delegatecall.",
    "version": 1
  },
  "storageLayout": {
    "storage": [
      {
        "astId": 27,
        "contract": "contracts/vaults/dstake/DStakeRouterV2GovernanceModule.sol:DStakeRouterV2GovernanceModule",
        "label": "_roles",
        "offset": 0,
        "slot": "0",
        "type": "t_mapping(t_bytes32,t_struct(RoleData)22_storage)"
      },
      {
        "astId": 1408,
        "contract": "contracts/vaults/dstake/DStakeRouterV2GovernanceModule.sol:DStakeRouterV2GovernanceModule",
        "label": "_status",
        "offset": 0,
        "slot": "1",
        "type": "t_uint256"
      },
      {
        "astId": 1298,
        "contract": "contracts/vaults/dstake/DStakeRouterV2GovernanceModule.sol:DStakeRouterV2GovernanceModule",
        "label": "_paused",
        "offset": 0,
        "slot": "2",
        "type": "t_bool"
      },
      {
        "astId": 6715,
        "contract": "contracts/vaults/dstake/DStakeRouterV2GovernanceModule.sol:DStakeRouterV2GovernanceModule",
        "label": "dustTolerance",
        "offset": 0,
        "slot": "3",
        "type": "t_uint256"
      },
      {
        "astId": 6717,
        "contract": "contracts/vaults/dstake/DStakeRouterV2GovernanceModule.sol:DStakeRouterV2GovernanceModule",
        "label": "maxVaultCount",
        "offset": 0,
        "slot": "4",
        "type": "t_uint256"
      },
      {
        "astId": 6719,
        "contract": "contracts/vaults/dstake/DStakeRouterV2GovernanceModule.sol:DStakeRouterV2GovernanceModule",
        "label": "depositCap",
        "offset": 0,
        "slot": "5",
        "type": "t_uint256"
      },
      {
        "astId": 6721,
        "contract": "contracts/vaults/dstake/DStakeRouterV2GovernanceModule.sol:DStakeRouterV2GovernanceModule",
        "label": "settlementShortfall",
        "offset": 0,
        "slot": "6",
        "type": "t_uint256"
      },
      {
        "astId": 6723,
        "contract": "contracts/vaults/dstake/DStakeRouterV2GovernanceModule.sol:DStakeRouterV2GovernanceModule",
        "label": "reinvestIncentiveBps",
        "offset": 0,
        "slot": "7",
        "type": "t_uint256"
      },
      {
        "astId": 6725,
        "contract": "contracts/vaults/dstake/DStakeRouterV2GovernanceModule.sol:DStakeRouterV2GovernanceModule",
        "label": "_withdrawalFeeBps",
        "offset": 0,
        "slot": "8",
        "type": "t_uint256"
      },
      {
        "astId": 6729,
        "contract": "contracts/vaults/dstake/DStakeRouterV2GovernanceModule.sol:DStakeRouterV2GovernanceModule",
        "label": "_strategyShareToAdapter",
        "offset": 0,
        "slot": "9",
        "type": "t_mapping(t_address,t_address)"
      },
      {
        "astId": 6731,
        "contract": "contracts/vaults/dstake/DStakeRouterV2GovernanceModule.sol:DStakeRouterV2GovernanceModule",
        "label": "_defaultDepositStrategyShare",
        "offset": 0,
        "slot": "10",
        "type": "t_address"
      },
      {
        "astId": 6752,
        "contract": "contracts/vaults/dstake/DStakeRouterV2GovernanceModule.sol:DStakeRouterV2GovernanceModule",
        "label": "vaultConfigs",
        "offset": 0,
        "slot": "11",
        "type": "t_array(t_struct(VaultConfig)6748_storage)dyn_storage"
      },
      {
        "astId": 6756,
        "contract": "contracts/vaults/dstake/DStakeRouterV2GovernanceModule.sol:DStakeRouterV2GovernanceModule",
        "label": "vaultToIndex",
        "offset": 0,
        "slot": "12",
        "type": "t_mapping(t_address,t_uint256)"
      },
      {
        "astId": 6760,
        "contract": "contracts/vaults/dstake/DStakeRouterV2GovernanceModule.sol:DStakeRouterV2GovernanceModule",
        "label": "vaultExists",
        "offset": 0,
        "slot": "13",
        "type": "t_mapping(t_address,t_bool)"
      },
      {
        "astId": 6762,
        "contract": "contracts/vaults/dstake/DStakeRouterV2GovernanceModule.sol:DStakeRouterV2GovernanceModule",
        "label": "governanceModule",
        "offset": 0,
        "slot": "14",
        "type": "t_address"
      },
      {
        "astId": 6764,
        "contract": "contracts/vaults/dstake/DStakeRouterV2GovernanceModule.sol:DStakeRouterV2GovernanceModule",
        "label": "rebalanceModule",
        "offset": 0,
        "slot": "15",
        "type": "t_address"
      }
    ],
    "types": {
      "t_address": {
        "encoding": "inplace",
        "label": "address",
        "numberOfBytes": "20"
      },
      "t_array(t_struct(VaultConfig)6748_storage)dyn_storage": {
        "base": "t_struct(VaultConfig)6748_storage",
        "encoding": "dynamic_array",
        "label": "struct DStakeRouterV2Storage.VaultConfig[]",
        "numberOfBytes": "32"
      },
      "t_bool": {
        "encoding": "inplace",
        "label": "bool",
        "numberOfBytes": "1"
      },
      "t_bytes32": {
        "encoding": "inplace",
        "label": "bytes32",
        "numberOfBytes": "32"
      },
      "t_enum(VaultStatus)6738": {
        "encoding": "inplace",
        "label": "enum DStakeRouterV2Storage.VaultStatus",
        "numberOfBytes": "1"
      },
      "t_mapping(t_address,t_address)": {
        "encoding": "mapping",
        "key": "t_address",
        "label": "mapping(address => address)",
        "numberOfBytes": "32",
        "value": "t_address"
      },
      "t_mapping(t_address,t_bool)": {
        "encoding": "mapping",
        "key": "t_address",
        "label": "mapping(address => bool)",
        "numberOfBytes": "32",
        "value": "t_bool"
      },
      "t_mapping(t_address,t_uint256)": {
        "encoding": "mapping",
        "key": "t_address",
        "label": "mapping(address => uint256)",
        "numberOfBytes": "32",
        "value": "t_uint256"
      },
      "t_mapping(t_bytes32,t_struct(RoleData)22_storage)": {
        "encoding": "mapping",
        "key": "t_bytes32",
        "label": "mapping(bytes32 => struct AccessControl.RoleData)",
        "numberOfBytes": "32",
        "value": "t_struct(RoleData)22_storage"
      },
      "t_struct(RoleData)22_storage": {
        "encoding": "inplace",
        "label": "struct AccessControl.RoleData",
        "members": [
          {
            "astId": 19,
            "contract": "contracts/vaults/dstake/DStakeRouterV2GovernanceModule.sol:DStakeRouterV2GovernanceModule",
            "label": "hasRole",
            "offset": 0,
            "slot": "0",
            "type": "t_mapping(t_address,t_bool)"
          },
          {
            "astId": 21,
            "contract": "contracts/vaults/dstake/DStakeRouterV2GovernanceModule.sol:DStakeRouterV2GovernanceModule",
            "label": "adminRole",
            "offset": 0,
            "slot": "1",
            "type": "t_bytes32"
          }
        ],
        "numberOfBytes": "64"
      },
      "t_struct(VaultConfig)6748_storage": {
        "encoding": "inplace",
        "label": "struct DStakeRouterV2Storage.VaultConfig",
        "members": [
          {
            "astId": 6740,
            "contract": "contracts/vaults/dstake/DStakeRouterV2GovernanceModule.sol:DStakeRouterV2GovernanceModule",
            "label": "strategyVault",
            "offset": 0,
            "slot": "0",
            "type": "t_address"
          },
          {
            "astId": 6742,
            "contract": "contracts/vaults/dstake/DStakeRouterV2GovernanceModule.sol:DStakeRouterV2GovernanceModule",
            "label": "adapter",
            "offset": 0,
            "slot": "1",
            "type": "t_address"
          },
          {
            "astId": 6744,
            "contract": "contracts/vaults/dstake/DStakeRouterV2GovernanceModule.sol:DStakeRouterV2GovernanceModule",
            "label": "targetBps",
            "offset": 0,
            "slot": "2",
            "type": "t_uint256"
          },
          {
            "astId": 6747,
            "contract": "contracts/vaults/dstake/DStakeRouterV2GovernanceModule.sol:DStakeRouterV2GovernanceModule",
            "label": "status",
            "offset": 0,
            "slot": "3",
            "type": "t_enum(VaultStatus)6738"
          }
        ],
        "numberOfBytes": "128"
      },
      "t_uint256": {
        "encoding": "inplace",
        "label": "uint256",
        "numberOfBytes": "32"
      }
    }
  }
}