{
  "address": "0x9d286fA4E36A0A5f3134aA3653e1eaa9769352b1",
  "abi": [
    {
      "inputs": [
        {
          "internalType": "address",
          "name": "baseCurrency",
          "type": "address"
        },
        {
          "internalType": "uint256",
          "name": "baseCurrencyUnit",
          "type": "uint256"
        },
        {
          "internalType": "address",
          "name": "frxEth_",
          "type": "address"
        },
        {
          "internalType": "address",
          "name": "etherRouter_",
          "type": "address"
        },
        {
          "internalType": "address",
          "name": "redemptionQueue_",
          "type": "address"
        }
      ],
      "stateMutability": "nonpayable",
      "type": "constructor"
    },
    {
      "inputs": [],
      "name": "AccessControlBadConfirmation",
      "type": "error"
    },
    {
      "inputs": [
        {
          "internalType": "address",
          "name": "account",
          "type": "address"
        },
        {
          "internalType": "bytes32",
          "name": "neededRole",
          "type": "bytes32"
        }
      ],
      "name": "AccessControlUnauthorizedAccount",
      "type": "error"
    },
    {
      "inputs": [
        {
          "internalType": "uint256",
          "name": "unit",
          "type": "uint256"
        }
      ],
      "name": "InvalidBaseCurrencyUnit",
      "type": "error"
    },
    {
      "inputs": [],
      "name": "PriceIsStale",
      "type": "error"
    },
    {
      "inputs": [
        {
          "internalType": "address",
          "name": "asset",
          "type": "address"
        }
      ],
      "name": "UnsupportedAsset",
      "type": "error"
    },
    {
      "anonymous": false,
      "inputs": [
        {
          "indexed": true,
          "internalType": "bytes32",
          "name": "role",
          "type": "bytes32"
        },
        {
          "indexed": true,
          "internalType": "bytes32",
          "name": "previousAdminRole",
          "type": "bytes32"
        },
        {
          "indexed": true,
          "internalType": "bytes32",
          "name": "newAdminRole",
          "type": "bytes32"
        }
      ],
      "name": "RoleAdminChanged",
      "type": "event"
    },
    {
      "anonymous": false,
      "inputs": [
        {
          "indexed": true,
          "internalType": "bytes32",
          "name": "role",
          "type": "bytes32"
        },
        {
          "indexed": true,
          "internalType": "address",
          "name": "account",
          "type": "address"
        },
        {
          "indexed": true,
          "internalType": "address",
          "name": "sender",
          "type": "address"
        }
      ],
      "name": "RoleGranted",
      "type": "event"
    },
    {
      "anonymous": false,
      "inputs": [
        {
          "indexed": true,
          "internalType": "bytes32",
          "name": "role",
          "type": "bytes32"
        },
        {
          "indexed": true,
          "internalType": "address",
          "name": "account",
          "type": "address"
        },
        {
          "indexed": true,
          "internalType": "address",
          "name": "sender",
          "type": "address"
        }
      ],
      "name": "RoleRevoked",
      "type": "event"
    },
    {
      "inputs": [],
      "name": "BASE_CURRENCY",
      "outputs": [
        {
          "internalType": "address",
          "name": "",
          "type": "address"
        }
      ],
      "stateMutability": "view",
      "type": "function"
    },
    {
      "inputs": [],
      "name": "BASE_CURRENCY_UNIT",
      "outputs": [
        {
          "internalType": "uint256",
          "name": "",
          "type": "uint256"
        }
      ],
      "stateMutability": "view",
      "type": "function"
    },
    {
      "inputs": [],
      "name": "DEFAULT_ADMIN_ROLE",
      "outputs": [
        {
          "internalType": "bytes32",
          "name": "",
          "type": "bytes32"
        }
      ],
      "stateMutability": "view",
      "type": "function"
    },
    {
      "inputs": [],
      "name": "ORACLE_MANAGER_ROLE",
      "outputs": [
        {
          "internalType": "bytes32",
          "name": "",
          "type": "bytes32"
        }
      ],
      "stateMutability": "view",
      "type": "function"
    },
    {
      "inputs": [],
      "name": "etherRouter",
      "outputs": [
        {
          "internalType": "contract IEtherRouterLike",
          "name": "",
          "type": "address"
        }
      ],
      "stateMutability": "view",
      "type": "function"
    },
    {
      "inputs": [],
      "name": "forceLive",
      "outputs": [
        {
          "internalType": "bool",
          "name": "",
          "type": "bool"
        }
      ],
      "stateMutability": "view",
      "type": "function"
    },
    {
      "inputs": [],
      "name": "frxEth",
      "outputs": [
        {
          "internalType": "contract IERC20SupplyLike",
          "name": "",
          "type": "address"
        }
      ],
      "stateMutability": "view",
      "type": "function"
    },
    {
      "inputs": [
        {
          "internalType": "address",
          "name": "asset",
          "type": "address"
        }
      ],
      "name": "getAssetPrice",
      "outputs": [
        {
          "internalType": "uint256",
          "name": "",
          "type": "uint256"
        }
      ],
      "stateMutability": "view",
      "type": "function"
    },
    {
      "inputs": [
        {
          "internalType": "address",
          "name": "asset",
          "type": "address"
        }
      ],
      "name": "getPriceInfo",
      "outputs": [
        {
          "internalType": "uint256",
          "name": "price",
          "type": "uint256"
        },
        {
          "internalType": "bool",
          "name": "isAlive",
          "type": "bool"
        }
      ],
      "stateMutability": "view",
      "type": "function"
    },
    {
      "inputs": [
        {
          "internalType": "bytes32",
          "name": "role",
          "type": "bytes32"
        }
      ],
      "name": "getRoleAdmin",
      "outputs": [
        {
          "internalType": "bytes32",
          "name": "",
          "type": "bytes32"
        }
      ],
      "stateMutability": "view",
      "type": "function"
    },
    {
      "inputs": [
        {
          "internalType": "bytes32",
          "name": "role",
          "type": "bytes32"
        },
        {
          "internalType": "address",
          "name": "account",
          "type": "address"
        }
      ],
      "name": "grantRole",
      "outputs": [],
      "stateMutability": "nonpayable",
      "type": "function"
    },
    {
      "inputs": [
        {
          "internalType": "bytes32",
          "name": "role",
          "type": "bytes32"
        },
        {
          "internalType": "address",
          "name": "account",
          "type": "address"
        }
      ],
      "name": "hasRole",
      "outputs": [
        {
          "internalType": "bool",
          "name": "",
          "type": "bool"
        }
      ],
      "stateMutability": "view",
      "type": "function"
    },
    {
      "inputs": [],
      "name": "redemptionQueue",
      "outputs": [
        {
          "internalType": "contract IRedemptionQueueV2Like",
          "name": "",
          "type": "address"
        }
      ],
      "stateMutability": "view",
      "type": "function"
    },
    {
      "inputs": [
        {
          "internalType": "bytes32",
          "name": "role",
          "type": "bytes32"
        },
        {
          "internalType": "address",
          "name": "callerConfirmation",
          "type": "address"
        }
      ],
      "name": "renounceRole",
      "outputs": [],
      "stateMutability": "nonpayable",
      "type": "function"
    },
    {
      "inputs": [
        {
          "internalType": "bytes32",
          "name": "role",
          "type": "bytes32"
        },
        {
          "internalType": "address",
          "name": "account",
          "type": "address"
        }
      ],
      "name": "revokeRole",
      "outputs": [],
      "stateMutability": "nonpayable",
      "type": "function"
    },
    {
      "inputs": [
        {
          "internalType": "bool",
          "name": "forceLive_",
          "type": "bool"
        }
      ],
      "name": "setForceLive",
      "outputs": [],
      "stateMutability": "nonpayable",
      "type": "function"
    },
    {
      "inputs": [
        {
          "internalType": "bytes4",
          "name": "interfaceId",
          "type": "bytes4"
        }
      ],
      "name": "supportsInterface",
      "outputs": [
        {
          "internalType": "bool",
          "name": "",
          "type": "bool"
        }
      ],
      "stateMutability": "view",
      "type": "function"
    }
  ],
  "transactionHash": "0xc6fc686fc0251f44f6d802f10ca89b3f46b3407f4dba16d84805c2eead1f5629",
  "args": [
    "0xC02aaA39b223FE8D0A0e5C4F27eAD9083C756Cc2",
    "1000000000000000000",
    "0x5E8422345238F34275888049021821E8E08CAa1f",
    "0x5acAf61d339dd123e60ba450Ea38fbC49445007C",
    "0xfDC69e6BE352BD5644C438302DE4E311AAD5565b"
  ],
  "numDeployments": 1,
  "solcInputHash": "ff2fd26a13da36a7faaae3879f78b859",
  "bytecode": "0x6101206040523480156200001257600080fd5b5060405162000ecf38038062000ecf8339810160408190526200003591620001a1565b836000036200005e576040516313ce795160e01b81526004810185905260240160405180910390fd5b6001600160a01b0380861660805260a085905283811660c05282811660e0528116610100526001805460ff1916811790556200009c600033620000d5565b50620000c97fced6982f480260bdd8ad5cb18ff2854f0306d78d904ad6cc107e8f3a0f526c1833620000d5565b50505050505062000208565b6000828152602081815260408083206001600160a01b038516845290915281205460ff166200017a576000838152602081815260408083206001600160a01b03861684529091529020805460ff19166001179055620001313390565b6001600160a01b0316826001600160a01b0316847f2f8788117e7eff1d82e926ec794901d17c78024a50270940304540a733656f0d60405160405180910390a45060016200017e565b5060005b92915050565b80516001600160a01b03811681146200019c57600080fd5b919050565b600080600080600060a08688031215620001ba57600080fd5b620001c58662000184565b945060208601519350620001dc6040870162000184565b9250620001ec6060870162000184565b9150620001fc6080870162000184565b90509295509295909350565b60805160a05160c05160e05161010051610c5f62000270600039600081816101f801526104fb0152600081816102a00152610829015260008181610237015281816103bb015261041f01526000818161019601526105b4015260006102fa0152610c5f6000f3fe608060405234801561001057600080fd5b506004361061010b5760003560e01c80639bb2eb2b116100a2578063c9cb949711610071578063c9cb94971461029b578063d27f359c146102c2578063d547741f146102cf578063de914334146102e2578063e19f4700146102f557600080fd5b80639bb2eb2b14610232578063a217fddf14610259578063b3596f0714610261578063bfc69e1c1461027457600080fd5b80638c89b64f116100de5780638c89b64f146101915780638edbf436146101b857806391d14854146101e057806397ec19be146101f357600080fd5b806301ffc9a714610110578063248a9ca3146101385780632f2ff15d1461016957806336568abe1461017e575b600080fd5b61012361011e3660046109f8565b61031c565b60405190151581526020015b60405180910390f35b61015b610146366004610a29565b60009081526020819052604090206001015490565b60405190815260200161012f565b61017c610177366004610a5e565b610353565b005b61017c61018c366004610a5e565b61037e565b61015b7f000000000000000000000000000000000000000000000000000000000000000081565b6101cb6101c6366004610a8a565b6103b6565b6040805192835290151560208301520161012f565b6101236101ee366004610a5e565b610652565b61021a7f000000000000000000000000000000000000000000000000000000000000000081565b6040516001600160a01b03909116815260200161012f565b61021a7f000000000000000000000000000000000000000000000000000000000000000081565b61015b600081565b61015b61026f366004610a8a565b61067b565b61015b7fced6982f480260bdd8ad5cb18ff2854f0306d78d904ad6cc107e8f3a0f526c1881565b61021a7f000000000000000000000000000000000000000000000000000000000000000081565b6001546101239060ff1681565b61017c6102dd366004610a5e565b6106b2565b61017c6102f0366004610aa5565b6106d7565b61021a7f000000000000000000000000000000000000000000000000000000000000000081565b60006001600160e01b03198216637965db0b60e01b148061034d57506301ffc9a760e01b6001600160e01b03198316145b92915050565b60008281526020819052604090206001015461036e81610715565b6103788383610722565b50505050565b6001600160a01b03811633146103a75760405163334bd91960e11b815260040160405180910390fd5b6103b182826107b4565b505050565b6000807f00000000000000000000000000000000000000000000000000000000000000006001600160a01b0316836001600160a01b03161461041b5760405163ee84f40b60e01b81526001600160a01b03841660048201526024015b60405180910390fd5b60007f00000000000000000000000000000000000000000000000000000000000000006001600160a01b03166318160ddd6040518163ffffffff1660e01b8152600401602060405180830381865afa925050508015610497575060408051601f3d908101601f1916820190925261049491810190610ac7565b60015b6104a75750600093849350915050565b9050806000036104bd5750600093849350915050565b600154600090819081906104d39060ff1661081f565b9250925092508215806104e35750815b156104f75750600096879650945050505050565b60007f00000000000000000000000000000000000000000000000000000000000000006001600160a01b0316631494ef636040518163ffffffff1660e01b815260040160a060405180830381865afa925050508015610573575060408051601f3d908101601f1916820190925261057091810190610b17565b60015b610587575060009788975095505050505050565b50909350505050620f42408167ffffffffffffffff16106105b2575060009788975095505050505050565b7f00000000000000000000000000000000000000000000000000000000000000006000866105e08386610b92565b6105ea9190610bbf565b90506000620f424061060667ffffffffffffffff861682610bd3565b6106109085610b92565b61061a9190610bbf565b9050600083831061062b578361062d565b825b905081811061063c578161063e565b805b9c8d15159c509a5050505050505050505050565b6000918252602082815260408084206001600160a01b0393909316845291905290205460ff1690565b6000806000610689846103b6565b91509150806106ab576040516342bc305b60e11b815260040160405180910390fd5b5092915050565b6000828152602081905260409020600101546106cd81610715565b61037883836107b4565b7fced6982f480260bdd8ad5cb18ff2854f0306d78d904ad6cc107e8f3a0f526c1861070181610715565b506001805460ff1916911515919091179055565b61071f81336109bb565b50565b600061072e8383610652565b6107ac576000838152602081815260408083206001600160a01b03861684529091529020805460ff191660011790556107643390565b6001600160a01b0316826001600160a01b0316847f2f8788117e7eff1d82e926ec794901d17c78024a50270940304540a733656f0d60405160405180910390a450600161034d565b50600061034d565b60006107c08383610652565b156107ac576000838152602081815260408083206001600160a01b0386168085529252808320805460ff1916905551339286917ff6391f5c32d9c69d2a47ea670b442974b53935d1edc7fd64eb21e047a839171b9190a450600161034d565b60008060008060007f00000000000000000000000000000000000000000000000000000000000000006001600160a01b0316638ee5556e60e01b8760405160240161086e911515815260200190565b60408051601f198184030181529181526020820180516001600160e01b03166001600160e01b03199094169390931790925290516108ac9190610be6565b600060405180830381855afa9150503d80600081146108e7576040519150601f19603f3d011682016040523d82523d6000602084013e6108ec565b606091505b509150915081158061090a5750602081516109079190610c15565b15155b1561092157600080600094509450945050506109b4565b6000602082516109319190610bbf565b9050600681101561094f5760008060009550955095505050506109b4565b602082015160408301516001600160a01b0360078410801590610973575060018311155b801561097f5750808211155b156109a05760a08501516001841498509650600198505050505050506109b4565b505050506060015160019450600093509150505b9193909250565b6109c58282610652565b6109f45760405163e2517d3f60e01b81526001600160a01b038216600482015260248101839052604401610412565b5050565b600060208284031215610a0a57600080fd5b81356001600160e01b031981168114610a2257600080fd5b9392505050565b600060208284031215610a3b57600080fd5b5035919050565b80356001600160a01b0381168114610a5957600080fd5b919050565b60008060408385031215610a7157600080fd5b82359150610a8160208401610a42565b90509250929050565b600060208284031215610a9c57600080fd5b610a2282610a42565b600060208284031215610ab757600080fd5b81358015158114610a2257600080fd5b600060208284031215610ad957600080fd5b5051919050565b805167ffffffffffffffff81168114610a5957600080fd5b80516effffffffffffffffffffffffffffff81168114610a5957600080fd5b600080600080600060a08688031215610b2f57600080fd5b610b3886610ae0565b9450610b4660208701610ae0565b9350610b5460408701610ae0565b9250610b6260608701610af8565b9150610b7060808701610af8565b90509295509295909350565b634e487b7160e01b600052601160045260246000fd5b808202811582820484141761034d5761034d610b7c565b634e487b7160e01b600052601260045260246000fd5b600082610bce57610bce610ba9565b500490565b8181038181111561034d5761034d610b7c565b6000825160005b81811015610c075760208186018101518583015201610bed565b506000920191825250919050565b600082610c2457610c24610ba9565b50069056fea26469706673582212204b04168e7beaa3c4d8a5121a2824b1007fa49253c93b9a5aa990a8606ffc012064736f6c63430008160033",
  "devdoc": {
    "details": "Returns ETH per frxETH scaled to BASE_CURRENCY_UNIT. Defensive: returns (0,false) on any upstream read failure.",
    "errors": {
      "AccessControlBadConfirmation()": [
        {
          "details": "The caller of a function is not the expected one. NOTE: Don't confuse with {AccessControlUnauthorizedAccount}."
        }
      ],
      "AccessControlUnauthorizedAccount(address,bytes32)": [
        {
          "details": "The `account` is missing a role."
        }
      ]
    },
    "events": {
      "RoleAdminChanged(bytes32,bytes32,bytes32)": {
        "details": "Emitted when `newAdminRole` is set as ``role``'s admin role, replacing `previousAdminRole` `DEFAULT_ADMIN_ROLE` is the starting admin for all roles, despite {RoleAdminChanged} not being emitted to signal this."
      },
      "RoleGranted(bytes32,address,address)": {
        "details": "Emitted when `account` is granted `role`. `sender` is the account that originated the contract call. This account bears the admin role (for the granted role). Expected in cases where the role was granted using the internal {AccessControl-_grantRole}."
      },
      "RoleRevoked(bytes32,address,address)": {
        "details": "Emitted when `account` is revoked `role`. `sender` is the account that originated the contract call:   - if using `revokeRole`, it is the admin role bearer   - if using `renounceRole`, it is the role bearer (i.e. `account`)"
      }
    },
    "kind": "dev",
    "methods": {
      "getAssetPrice(address)": {
        "params": {
          "asset": "The address of the asset"
        },
        "returns": {
          "_0": "The price of the asset"
        }
      },
      "getPriceInfo(address)": {
        "params": {
          "asset": "The address of the asset"
        },
        "returns": {
          "isAlive": "The alive status of the asset",
          "price": "The price of the asset"
        }
      },
      "getRoleAdmin(bytes32)": {
        "details": "Returns the admin role that controls `role`. See {grantRole} and {revokeRole}. To change a role's admin, use {_setRoleAdmin}."
      },
      "grantRole(bytes32,address)": {
        "details": "Grants `role` to `account`. If `account` had not been already granted `role`, emits a {RoleGranted} event. Requirements: - the caller must have ``role``'s admin role. May emit a {RoleGranted} event."
      },
      "hasRole(bytes32,address)": {
        "details": "Returns `true` if `account` has been granted `role`."
      },
      "renounceRole(bytes32,address)": {
        "details": "Revokes `role` from the calling account. Roles are often managed via {grantRole} and {revokeRole}: this function's purpose is to provide a mechanism for accounts to lose their privileges if they are compromised (such as when a trusted device is misplaced). If the calling account had been revoked `role`, emits a {RoleRevoked} event. Requirements: - the caller must be `callerConfirmation`. May emit a {RoleRevoked} event."
      },
      "revokeRole(bytes32,address)": {
        "details": "Revokes `role` from `account`. If `account` had been granted `role`, emits a {RoleRevoked} event. Requirements: - the caller must have ``role``'s admin role. May emit a {RoleRevoked} event."
      },
      "supportsInterface(bytes4)": {
        "details": "Returns true if this contract implements the interface defined by `interfaceId`. See the corresponding https://eips.ethereum.org/EIPS/eip-165#how-interfaces-are-identified[ERC section] to learn more about how these ids are created. This function call must use less than 30 000 gas."
      }
    },
    "stateVariables": {
      "BASE_CURRENCY": {
        "details": "Address 0x0 is commonly used for USD, but can be any token address based on the implementation.",
        "return": "Returns the base currency address.",
        "returns": {
          "_0": "Returns the base currency address."
        }
      },
      "BASE_CURRENCY_UNIT": {
        "details": "Represents the decimal precision of the base currency (e.g., 1e8 for USD, 1e18 for ETH).",
        "return": "Returns the base currency unit.",
        "returns": {
          "_0": "Returns the base currency unit."
        }
      }
    },
    "title": "FrxEthFundamentalOracleWrapperV1_1",
    "version": 1
  },
  "userdoc": {
    "kind": "user",
    "methods": {
      "BASE_CURRENCY()": {
        "notice": "Returns the base currency address"
      },
      "BASE_CURRENCY_UNIT()": {
        "notice": "Returns the base currency unit"
      },
      "getAssetPrice(address)": {
        "notice": "Returns the asset price in the base currency"
      },
      "getPriceInfo(address)": {
        "notice": "Returns the price and alive status of an asset"
      }
    },
    "notice": "Fundamental frxETH/ETH oracle using EtherRouter consolidated balances and RedemptionQueue fee.",
    "version": 1
  },
  "storageLayout": {
    "storage": [
      {
        "astId": 27,
        "contract": "contracts/oracle_aggregator/wrapper/FrxEthFundamentalOracleWrapperV1_1.sol:FrxEthFundamentalOracleWrapperV1_1",
        "label": "_roles",
        "offset": 0,
        "slot": "0",
        "type": "t_mapping(t_bytes32,t_struct(RoleData)22_storage)"
      },
      {
        "astId": 511,
        "contract": "contracts/oracle_aggregator/wrapper/FrxEthFundamentalOracleWrapperV1_1.sol:FrxEthFundamentalOracleWrapperV1_1",
        "label": "forceLive",
        "offset": 0,
        "slot": "1",
        "type": "t_bool"
      }
    ],
    "types": {
      "t_address": {
        "encoding": "inplace",
        "label": "address",
        "numberOfBytes": "20"
      },
      "t_bool": {
        "encoding": "inplace",
        "label": "bool",
        "numberOfBytes": "1"
      },
      "t_bytes32": {
        "encoding": "inplace",
        "label": "bytes32",
        "numberOfBytes": "32"
      },
      "t_mapping(t_address,t_bool)": {
        "encoding": "mapping",
        "key": "t_address",
        "label": "mapping(address => bool)",
        "numberOfBytes": "32",
        "value": "t_bool"
      },
      "t_mapping(t_bytes32,t_struct(RoleData)22_storage)": {
        "encoding": "mapping",
        "key": "t_bytes32",
        "label": "mapping(bytes32 => struct AccessControl.RoleData)",
        "numberOfBytes": "32",
        "value": "t_struct(RoleData)22_storage"
      },
      "t_struct(RoleData)22_storage": {
        "encoding": "inplace",
        "label": "struct AccessControl.RoleData",
        "members": [
          {
            "astId": 19,
            "contract": "contracts/oracle_aggregator/wrapper/FrxEthFundamentalOracleWrapperV1_1.sol:FrxEthFundamentalOracleWrapperV1_1",
            "label": "hasRole",
            "offset": 0,
            "slot": "0",
            "type": "t_mapping(t_address,t_bool)"
          },
          {
            "astId": 21,
            "contract": "contracts/oracle_aggregator/wrapper/FrxEthFundamentalOracleWrapperV1_1.sol:FrxEthFundamentalOracleWrapperV1_1",
            "label": "adminRole",
            "offset": 0,
            "slot": "1",
            "type": "t_bytes32"
          }
        ],
        "numberOfBytes": "64"
      }
    }
  }
}