{
  "address": "0xDfD607A73F6d73DBCE8aDf71de5E9fd56944C936",
  "abi": [
    {
      "inputs": [
        {
          "internalType": "address",
          "name": "baseCurrency",
          "type": "address"
        },
        {
          "internalType": "uint256",
          "name": "baseCurrencyUnit",
          "type": "uint256"
        },
        {
          "internalType": "address",
          "name": "frxEth_",
          "type": "address"
        },
        {
          "internalType": "address",
          "name": "etherRouter_",
          "type": "address"
        },
        {
          "internalType": "address",
          "name": "redemptionQueue_",
          "type": "address"
        }
      ],
      "stateMutability": "nonpayable",
      "type": "constructor"
    },
    {
      "inputs": [],
      "name": "AccessControlBadConfirmation",
      "type": "error"
    },
    {
      "inputs": [
        {
          "internalType": "address",
          "name": "account",
          "type": "address"
        },
        {
          "internalType": "bytes32",
          "name": "neededRole",
          "type": "bytes32"
        }
      ],
      "name": "AccessControlUnauthorizedAccount",
      "type": "error"
    },
    {
      "inputs": [
        {
          "internalType": "uint256",
          "name": "unit",
          "type": "uint256"
        }
      ],
      "name": "InvalidBaseCurrencyUnit",
      "type": "error"
    },
    {
      "inputs": [],
      "name": "PriceIsStale",
      "type": "error"
    },
    {
      "inputs": [
        {
          "internalType": "address",
          "name": "asset",
          "type": "address"
        }
      ],
      "name": "UnsupportedAsset",
      "type": "error"
    },
    {
      "anonymous": false,
      "inputs": [
        {
          "indexed": true,
          "internalType": "bytes32",
          "name": "role",
          "type": "bytes32"
        },
        {
          "indexed": true,
          "internalType": "bytes32",
          "name": "previousAdminRole",
          "type": "bytes32"
        },
        {
          "indexed": true,
          "internalType": "bytes32",
          "name": "newAdminRole",
          "type": "bytes32"
        }
      ],
      "name": "RoleAdminChanged",
      "type": "event"
    },
    {
      "anonymous": false,
      "inputs": [
        {
          "indexed": true,
          "internalType": "bytes32",
          "name": "role",
          "type": "bytes32"
        },
        {
          "indexed": true,
          "internalType": "address",
          "name": "account",
          "type": "address"
        },
        {
          "indexed": true,
          "internalType": "address",
          "name": "sender",
          "type": "address"
        }
      ],
      "name": "RoleGranted",
      "type": "event"
    },
    {
      "anonymous": false,
      "inputs": [
        {
          "indexed": true,
          "internalType": "bytes32",
          "name": "role",
          "type": "bytes32"
        },
        {
          "indexed": true,
          "internalType": "address",
          "name": "account",
          "type": "address"
        },
        {
          "indexed": true,
          "internalType": "address",
          "name": "sender",
          "type": "address"
        }
      ],
      "name": "RoleRevoked",
      "type": "event"
    },
    {
      "inputs": [],
      "name": "BASE_CURRENCY",
      "outputs": [
        {
          "internalType": "address",
          "name": "",
          "type": "address"
        }
      ],
      "stateMutability": "view",
      "type": "function"
    },
    {
      "inputs": [],
      "name": "BASE_CURRENCY_UNIT",
      "outputs": [
        {
          "internalType": "uint256",
          "name": "",
          "type": "uint256"
        }
      ],
      "stateMutability": "view",
      "type": "function"
    },
    {
      "inputs": [],
      "name": "DEFAULT_ADMIN_ROLE",
      "outputs": [
        {
          "internalType": "bytes32",
          "name": "",
          "type": "bytes32"
        }
      ],
      "stateMutability": "view",
      "type": "function"
    },
    {
      "inputs": [],
      "name": "ORACLE_MANAGER_ROLE",
      "outputs": [
        {
          "internalType": "bytes32",
          "name": "",
          "type": "bytes32"
        }
      ],
      "stateMutability": "view",
      "type": "function"
    },
    {
      "inputs": [],
      "name": "etherRouter",
      "outputs": [
        {
          "internalType": "contract IEtherRouterLike",
          "name": "",
          "type": "address"
        }
      ],
      "stateMutability": "view",
      "type": "function"
    },
    {
      "inputs": [],
      "name": "forceLive",
      "outputs": [
        {
          "internalType": "bool",
          "name": "",
          "type": "bool"
        }
      ],
      "stateMutability": "view",
      "type": "function"
    },
    {
      "inputs": [],
      "name": "frxEth",
      "outputs": [
        {
          "internalType": "contract IERC20SupplyLike",
          "name": "",
          "type": "address"
        }
      ],
      "stateMutability": "view",
      "type": "function"
    },
    {
      "inputs": [
        {
          "internalType": "address",
          "name": "asset",
          "type": "address"
        }
      ],
      "name": "getAssetPrice",
      "outputs": [
        {
          "internalType": "uint256",
          "name": "",
          "type": "uint256"
        }
      ],
      "stateMutability": "view",
      "type": "function"
    },
    {
      "inputs": [
        {
          "internalType": "address",
          "name": "asset",
          "type": "address"
        }
      ],
      "name": "getPriceInfo",
      "outputs": [
        {
          "internalType": "uint256",
          "name": "price",
          "type": "uint256"
        },
        {
          "internalType": "bool",
          "name": "isAlive",
          "type": "bool"
        }
      ],
      "stateMutability": "view",
      "type": "function"
    },
    {
      "inputs": [
        {
          "internalType": "bytes32",
          "name": "role",
          "type": "bytes32"
        }
      ],
      "name": "getRoleAdmin",
      "outputs": [
        {
          "internalType": "bytes32",
          "name": "",
          "type": "bytes32"
        }
      ],
      "stateMutability": "view",
      "type": "function"
    },
    {
      "inputs": [
        {
          "internalType": "bytes32",
          "name": "role",
          "type": "bytes32"
        },
        {
          "internalType": "address",
          "name": "account",
          "type": "address"
        }
      ],
      "name": "grantRole",
      "outputs": [],
      "stateMutability": "nonpayable",
      "type": "function"
    },
    {
      "inputs": [
        {
          "internalType": "bytes32",
          "name": "role",
          "type": "bytes32"
        },
        {
          "internalType": "address",
          "name": "account",
          "type": "address"
        }
      ],
      "name": "hasRole",
      "outputs": [
        {
          "internalType": "bool",
          "name": "",
          "type": "bool"
        }
      ],
      "stateMutability": "view",
      "type": "function"
    },
    {
      "inputs": [],
      "name": "redemptionQueue",
      "outputs": [
        {
          "internalType": "contract IRedemptionQueueV2Like",
          "name": "",
          "type": "address"
        }
      ],
      "stateMutability": "view",
      "type": "function"
    },
    {
      "inputs": [
        {
          "internalType": "bytes32",
          "name": "role",
          "type": "bytes32"
        },
        {
          "internalType": "address",
          "name": "callerConfirmation",
          "type": "address"
        }
      ],
      "name": "renounceRole",
      "outputs": [],
      "stateMutability": "nonpayable",
      "type": "function"
    },
    {
      "inputs": [
        {
          "internalType": "bytes32",
          "name": "role",
          "type": "bytes32"
        },
        {
          "internalType": "address",
          "name": "account",
          "type": "address"
        }
      ],
      "name": "revokeRole",
      "outputs": [],
      "stateMutability": "nonpayable",
      "type": "function"
    },
    {
      "inputs": [
        {
          "internalType": "bool",
          "name": "forceLive_",
          "type": "bool"
        }
      ],
      "name": "setForceLive",
      "outputs": [],
      "stateMutability": "nonpayable",
      "type": "function"
    },
    {
      "inputs": [
        {
          "internalType": "bytes4",
          "name": "interfaceId",
          "type": "bytes4"
        }
      ],
      "name": "supportsInterface",
      "outputs": [
        {
          "internalType": "bool",
          "name": "",
          "type": "bool"
        }
      ],
      "stateMutability": "view",
      "type": "function"
    }
  ],
  "transactionHash": "0xaf5ab36923e363e0ed8dd7ca4e697a8b942882a0854d656962950675a4c29949",
  "args": [
    "0xC02aaA39b223FE8D0A0e5C4F27eAD9083C756Cc2",
    "1000000000000000000",
    "0x5E8422345238F34275888049021821E8E08CAa1f",
    "0x5acAf61d339dd123e60ba450Ea38fbC49445007C",
    "0xfDC69e6BE352BD5644C438302DE4E311AAD5565b"
  ],
  "numDeployments": 2,
  "solcInputHash": "0e702359e4b05272cfcdb903d341ffe3",
  "bytecode": "0x6101206040523480156200001257600080fd5b506040516200103e3803806200103e8339810160408190526200003591620001a1565b836000036200005e576040516313ce795160e01b81526004810185905260240160405180910390fd5b6001600160a01b0380861660805260a085905283811660c05282811660e0528116610100526001805460ff1916811790556200009c600033620000d5565b50620000c97fced6982f480260bdd8ad5cb18ff2854f0306d78d904ad6cc107e8f3a0f526c1833620000d5565b50505050505062000208565b6000828152602081815260408083206001600160a01b038516845290915281205460ff166200017a576000838152602081815260408083206001600160a01b03861684529091529020805460ff19166001179055620001313390565b6001600160a01b0316826001600160a01b0316847f2f8788117e7eff1d82e926ec794901d17c78024a50270940304540a733656f0d60405160405180910390a45060016200017e565b5060005b92915050565b80516001600160a01b03811681146200019c57600080fd5b919050565b600080600080600060a08688031215620001ba57600080fd5b620001c58662000184565b945060208601519350620001dc6040870162000184565b9250620001ec6060870162000184565b9150620001fc6080870162000184565b90509295509295909350565b60805160a05160c05160e05161010051610dc762000277600039600081816101f8015281816104fb01526105f30152600081816102a0015261095a015260008181610237015281816103bb015261041f01526000818161019601526105b4015260006102fa0152610dc76000f3fe608060405234801561001057600080fd5b506004361061010b5760003560e01c80639bb2eb2b116100a2578063c9cb949711610071578063c9cb94971461029b578063d27f359c146102c2578063d547741f146102cf578063de914334146102e2578063e19f4700146102f557600080fd5b80639bb2eb2b14610232578063a217fddf14610259578063b3596f0714610261578063bfc69e1c1461027457600080fd5b80638c89b64f116100de5780638c89b64f146101915780638edbf436146101b857806391d14854146101e057806397ec19be146101f357600080fd5b806301ffc9a714610110578063248a9ca3146101385780632f2ff15d1461016957806336568abe1461017e575b600080fd5b61012361011e366004610b29565b61031c565b60405190151581526020015b60405180910390f35b61015b610146366004610b5a565b60009081526020819052604090206001015490565b60405190815260200161012f565b61017c610177366004610b8f565b610353565b005b61017c61018c366004610b8f565b61037e565b61015b7f000000000000000000000000000000000000000000000000000000000000000081565b6101cb6101c6366004610bbb565b6103b6565b6040805192835290151560208301520161012f565b6101236101ee366004610b8f565b610783565b61021a7f000000000000000000000000000000000000000000000000000000000000000081565b6040516001600160a01b03909116815260200161012f565b61021a7f000000000000000000000000000000000000000000000000000000000000000081565b61015b600081565b61015b61026f366004610bbb565b6107ac565b61015b7fced6982f480260bdd8ad5cb18ff2854f0306d78d904ad6cc107e8f3a0f526c1881565b61021a7f000000000000000000000000000000000000000000000000000000000000000081565b6001546101239060ff1681565b61017c6102dd366004610b8f565b6107e3565b61017c6102f0366004610be4565b610808565b61021a7f000000000000000000000000000000000000000000000000000000000000000081565b60006001600160e01b03198216637965db0b60e01b148061034d57506301ffc9a760e01b6001600160e01b03198316145b92915050565b60008281526020819052604090206001015461036e81610846565b6103788383610853565b50505050565b6001600160a01b03811633146103a75760405163334bd91960e11b815260040160405180910390fd5b6103b182826108e5565b505050565b6000807f00000000000000000000000000000000000000000000000000000000000000006001600160a01b0316836001600160a01b03161461041b5760405163ee84f40b60e01b81526001600160a01b03841660048201526024015b60405180910390fd5b60007f00000000000000000000000000000000000000000000000000000000000000006001600160a01b03166318160ddd6040518163ffffffff1660e01b8152600401602060405180830381865afa925050508015610497575060408051601f3d908101601f1916820190925261049491810190610c01565b60015b6104a75750600093849350915050565b9050806000036104bd5750600093849350915050565b600154600090819081906104d39060ff16610950565b9250925092508215806104e35750815b156104f75750600096879650945050505050565b60007f00000000000000000000000000000000000000000000000000000000000000006001600160a01b0316631494ef636040518163ffffffff1660e01b815260040160a060405180830381865afa925050508015610573575060408051601f3d908101601f1916820190925261057091810190610c51565b60015b610587575060009788975095505050505050565b50909350505050620f42408167ffffffffffffffff16106105b2575060009788975095505050505050565b7f00000000000000000000000000000000000000000000000000000000000000006000866105e08386610ccc565b6105ea9190610cf9565b905060008060007f00000000000000000000000000000000000000000000000000000000000000006001600160a01b0316639c79ceb06040518163ffffffff1660e01b81526004016040805180830381865afa92505050801561066a575060408051601f3d908101601f1916820190925261066791810190610d0d565b60015b15610679579093509150600190505b8080156106835750825b156106cb578682106106a4575060009c8d9c509a5050505050505050505050565b60006106b08389610d3b565b90508a6106bd8783610ccc565b6106c79190610cf9565b9450505b6000620f42406106e567ffffffffffffffff891682610d3b565b6106ef9088610ccc565b6106f99190610cf9565b9050600086861061070a578661070c565b855b905081811061071b578161071d565b805b9d5082801561072a575084155b1561076c5760006103e888101561074257600161074e565b61074e6103e889610cf9565b9050808f101561076a578783106107655787610767565b825b9e505b505b60008e119c50505050505050505050505050915091565b6000918252602082815260408084206001600160a01b0393909316845291905290205460ff1690565b60008060006107ba846103b6565b91509150806107dc576040516342bc305b60e11b815260040160405180910390fd5b5092915050565b6000828152602081905260409020600101546107fe81610846565b61037883836108e5565b7fced6982f480260bdd8ad5cb18ff2854f0306d78d904ad6cc107e8f3a0f526c1861083281610846565b506001805460ff1916911515919091179055565b6108508133610aec565b50565b600061085f8383610783565b6108dd576000838152602081815260408083206001600160a01b03861684529091529020805460ff191660011790556108953390565b6001600160a01b0316826001600160a01b0316847f2f8788117e7eff1d82e926ec794901d17c78024a50270940304540a733656f0d60405160405180910390a450600161034d565b50600061034d565b60006108f18383610783565b156108dd576000838152602081815260408083206001600160a01b0386168085529252808320805460ff1916905551339286917ff6391f5c32d9c69d2a47ea670b442974b53935d1edc7fd64eb21e047a839171b9190a450600161034d565b60008060008060007f00000000000000000000000000000000000000000000000000000000000000006001600160a01b0316638ee5556e60e01b8760405160240161099f911515815260200190565b60408051601f198184030181529181526020820180516001600160e01b03166001600160e01b03199094169390931790925290516109dd9190610d4e565b600060405180830381855afa9150503d8060008114610a18576040519150601f19603f3d011682016040523d82523d6000602084013e610a1d565b606091505b5091509150811580610a3b575060208151610a389190610d7d565b15155b15610a525760008060009450945094505050610ae5565b600060208251610a629190610cf9565b90506006811015610a80576000806000955095509550505050610ae5565b602082015160408301516001600160a01b0360078410801590610aa4575060018311155b8015610ab05750808211155b15610ad15760a0850151600184149850965060019850505050505050610ae5565b505050506060015160019450600093509150505b9193909250565b610af68282610783565b610b255760405163e2517d3f60e01b81526001600160a01b038216600482015260248101839052604401610412565b5050565b600060208284031215610b3b57600080fd5b81356001600160e01b031981168114610b5357600080fd5b9392505050565b600060208284031215610b6c57600080fd5b5035919050565b80356001600160a01b0381168114610b8a57600080fd5b919050565b60008060408385031215610ba257600080fd5b82359150610bb260208401610b73565b90509250929050565b600060208284031215610bcd57600080fd5b610b5382610b73565b801515811461085057600080fd5b600060208284031215610bf657600080fd5b8135610b5381610bd6565b600060208284031215610c1357600080fd5b5051919050565b805167ffffffffffffffff81168114610b8a57600080fd5b80516effffffffffffffffffffffffffffff81168114610b8a57600080fd5b600080600080600060a08688031215610c6957600080fd5b610c7286610c1a565b9450610c8060208701610c1a565b9350610c8e60408701610c1a565b9250610c9c60608701610c32565b9150610caa60808701610c32565b90509295509295909350565b634e487b7160e01b600052601160045260246000fd5b808202811582820484141761034d5761034d610cb6565b634e487b7160e01b600052601260045260246000fd5b600082610d0857610d08610ce3565b500490565b60008060408385031215610d2057600080fd5b8251610d2b81610bd6565b6020939093015192949293505050565b8181038181111561034d5761034d610cb6565b6000825160005b81811015610d6f5760208186018101518583015201610d55565b506000920191825250919050565b600082610d8c57610d8c610ce3565b50069056fea2646970667358221220fa67ea34c6c7aac90fe7c807cf762aad6c2c0f48eb05bd7a7fd0ff6a746e000964736f6c63430008160033",
  "devdoc": {
    "details": "Returns ETH per frxETH scaled to BASE_CURRENCY_UNIT. Defensive: returns (0,false) on any upstream read failure.",
    "errors": {
      "AccessControlBadConfirmation()": [
        {
          "details": "The caller of a function is not the expected one. NOTE: Don't confuse with {AccessControlUnauthorizedAccount}."
        }
      ],
      "AccessControlUnauthorizedAccount(address,bytes32)": [
        {
          "details": "The `account` is missing a role."
        }
      ]
    },
    "events": {
      "RoleAdminChanged(bytes32,bytes32,bytes32)": {
        "details": "Emitted when `newAdminRole` is set as ``role``'s admin role, replacing `previousAdminRole` `DEFAULT_ADMIN_ROLE` is the starting admin for all roles, despite {RoleAdminChanged} not being emitted to signal this."
      },
      "RoleGranted(bytes32,address,address)": {
        "details": "Emitted when `account` is granted `role`. `sender` is the account that originated the contract call. This account bears the admin role (for the granted role). Expected in cases where the role was granted using the internal {AccessControl-_grantRole}."
      },
      "RoleRevoked(bytes32,address,address)": {
        "details": "Emitted when `account` is revoked `role`. `sender` is the account that originated the contract call:   - if using `revokeRole`, it is the admin role bearer   - if using `renounceRole`, it is the role bearer (i.e. `account`)"
      }
    },
    "kind": "dev",
    "methods": {
      "getAssetPrice(address)": {
        "params": {
          "asset": "The address of the asset"
        },
        "returns": {
          "_0": "The price of the asset"
        }
      },
      "getPriceInfo(address)": {
        "params": {
          "asset": "The address of the asset"
        },
        "returns": {
          "isAlive": "The alive status of the asset",
          "price": "The price of the asset"
        }
      },
      "getRoleAdmin(bytes32)": {
        "details": "Returns the admin role that controls `role`. See {grantRole} and {revokeRole}. To change a role's admin, use {_setRoleAdmin}."
      },
      "grantRole(bytes32,address)": {
        "details": "Grants `role` to `account`. If `account` had not been already granted `role`, emits a {RoleGranted} event. Requirements: - the caller must have ``role``'s admin role. May emit a {RoleGranted} event."
      },
      "hasRole(bytes32,address)": {
        "details": "Returns `true` if `account` has been granted `role`."
      },
      "renounceRole(bytes32,address)": {
        "details": "Revokes `role` from the calling account. Roles are often managed via {grantRole} and {revokeRole}: this function's purpose is to provide a mechanism for accounts to lose their privileges if they are compromised (such as when a trusted device is misplaced). If the calling account had been revoked `role`, emits a {RoleRevoked} event. Requirements: - the caller must be `callerConfirmation`. May emit a {RoleRevoked} event."
      },
      "revokeRole(bytes32,address)": {
        "details": "Revokes `role` from `account`. If `account` had been granted `role`, emits a {RoleRevoked} event. Requirements: - the caller must have ``role``'s admin role. May emit a {RoleRevoked} event."
      },
      "supportsInterface(bytes4)": {
        "details": "Returns true if this contract implements the interface defined by `interfaceId`. See the corresponding https://eips.ethereum.org/EIPS/eip-165#how-interfaces-are-identified[ERC section] to learn more about how these ids are created. This function call must use less than 30 000 gas."
      }
    },
    "stateVariables": {
      "BASE_CURRENCY": {
        "details": "Address 0x0 is commonly used for USD, but can be any token address based on the implementation.",
        "return": "Returns the base currency address.",
        "returns": {
          "_0": "Returns the base currency address."
        }
      },
      "BASE_CURRENCY_UNIT": {
        "details": "Represents the decimal precision of the base currency (e.g., 1e8 for USD, 1e18 for ETH).",
        "return": "Returns the base currency unit.",
        "returns": {
          "_0": "Returns the base currency unit."
        }
      }
    },
    "title": "FrxEthFundamentalOracleWrapperV1_1",
    "version": 1
  },
  "userdoc": {
    "kind": "user",
    "methods": {
      "BASE_CURRENCY()": {
        "notice": "Returns the base currency address"
      },
      "BASE_CURRENCY_UNIT()": {
        "notice": "Returns the base currency unit"
      },
      "getAssetPrice(address)": {
        "notice": "Returns the asset price in the base currency"
      },
      "getPriceInfo(address)": {
        "notice": "Returns the price and alive status of an asset"
      }
    },
    "notice": "Fundamental frxETH/ETH oracle using EtherRouter consolidated balances and RedemptionQueue fee.",
    "version": 1
  },
  "storageLayout": {
    "storage": [
      {
        "astId": 27,
        "contract": "contracts/oracle_aggregator/wrapper/FrxEthFundamentalOracleWrapperV1_1.sol:FrxEthFundamentalOracleWrapperV1_1",
        "label": "_roles",
        "offset": 0,
        "slot": "0",
        "type": "t_mapping(t_bytes32,t_struct(RoleData)22_storage)"
      },
      {
        "astId": 514,
        "contract": "contracts/oracle_aggregator/wrapper/FrxEthFundamentalOracleWrapperV1_1.sol:FrxEthFundamentalOracleWrapperV1_1",
        "label": "forceLive",
        "offset": 0,
        "slot": "1",
        "type": "t_bool"
      }
    ],
    "types": {
      "t_address": {
        "encoding": "inplace",
        "label": "address",
        "numberOfBytes": "20"
      },
      "t_bool": {
        "encoding": "inplace",
        "label": "bool",
        "numberOfBytes": "1"
      },
      "t_bytes32": {
        "encoding": "inplace",
        "label": "bytes32",
        "numberOfBytes": "32"
      },
      "t_mapping(t_address,t_bool)": {
        "encoding": "mapping",
        "key": "t_address",
        "label": "mapping(address => bool)",
        "numberOfBytes": "32",
        "value": "t_bool"
      },
      "t_mapping(t_bytes32,t_struct(RoleData)22_storage)": {
        "encoding": "mapping",
        "key": "t_bytes32",
        "label": "mapping(bytes32 => struct AccessControl.RoleData)",
        "numberOfBytes": "32",
        "value": "t_struct(RoleData)22_storage"
      },
      "t_struct(RoleData)22_storage": {
        "encoding": "inplace",
        "label": "struct AccessControl.RoleData",
        "members": [
          {
            "astId": 19,
            "contract": "contracts/oracle_aggregator/wrapper/FrxEthFundamentalOracleWrapperV1_1.sol:FrxEthFundamentalOracleWrapperV1_1",
            "label": "hasRole",
            "offset": 0,
            "slot": "0",
            "type": "t_mapping(t_address,t_bool)"
          },
          {
            "astId": 21,
            "contract": "contracts/oracle_aggregator/wrapper/FrxEthFundamentalOracleWrapperV1_1.sol:FrxEthFundamentalOracleWrapperV1_1",
            "label": "adminRole",
            "offset": 0,
            "slot": "1",
            "type": "t_bytes32"
          }
        ],
        "numberOfBytes": "64"
      }
    }
  }
}