{
  "address": "0x889bf3E00e93Bc9CE17A7f8141ef109283913f37",
  "abi": [
    {
      "inputs": [
        {
          "internalType": "address",
          "name": "baseCurrency",
          "type": "address"
        },
        {
          "internalType": "uint256",
          "name": "baseCurrencyUnit",
          "type": "uint256"
        }
      ],
      "stateMutability": "nonpayable",
      "type": "constructor"
    },
    {
      "inputs": [],
      "name": "AccessControlBadConfirmation",
      "type": "error"
    },
    {
      "inputs": [
        {
          "internalType": "address",
          "name": "account",
          "type": "address"
        },
        {
          "internalType": "bytes32",
          "name": "neededRole",
          "type": "bytes32"
        }
      ],
      "name": "AccessControlUnauthorizedAccount",
      "type": "error"
    },
    {
      "inputs": [
        {
          "internalType": "address",
          "name": "asset",
          "type": "address"
        },
        {
          "internalType": "address",
          "name": "vault",
          "type": "address"
        }
      ],
      "name": "AssetDoesNotMatchVault",
      "type": "error"
    },
    {
      "inputs": [
        {
          "internalType": "uint8",
          "name": "shareDecimals",
          "type": "uint8"
        },
        {
          "internalType": "uint8",
          "name": "assetDecimals",
          "type": "uint8"
        }
      ],
      "name": "UnsupportedDecimals",
      "type": "error"
    },
    {
      "inputs": [],
      "name": "VaultAddressZero",
      "type": "error"
    },
    {
      "inputs": [
        {
          "internalType": "address",
          "name": "vault",
          "type": "address"
        }
      ],
      "name": "VaultNotContract",
      "type": "error"
    },
    {
      "inputs": [
        {
          "internalType": "address",
          "name": "asset",
          "type": "address"
        }
      ],
      "name": "VaultNotSet",
      "type": "error"
    },
    {
      "anonymous": false,
      "inputs": [
        {
          "indexed": true,
          "internalType": "bytes32",
          "name": "role",
          "type": "bytes32"
        },
        {
          "indexed": true,
          "internalType": "bytes32",
          "name": "previousAdminRole",
          "type": "bytes32"
        },
        {
          "indexed": true,
          "internalType": "bytes32",
          "name": "newAdminRole",
          "type": "bytes32"
        }
      ],
      "name": "RoleAdminChanged",
      "type": "event"
    },
    {
      "anonymous": false,
      "inputs": [
        {
          "indexed": true,
          "internalType": "bytes32",
          "name": "role",
          "type": "bytes32"
        },
        {
          "indexed": true,
          "internalType": "address",
          "name": "account",
          "type": "address"
        },
        {
          "indexed": true,
          "internalType": "address",
          "name": "sender",
          "type": "address"
        }
      ],
      "name": "RoleGranted",
      "type": "event"
    },
    {
      "anonymous": false,
      "inputs": [
        {
          "indexed": true,
          "internalType": "bytes32",
          "name": "role",
          "type": "bytes32"
        },
        {
          "indexed": true,
          "internalType": "address",
          "name": "account",
          "type": "address"
        },
        {
          "indexed": true,
          "internalType": "address",
          "name": "sender",
          "type": "address"
        }
      ],
      "name": "RoleRevoked",
      "type": "event"
    },
    {
      "anonymous": false,
      "inputs": [
        {
          "indexed": true,
          "internalType": "address",
          "name": "asset",
          "type": "address"
        }
      ],
      "name": "VaultRemoved",
      "type": "event"
    },
    {
      "anonymous": false,
      "inputs": [
        {
          "indexed": true,
          "internalType": "address",
          "name": "asset",
          "type": "address"
        },
        {
          "indexed": true,
          "internalType": "address",
          "name": "vault",
          "type": "address"
        },
        {
          "indexed": false,
          "internalType": "uint8",
          "name": "shareDecimals",
          "type": "uint8"
        },
        {
          "indexed": false,
          "internalType": "uint8",
          "name": "assetDecimals",
          "type": "uint8"
        }
      ],
      "name": "VaultSet",
      "type": "event"
    },
    {
      "inputs": [],
      "name": "BASE_CURRENCY",
      "outputs": [
        {
          "internalType": "address",
          "name": "",
          "type": "address"
        }
      ],
      "stateMutability": "view",
      "type": "function"
    },
    {
      "inputs": [],
      "name": "BASE_CURRENCY_UNIT",
      "outputs": [
        {
          "internalType": "uint256",
          "name": "",
          "type": "uint256"
        }
      ],
      "stateMutability": "view",
      "type": "function"
    },
    {
      "inputs": [],
      "name": "DEFAULT_ADMIN_ROLE",
      "outputs": [
        {
          "internalType": "bytes32",
          "name": "",
          "type": "bytes32"
        }
      ],
      "stateMutability": "view",
      "type": "function"
    },
    {
      "inputs": [],
      "name": "ORACLE_MANAGER_ROLE",
      "outputs": [
        {
          "internalType": "bytes32",
          "name": "",
          "type": "bytes32"
        }
      ],
      "stateMutability": "view",
      "type": "function"
    },
    {
      "inputs": [
        {
          "internalType": "address",
          "name": "",
          "type": "address"
        }
      ],
      "name": "assetToVault",
      "outputs": [
        {
          "internalType": "contract IERC4626",
          "name": "vault",
          "type": "address"
        },
        {
          "internalType": "uint8",
          "name": "shareDecimals",
          "type": "uint8"
        },
        {
          "internalType": "uint8",
          "name": "assetDecimals",
          "type": "uint8"
        }
      ],
      "stateMutability": "view",
      "type": "function"
    },
    {
      "inputs": [
        {
          "internalType": "address",
          "name": "asset",
          "type": "address"
        }
      ],
      "name": "getAssetPrice",
      "outputs": [
        {
          "internalType": "uint256",
          "name": "",
          "type": "uint256"
        }
      ],
      "stateMutability": "view",
      "type": "function"
    },
    {
      "inputs": [
        {
          "internalType": "address",
          "name": "asset",
          "type": "address"
        }
      ],
      "name": "getPriceInfo",
      "outputs": [
        {
          "internalType": "uint256",
          "name": "price",
          "type": "uint256"
        },
        {
          "internalType": "bool",
          "name": "isAlive",
          "type": "bool"
        }
      ],
      "stateMutability": "view",
      "type": "function"
    },
    {
      "inputs": [
        {
          "internalType": "bytes32",
          "name": "role",
          "type": "bytes32"
        }
      ],
      "name": "getRoleAdmin",
      "outputs": [
        {
          "internalType": "bytes32",
          "name": "",
          "type": "bytes32"
        }
      ],
      "stateMutability": "view",
      "type": "function"
    },
    {
      "inputs": [
        {
          "internalType": "bytes32",
          "name": "role",
          "type": "bytes32"
        },
        {
          "internalType": "address",
          "name": "account",
          "type": "address"
        }
      ],
      "name": "grantRole",
      "outputs": [],
      "stateMutability": "nonpayable",
      "type": "function"
    },
    {
      "inputs": [
        {
          "internalType": "bytes32",
          "name": "role",
          "type": "bytes32"
        },
        {
          "internalType": "address",
          "name": "account",
          "type": "address"
        }
      ],
      "name": "hasRole",
      "outputs": [
        {
          "internalType": "bool",
          "name": "",
          "type": "bool"
        }
      ],
      "stateMutability": "view",
      "type": "function"
    },
    {
      "inputs": [
        {
          "internalType": "address",
          "name": "asset",
          "type": "address"
        }
      ],
      "name": "removeVault",
      "outputs": [],
      "stateMutability": "nonpayable",
      "type": "function"
    },
    {
      "inputs": [
        {
          "internalType": "bytes32",
          "name": "role",
          "type": "bytes32"
        },
        {
          "internalType": "address",
          "name": "callerConfirmation",
          "type": "address"
        }
      ],
      "name": "renounceRole",
      "outputs": [],
      "stateMutability": "nonpayable",
      "type": "function"
    },
    {
      "inputs": [
        {
          "internalType": "bytes32",
          "name": "role",
          "type": "bytes32"
        },
        {
          "internalType": "address",
          "name": "account",
          "type": "address"
        }
      ],
      "name": "revokeRole",
      "outputs": [],
      "stateMutability": "nonpayable",
      "type": "function"
    },
    {
      "inputs": [
        {
          "internalType": "address",
          "name": "asset",
          "type": "address"
        },
        {
          "internalType": "address",
          "name": "vault",
          "type": "address"
        }
      ],
      "name": "setVault",
      "outputs": [],
      "stateMutability": "nonpayable",
      "type": "function"
    },
    {
      "inputs": [
        {
          "internalType": "bytes4",
          "name": "interfaceId",
          "type": "bytes4"
        }
      ],
      "name": "supportsInterface",
      "outputs": [
        {
          "internalType": "bool",
          "name": "",
          "type": "bool"
        }
      ],
      "stateMutability": "view",
      "type": "function"
    }
  ],
  "transactionHash": "0x80e0516cb5ec0230f80dc14a0afcd5fb3ad2408891b9c69b33328b0a098d3a52",
  "args": [
    "0xC02aaA39b223FE8D0A0e5C4F27eAD9083C756Cc2",
    "1000000000000000000"
  ],
  "numDeployments": 1,
  "solcInputHash": "adab849ce58767c146054426a46b2d1c",
  "bytecode": "0x60c060405234801561001057600080fd5b50604051610eab380380610eab83398101604081905261002f9161012b565b6001600160a01b03821660805260a081905261004c60003361007f565b506100777fced6982f480260bdd8ad5cb18ff2854f0306d78d904ad6cc107e8f3a0f526c183361007f565b505050610165565b6000828152602081815260408083206001600160a01b038516845290915281205460ff16610121576000838152602081815260408083206001600160a01b03861684529091529020805460ff191660011790556100d93390565b6001600160a01b0316826001600160a01b0316847f2f8788117e7eff1d82e926ec794901d17c78024a50270940304540a733656f0d60405160405180910390a4506001610125565b5060005b92915050565b6000806040838503121561013e57600080fd5b82516001600160a01b038116811461015557600080fd5b6020939093015192949293505050565b60805160a051610d1a6101916000396000818161019301526107ca0152600061025d0152610d1a6000f3fe608060405234801561001057600080fd5b50600436106100f55760003560e01c806391d1485411610097578063ceb68c2311610066578063ceb68c2314610232578063d547741f14610245578063e19f470014610258578063fc509cab1461029757600080fd5b806391d14854146101dd578063a217fddf146101f0578063b3596f07146101f8578063bfc69e1c1461020b57600080fd5b806336568abe116100d357806336568abe14610168578063714ccf7b1461017b5780638c89b64f1461018e5780638edbf436146101b557600080fd5b806301ffc9a7146100fa578063248a9ca3146101225780632f2ff15d14610153575b600080fd5b61010d610108366004610a6f565b6102ff565b60405190151581526020015b60405180910390f35b610145610130366004610aa0565b60009081526020819052604090206001015490565b604051908152602001610119565b610166610161366004610ace565b610336565b005b610166610176366004610ace565b610361565b610166610189366004610afe565b610399565b6101457f000000000000000000000000000000000000000000000000000000000000000081565b6101c86101c3366004610b2c565b6106ae565b60408051928352901515602083015201610119565b61010d6101eb366004610ace565b610808565b610145600081565b610145610206366004610b2c565b610831565b6101457fced6982f480260bdd8ad5cb18ff2854f0306d78d904ad6cc107e8f3a0f526c1881565b610166610240366004610b2c565b610889565b610166610253366004610ace565b610903565b61027f7f000000000000000000000000000000000000000000000000000000000000000081565b6040516001600160a01b039091168152602001610119565b6102d66102a5366004610b2c565b6001602052600090815260409020546001600160a01b0381169060ff600160a01b8204811691600160a81b90041683565b604080516001600160a01b03909416845260ff9283166020850152911690820152606001610119565b60006001600160e01b03198216637965db0b60e01b148061033057506301ffc9a760e01b6001600160e01b03198316145b92915050565b60008281526020819052604090206001015461035181610928565b61035b8383610935565b50505050565b6001600160a01b038116331461038a5760405163334bd91960e11b815260040160405180910390fd5b61039482826109c7565b505050565b7fced6982f480260bdd8ad5cb18ff2854f0306d78d904ad6cc107e8f3a0f526c186103c381610928565b6001600160a01b0382166103ea5760405163dc3ec02760e01b815260040160405180910390fd5b816001600160a01b03163b60000361042557604051636a2bda4760e01b81526001600160a01b03831660048201526024015b60405180910390fd5b816001600160a01b0316836001600160a01b03161461046a57604051632ad9e97b60e21b81526001600160a01b0380851660048301528316602482015260440161041c565b60008290506000836001600160a01b031663313ce5676040518163ffffffff1660e01b8152600401602060405180830381865afa1580156104af573d6000803e3d6000fd5b505050506040513d601f19601f820116820180604052508101906104d39190610b49565b90506000826001600160a01b03166338d52e0f6040518163ffffffff1660e01b8152600401602060405180830381865afa158015610515573d6000803e3d6000fd5b505050506040513d601f19601f820116820180604052508101906105399190610b6c565b6001600160a01b031663313ce5676040518163ffffffff1660e01b8152600401602060405180830381865afa158015610576573d6000803e3d6000fd5b505050506040513d601f19601f8201168201806040525081019061059a9190610b49565b905060ff821615806105ad575060ff8116155b806105bb575060128260ff16115b806105c9575060128160ff16115b156105f4576040516312d8da6b60e31b815260ff80841660048301528216602482015260440161041c565b604080516060810182526001600160a01b03858116825260ff85811660208085018281528784168688018181528e87166000818152600186528a902098518954945192518816600160a81b0260ff60a81b1993909816600160a01b026001600160a81b0319909516908916179390931716949094179095558551918252810191909152908816927f853c2f6731d2a50f141fef201fcabb4751664346755ddff499530eab53d2d7b9910160405180910390a3505050505050565b6001600160a01b0380821660009081526001602090815260408083208151606081018352905494851680825260ff600160a01b8704811694830194909452600160a81b90950490921690820152909182919061072857604051633445581960e01b81526001600160a01b038516600482015260240161041c565b60008160200151600a61073b9190610c83565b82516040516303d1689d60e11b8152600481018390529192506000916001600160a01b03909116906307a2d13a90602401602060405180830381865afa158015610789573d6000803e3d6000fd5b505050506040513d601f19601f820116820180604052508101906107ad9190610c92565b905060008360400151600a6107c29190610c83565b9050806107ef7f000000000000000000000000000000000000000000000000000000000000000084610cab565b6107f99190610cc2565b97881515975095505050505050565b6000918252602082815260408084206001600160a01b0393909316845291905290205460ff1690565b600080600061083f846106ae565b91509150806108825760405162461bcd60e51b815260206004820152600f60248201526e5072696365206e6f7420616c69766560881b604482015260640161041c565b5092915050565b7fced6982f480260bdd8ad5cb18ff2854f0306d78d904ad6cc107e8f3a0f526c186108b381610928565b6001600160a01b03821660008181526001602052604080822080546001600160b01b0319169055517fe71f3a50e5ad81964f352c411f1d45e35438ecd1acecef59ac81d9fbbf6cbc0a9190a25050565b60008281526020819052604090206001015461091e81610928565b61035b83836109c7565b6109328133610a32565b50565b60006109418383610808565b6109bf576000838152602081815260408083206001600160a01b03861684529091529020805460ff191660011790556109773390565b6001600160a01b0316826001600160a01b0316847f2f8788117e7eff1d82e926ec794901d17c78024a50270940304540a733656f0d60405160405180910390a4506001610330565b506000610330565b60006109d38383610808565b156109bf576000838152602081815260408083206001600160a01b0386168085529252808320805460ff1916905551339286917ff6391f5c32d9c69d2a47ea670b442974b53935d1edc7fd64eb21e047a839171b9190a4506001610330565b610a3c8282610808565b610a6b5760405163e2517d3f60e01b81526001600160a01b03821660048201526024810183905260440161041c565b5050565b600060208284031215610a8157600080fd5b81356001600160e01b031981168114610a9957600080fd5b9392505050565b600060208284031215610ab257600080fd5b5035919050565b6001600160a01b038116811461093257600080fd5b60008060408385031215610ae157600080fd5b823591506020830135610af381610ab9565b809150509250929050565b60008060408385031215610b1157600080fd5b8235610b1c81610ab9565b91506020830135610af381610ab9565b600060208284031215610b3e57600080fd5b8135610a9981610ab9565b600060208284031215610b5b57600080fd5b815160ff81168114610a9957600080fd5b600060208284031215610b7e57600080fd5b8151610a9981610ab9565b634e487b7160e01b600052601160045260246000fd5b600181815b80851115610bda578160001904821115610bc057610bc0610b89565b80851615610bcd57918102915b93841c9390800290610ba4565b509250929050565b600082610bf157506001610330565b81610bfe57506000610330565b8160018114610c145760028114610c1e57610c3a565b6001915050610330565b60ff841115610c2f57610c2f610b89565b50506001821b610330565b5060208310610133831016604e8410600b8410161715610c5d575081810a610330565b610c678383610b9f565b8060001904821115610c7b57610c7b610b89565b029392505050565b6000610a9960ff841683610be2565b600060208284031215610ca457600080fd5b5051919050565b808202811582820484141761033057610330610b89565b600082610cdf57634e487b7160e01b600052601260045260246000fd5b50049056fea264697066735822122081d5ca945cc6587b7adfc0bf5f6e5c3643b534e17abcdd1a38efdf7286c967b264736f6c63430008160033",
  "devdoc": {
    "details": "Returns the vault's exchange rate as the price. Useful for assets like sfrxETH where frxETH  1 ETH.      Price calculation: convertToAssets(1 share) scaled to BASE_CURRENCY_UNIT      This wrapper is simpler than ChainlinkERC4626WrapperV1_1 because it doesn't require      a separate price feed for the underlying asset - it assumes the underlying is 1:1 with base.",
    "errors": {
      "AccessControlBadConfirmation()": [
        {
          "details": "The caller of a function is not the expected one. NOTE: Don't confuse with {AccessControlUnauthorizedAccount}."
        }
      ],
      "AccessControlUnauthorizedAccount(address,bytes32)": [
        {
          "details": "The `account` is missing a role."
        }
      ]
    },
    "events": {
      "RoleAdminChanged(bytes32,bytes32,bytes32)": {
        "details": "Emitted when `newAdminRole` is set as ``role``'s admin role, replacing `previousAdminRole` `DEFAULT_ADMIN_ROLE` is the starting admin for all roles, despite {RoleAdminChanged} not being emitted to signal this."
      },
      "RoleGranted(bytes32,address,address)": {
        "details": "Emitted when `account` is granted `role`. `sender` is the account that originated the contract call. This account bears the admin role (for the granted role). Expected in cases where the role was granted using the internal {AccessControl-_grantRole}."
      },
      "RoleRevoked(bytes32,address,address)": {
        "details": "Emitted when `account` is revoked `role`. `sender` is the account that originated the contract call:   - if using `revokeRole`, it is the admin role bearer   - if using `renounceRole`, it is the role bearer (i.e. `account`)"
      }
    },
    "kind": "dev",
    "methods": {
      "getAssetPrice(address)": {
        "params": {
          "asset": "The address of the asset"
        },
        "returns": {
          "_0": "The price of the asset"
        }
      },
      "getPriceInfo(address)": {
        "details": "Price = convertToAssets(1 share) scaled to BASE_CURRENCY_UNIT.      Assumes the underlying asset is 1:1 with base currency.",
        "params": {
          "asset": "The address of the asset"
        },
        "returns": {
          "isAlive": "The alive status of the asset",
          "price": "The price of the asset"
        }
      },
      "getRoleAdmin(bytes32)": {
        "details": "Returns the admin role that controls `role`. See {grantRole} and {revokeRole}. To change a role's admin, use {_setRoleAdmin}."
      },
      "grantRole(bytes32,address)": {
        "details": "Grants `role` to `account`. If `account` had not been already granted `role`, emits a {RoleGranted} event. Requirements: - the caller must have ``role``'s admin role. May emit a {RoleGranted} event."
      },
      "hasRole(bytes32,address)": {
        "details": "Returns `true` if `account` has been granted `role`."
      },
      "removeVault(address)": {
        "params": {
          "asset": "The vault share token whose configuration will be removed"
        }
      },
      "renounceRole(bytes32,address)": {
        "details": "Revokes `role` from the calling account. Roles are often managed via {grantRole} and {revokeRole}: this function's purpose is to provide a mechanism for accounts to lose their privileges if they are compromised (such as when a trusted device is misplaced). If the calling account had been revoked `role`, emits a {RoleRevoked} event. Requirements: - the caller must be `callerConfirmation`. May emit a {RoleRevoked} event."
      },
      "revokeRole(bytes32,address)": {
        "details": "Revokes `role` from `account`. If `account` had been granted `role`, emits a {RoleRevoked} event. Requirements: - the caller must have ``role``'s admin role. May emit a {RoleRevoked} event."
      },
      "setVault(address,address)": {
        "params": {
          "asset": "The vault share token to price (must equal the vault address)",
          "vault": "The ERC4626 vault address"
        }
      },
      "supportsInterface(bytes4)": {
        "details": "Returns true if this contract implements the interface defined by `interfaceId`. See the corresponding https://eips.ethereum.org/EIPS/eip-165#how-interfaces-are-identified[ERC section] to learn more about how these ids are created. This function call must use less than 30 000 gas."
      }
    },
    "stateVariables": {
      "BASE_CURRENCY": {
        "details": "Address 0x0 is commonly used for USD, but can be any token address based on the implementation.",
        "return": "Returns the base currency address.",
        "returns": {
          "_0": "Returns the base currency address."
        }
      },
      "BASE_CURRENCY_UNIT": {
        "details": "Represents the decimal precision of the base currency (e.g., 1e8 for USD, 1e18 for ETH).",
        "return": "Returns the base currency unit.",
        "returns": {
          "_0": "Returns the base currency unit."
        }
      }
    },
    "title": "ERC4626OracleWrapperV1_1",
    "version": 1
  },
  "userdoc": {
    "kind": "user",
    "methods": {
      "BASE_CURRENCY()": {
        "notice": "Returns the base currency address"
      },
      "BASE_CURRENCY_UNIT()": {
        "notice": "Returns the base currency unit"
      },
      "getAssetPrice(address)": {
        "notice": "Returns the asset price in the base currency"
      },
      "getPriceInfo(address)": {
        "notice": "Returns the price and alive status of an asset"
      },
      "removeVault(address)": {
        "notice": "Removes a vault configuration"
      },
      "setVault(address,address)": {
        "notice": "Registers an ERC4626 vault for pricing"
      }
    },
    "notice": "Oracle wrapper for ERC4626 vaults where the underlying asset is pegged 1:1 with the base currency.",
    "version": 1
  },
  "storageLayout": {
    "storage": [
      {
        "astId": 27,
        "contract": "contracts/oracle_aggregator/wrapper/ERC4626OracleWrapperV1_1.sol:ERC4626OracleWrapperV1_1",
        "label": "_roles",
        "offset": 0,
        "slot": "0",
        "type": "t_mapping(t_bytes32,t_struct(RoleData)22_storage)"
      },
      {
        "astId": 788,
        "contract": "contracts/oracle_aggregator/wrapper/ERC4626OracleWrapperV1_1.sol:ERC4626OracleWrapperV1_1",
        "label": "assetToVault",
        "offset": 0,
        "slot": "1",
        "type": "t_mapping(t_address,t_struct(VaultConfig)783_storage)"
      }
    ],
    "types": {
      "t_address": {
        "encoding": "inplace",
        "label": "address",
        "numberOfBytes": "20"
      },
      "t_bool": {
        "encoding": "inplace",
        "label": "bool",
        "numberOfBytes": "1"
      },
      "t_bytes32": {
        "encoding": "inplace",
        "label": "bytes32",
        "numberOfBytes": "32"
      },
      "t_contract(IERC4626)549": {
        "encoding": "inplace",
        "label": "contract IERC4626",
        "numberOfBytes": "20"
      },
      "t_mapping(t_address,t_bool)": {
        "encoding": "mapping",
        "key": "t_address",
        "label": "mapping(address => bool)",
        "numberOfBytes": "32",
        "value": "t_bool"
      },
      "t_mapping(t_address,t_struct(VaultConfig)783_storage)": {
        "encoding": "mapping",
        "key": "t_address",
        "label": "mapping(address => struct ERC4626OracleWrapperV1_1.VaultConfig)",
        "numberOfBytes": "32",
        "value": "t_struct(VaultConfig)783_storage"
      },
      "t_mapping(t_bytes32,t_struct(RoleData)22_storage)": {
        "encoding": "mapping",
        "key": "t_bytes32",
        "label": "mapping(bytes32 => struct AccessControl.RoleData)",
        "numberOfBytes": "32",
        "value": "t_struct(RoleData)22_storage"
      },
      "t_struct(RoleData)22_storage": {
        "encoding": "inplace",
        "label": "struct AccessControl.RoleData",
        "members": [
          {
            "astId": 19,
            "contract": "contracts/oracle_aggregator/wrapper/ERC4626OracleWrapperV1_1.sol:ERC4626OracleWrapperV1_1",
            "label": "hasRole",
            "offset": 0,
            "slot": "0",
            "type": "t_mapping(t_address,t_bool)"
          },
          {
            "astId": 21,
            "contract": "contracts/oracle_aggregator/wrapper/ERC4626OracleWrapperV1_1.sol:ERC4626OracleWrapperV1_1",
            "label": "adminRole",
            "offset": 0,
            "slot": "1",
            "type": "t_bytes32"
          }
        ],
        "numberOfBytes": "64"
      },
      "t_struct(VaultConfig)783_storage": {
        "encoding": "inplace",
        "label": "struct ERC4626OracleWrapperV1_1.VaultConfig",
        "members": [
          {
            "astId": 778,
            "contract": "contracts/oracle_aggregator/wrapper/ERC4626OracleWrapperV1_1.sol:ERC4626OracleWrapperV1_1",
            "label": "vault",
            "offset": 0,
            "slot": "0",
            "type": "t_contract(IERC4626)549"
          },
          {
            "astId": 780,
            "contract": "contracts/oracle_aggregator/wrapper/ERC4626OracleWrapperV1_1.sol:ERC4626OracleWrapperV1_1",
            "label": "shareDecimals",
            "offset": 20,
            "slot": "0",
            "type": "t_uint8"
          },
          {
            "astId": 782,
            "contract": "contracts/oracle_aggregator/wrapper/ERC4626OracleWrapperV1_1.sol:ERC4626OracleWrapperV1_1",
            "label": "assetDecimals",
            "offset": 21,
            "slot": "0",
            "type": "t_uint8"
          }
        ],
        "numberOfBytes": "32"
      },
      "t_uint8": {
        "encoding": "inplace",
        "label": "uint8",
        "numberOfBytes": "1"
      }
    }
  }
}