{
  "address": "0xefd794E2D8024F3C25aA343588dd6D4481b5Db7c",
  "abi": [
    {
      "inputs": [
        {
          "internalType": "address",
          "name": "_dStable",
          "type": "address"
        },
        {
          "internalType": "address",
          "name": "_vault",
          "type": "address"
        },
        {
          "internalType": "address",
          "name": "_collateralVault",
          "type": "address"
        }
      ],
      "stateMutability": "nonpayable",
      "type": "constructor"
    },
    {
      "inputs": [],
      "name": "AccessControlBadConfirmation",
      "type": "error"
    },
    {
      "inputs": [
        {
          "internalType": "address",
          "name": "account",
          "type": "address"
        },
        {
          "internalType": "bytes32",
          "name": "neededRole",
          "type": "bytes32"
        }
      ],
      "name": "AccessControlUnauthorizedAccount",
      "type": "error"
    },
    {
      "inputs": [
        {
          "internalType": "address",
          "name": "expected",
          "type": "address"
        },
        {
          "internalType": "address",
          "name": "actual",
          "type": "address"
        }
      ],
      "name": "IncorrectStrategyShare",
      "type": "error"
    },
    {
      "inputs": [],
      "name": "InvalidAmount",
      "type": "error"
    },
    {
      "inputs": [
        {
          "internalType": "address",
          "name": "token",
          "type": "address"
        }
      ],
      "name": "SafeERC20FailedOperation",
      "type": "error"
    },
    {
      "inputs": [
        {
          "internalType": "address",
          "name": "caller",
          "type": "address"
        }
      ],
      "name": "UnauthorizedCaller",
      "type": "error"
    },
    {
      "inputs": [
        {
          "internalType": "address",
          "name": "expected",
          "type": "address"
        },
        {
          "internalType": "address",
          "name": "actual",
          "type": "address"
        }
      ],
      "name": "VaultAssetMismatch",
      "type": "error"
    },
    {
      "inputs": [],
      "name": "ZeroAddress",
      "type": "error"
    },
    {
      "anonymous": false,
      "inputs": [
        {
          "indexed": true,
          "internalType": "address",
          "name": "caller",
          "type": "address"
        },
        {
          "indexed": false,
          "internalType": "bool",
          "name": "isAuthorized",
          "type": "bool"
        },
        {
          "indexed": true,
          "internalType": "address",
          "name": "admin",
          "type": "address"
        }
      ],
      "name": "AuthorizedCallerUpdated",
      "type": "event"
    },
    {
      "anonymous": false,
      "inputs": [
        {
          "indexed": true,
          "internalType": "address",
          "name": "token",
          "type": "address"
        },
        {
          "indexed": false,
          "internalType": "uint256",
          "name": "amount",
          "type": "uint256"
        },
        {
          "indexed": true,
          "internalType": "address",
          "name": "recipient",
          "type": "address"
        }
      ],
      "name": "EmergencyWithdraw",
      "type": "event"
    },
    {
      "anonymous": false,
      "inputs": [
        {
          "indexed": true,
          "internalType": "bytes32",
          "name": "role",
          "type": "bytes32"
        },
        {
          "indexed": true,
          "internalType": "bytes32",
          "name": "previousAdminRole",
          "type": "bytes32"
        },
        {
          "indexed": true,
          "internalType": "bytes32",
          "name": "newAdminRole",
          "type": "bytes32"
        }
      ],
      "name": "RoleAdminChanged",
      "type": "event"
    },
    {
      "anonymous": false,
      "inputs": [
        {
          "indexed": true,
          "internalType": "bytes32",
          "name": "role",
          "type": "bytes32"
        },
        {
          "indexed": true,
          "internalType": "address",
          "name": "account",
          "type": "address"
        },
        {
          "indexed": true,
          "internalType": "address",
          "name": "sender",
          "type": "address"
        }
      ],
      "name": "RoleGranted",
      "type": "event"
    },
    {
      "anonymous": false,
      "inputs": [
        {
          "indexed": true,
          "internalType": "bytes32",
          "name": "role",
          "type": "bytes32"
        },
        {
          "indexed": true,
          "internalType": "address",
          "name": "account",
          "type": "address"
        },
        {
          "indexed": true,
          "internalType": "address",
          "name": "sender",
          "type": "address"
        }
      ],
      "name": "RoleRevoked",
      "type": "event"
    },
    {
      "inputs": [],
      "name": "AUTHORIZED_CALLER_ROLE",
      "outputs": [
        {
          "internalType": "bytes32",
          "name": "",
          "type": "bytes32"
        }
      ],
      "stateMutability": "view",
      "type": "function"
    },
    {
      "inputs": [],
      "name": "DEFAULT_ADMIN_ROLE",
      "outputs": [
        {
          "internalType": "bytes32",
          "name": "",
          "type": "bytes32"
        }
      ],
      "stateMutability": "view",
      "type": "function"
    },
    {
      "inputs": [],
      "name": "collateralVault",
      "outputs": [
        {
          "internalType": "address",
          "name": "",
          "type": "address"
        }
      ],
      "stateMutability": "view",
      "type": "function"
    },
    {
      "inputs": [],
      "name": "dStable",
      "outputs": [
        {
          "internalType": "address",
          "name": "",
          "type": "address"
        }
      ],
      "stateMutability": "view",
      "type": "function"
    },
    {
      "inputs": [
        {
          "internalType": "uint256",
          "name": "stableAmount",
          "type": "uint256"
        }
      ],
      "name": "depositIntoStrategy",
      "outputs": [
        {
          "internalType": "address",
          "name": "shareToken",
          "type": "address"
        },
        {
          "internalType": "uint256",
          "name": "strategyShareAmount",
          "type": "uint256"
        }
      ],
      "stateMutability": "nonpayable",
      "type": "function"
    },
    {
      "inputs": [
        {
          "internalType": "address",
          "name": "token",
          "type": "address"
        },
        {
          "internalType": "uint256",
          "name": "amount",
          "type": "uint256"
        }
      ],
      "name": "emergencyWithdraw",
      "outputs": [],
      "stateMutability": "nonpayable",
      "type": "function"
    },
    {
      "inputs": [
        {
          "internalType": "bytes32",
          "name": "role",
          "type": "bytes32"
        }
      ],
      "name": "getRoleAdmin",
      "outputs": [
        {
          "internalType": "bytes32",
          "name": "",
          "type": "bytes32"
        }
      ],
      "stateMutability": "view",
      "type": "function"
    },
    {
      "inputs": [
        {
          "internalType": "bytes32",
          "name": "role",
          "type": "bytes32"
        },
        {
          "internalType": "address",
          "name": "account",
          "type": "address"
        }
      ],
      "name": "grantRole",
      "outputs": [],
      "stateMutability": "nonpayable",
      "type": "function"
    },
    {
      "inputs": [
        {
          "internalType": "bytes32",
          "name": "role",
          "type": "bytes32"
        },
        {
          "internalType": "address",
          "name": "account",
          "type": "address"
        }
      ],
      "name": "hasRole",
      "outputs": [
        {
          "internalType": "bool",
          "name": "",
          "type": "bool"
        }
      ],
      "stateMutability": "view",
      "type": "function"
    },
    {
      "inputs": [
        {
          "internalType": "uint256",
          "name": "stableAmount",
          "type": "uint256"
        }
      ],
      "name": "previewDepositIntoStrategy",
      "outputs": [
        {
          "internalType": "address",
          "name": "shareToken",
          "type": "address"
        },
        {
          "internalType": "uint256",
          "name": "strategyShareAmount",
          "type": "uint256"
        }
      ],
      "stateMutability": "view",
      "type": "function"
    },
    {
      "inputs": [
        {
          "internalType": "uint256",
          "name": "strategyShareAmount",
          "type": "uint256"
        }
      ],
      "name": "previewWithdrawFromStrategy",
      "outputs": [
        {
          "internalType": "uint256",
          "name": "stableAmount",
          "type": "uint256"
        }
      ],
      "stateMutability": "view",
      "type": "function"
    },
    {
      "inputs": [
        {
          "internalType": "bytes32",
          "name": "role",
          "type": "bytes32"
        },
        {
          "internalType": "address",
          "name": "callerConfirmation",
          "type": "address"
        }
      ],
      "name": "renounceRole",
      "outputs": [],
      "stateMutability": "nonpayable",
      "type": "function"
    },
    {
      "inputs": [
        {
          "internalType": "bytes32",
          "name": "role",
          "type": "bytes32"
        },
        {
          "internalType": "address",
          "name": "account",
          "type": "address"
        }
      ],
      "name": "revokeRole",
      "outputs": [],
      "stateMutability": "nonpayable",
      "type": "function"
    },
    {
      "inputs": [
        {
          "internalType": "address",
          "name": "caller",
          "type": "address"
        },
        {
          "internalType": "bool",
          "name": "authorized",
          "type": "bool"
        }
      ],
      "name": "setAuthorizedCaller",
      "outputs": [],
      "stateMutability": "nonpayable",
      "type": "function"
    },
    {
      "inputs": [],
      "name": "strategyShare",
      "outputs": [
        {
          "internalType": "address",
          "name": "",
          "type": "address"
        }
      ],
      "stateMutability": "view",
      "type": "function"
    },
    {
      "inputs": [
        {
          "internalType": "address",
          "name": "_strategyShare",
          "type": "address"
        },
        {
          "internalType": "uint256",
          "name": "strategyShareAmount",
          "type": "uint256"
        }
      ],
      "name": "strategyShareValueInDStable",
      "outputs": [
        {
          "internalType": "uint256",
          "name": "stableValue",
          "type": "uint256"
        }
      ],
      "stateMutability": "view",
      "type": "function"
    },
    {
      "inputs": [
        {
          "internalType": "bytes4",
          "name": "interfaceId",
          "type": "bytes4"
        }
      ],
      "name": "supportsInterface",
      "outputs": [
        {
          "internalType": "bool",
          "name": "",
          "type": "bool"
        }
      ],
      "stateMutability": "view",
      "type": "function"
    },
    {
      "inputs": [],
      "name": "vault",
      "outputs": [
        {
          "internalType": "contract IERC4626",
          "name": "",
          "type": "address"
        }
      ],
      "stateMutability": "view",
      "type": "function"
    },
    {
      "inputs": [],
      "name": "vaultAsset",
      "outputs": [
        {
          "internalType": "address",
          "name": "",
          "type": "address"
        }
      ],
      "stateMutability": "view",
      "type": "function"
    },
    {
      "inputs": [
        {
          "internalType": "uint256",
          "name": "strategyShareAmount",
          "type": "uint256"
        }
      ],
      "name": "withdrawFromStrategy",
      "outputs": [
        {
          "internalType": "uint256",
          "name": "stableAmount",
          "type": "uint256"
        }
      ],
      "stateMutability": "nonpayable",
      "type": "function"
    }
  ],
  "transactionHash": "0xa62576736998b8ac00ecc1a5f9fad5cefc172948c8079aea393c9f1d2818bb0c",
  "args": [
    "0x07fFf99e1664d9B116fbC158c0E99785F81cA236",
    "0x78a4DAD0AC32c80Da6eF60a366b1C035145380bc",
    "0x4aCBcFa29fb085097c5f31783403EF7A7930F6Fe"
  ],
  "numDeployments": 1,
  "solcInputHash": "6a00e9aaba010a341218c5f7ed2041bf",
  "bytecode": "0x60e06040523480156200001157600080fd5b5060405162001415380380620014158339810160408190526200003491620002a2565b6001600160a01b03831615806200005257506001600160a01b038216155b806200006557506001600160a01b038116155b15620000845760405163d92e233d60e01b815260040160405180910390fd5b826001600160a01b0316826001600160a01b03166338d52e0f6040518163ffffffff1660e01b8152600401602060405180830381865afa158015620000cd573d6000803e3d6000fd5b505050506040513d601f19601f82011682018060405250810190620000f39190620002ec565b6001600160a01b031614620001985782826001600160a01b03166338d52e0f6040518163ffffffff1660e01b8152600401602060405180830381865afa15801562000142573d6000803e3d6000fd5b505050506040513d601f19601f82011682018060405250810190620001689190620002ec565b60405163dd72360360e01b81526001600160a01b0392831660048201529116602482015260440160405180910390fd5b6001600160a01b0380841660805282811660a052811660c052620001be600033620001d6565b50620001cc600082620001d6565b5050505062000311565b6000828152602081815260408083206001600160a01b038516845290915281205460ff166200027b576000838152602081815260408083206001600160a01b03861684529091529020805460ff19166001179055620002323390565b6001600160a01b0316826001600160a01b0316847f2f8788117e7eff1d82e926ec794901d17c78024a50270940304540a733656f0d60405160405180910390a45060016200027f565b5060005b92915050565b80516001600160a01b03811681146200029d57600080fd5b919050565b600080600060608486031215620002b857600080fd5b620002c38462000285565b9250620002d36020850162000285565b9150620002e36040850162000285565b90509250925092565b600060208284031215620002ff57600080fd5b6200030a8262000285565b9392505050565b60805160a05160c051611056620003bf6000396000818161017f01528181610871015281816109ef0152610a160152600081816102530152818161032a01528181610387015281816103d50152818161042501528181610688015281816106d20152818161082e01528181610899015281816109370152818161095f01528181610a9f0152610b280152600081816101be015281816107d70152818161080c015261091501526110566000f3fe608060405234801561001057600080fd5b506004361061012c5760003560e01c80636f81a6b0116100ad578063a412fa2811610071578063a412fa28146102ea578063d547741f146102fd578063dd5ead8f14610251578063f573388e14610310578063fbfa77cf1461032557600080fd5b80636f81a6b01461027757806391d14854146102a957806395ccea67146102bc5780639c544e9f146102cf578063a217fddf146102e257600080fd5b80632f2ff15d116100f45780632f2ff15d1461020357806336568abe14610218578063454bbd291461022b57806348b193351461023e5780634ab9e16b1461025157600080fd5b806301ffc9a7146101315780630a3a0a18146101595780630bece79c1461017a5780630cc2f8d2146101b9578063248a9ca3146101e0575b600080fd5b61014461013f366004610efb565b61034c565b60405190151581526020015b60405180910390f35b61016c610167366004610f3c565b610383565b604051908152602001610150565b6101a17f000000000000000000000000000000000000000000000000000000000000000081565b6040516001600160a01b039091168152602001610150565b6101a17f000000000000000000000000000000000000000000000000000000000000000081565b61016c6101ee366004610f66565b60009081526020819052604090206001015490565b610216610211366004610f7f565b61049f565b005b610216610226366004610f7f565b6104ca565b610216610239366004610fab565b610502565b61016c61024c366004610f66565b610621565b7f00000000000000000000000000000000000000000000000000000000000000006101a1565b61028a610285366004610f66565b61076f565b604080516001600160a01b039093168352602083019190915201610150565b6101446102b7366004610f7f565b610985565b6102166102ca366004610f3c565b6109ae565b61016c6102dd366004610f66565b610a86565b61016c600081565b61028a6102f8366004610f66565b610b12565b61021661030b366004610f7f565b610ba7565b61016c60008051602061100183398151915281565b6101a17f000000000000000000000000000000000000000000000000000000000000000081565b60006001600160e01b03198216637965db0b60e01b148061037d57506301ffc9a760e01b6001600160e01b03198316145b92915050565b60007f00000000000000000000000000000000000000000000000000000000000000006001600160a01b0316836001600160a01b03161461040f5760405163995b537d60e01b81526001600160a01b037f000000000000000000000000000000000000000000000000000000000000000081166004830152841660248201526044015b60405180910390fd5b60405163266d6a8360e11b8152600481018390527f00000000000000000000000000000000000000000000000000000000000000006001600160a01b031690634cdad50690602401602060405180830381865afa158015610474573d6000803e3d6000fd5b505050506040513d601f19601f820116820180604052508101906104989190610fe7565b9392505050565b6000828152602081905260409020600101546104ba81610bcc565b6104c48383610bd9565b50505050565b6001600160a01b03811633146104f35760405163334bd91960e11b815260040160405180910390fd5b6104fd8282610c6b565b505050565b600061050d81610bcc565b6001600160a01b0383166105345760405163d92e233d60e01b815260040160405180910390fd5b600061054e60008051602061100183398151915285610985565b905082156105bb57806105b65761057360008051602061100183398151915285610bd9565b506040516001815233906001600160a01b038616907f3cd22b2b2ff7e7215b04b0249860992ba1db48eaaaafac4f5638e520b01ab60a9060200160405180910390a35b6104c4565b80156104c4576105d960008051602061100183398151915285610c6b565b506040516000815233906001600160a01b038616907f3cd22b2b2ff7e7215b04b0249860992ba1db48eaaaafac4f5638e520b01ab60a9060200160405180910390a350505050565b600061063b60008051602061100183398151915233610985565b61065a5760405163d86ad9cf60e01b8152336004820152602401610406565b8160000361067b5760405163162908e360e11b815260040160405180910390fd5b6106b06001600160a01b037f000000000000000000000000000000000000000000000000000000000000000016333085610cd6565b604051635d043b2960e11b8152600481018390523360248201523060448201527f00000000000000000000000000000000000000000000000000000000000000006001600160a01b03169063ba087652906064016020604051808303816000875af1158015610723573d6000803e3d6000fd5b505050506040513d601f19601f820116820180604052508101906107479190610fe7565b90508060000361076a5760405163162908e360e11b815260040160405180910390fd5b919050565b60008061078a60008051602061100183398151915233610985565b6107a95760405163d86ad9cf60e01b8152336004820152602401610406565b826000036107ca5760405163162908e360e11b815260040160405180910390fd5b6107ff6001600160a01b037f000000000000000000000000000000000000000000000000000000000000000016333086610cd6565b6108536001600160a01b037f0000000000000000000000000000000000000000000000000000000000000000167f000000000000000000000000000000000000000000000000000000000000000085610d3d565b604051636e553f6560e01b8152600481018490526001600160a01b037f0000000000000000000000000000000000000000000000000000000000000000811660248301527f00000000000000000000000000000000000000000000000000000000000000001690636e553f65906044016020604051808303816000875af11580156108e2573d6000803e3d6000fd5b505050506040513d601f19601f820116820180604052508101906109069190610fe7565b905061095d6001600160a01b037f0000000000000000000000000000000000000000000000000000000000000000167f00000000000000000000000000000000000000000000000000000000000000006000610d3d565b7f00000000000000000000000000000000000000000000000000000000000000009150915091565b6000918252602082815260408084206001600160a01b0393909316845291905290205460ff1690565b60006109b981610bcc565b6001600160a01b0383166109e05760405163d92e233d60e01b815260040160405180910390fd5b610a146001600160a01b0384167f000000000000000000000000000000000000000000000000000000000000000084610dcd565b7f00000000000000000000000000000000000000000000000000000000000000006001600160a01b0316836001600160a01b03167faaeda929aa102e867049528ec7cd2499e3a2f8846e736ae7935f234dfbf500d984604051610a7991815260200190565b60405180910390a3505050565b60405163266d6a8360e11b8152600481018290526000907f00000000000000000000000000000000000000000000000000000000000000006001600160a01b031690634cdad50690602401602060405180830381865afa158015610aee573d6000803e3d6000fd5b505050506040513d601f19601f8201168201806040525081019061037d9190610fe7565b60405163ef8b30f760e01b8152600481018290527f0000000000000000000000000000000000000000000000000000000000000000906000906001600160a01b0383169063ef8b30f790602401602060405180830381865afa158015610b7c573d6000803e3d6000fd5b505050506040513d601f19601f82011682018060405250810190610ba09190610fe7565b9050915091565b600082815260208190526040902060010154610bc281610bcc565b6104c48383610c6b565b610bd68133610dfe565b50565b6000610be58383610985565b610c63576000838152602081815260408083206001600160a01b03861684529091529020805460ff19166001179055610c1b3390565b6001600160a01b0316826001600160a01b0316847f2f8788117e7eff1d82e926ec794901d17c78024a50270940304540a733656f0d60405160405180910390a450600161037d565b50600061037d565b6000610c778383610985565b15610c63576000838152602081815260408083206001600160a01b0386168085529252808320805460ff1916905551339286917ff6391f5c32d9c69d2a47ea670b442974b53935d1edc7fd64eb21e047a839171b9190a450600161037d565b6040516001600160a01b0384811660248301528381166044830152606482018390526104c49186918216906323b872dd906084015b604051602081830303815290604052915060e01b6020820180516001600160e01b038381831617835250505050610e3b565b604080516001600160a01b038416602482015260448082018490528251808303909101815260649091019091526020810180516001600160e01b031663095ea7b360e01b179052610d8e8482610eac565b6104c4576040516001600160a01b03848116602483015260006044830152610dc391869182169063095ea7b390606401610d0b565b6104c48482610e3b565b6040516001600160a01b038381166024830152604482018390526104fd91859182169063a9059cbb90606401610d0b565b610e088282610985565b610e375760405163e2517d3f60e01b81526001600160a01b038216600482015260248101839052604401610406565b5050565b600080602060008451602086016000885af180610e5e576040513d6000823e3d81fd5b50506000513d91508115610e76578060011415610e83565b6001600160a01b0384163b155b156104c457604051635274afe760e01b81526001600160a01b0385166004820152602401610406565b6000806000806020600086516020880160008a5af192503d91506000519050828015610ef157508115610ee25780600114610ef1565b6000866001600160a01b03163b115b9695505050505050565b600060208284031215610f0d57600080fd5b81356001600160e01b03198116811461049857600080fd5b80356001600160a01b038116811461076a57600080fd5b60008060408385031215610f4f57600080fd5b610f5883610f25565b946020939093013593505050565b600060208284031215610f7857600080fd5b5035919050565b60008060408385031215610f9257600080fd5b82359150610fa260208401610f25565b90509250929050565b60008060408385031215610fbe57600080fd5b610fc783610f25565b915060208301358015158114610fdc57600080fd5b809150509250929050565b600060208284031215610ff957600080fd5b505191905056fef12fb6eaf1f045883c82d7d192627f7a36a50ce00c45e305919895908135a8a8a26469706673582212201503b52b0950851cea6f957e43ef469de42b16c2f6203f5190935b005301addc64736f6c63430008160033",
  "devdoc": {
    "errors": {
      "AccessControlBadConfirmation()": [
        {
          "details": "The caller of a function is not the expected one. NOTE: Don't confuse with {AccessControlUnauthorizedAccount}."
        }
      ],
      "AccessControlUnauthorizedAccount(address,bytes32)": [
        {
          "details": "The `account` is missing a role."
        }
      ],
      "SafeERC20FailedOperation(address)": [
        {
          "details": "An operation with an ERC-20 token failed."
        }
      ]
    },
    "events": {
      "RoleAdminChanged(bytes32,bytes32,bytes32)": {
        "details": "Emitted when `newAdminRole` is set as ``role``'s admin role, replacing `previousAdminRole` `DEFAULT_ADMIN_ROLE` is the starting admin for all roles, despite {RoleAdminChanged} not being emitted to signal this."
      },
      "RoleGranted(bytes32,address,address)": {
        "details": "Emitted when `account` is granted `role`. `sender` is the account that originated the contract call. This account bears the admin role (for the granted role). Expected in cases where the role was granted using the internal {AccessControl-_grantRole}."
      },
      "RoleRevoked(bytes32,address,address)": {
        "details": "Emitted when `account` is revoked `role`. `sender` is the account that originated the contract call:   - if using `revokeRole`, it is the admin role bearer   - if using `renounceRole`, it is the role bearer (i.e. `account`)"
      }
    },
    "kind": "dev",
    "methods": {
      "depositIntoStrategy(uint256)": {
        "details": "The adapter MUST pull `stableAmount` of the stable asset from the caller (expected to be the Router).The resulting `strategyShare` MUST be sent/deposited/minted directly to the `collateralVault` address provided during adapter setup or retrieved.",
        "params": {
          "stableAmount": "The amount of stable asset to convert."
        },
        "returns": {
          "shareToken": "The address of the specific `strategy share` token managed by this adapter.",
          "strategyShareAmount": "The amount of `strategyShare` generated from the conversion."
        }
      },
      "emergencyWithdraw(address,uint256)": {
        "params": {
          "amount": "Amount of tokens to transfer",
          "token": "Address of the ERC20 token to recover"
        }
      },
      "getRoleAdmin(bytes32)": {
        "details": "Returns the admin role that controls `role`. See {grantRole} and {revokeRole}. To change a role's admin, use {_setRoleAdmin}."
      },
      "grantRole(bytes32,address)": {
        "details": "Grants `role` to `account`. If `account` had not been already granted `role`, emits a {RoleGranted} event. Requirements: - the caller must have ``role``'s admin role. May emit a {RoleGranted} event."
      },
      "hasRole(bytes32,address)": {
        "details": "Returns `true` if `account` has been granted `role`."
      },
      "previewDepositIntoStrategy(uint256)": {
        "params": {
          "stableAmount": "The amount of stable asset to preview conversion for."
        },
        "returns": {
          "shareToken": "The address of the specific `strategy share` token managed by this adapter.",
          "strategyShareAmount": "The amount of `strategyShare` that would be received."
        }
      },
      "previewWithdrawFromStrategy(uint256)": {
        "params": {
          "strategyShareAmount": "The amount of `strategyShare` to preview conversion for."
        },
        "returns": {
          "stableAmount": "The amount of stable asset that would be received."
        }
      },
      "renounceRole(bytes32,address)": {
        "details": "Revokes `role` from the calling account. Roles are often managed via {grantRole} and {revokeRole}: this function's purpose is to provide a mechanism for accounts to lose their privileges if they are compromised (such as when a trusted device is misplaced). If the calling account had been revoked `role`, emits a {RoleRevoked} event. Requirements: - the caller must be `callerConfirmation`. May emit a {RoleRevoked} event."
      },
      "revokeRole(bytes32,address)": {
        "details": "Revokes `role` from `account`. If `account` had been granted `role`, emits a {RoleRevoked} event. Requirements: - the caller must have ``role``'s admin role. May emit a {RoleRevoked} event."
      },
      "setAuthorizedCaller(address,bool)": {
        "params": {
          "authorized": "True to grant access, false to revoke",
          "caller": "Address to update"
        }
      },
      "strategyShare()": {
        "returns": {
          "_0": "The address of the `strategy share`."
        }
      },
      "supportsInterface(bytes4)": {
        "details": "Returns true if this contract implements the interface defined by `interfaceId`. See the corresponding https://eips.ethereum.org/EIPS/eip-165#how-interfaces-are-identified[ERC section] to learn more about how these ids are created. This function call must use less than 30 000 gas."
      },
      "withdrawFromStrategy(uint256)": {
        "details": "The adapter MUST pull the required amount of `strategyShare` from the caller (expected to be the Router).The resulting stable asset MUST be sent to the caller.",
        "params": {
          "strategyShareAmount": "The amount of `strategyShare` to convert."
        },
        "returns": {
          "stableAmount": "The amount of stable asset sent to the caller."
        }
      }
    },
    "title": "GenericERC4626ConversionAdapter",
    "version": 1
  },
  "userdoc": {
    "kind": "user",
    "methods": {
      "depositIntoStrategy(uint256)": {
        "notice": "Converts a specified amount of the stable asset into the specific `strategyShare`         managed by this adapter."
      },
      "emergencyWithdraw(address,uint256)": {
        "notice": "Emergency hook to sweep stranded tokens back to the collateral vault"
      },
      "previewDepositIntoStrategy(uint256)": {
        "notice": "Preview the result of converting a given stable amount to strategyShare (without state change)."
      },
      "previewWithdrawFromStrategy(uint256)": {
        "notice": "Preview the result of converting a given strategyShare amount to stable asset (without state change)."
      },
      "setAuthorizedCaller(address,bool)": {
        "notice": "Adds or removes an authorized caller that can invoke conversion flows"
      },
      "strategyShare()": {
        "notice": "Returns the address of the specific `strategy share` token managed by this adapter."
      },
      "vaultAsset()": {
        "notice": "Returns the underlying vault asset associated with this adapter (legacy compatibility helper)."
      },
      "withdrawFromStrategy(uint256)": {
        "notice": "Converts a specific amount of `strategyShare` back into the stable asset."
      }
    },
    "notice": "Conversion adapter that bridges a dSTABLE asset directly into an ERC4626 vault where the         share token is used as a dSTAKE strategy. Useful for idle vaults that simply hold dUSD.",
    "version": 1
  },
  "storageLayout": {
    "storage": [
      {
        "astId": 3317,
        "contract": "contracts/vaults/dstake/adapters/GenericERC4626ConversionAdapter.sol:GenericERC4626ConversionAdapter",
        "label": "_roles",
        "offset": 0,
        "slot": "0",
        "type": "t_mapping(t_bytes32,t_struct(RoleData)3312_storage)"
      }
    ],
    "types": {
      "t_address": {
        "encoding": "inplace",
        "label": "address",
        "numberOfBytes": "20"
      },
      "t_bool": {
        "encoding": "inplace",
        "label": "bool",
        "numberOfBytes": "1"
      },
      "t_bytes32": {
        "encoding": "inplace",
        "label": "bytes32",
        "numberOfBytes": "32"
      },
      "t_mapping(t_address,t_bool)": {
        "encoding": "mapping",
        "key": "t_address",
        "label": "mapping(address => bool)",
        "numberOfBytes": "32",
        "value": "t_bool"
      },
      "t_mapping(t_bytes32,t_struct(RoleData)3312_storage)": {
        "encoding": "mapping",
        "key": "t_bytes32",
        "label": "mapping(bytes32 => struct AccessControl.RoleData)",
        "numberOfBytes": "32",
        "value": "t_struct(RoleData)3312_storage"
      },
      "t_struct(RoleData)3312_storage": {
        "encoding": "inplace",
        "label": "struct AccessControl.RoleData",
        "members": [
          {
            "astId": 3309,
            "contract": "contracts/vaults/dstake/adapters/GenericERC4626ConversionAdapter.sol:GenericERC4626ConversionAdapter",
            "label": "hasRole",
            "offset": 0,
            "slot": "0",
            "type": "t_mapping(t_address,t_bool)"
          },
          {
            "astId": 3311,
            "contract": "contracts/vaults/dstake/adapters/GenericERC4626ConversionAdapter.sol:GenericERC4626ConversionAdapter",
            "label": "adminRole",
            "offset": 0,
            "slot": "1",
            "type": "t_bytes32"
          }
        ],
        "numberOfBytes": "64"
      }
    }
  }
}