{
  "address": "0x4188019CC2339C68D1F097678AF96d1915a6c681",
  "abi": [
    {
      "inputs": [
        {
          "internalType": "address",
          "name": "baseCurrency",
          "type": "address"
        },
        {
          "internalType": "uint256",
          "name": "_baseCurrencyUnit",
          "type": "uint256"
        }
      ],
      "stateMutability": "nonpayable",
      "type": "constructor"
    },
    {
      "inputs": [],
      "name": "AccessControlBadConfirmation",
      "type": "error"
    },
    {
      "inputs": [
        {
          "internalType": "address",
          "name": "account",
          "type": "address"
        },
        {
          "internalType": "bytes32",
          "name": "neededRole",
          "type": "bytes32"
        }
      ],
      "name": "AccessControlUnauthorizedAccount",
      "type": "error"
    },
    {
      "inputs": [],
      "name": "AssetAddressZero",
      "type": "error"
    },
    {
      "inputs": [
        {
          "internalType": "address",
          "name": "asset",
          "type": "address"
        },
        {
          "internalType": "address",
          "name": "vault",
          "type": "address"
        }
      ],
      "name": "AssetDoesNotMatchVault",
      "type": "error"
    },
    {
      "inputs": [],
      "name": "FeedAddressZero",
      "type": "error"
    },
    {
      "inputs": [
        {
          "internalType": "address",
          "name": "feed",
          "type": "address"
        }
      ],
      "name": "FeedNotContract",
      "type": "error"
    },
    {
      "inputs": [
        {
          "internalType": "address",
          "name": "asset",
          "type": "address"
        }
      ],
      "name": "FeedNotSet",
      "type": "error"
    },
    {
      "inputs": [],
      "name": "InvalidPrice",
      "type": "error"
    },
    {
      "inputs": [],
      "name": "PriceIsStale",
      "type": "error"
    },
    {
      "inputs": [
        {
          "internalType": "uint8",
          "name": "expected",
          "type": "uint8"
        },
        {
          "internalType": "uint8",
          "name": "actual",
          "type": "uint8"
        }
      ],
      "name": "UnexpectedFeedDecimals",
      "type": "error"
    },
    {
      "inputs": [
        {
          "internalType": "uint8",
          "name": "assetDecimals",
          "type": "uint8"
        },
        {
          "internalType": "uint8",
          "name": "shareDecimals",
          "type": "uint8"
        }
      ],
      "name": "UnsupportedDecimals",
      "type": "error"
    },
    {
      "inputs": [
        {
          "internalType": "address",
          "name": "vault",
          "type": "address"
        }
      ],
      "name": "VaultNotContract",
      "type": "error"
    },
    {
      "anonymous": false,
      "inputs": [
        {
          "indexed": true,
          "internalType": "address",
          "name": "asset",
          "type": "address"
        }
      ],
      "name": "ERC4626FeedRemoved",
      "type": "event"
    },
    {
      "anonymous": false,
      "inputs": [
        {
          "indexed": true,
          "internalType": "address",
          "name": "asset",
          "type": "address"
        },
        {
          "indexed": true,
          "internalType": "address",
          "name": "vault",
          "type": "address"
        },
        {
          "indexed": true,
          "internalType": "address",
          "name": "priceFeed",
          "type": "address"
        },
        {
          "indexed": false,
          "internalType": "uint8",
          "name": "assetDecimals",
          "type": "uint8"
        },
        {
          "indexed": false,
          "internalType": "uint8",
          "name": "shareDecimals",
          "type": "uint8"
        }
      ],
      "name": "ERC4626FeedSet",
      "type": "event"
    },
    {
      "anonymous": false,
      "inputs": [
        {
          "indexed": true,
          "internalType": "bytes32",
          "name": "role",
          "type": "bytes32"
        },
        {
          "indexed": true,
          "internalType": "bytes32",
          "name": "previousAdminRole",
          "type": "bytes32"
        },
        {
          "indexed": true,
          "internalType": "bytes32",
          "name": "newAdminRole",
          "type": "bytes32"
        }
      ],
      "name": "RoleAdminChanged",
      "type": "event"
    },
    {
      "anonymous": false,
      "inputs": [
        {
          "indexed": true,
          "internalType": "bytes32",
          "name": "role",
          "type": "bytes32"
        },
        {
          "indexed": true,
          "internalType": "address",
          "name": "account",
          "type": "address"
        },
        {
          "indexed": true,
          "internalType": "address",
          "name": "sender",
          "type": "address"
        }
      ],
      "name": "RoleGranted",
      "type": "event"
    },
    {
      "anonymous": false,
      "inputs": [
        {
          "indexed": true,
          "internalType": "bytes32",
          "name": "role",
          "type": "bytes32"
        },
        {
          "indexed": true,
          "internalType": "address",
          "name": "account",
          "type": "address"
        },
        {
          "indexed": true,
          "internalType": "address",
          "name": "sender",
          "type": "address"
        }
      ],
      "name": "RoleRevoked",
      "type": "event"
    },
    {
      "inputs": [],
      "name": "BASE_CURRENCY",
      "outputs": [
        {
          "internalType": "address",
          "name": "",
          "type": "address"
        }
      ],
      "stateMutability": "view",
      "type": "function"
    },
    {
      "inputs": [],
      "name": "BASE_CURRENCY_UNIT",
      "outputs": [
        {
          "internalType": "uint256",
          "name": "",
          "type": "uint256"
        }
      ],
      "stateMutability": "view",
      "type": "function"
    },
    {
      "inputs": [],
      "name": "CHAINLINK_BASE_CURRENCY_UNIT",
      "outputs": [
        {
          "internalType": "uint256",
          "name": "",
          "type": "uint256"
        }
      ],
      "stateMutability": "view",
      "type": "function"
    },
    {
      "inputs": [],
      "name": "CHAINLINK_HEARTBEAT",
      "outputs": [
        {
          "internalType": "uint256",
          "name": "",
          "type": "uint256"
        }
      ],
      "stateMutability": "view",
      "type": "function"
    },
    {
      "inputs": [],
      "name": "DEFAULT_ADMIN_ROLE",
      "outputs": [
        {
          "internalType": "bytes32",
          "name": "",
          "type": "bytes32"
        }
      ],
      "stateMutability": "view",
      "type": "function"
    },
    {
      "inputs": [],
      "name": "ORACLE_MANAGER_ROLE",
      "outputs": [
        {
          "internalType": "bytes32",
          "name": "",
          "type": "bytes32"
        }
      ],
      "stateMutability": "view",
      "type": "function"
    },
    {
      "inputs": [
        {
          "internalType": "address",
          "name": "",
          "type": "address"
        }
      ],
      "name": "erc4626Feeds",
      "outputs": [
        {
          "internalType": "contract IPriceFeed",
          "name": "priceFeed",
          "type": "address"
        },
        {
          "internalType": "contract IERC4626",
          "name": "vault",
          "type": "address"
        },
        {
          "internalType": "uint8",
          "name": "assetDecimals",
          "type": "uint8"
        },
        {
          "internalType": "uint8",
          "name": "shareDecimals",
          "type": "uint8"
        }
      ],
      "stateMutability": "view",
      "type": "function"
    },
    {
      "inputs": [
        {
          "internalType": "address",
          "name": "asset",
          "type": "address"
        }
      ],
      "name": "getAssetPrice",
      "outputs": [
        {
          "internalType": "uint256",
          "name": "",
          "type": "uint256"
        }
      ],
      "stateMutability": "view",
      "type": "function"
    },
    {
      "inputs": [
        {
          "internalType": "address",
          "name": "asset",
          "type": "address"
        }
      ],
      "name": "getPriceInfo",
      "outputs": [
        {
          "internalType": "uint256",
          "name": "price",
          "type": "uint256"
        },
        {
          "internalType": "bool",
          "name": "isAlive",
          "type": "bool"
        }
      ],
      "stateMutability": "view",
      "type": "function"
    },
    {
      "inputs": [
        {
          "internalType": "bytes32",
          "name": "role",
          "type": "bytes32"
        }
      ],
      "name": "getRoleAdmin",
      "outputs": [
        {
          "internalType": "bytes32",
          "name": "",
          "type": "bytes32"
        }
      ],
      "stateMutability": "view",
      "type": "function"
    },
    {
      "inputs": [
        {
          "internalType": "bytes32",
          "name": "role",
          "type": "bytes32"
        },
        {
          "internalType": "address",
          "name": "account",
          "type": "address"
        }
      ],
      "name": "grantRole",
      "outputs": [],
      "stateMutability": "nonpayable",
      "type": "function"
    },
    {
      "inputs": [
        {
          "internalType": "bytes32",
          "name": "role",
          "type": "bytes32"
        },
        {
          "internalType": "address",
          "name": "account",
          "type": "address"
        }
      ],
      "name": "hasRole",
      "outputs": [
        {
          "internalType": "bool",
          "name": "",
          "type": "bool"
        }
      ],
      "stateMutability": "view",
      "type": "function"
    },
    {
      "inputs": [],
      "name": "heartbeatStaleTimeLimit",
      "outputs": [
        {
          "internalType": "uint256",
          "name": "",
          "type": "uint256"
        }
      ],
      "stateMutability": "view",
      "type": "function"
    },
    {
      "inputs": [
        {
          "internalType": "address",
          "name": "asset",
          "type": "address"
        }
      ],
      "name": "removeERC4626Feed",
      "outputs": [],
      "stateMutability": "nonpayable",
      "type": "function"
    },
    {
      "inputs": [
        {
          "internalType": "bytes32",
          "name": "role",
          "type": "bytes32"
        },
        {
          "internalType": "address",
          "name": "callerConfirmation",
          "type": "address"
        }
      ],
      "name": "renounceRole",
      "outputs": [],
      "stateMutability": "nonpayable",
      "type": "function"
    },
    {
      "inputs": [
        {
          "internalType": "bytes32",
          "name": "role",
          "type": "bytes32"
        },
        {
          "internalType": "address",
          "name": "account",
          "type": "address"
        }
      ],
      "name": "revokeRole",
      "outputs": [],
      "stateMutability": "nonpayable",
      "type": "function"
    },
    {
      "inputs": [
        {
          "internalType": "address",
          "name": "asset",
          "type": "address"
        },
        {
          "internalType": "address",
          "name": "vault",
          "type": "address"
        },
        {
          "internalType": "address",
          "name": "priceFeed",
          "type": "address"
        }
      ],
      "name": "setERC4626Feed",
      "outputs": [],
      "stateMutability": "nonpayable",
      "type": "function"
    },
    {
      "inputs": [
        {
          "internalType": "uint256",
          "name": "_newHeartbeatStaleTimeLimit",
          "type": "uint256"
        }
      ],
      "name": "setHeartbeatStaleTimeLimit",
      "outputs": [],
      "stateMutability": "nonpayable",
      "type": "function"
    },
    {
      "inputs": [
        {
          "internalType": "bytes4",
          "name": "interfaceId",
          "type": "bytes4"
        }
      ],
      "name": "supportsInterface",
      "outputs": [
        {
          "internalType": "bool",
          "name": "",
          "type": "bool"
        }
      ],
      "stateMutability": "view",
      "type": "function"
    }
  ],
  "transactionHash": "0x16ae527cae1ed2275984574d2c52e672f7bb5b1e6f4102dbb7d78baee60cfece",
  "args": [
    "0x0000000000000000000000000000000000000000",
    "1000000000000000000"
  ],
  "numDeployments": 1,
  "solcInputHash": "ee586b227c9acec8f80fe9f47a8156ba",
  "bytecode": "0x60c060405261070860015534801561001657600080fd5b5060405161127538038061127583398101604081905261003591610135565b6001600160a01b03821660805260a08190528181610054600033610089565b5061007f7fced6982f480260bdd8ad5cb18ff2854f0306d78d904ad6cc107e8f3a0f526c1833610089565b505050505061016f565b6000828152602081815260408083206001600160a01b038516845290915281205460ff1661012b576000838152602081815260408083206001600160a01b03861684529091529020805460ff191660011790556100e33390565b6001600160a01b0316826001600160a01b0316847f2f8788117e7eff1d82e926ec794901d17c78024a50270940304540a733656f0d60405160405180910390a450600161012f565b5060005b92915050565b6000806040838503121561014857600080fd5b82516001600160a01b038116811461015f57600080fd5b6020939093015192949293505050565b60805160a0516110da61019b600039600081816102590152610d040152600061032301526110da6000f3fe608060405234801561001057600080fd5b50600436106101215760003560e01c80638edbf436116100ad578063bfc69e1c11610071578063bfc69e1c146102db578063c5efe27c146102f0578063d547741f14610303578063e19f470014610316578063eae06eec1461034d57600080fd5b80638edbf4361461027b57806391d14854146102a35780639a999d45146102b6578063a217fddf146102c0578063b3596f07146102c857600080fd5b80632f2ff15d116100f45780632f2ff15d1461019d5780633152e2c1146101b057806336568abe146101c35780636bbca2fc146101d65780638c89b64f1461025457600080fd5b806301ffc9a714610126578063248a9ca31461014e5780632ecac6fc1461017f5780632ed5e06614610188575b600080fd5b610139610134366004610d70565b610358565b60405190151581526020015b60405180910390f35b61017161015c366004610da1565b60009081526020819052604090206001015490565b604051908152602001610145565b61017160015481565b61019b610196366004610dcf565b61038f565b005b61019b6101ab366004610dec565b610408565b61019b6101be366004610e1c565b610433565b61019b6101d1366004610dec565b610909565b6102206101e4366004610dcf565b600260205260009081526040902080546001909101546001600160a01b039182169181169060ff600160a01b8204811691600160a81b90041684565b604080516001600160a01b03958616815294909316602085015260ff91821692840192909252166060820152608001610145565b6101717f000000000000000000000000000000000000000000000000000000000000000081565b61028e610289366004610dcf565b610941565b60408051928352901515602083015201610145565b6101396102b1366004610dec565b610b3e565b6101716201518081565b610171600081565b6101716102d6366004610dcf565b610b67565b61017160008051602061108583398151915281565b61019b6102fe366004610da1565b610b9e565b61019b610311366004610dec565b610bbc565b6040516001600160a01b037f0000000000000000000000000000000000000000000000000000000000000000168152602001610145565b6101716305f5e10081565b60006001600160e01b03198216637965db0b60e01b148061038957506301ffc9a760e01b6001600160e01b03198316145b92915050565b6000805160206110858339815191526103a781610be1565b6001600160a01b03821660008181526002602052604080822080546001600160a01b031916815560010180546001600160b01b0319169055517f03b14028db100e95b0bf9a1060f0fb18bd4a6118b31dbb29ac2e500ec5cb4e2b9190a25050565b60008281526020819052604090206001015461042381610be1565b61042d8383610bee565b50505050565b60008051602061108583398151915261044b81610be1565b6001600160a01b03841661047257604051632a98617f60e21b815260040160405180910390fd5b6001600160a01b03831661049957604051632a98617f60e21b815260040160405180910390fd5b6001600160a01b0382166104c05760405163ee42f54f60e01b815260040160405180910390fd5b826001600160a01b0316846001600160a01b03161461050a57604051632ad9e97b60e21b81526001600160a01b038086166004830152841660248201526044015b60405180910390fd5b826001600160a01b03163b60000361054057604051636a2bda4760e01b81526001600160a01b0384166004820152602401610501565b816001600160a01b03163b60000361057657604051637dbff55f60e11b81526001600160a01b0383166004820152602401610501565b6000826001600160a01b031663313ce5676040518163ffffffff1660e01b8152600401602060405180830381865afa1580156105b6573d6000803e3d6000fd5b505050506040513d601f19601f820116820180604052508101906105da9190610e67565b90508060ff1660081461060c57604051631c1d65d360e31b81526008600482015260ff82166024820152604401610501565b60008490506000816001600160a01b03166338d52e0f6040518163ffffffff1660e01b8152600401602060405180830381865afa158015610651573d6000803e3d6000fd5b505050506040513d601f19601f820116820180604052508101906106759190610e8a565b90506000816001600160a01b031663313ce5676040518163ffffffff1660e01b8152600401602060405180830381865afa1580156106b7573d6000803e3d6000fd5b505050506040513d601f19601f820116820180604052508101906106db9190610e67565b90506000876001600160a01b031663313ce5676040518163ffffffff1660e01b8152600401602060405180830381865afa15801561071d573d6000803e3d6000fd5b505050506040513d601f19601f820116820180604052508101906107419190610e67565b905060ff82161580610754575060ff8116155b80610762575060128260ff16115b80610770575060128160ff16115b1561079b576040516312d8da6b60e31b815260ff808416600483015282166024820152604401610501565b6040518060800160405280886001600160a01b03168152602001856001600160a01b031681526020018360ff1681526020018260ff16815250600260008b6001600160a01b03166001600160a01b0316815260200190815260200160002060008201518160000160006101000a8154816001600160a01b0302191690836001600160a01b0316021790555060208201518160010160006101000a8154816001600160a01b0302191690836001600160a01b0316021790555060408201518160010160146101000a81548160ff021916908360ff16021790555060608201518160010160156101000a81548160ff021916908360ff160217905550905050866001600160a01b0316886001600160a01b03168a6001600160a01b03167f5f0c24caf89a3d68c4dd1eaffadecca1e79f894a58c71ef3cf76e2ab41c791ba85856040516108f692919060ff92831681529116602082015260400190565b60405180910390a4505050505050505050565b6001600160a01b03811633146109325760405163334bd91960e11b815260040160405180910390fd5b61093c8282610c80565b505050565b6001600160a01b038082166000908152600260209081526040808320815160808101835281548616815260019091015494851692810183905260ff600160a01b8604811692820192909252600160a81b909404166060840152909182916109c657604051630dcaf86b60e01b81526001600160a01b0385166004820152602401610501565b60008082600001516001600160a01b031663feaf968c6040518163ffffffff1660e01b815260040160a060405180830381865afa158015610a0b573d6000803e3d6000fd5b505050506040513d601f19601f82011682018060405250810190610a2f9190610ec6565b5093505092505060008213610a565760405162bfc92160e01b815260040160405180910390fd5b600083602001516001600160a01b03166307a2d13a610a788660600151610ceb565b6040518263ffffffff1660e01b8152600401610a9691815260200190565b602060405180830381865afa158015610ab3573d6000803e3d6000fd5b505050506040513d601f19601f82011682018060405250810190610ad79190610f16565b90506000610ae484610cf8565b9050610af38560400151610ceb565b610afd8383610f45565b610b079190610f5c565b9650600087118015610b3257506001544290610b266201518086610f7e565b610b309190610f7e565b115b95505050505050915091565b6000918252602082815260408084206001600160a01b0393909316845291905290205460ff1690565b6000806000610b7584610941565b9150915080610b97576040516342bc305b60e11b815260040160405180910390fd5b5092915050565b600080516020611085833981519152610bb681610be1565b50600155565b600082815260208190526040902060010154610bd781610be1565b61042d8383610c80565b610beb8133610d33565b50565b6000610bfa8383610b3e565b610c78576000838152602081815260408083206001600160a01b03861684529091529020805460ff19166001179055610c303390565b6001600160a01b0316826001600160a01b0316847f2f8788117e7eff1d82e926ec794901d17c78024a50270940304540a733656f0d60405160405180910390a4506001610389565b506000610389565b6000610c8c8383610b3e565b15610c78576000838152602081815260408083206001600160a01b0386168085529252808320805460ff1916905551339286917ff6391f5c32d9c69d2a47ea670b442974b53935d1edc7fd64eb21e047a839171b9190a4506001610389565b600061038982600a611075565b60006305f5e100610d297f000000000000000000000000000000000000000000000000000000000000000084610f45565b6103899190610f5c565b610d3d8282610b3e565b610d6c5760405163e2517d3f60e01b81526001600160a01b038216600482015260248101839052604401610501565b5050565b600060208284031215610d8257600080fd5b81356001600160e01b031981168114610d9a57600080fd5b9392505050565b600060208284031215610db357600080fd5b5035919050565b6001600160a01b0381168114610beb57600080fd5b600060208284031215610de157600080fd5b8135610d9a81610dba565b60008060408385031215610dff57600080fd5b823591506020830135610e1181610dba565b809150509250929050565b600080600060608486031215610e3157600080fd5b8335610e3c81610dba565b92506020840135610e4c81610dba565b91506040840135610e5c81610dba565b809150509250925092565b600060208284031215610e7957600080fd5b815160ff81168114610d9a57600080fd5b600060208284031215610e9c57600080fd5b8151610d9a81610dba565b805169ffffffffffffffffffff81168114610ec157600080fd5b919050565b600080600080600060a08688031215610ede57600080fd5b610ee786610ea7565b9450602086015193506040860151925060608601519150610f0a60808701610ea7565b90509295509295909350565b600060208284031215610f2857600080fd5b5051919050565b634e487b7160e01b600052601160045260246000fd5b808202811582820484141761038957610389610f2f565b600082610f7957634e487b7160e01b600052601260045260246000fd5b500490565b8082018082111561038957610389610f2f565b600181815b80851115610fcc578160001904821115610fb257610fb2610f2f565b80851615610fbf57918102915b93841c9390800290610f96565b509250929050565b600082610fe357506001610389565b81610ff057506000610389565b816001811461100657600281146110105761102c565b6001915050610389565b60ff84111561102157611021610f2f565b50506001821b610389565b5060208310610133831016604e8410600b841016171561104f575081810a610389565b6110598383610f91565b806000190482111561106d5761106d610f2f565b029392505050565b6000610d9a60ff841683610fd456feced6982f480260bdd8ad5cb18ff2854f0306d78d904ad6cc107e8f3a0f526c18a2646970667358221220dc413ac88c1aa427ce27e7c33244033ac1cdc764e5de4ead98992832fc06d2f864736f6c63430008160033",
  "devdoc": {
    "details": "Price(asset) = convertToAssets(1 share) * Chainlink(underlying/base) / underlyingUnit, scaled to BASE_CURRENCY_UNIT.",
    "errors": {
      "AccessControlBadConfirmation()": [
        {
          "details": "The caller of a function is not the expected one. NOTE: Don't confuse with {AccessControlUnauthorizedAccount}."
        }
      ],
      "AccessControlUnauthorizedAccount(address,bytes32)": [
        {
          "details": "The `account` is missing a role."
        }
      ]
    },
    "events": {
      "RoleAdminChanged(bytes32,bytes32,bytes32)": {
        "details": "Emitted when `newAdminRole` is set as ``role``'s admin role, replacing `previousAdminRole` `DEFAULT_ADMIN_ROLE` is the starting admin for all roles, despite {RoleAdminChanged} not being emitted to signal this."
      },
      "RoleGranted(bytes32,address,address)": {
        "details": "Emitted when `account` is granted `role`. `sender` is the account that originated the contract call. This account bears the admin role (for the granted role). Expected in cases where the role was granted using the internal {AccessControl-_grantRole}."
      },
      "RoleRevoked(bytes32,address,address)": {
        "details": "Emitted when `account` is revoked `role`. `sender` is the account that originated the contract call:   - if using `revokeRole`, it is the admin role bearer   - if using `renounceRole`, it is the role bearer (i.e. `account`)"
      }
    },
    "kind": "dev",
    "methods": {
      "BASE_CURRENCY()": {
        "returns": {
          "_0": "Returns the base currency address"
        }
      },
      "getAssetPrice(address)": {
        "params": {
          "asset": "The address of the asset to get the price for"
        },
        "returns": {
          "_0": "The current price of the asset"
        }
      },
      "getPriceInfo(address)": {
        "params": {
          "asset": "The address of the asset to get the price for"
        },
        "returns": {
          "isAlive": "Whether the price feed is considered active/valid",
          "price": "The price of the asset in base currency units"
        }
      },
      "getRoleAdmin(bytes32)": {
        "details": "Returns the admin role that controls `role`. See {grantRole} and {revokeRole}. To change a role's admin, use {_setRoleAdmin}."
      },
      "grantRole(bytes32,address)": {
        "details": "Grants `role` to `account`. If `account` had not been already granted `role`, emits a {RoleGranted} event. Requirements: - the caller must have ``role``'s admin role. May emit a {RoleGranted} event."
      },
      "hasRole(bytes32,address)": {
        "details": "Returns `true` if `account` has been granted `role`."
      },
      "removeERC4626Feed(address)": {
        "params": {
          "asset": "The vault share token whose configuration will be removed"
        }
      },
      "renounceRole(bytes32,address)": {
        "details": "Revokes `role` from the calling account. Roles are often managed via {grantRole} and {revokeRole}: this function's purpose is to provide a mechanism for accounts to lose their privileges if they are compromised (such as when a trusted device is misplaced). If the calling account had been revoked `role`, emits a {RoleRevoked} event. Requirements: - the caller must be `callerConfirmation`. May emit a {RoleRevoked} event."
      },
      "revokeRole(bytes32,address)": {
        "details": "Revokes `role` from `account`. If `account` had been granted `role`, emits a {RoleRevoked} event. Requirements: - the caller must have ``role``'s admin role. May emit a {RoleRevoked} event."
      },
      "setERC4626Feed(address,address,address)": {
        "params": {
          "asset": "The vault share token to price (must equal the vault address)",
          "priceFeed": "The Chainlink-style feed for the vault's underlying asset priced in base currency",
          "vault": "The ERC4626 vault that defines the exchange rate"
        }
      },
      "setHeartbeatStaleTimeLimit(uint256)": {
        "params": {
          "_newHeartbeatStaleTimeLimit": "The new heartbeat stale time limit"
        }
      },
      "supportsInterface(bytes4)": {
        "details": "Returns true if this contract implements the interface defined by `interfaceId`. See the corresponding https://eips.ethereum.org/EIPS/eip-165#how-interfaces-are-identified[ERC section] to learn more about how these ids are created. This function call must use less than 30 000 gas."
      }
    },
    "title": "ChainlinkERC4626WrapperV1_1",
    "version": 1
  },
  "userdoc": {
    "kind": "user",
    "methods": {
      "BASE_CURRENCY()": {
        "notice": "Returns the base currency address"
      },
      "BASE_CURRENCY_UNIT()": {
        "notice": "Returns the base currency unit"
      },
      "getAssetPrice(address)": {
        "notice": "Gets the current price of an asset"
      },
      "getPriceInfo(address)": {
        "notice": "Gets the price information for an asset"
      },
      "removeERC4626Feed(address)": {
        "notice": "Removes an ERC4626 feed configuration"
      },
      "setERC4626Feed(address,address,address)": {
        "notice": "Registers a Chainlink + ERC4626 feed for a vault share token."
      },
      "setHeartbeatStaleTimeLimit(uint256)": {
        "notice": "Sets the heartbeat stale time limit"
      }
    },
    "notice": "Composes a Chainlink-style price feed for an ERC4626 vault's underlying asset with the vault exchange rate.",
    "version": 1
  },
  "storageLayout": {
    "storage": [
      {
        "astId": 27,
        "contract": "contracts/oracle_aggregator/wrapper/ChainlinkERC4626WrapperV1_1.sol:ChainlinkERC4626WrapperV1_1",
        "label": "_roles",
        "offset": 0,
        "slot": "0",
        "type": "t_mapping(t_bytes32,t_struct(RoleData)22_storage)"
      },
      {
        "astId": 19391,
        "contract": "contracts/oracle_aggregator/wrapper/ChainlinkERC4626WrapperV1_1.sol:ChainlinkERC4626WrapperV1_1",
        "label": "heartbeatStaleTimeLimit",
        "offset": 0,
        "slot": "1",
        "type": "t_uint256"
      },
      {
        "astId": 19560,
        "contract": "contracts/oracle_aggregator/wrapper/ChainlinkERC4626WrapperV1_1.sol:ChainlinkERC4626WrapperV1_1",
        "label": "erc4626Feeds",
        "offset": 0,
        "slot": "2",
        "type": "t_mapping(t_address,t_struct(ERC4626FeedConfig)19555_storage)"
      }
    ],
    "types": {
      "t_address": {
        "encoding": "inplace",
        "label": "address",
        "numberOfBytes": "20"
      },
      "t_bool": {
        "encoding": "inplace",
        "label": "bool",
        "numberOfBytes": "1"
      },
      "t_bytes32": {
        "encoding": "inplace",
        "label": "bytes32",
        "numberOfBytes": "32"
      },
      "t_contract(IERC4626)787": {
        "encoding": "inplace",
        "label": "contract IERC4626",
        "numberOfBytes": "20"
      },
      "t_contract(IPriceFeed)19533": {
        "encoding": "inplace",
        "label": "contract IPriceFeed",
        "numberOfBytes": "20"
      },
      "t_mapping(t_address,t_bool)": {
        "encoding": "mapping",
        "key": "t_address",
        "label": "mapping(address => bool)",
        "numberOfBytes": "32",
        "value": "t_bool"
      },
      "t_mapping(t_address,t_struct(ERC4626FeedConfig)19555_storage)": {
        "encoding": "mapping",
        "key": "t_address",
        "label": "mapping(address => struct ChainlinkERC4626WrapperV1_1.ERC4626FeedConfig)",
        "numberOfBytes": "32",
        "value": "t_struct(ERC4626FeedConfig)19555_storage"
      },
      "t_mapping(t_bytes32,t_struct(RoleData)22_storage)": {
        "encoding": "mapping",
        "key": "t_bytes32",
        "label": "mapping(bytes32 => struct AccessControl.RoleData)",
        "numberOfBytes": "32",
        "value": "t_struct(RoleData)22_storage"
      },
      "t_struct(ERC4626FeedConfig)19555_storage": {
        "encoding": "inplace",
        "label": "struct ChainlinkERC4626WrapperV1_1.ERC4626FeedConfig",
        "members": [
          {
            "astId": 19547,
            "contract": "contracts/oracle_aggregator/wrapper/ChainlinkERC4626WrapperV1_1.sol:ChainlinkERC4626WrapperV1_1",
            "label": "priceFeed",
            "offset": 0,
            "slot": "0",
            "type": "t_contract(IPriceFeed)19533"
          },
          {
            "astId": 19550,
            "contract": "contracts/oracle_aggregator/wrapper/ChainlinkERC4626WrapperV1_1.sol:ChainlinkERC4626WrapperV1_1",
            "label": "vault",
            "offset": 0,
            "slot": "1",
            "type": "t_contract(IERC4626)787"
          },
          {
            "astId": 19552,
            "contract": "contracts/oracle_aggregator/wrapper/ChainlinkERC4626WrapperV1_1.sol:ChainlinkERC4626WrapperV1_1",
            "label": "assetDecimals",
            "offset": 20,
            "slot": "1",
            "type": "t_uint8"
          },
          {
            "astId": 19554,
            "contract": "contracts/oracle_aggregator/wrapper/ChainlinkERC4626WrapperV1_1.sol:ChainlinkERC4626WrapperV1_1",
            "label": "shareDecimals",
            "offset": 21,
            "slot": "1",
            "type": "t_uint8"
          }
        ],
        "numberOfBytes": "64"
      },
      "t_struct(RoleData)22_storage": {
        "encoding": "inplace",
        "label": "struct AccessControl.RoleData",
        "members": [
          {
            "astId": 19,
            "contract": "contracts/oracle_aggregator/wrapper/ChainlinkERC4626WrapperV1_1.sol:ChainlinkERC4626WrapperV1_1",
            "label": "hasRole",
            "offset": 0,
            "slot": "0",
            "type": "t_mapping(t_address,t_bool)"
          },
          {
            "astId": 21,
            "contract": "contracts/oracle_aggregator/wrapper/ChainlinkERC4626WrapperV1_1.sol:ChainlinkERC4626WrapperV1_1",
            "label": "adminRole",
            "offset": 0,
            "slot": "1",
            "type": "t_bytes32"
          }
        ],
        "numberOfBytes": "64"
      },
      "t_uint256": {
        "encoding": "inplace",
        "label": "uint256",
        "numberOfBytes": "32"
      },
      "t_uint8": {
        "encoding": "inplace",
        "label": "uint8",
        "numberOfBytes": "1"
      }
    }
  }
}