{
  "address": "0x7BC5Dd97396c765fe5ffA65c58Cdd2ED46D0a1C8",
  "abi": [
    {
      "inputs": [
        {
          "internalType": "address",
          "name": "baseCurrency",
          "type": "address"
        },
        {
          "internalType": "uint256",
          "name": "_baseCurrencyUnit",
          "type": "uint256"
        }
      ],
      "stateMutability": "nonpayable",
      "type": "constructor"
    },
    {
      "inputs": [],
      "name": "AccessControlBadConfirmation",
      "type": "error"
    },
    {
      "inputs": [
        {
          "internalType": "address",
          "name": "account",
          "type": "address"
        },
        {
          "internalType": "bytes32",
          "name": "neededRole",
          "type": "bytes32"
        }
      ],
      "name": "AccessControlUnauthorizedAccount",
      "type": "error"
    },
    {
      "inputs": [],
      "name": "FeedAddressZero",
      "type": "error"
    },
    {
      "inputs": [
        {
          "internalType": "address",
          "name": "feed",
          "type": "address"
        }
      ],
      "name": "FeedNotContract",
      "type": "error"
    },
    {
      "inputs": [
        {
          "internalType": "address",
          "name": "asset",
          "type": "address"
        }
      ],
      "name": "FeedNotSet",
      "type": "error"
    },
    {
      "inputs": [],
      "name": "InvalidPrice",
      "type": "error"
    },
    {
      "inputs": [],
      "name": "PriceIsStale",
      "type": "error"
    },
    {
      "anonymous": false,
      "inputs": [
        {
          "indexed": true,
          "internalType": "address",
          "name": "asset",
          "type": "address"
        },
        {
          "indexed": false,
          "internalType": "address",
          "name": "feed1",
          "type": "address"
        },
        {
          "indexed": false,
          "internalType": "address",
          "name": "feed2",
          "type": "address"
        },
        {
          "indexed": false,
          "internalType": "uint256",
          "name": "lowerThresholdInBase1",
          "type": "uint256"
        },
        {
          "indexed": false,
          "internalType": "uint256",
          "name": "fixedPriceInBase1",
          "type": "uint256"
        },
        {
          "indexed": false,
          "internalType": "uint256",
          "name": "lowerThresholdInBase2",
          "type": "uint256"
        },
        {
          "indexed": false,
          "internalType": "uint256",
          "name": "fixedPriceInBase2",
          "type": "uint256"
        }
      ],
      "name": "CompositeFeedAdded",
      "type": "event"
    },
    {
      "anonymous": false,
      "inputs": [
        {
          "indexed": true,
          "internalType": "address",
          "name": "asset",
          "type": "address"
        }
      ],
      "name": "CompositeFeedRemoved",
      "type": "event"
    },
    {
      "anonymous": false,
      "inputs": [
        {
          "indexed": true,
          "internalType": "address",
          "name": "asset",
          "type": "address"
        },
        {
          "indexed": false,
          "internalType": "uint256",
          "name": "lowerThresholdInBase1",
          "type": "uint256"
        },
        {
          "indexed": false,
          "internalType": "uint256",
          "name": "fixedPriceInBase1",
          "type": "uint256"
        },
        {
          "indexed": false,
          "internalType": "uint256",
          "name": "lowerThresholdInBase2",
          "type": "uint256"
        },
        {
          "indexed": false,
          "internalType": "uint256",
          "name": "fixedPriceInBase2",
          "type": "uint256"
        }
      ],
      "name": "CompositeFeedUpdated",
      "type": "event"
    },
    {
      "anonymous": false,
      "inputs": [
        {
          "indexed": true,
          "internalType": "bytes32",
          "name": "role",
          "type": "bytes32"
        },
        {
          "indexed": true,
          "internalType": "bytes32",
          "name": "previousAdminRole",
          "type": "bytes32"
        },
        {
          "indexed": true,
          "internalType": "bytes32",
          "name": "newAdminRole",
          "type": "bytes32"
        }
      ],
      "name": "RoleAdminChanged",
      "type": "event"
    },
    {
      "anonymous": false,
      "inputs": [
        {
          "indexed": true,
          "internalType": "bytes32",
          "name": "role",
          "type": "bytes32"
        },
        {
          "indexed": true,
          "internalType": "address",
          "name": "account",
          "type": "address"
        },
        {
          "indexed": true,
          "internalType": "address",
          "name": "sender",
          "type": "address"
        }
      ],
      "name": "RoleGranted",
      "type": "event"
    },
    {
      "anonymous": false,
      "inputs": [
        {
          "indexed": true,
          "internalType": "bytes32",
          "name": "role",
          "type": "bytes32"
        },
        {
          "indexed": true,
          "internalType": "address",
          "name": "account",
          "type": "address"
        },
        {
          "indexed": true,
          "internalType": "address",
          "name": "sender",
          "type": "address"
        }
      ],
      "name": "RoleRevoked",
      "type": "event"
    },
    {
      "inputs": [],
      "name": "BASE_CURRENCY",
      "outputs": [
        {
          "internalType": "address",
          "name": "",
          "type": "address"
        }
      ],
      "stateMutability": "view",
      "type": "function"
    },
    {
      "inputs": [],
      "name": "BASE_CURRENCY_UNIT",
      "outputs": [
        {
          "internalType": "uint256",
          "name": "",
          "type": "uint256"
        }
      ],
      "stateMutability": "view",
      "type": "function"
    },
    {
      "inputs": [],
      "name": "CHAINLINK_BASE_CURRENCY_UNIT",
      "outputs": [
        {
          "internalType": "uint256",
          "name": "",
          "type": "uint256"
        }
      ],
      "stateMutability": "view",
      "type": "function"
    },
    {
      "inputs": [],
      "name": "CHAINLINK_HEARTBEAT",
      "outputs": [
        {
          "internalType": "uint256",
          "name": "",
          "type": "uint256"
        }
      ],
      "stateMutability": "view",
      "type": "function"
    },
    {
      "inputs": [],
      "name": "DEFAULT_ADMIN_ROLE",
      "outputs": [
        {
          "internalType": "bytes32",
          "name": "",
          "type": "bytes32"
        }
      ],
      "stateMutability": "view",
      "type": "function"
    },
    {
      "inputs": [],
      "name": "ORACLE_MANAGER_ROLE",
      "outputs": [
        {
          "internalType": "bytes32",
          "name": "",
          "type": "bytes32"
        }
      ],
      "stateMutability": "view",
      "type": "function"
    },
    {
      "inputs": [
        {
          "internalType": "address",
          "name": "asset",
          "type": "address"
        },
        {
          "internalType": "address",
          "name": "feed1",
          "type": "address"
        },
        {
          "internalType": "address",
          "name": "feed2",
          "type": "address"
        },
        {
          "internalType": "uint256",
          "name": "lowerThresholdInBase1",
          "type": "uint256"
        },
        {
          "internalType": "uint256",
          "name": "fixedPriceInBase1",
          "type": "uint256"
        },
        {
          "internalType": "uint256",
          "name": "lowerThresholdInBase2",
          "type": "uint256"
        },
        {
          "internalType": "uint256",
          "name": "fixedPriceInBase2",
          "type": "uint256"
        }
      ],
      "name": "addCompositeFeed",
      "outputs": [],
      "stateMutability": "nonpayable",
      "type": "function"
    },
    {
      "inputs": [
        {
          "internalType": "address",
          "name": "",
          "type": "address"
        }
      ],
      "name": "compositeFeeds",
      "outputs": [
        {
          "internalType": "address",
          "name": "feed1",
          "type": "address"
        },
        {
          "internalType": "address",
          "name": "feed2",
          "type": "address"
        },
        {
          "components": [
            {
              "internalType": "uint256",
              "name": "lowerThresholdInBase",
              "type": "uint256"
            },
            {
              "internalType": "uint256",
              "name": "fixedPriceInBase",
              "type": "uint256"
            }
          ],
          "internalType": "struct ThresholdingUtils.ThresholdConfig",
          "name": "primaryThreshold",
          "type": "tuple"
        },
        {
          "components": [
            {
              "internalType": "uint256",
              "name": "lowerThresholdInBase",
              "type": "uint256"
            },
            {
              "internalType": "uint256",
              "name": "fixedPriceInBase",
              "type": "uint256"
            }
          ],
          "internalType": "struct ThresholdingUtils.ThresholdConfig",
          "name": "secondaryThreshold",
          "type": "tuple"
        }
      ],
      "stateMutability": "view",
      "type": "function"
    },
    {
      "inputs": [
        {
          "internalType": "address",
          "name": "asset",
          "type": "address"
        }
      ],
      "name": "getAssetPrice",
      "outputs": [
        {
          "internalType": "uint256",
          "name": "",
          "type": "uint256"
        }
      ],
      "stateMutability": "view",
      "type": "function"
    },
    {
      "inputs": [
        {
          "internalType": "address",
          "name": "asset",
          "type": "address"
        }
      ],
      "name": "getPriceInfo",
      "outputs": [
        {
          "internalType": "uint256",
          "name": "price",
          "type": "uint256"
        },
        {
          "internalType": "bool",
          "name": "isAlive",
          "type": "bool"
        }
      ],
      "stateMutability": "view",
      "type": "function"
    },
    {
      "inputs": [
        {
          "internalType": "bytes32",
          "name": "role",
          "type": "bytes32"
        }
      ],
      "name": "getRoleAdmin",
      "outputs": [
        {
          "internalType": "bytes32",
          "name": "",
          "type": "bytes32"
        }
      ],
      "stateMutability": "view",
      "type": "function"
    },
    {
      "inputs": [
        {
          "internalType": "bytes32",
          "name": "role",
          "type": "bytes32"
        },
        {
          "internalType": "address",
          "name": "account",
          "type": "address"
        }
      ],
      "name": "grantRole",
      "outputs": [],
      "stateMutability": "nonpayable",
      "type": "function"
    },
    {
      "inputs": [
        {
          "internalType": "bytes32",
          "name": "role",
          "type": "bytes32"
        },
        {
          "internalType": "address",
          "name": "account",
          "type": "address"
        }
      ],
      "name": "hasRole",
      "outputs": [
        {
          "internalType": "bool",
          "name": "",
          "type": "bool"
        }
      ],
      "stateMutability": "view",
      "type": "function"
    },
    {
      "inputs": [],
      "name": "heartbeatStaleTimeLimit",
      "outputs": [
        {
          "internalType": "uint256",
          "name": "",
          "type": "uint256"
        }
      ],
      "stateMutability": "view",
      "type": "function"
    },
    {
      "inputs": [
        {
          "internalType": "address",
          "name": "asset",
          "type": "address"
        }
      ],
      "name": "removeCompositeFeed",
      "outputs": [],
      "stateMutability": "nonpayable",
      "type": "function"
    },
    {
      "inputs": [
        {
          "internalType": "bytes32",
          "name": "role",
          "type": "bytes32"
        },
        {
          "internalType": "address",
          "name": "callerConfirmation",
          "type": "address"
        }
      ],
      "name": "renounceRole",
      "outputs": [],
      "stateMutability": "nonpayable",
      "type": "function"
    },
    {
      "inputs": [
        {
          "internalType": "bytes32",
          "name": "role",
          "type": "bytes32"
        },
        {
          "internalType": "address",
          "name": "account",
          "type": "address"
        }
      ],
      "name": "revokeRole",
      "outputs": [],
      "stateMutability": "nonpayable",
      "type": "function"
    },
    {
      "inputs": [
        {
          "internalType": "uint256",
          "name": "_newHeartbeatStaleTimeLimit",
          "type": "uint256"
        }
      ],
      "name": "setHeartbeatStaleTimeLimit",
      "outputs": [],
      "stateMutability": "nonpayable",
      "type": "function"
    },
    {
      "inputs": [
        {
          "internalType": "bytes4",
          "name": "interfaceId",
          "type": "bytes4"
        }
      ],
      "name": "supportsInterface",
      "outputs": [
        {
          "internalType": "bool",
          "name": "",
          "type": "bool"
        }
      ],
      "stateMutability": "view",
      "type": "function"
    },
    {
      "inputs": [
        {
          "internalType": "address",
          "name": "asset",
          "type": "address"
        },
        {
          "internalType": "uint256",
          "name": "lowerThresholdInBase1",
          "type": "uint256"
        },
        {
          "internalType": "uint256",
          "name": "fixedPriceInBase1",
          "type": "uint256"
        },
        {
          "internalType": "uint256",
          "name": "lowerThresholdInBase2",
          "type": "uint256"
        },
        {
          "internalType": "uint256",
          "name": "fixedPriceInBase2",
          "type": "uint256"
        }
      ],
      "name": "updateCompositeFeed",
      "outputs": [],
      "stateMutability": "nonpayable",
      "type": "function"
    }
  ],
  "transactionHash": "0x56d94f9dac961e23332f2e12f3fc37976540569d007fd1d801be754083e4ebb8",
  "args": [
    "0x0000000000000000000000000000000000000000",
    "1000000000000000000"
  ],
  "numDeployments": 1,
  "solcInputHash": "6a00e9aaba010a341218c5f7ed2041bf",
  "bytecode": "0x60c06040526107086001553480156200001757600080fd5b506040516200111c3803806200111c8339810160408190526200003a916200015d565b6001600160a01b03821660805260a081905281816200005b600033620000ae565b5062000077600080516020620010fc83398151915233620000ae565b506200008991506000905033620000ae565b50620000a5600080516020620010fc83398151915233620000ae565b50505062000199565b6000828152602081815260408083206001600160a01b038516845290915281205460ff1662000153576000838152602081815260408083206001600160a01b03861684529091529020805460ff191660011790556200010a3390565b6001600160a01b0316826001600160a01b0316847f2f8788117e7eff1d82e926ec794901d17c78024a50270940304540a733656f0d60405160405180910390a450600162000157565b5060005b92915050565b600080604083850312156200017157600080fd5b82516001600160a01b03811681146200018957600080fd5b6020939093015192949293505050565b60805160a051610f2f620001cd600039600081816101e6015281816107a90152610be3015260006102c30152610f2f6000f3fe608060405234801561001057600080fd5b506004361061012c5760003560e01c806391d14854116100ad578063c5efe27c11610071578063c5efe27c14610290578063d547741f146102a3578063e19f4700146102b6578063eae06eec146102ed578063f99256d5146102f857600080fd5b806391d14854146102435780639a999d4514610256578063a217fddf14610260578063b3596f0714610268578063bfc69e1c1461027b57600080fd5b806336568abe116100f457806336568abe146101bb578063519ffff1146101ce5780638c89b64f146101e15780638edbf436146102085780638f5997151461023057600080fd5b806301ffc9a71461013157806304dea65114610159578063248a9ca31461016e5780632ecac6fc1461019f5780632f2ff15d146101a8575b600080fd5b61014461013f366004610c6d565b610374565b60405190151581526020015b60405180910390f35b61016c610167366004610cba565b6103ab565b005b61019161017c366004610cfc565b60009081526020819052604090206001015490565b604051908152602001610150565b61019160015481565b61016c6101b6366004610d15565b61049e565b61016c6101c9366004610d15565b6104c9565b61016c6101dc366004610d41565b610501565b6101917f000000000000000000000000000000000000000000000000000000000000000081565b61021b610216366004610d41565b610594565b60408051928352901515602083015201610150565b61016c61023e366004610d5c565b61083c565b610144610251366004610d15565b610a2a565b6101916201518081565b610191600081565b610191610276366004610d41565b610a53565b610191600080516020610eda83398151915281565b61016c61029e366004610cfc565b610a8a565b61016c6102b1366004610d15565b610aa8565b6040516001600160a01b037f0000000000000000000000000000000000000000000000000000000000000000168152602001610150565b6101916305f5e10081565b610364610306366004610d41565b6002602081815260009283526040928390208054600182015485518087018752948301548552600383015485850152855180870190965260048301548652600590920154928501929092526001600160a01b03918216939116919084565b6040516101509493929190610dc4565b60006001600160e01b03198216637965db0b60e01b14806103a557506301ffc9a760e01b6001600160e01b03198316145b92915050565b600080516020610eda8339815191526103c381610acd565b6001600160a01b038087166000908152600260205260409020805490911615806103f8575060018101546001600160a01b0316155b1561042657604051630dcaf86b60e01b81526001600160a01b03881660048201526024015b60405180910390fd5b600281018690556003810185905560048101849055600581018390556040805187815260208101879052908101859052606081018490526001600160a01b038816907fbdebb389cb3e5b0a7c038b900aeea5b6e265e74efd0de50488c3574a4d7861d59060800160405180910390a250505050505050565b6000828152602081905260409020600101546104b981610acd565b6104c38383610ada565b50505050565b6001600160a01b03811633146104f25760405163334bd91960e11b815260040160405180910390fd5b6104fc8282610b6c565b505050565b600080516020610eda83398151915261051981610acd565b6001600160a01b038216600081815260026020819052604080832080546001600160a01b03199081168255600182018054909116905591820183905560038201839055600482018390556005909101829055517fdabc58d0456c50872fa82879bc9ce7f6a455b4372db632857a62de4abd0996919190a25050565b6001600160a01b03808216600090815260026020818152604080842081516080810183528154871681526001820154871681850152825180840184529482015485526003820154858501528083019490945281518083019092526004810154825260050154918101919091526060820152805191928392161580610623575060208101516001600160a01b0316155b1561064c57604051630dcaf86b60e01b81526001600160a01b038516600482015260240161041d565b60008082600001516001600160a01b031663feaf968c6040518163ffffffff1660e01b815260040160a060405180830381865afa158015610691573d6000803e3d6000fd5b505050506040513d601f19601f820116820180604052508101906106b59190610e27565b5093505092505060008084602001516001600160a01b031663feaf968c6040518163ffffffff1660e01b815260040160a060405180830381865afa158015610701573d6000803e3d6000fd5b505050506040513d601f19601f820116820180604052508101906107259190610e27565b50935050925050600080851361073c57600061073e565b845b90506000808413610750576000610752565b835b9050600061075f83610bd7565b9050600061076c83610bd7565b60408a0151519091501561078b57610788828a60400151610c12565b91505b606089015151156107a7576107a4818a60600151610c12565b90505b7f00000000000000000000000000000000000000000000000000000000000000006107d28284610e8d565b6107dc9190610ea4565b9a5060008b118015610807575060015442906107fb620151808a610ec6565b6108059190610ec6565b115b801561082c575060015442906108206201518088610ec6565b61082a9190610ec6565b115b9950505050505050505050915091565b600080516020610eda83398151915261085481610acd565b6001600160a01b038716158061087157506001600160a01b038616155b1561088f5760405163ee42f54f60e01b815260040160405180910390fd5b866001600160a01b03163b6000036108c557604051637dbff55f60e11b81526001600160a01b038816600482015260240161041d565b856001600160a01b03163b6000036108fb57604051637dbff55f60e11b81526001600160a01b038716600482015260240161041d565b604080516080810182526001600160a01b03808a1682528881166020808401918252845180860186528a81528082018a905284860190815285518087018752898152808301899052606086019081528e85166000818152600280865290899020975188549088166001600160a01b03199182161789559551600189018054919098169616959095179095559051805193860193909355918101516003850155905180516004850155015160059092019190915590517f8af3f37e726b4aaf30de76bd00359c9166bf6b9a01e457c3d4557df631227eed90610a18908a908a908a908a908a908a906001600160a01b03968716815294909516602085015260408401929092526060830152608082015260a081019190915260c00190565b60405180910390a25050505050505050565b6000918252602082815260408084206001600160a01b0393909316845291905290205460ff1690565b6000806000610a6184610594565b9150915080610a83576040516342bc305b60e11b815260040160405180910390fd5b5092915050565b600080516020610eda833981519152610aa281610acd565b50600155565b600082815260208190526040902060010154610ac381610acd565b6104c38383610b6c565b610ad78133610c30565b50565b6000610ae68383610a2a565b610b64576000838152602081815260408083206001600160a01b03861684529091529020805460ff19166001179055610b1c3390565b6001600160a01b0316826001600160a01b0316847f2f8788117e7eff1d82e926ec794901d17c78024a50270940304540a733656f0d60405160405180910390a45060016103a5565b5060006103a5565b6000610b788383610a2a565b15610b64576000838152602081815260408083206001600160a01b0386168085529252808320805460ff1916905551339286917ff6391f5c32d9c69d2a47ea670b442974b53935d1edc7fd64eb21e047a839171b9190a45060016103a5565b60006305f5e100610c087f000000000000000000000000000000000000000000000000000000000000000084610e8d565b6103a59190610ea4565b8051600090831115610c29575060208101516103a5565b5090919050565b610c3a8282610a2a565b610c695760405163e2517d3f60e01b81526001600160a01b03821660048201526024810183905260440161041d565b5050565b600060208284031215610c7f57600080fd5b81356001600160e01b031981168114610c9757600080fd5b9392505050565b80356001600160a01b0381168114610cb557600080fd5b919050565b600080600080600060a08688031215610cd257600080fd5b610cdb86610c9e565b97602087013597506040870135966060810135965060800135945092505050565b600060208284031215610d0e57600080fd5b5035919050565b60008060408385031215610d2857600080fd5b82359150610d3860208401610c9e565b90509250929050565b600060208284031215610d5357600080fd5b610c9782610c9e565b600080600080600080600060e0888a031215610d7757600080fd5b610d8088610c9e565b9650610d8e60208901610c9e565b9550610d9c60408901610c9e565b969995985095966060810135965060808101359560a0820135955060c0909101359350915050565b6001600160a01b0385811682528416602082015260c08101610df3604083018580518252602090810151910152565b82516080830152602083015160a083015295945050505050565b805169ffffffffffffffffffff81168114610cb557600080fd5b600080600080600060a08688031215610e3f57600080fd5b610e4886610e0d565b9450602086015193506040860151925060608601519150610e6b60808701610e0d565b90509295509295909350565b634e487b7160e01b600052601160045260246000fd5b80820281158282048414176103a5576103a5610e77565b600082610ec157634e487b7160e01b600052601260045260246000fd5b500490565b808201808211156103a5576103a5610e7756feced6982f480260bdd8ad5cb18ff2854f0306d78d904ad6cc107e8f3a0f526c18a2646970667358221220bc13a2f75a56fcc6bd10e2d20ef5b6d1931a93bd66c256fb0aeb8f20c472177164736f6c63430008160033ced6982f480260bdd8ad5cb18ff2854f0306d78d904ad6cc107e8f3a0f526c18",
  "devdoc": {
    "details": "Implementation of BaseChainlinkWrapper for composite Redstone oracles with thresholding",
    "errors": {
      "AccessControlBadConfirmation()": [
        {
          "details": "The caller of a function is not the expected one. NOTE: Don't confuse with {AccessControlUnauthorizedAccount}."
        }
      ],
      "AccessControlUnauthorizedAccount(address,bytes32)": [
        {
          "details": "The `account` is missing a role."
        }
      ]
    },
    "events": {
      "RoleAdminChanged(bytes32,bytes32,bytes32)": {
        "details": "Emitted when `newAdminRole` is set as ``role``'s admin role, replacing `previousAdminRole` `DEFAULT_ADMIN_ROLE` is the starting admin for all roles, despite {RoleAdminChanged} not being emitted to signal this."
      },
      "RoleGranted(bytes32,address,address)": {
        "details": "Emitted when `account` is granted `role`. `sender` is the account that originated the contract call. This account bears the admin role (for the granted role). Expected in cases where the role was granted using the internal {AccessControl-_grantRole}."
      },
      "RoleRevoked(bytes32,address,address)": {
        "details": "Emitted when `account` is revoked `role`. `sender` is the account that originated the contract call:   - if using `revokeRole`, it is the admin role bearer   - if using `renounceRole`, it is the role bearer (i.e. `account`)"
      }
    },
    "kind": "dev",
    "methods": {
      "BASE_CURRENCY()": {
        "returns": {
          "_0": "Returns the base currency address"
        }
      },
      "getAssetPrice(address)": {
        "params": {
          "asset": "The address of the asset to get the price for"
        },
        "returns": {
          "_0": "The current price of the asset"
        }
      },
      "getPriceInfo(address)": {
        "params": {
          "asset": "The address of the asset to get the price for"
        },
        "returns": {
          "isAlive": "Whether the price feed is considered active/valid",
          "price": "The price of the asset in base currency units"
        }
      },
      "getRoleAdmin(bytes32)": {
        "details": "Returns the admin role that controls `role`. See {grantRole} and {revokeRole}. To change a role's admin, use {_setRoleAdmin}."
      },
      "grantRole(bytes32,address)": {
        "details": "Grants `role` to `account`. If `account` had not been already granted `role`, emits a {RoleGranted} event. Requirements: - the caller must have ``role``'s admin role. May emit a {RoleGranted} event."
      },
      "hasRole(bytes32,address)": {
        "details": "Returns `true` if `account` has been granted `role`."
      },
      "renounceRole(bytes32,address)": {
        "details": "Revokes `role` from the calling account. Roles are often managed via {grantRole} and {revokeRole}: this function's purpose is to provide a mechanism for accounts to lose their privileges if they are compromised (such as when a trusted device is misplaced). If the calling account had been revoked `role`, emits a {RoleRevoked} event. Requirements: - the caller must be `callerConfirmation`. May emit a {RoleRevoked} event."
      },
      "revokeRole(bytes32,address)": {
        "details": "Revokes `role` from `account`. If `account` had been granted `role`, emits a {RoleRevoked} event. Requirements: - the caller must have ``role``'s admin role. May emit a {RoleRevoked} event."
      },
      "setHeartbeatStaleTimeLimit(uint256)": {
        "params": {
          "_newHeartbeatStaleTimeLimit": "The new heartbeat stale time limit"
        }
      },
      "supportsInterface(bytes4)": {
        "details": "Returns true if this contract implements the interface defined by `interfaceId`. See the corresponding https://eips.ethereum.org/EIPS/eip-165#how-interfaces-are-identified[ERC section] to learn more about how these ids are created. This function call must use less than 30 000 gas."
      }
    },
    "title": "RedstoneChainlinkCompositeWrapperWithThresholdingV1_1",
    "version": 1
  },
  "userdoc": {
    "kind": "user",
    "methods": {
      "BASE_CURRENCY()": {
        "notice": "Returns the base currency address"
      },
      "BASE_CURRENCY_UNIT()": {
        "notice": "Returns the base currency unit"
      },
      "getAssetPrice(address)": {
        "notice": "Gets the current price of an asset"
      },
      "getPriceInfo(address)": {
        "notice": "Gets the price information for an asset"
      },
      "setHeartbeatStaleTimeLimit(uint256)": {
        "notice": "Sets the heartbeat stale time limit"
      }
    },
    "version": 1
  },
  "storageLayout": {
    "storage": [
      {
        "astId": 3317,
        "contract": "contracts/oracle_aggregator/wrapper/RedstoneChainlinkCompositeWrapperWithThresholdingV1_1.sol:RedstoneChainlinkCompositeWrapperWithThresholdingV1_1",
        "label": "_roles",
        "offset": 0,
        "slot": "0",
        "type": "t_mapping(t_bytes32,t_struct(RoleData)3312_storage)"
      },
      {
        "astId": 78910,
        "contract": "contracts/oracle_aggregator/wrapper/RedstoneChainlinkCompositeWrapperWithThresholdingV1_1.sol:RedstoneChainlinkCompositeWrapperWithThresholdingV1_1",
        "label": "heartbeatStaleTimeLimit",
        "offset": 0,
        "slot": "1",
        "type": "t_uint256"
      },
      {
        "astId": 79974,
        "contract": "contracts/oracle_aggregator/wrapper/RedstoneChainlinkCompositeWrapperWithThresholdingV1_1.sol:RedstoneChainlinkCompositeWrapperWithThresholdingV1_1",
        "label": "compositeFeeds",
        "offset": 0,
        "slot": "2",
        "type": "t_mapping(t_address,t_struct(CompositeFeed)79969_storage)"
      }
    ],
    "types": {
      "t_address": {
        "encoding": "inplace",
        "label": "address",
        "numberOfBytes": "20"
      },
      "t_bool": {
        "encoding": "inplace",
        "label": "bool",
        "numberOfBytes": "1"
      },
      "t_bytes32": {
        "encoding": "inplace",
        "label": "bytes32",
        "numberOfBytes": "32"
      },
      "t_mapping(t_address,t_bool)": {
        "encoding": "mapping",
        "key": "t_address",
        "label": "mapping(address => bool)",
        "numberOfBytes": "32",
        "value": "t_bool"
      },
      "t_mapping(t_address,t_struct(CompositeFeed)79969_storage)": {
        "encoding": "mapping",
        "key": "t_address",
        "label": "mapping(address => struct RedstoneChainlinkCompositeWrapperWithThresholdingV1_1.CompositeFeed)",
        "numberOfBytes": "32",
        "value": "t_struct(CompositeFeed)79969_storage"
      },
      "t_mapping(t_bytes32,t_struct(RoleData)3312_storage)": {
        "encoding": "mapping",
        "key": "t_bytes32",
        "label": "mapping(bytes32 => struct AccessControl.RoleData)",
        "numberOfBytes": "32",
        "value": "t_struct(RoleData)3312_storage"
      },
      "t_struct(CompositeFeed)79969_storage": {
        "encoding": "inplace",
        "label": "struct RedstoneChainlinkCompositeWrapperWithThresholdingV1_1.CompositeFeed",
        "members": [
          {
            "astId": 79960,
            "contract": "contracts/oracle_aggregator/wrapper/RedstoneChainlinkCompositeWrapperWithThresholdingV1_1.sol:RedstoneChainlinkCompositeWrapperWithThresholdingV1_1",
            "label": "feed1",
            "offset": 0,
            "slot": "0",
            "type": "t_address"
          },
          {
            "astId": 79962,
            "contract": "contracts/oracle_aggregator/wrapper/RedstoneChainlinkCompositeWrapperWithThresholdingV1_1.sol:RedstoneChainlinkCompositeWrapperWithThresholdingV1_1",
            "label": "feed2",
            "offset": 0,
            "slot": "1",
            "type": "t_address"
          },
          {
            "astId": 79965,
            "contract": "contracts/oracle_aggregator/wrapper/RedstoneChainlinkCompositeWrapperWithThresholdingV1_1.sol:RedstoneChainlinkCompositeWrapperWithThresholdingV1_1",
            "label": "primaryThreshold",
            "offset": 0,
            "slot": "2",
            "type": "t_struct(ThresholdConfig)80696_storage"
          },
          {
            "astId": 79968,
            "contract": "contracts/oracle_aggregator/wrapper/RedstoneChainlinkCompositeWrapperWithThresholdingV1_1.sol:RedstoneChainlinkCompositeWrapperWithThresholdingV1_1",
            "label": "secondaryThreshold",
            "offset": 0,
            "slot": "4",
            "type": "t_struct(ThresholdConfig)80696_storage"
          }
        ],
        "numberOfBytes": "192"
      },
      "t_struct(RoleData)3312_storage": {
        "encoding": "inplace",
        "label": "struct AccessControl.RoleData",
        "members": [
          {
            "astId": 3309,
            "contract": "contracts/oracle_aggregator/wrapper/RedstoneChainlinkCompositeWrapperWithThresholdingV1_1.sol:RedstoneChainlinkCompositeWrapperWithThresholdingV1_1",
            "label": "hasRole",
            "offset": 0,
            "slot": "0",
            "type": "t_mapping(t_address,t_bool)"
          },
          {
            "astId": 3311,
            "contract": "contracts/oracle_aggregator/wrapper/RedstoneChainlinkCompositeWrapperWithThresholdingV1_1.sol:RedstoneChainlinkCompositeWrapperWithThresholdingV1_1",
            "label": "adminRole",
            "offset": 0,
            "slot": "1",
            "type": "t_bytes32"
          }
        ],
        "numberOfBytes": "64"
      },
      "t_struct(ThresholdConfig)80696_storage": {
        "encoding": "inplace",
        "label": "struct ThresholdingUtils.ThresholdConfig",
        "members": [
          {
            "astId": 80693,
            "contract": "contracts/oracle_aggregator/wrapper/RedstoneChainlinkCompositeWrapperWithThresholdingV1_1.sol:RedstoneChainlinkCompositeWrapperWithThresholdingV1_1",
            "label": "lowerThresholdInBase",
            "offset": 0,
            "slot": "0",
            "type": "t_uint256"
          },
          {
            "astId": 80695,
            "contract": "contracts/oracle_aggregator/wrapper/RedstoneChainlinkCompositeWrapperWithThresholdingV1_1.sol:RedstoneChainlinkCompositeWrapperWithThresholdingV1_1",
            "label": "fixedPriceInBase",
            "offset": 0,
            "slot": "1",
            "type": "t_uint256"
          }
        ],
        "numberOfBytes": "64"
      },
      "t_uint256": {
        "encoding": "inplace",
        "label": "uint256",
        "numberOfBytes": "32"
      }
    }
  }
}