{
  "address": "0xD07072330f4d814f9943bC4066Abd3C3ee48Fb07",
  "abi": [
    {
      "inputs": [
        {
          "internalType": "address",
          "name": "_dStable",
          "type": "address"
        },
        {
          "internalType": "address",
          "name": "_wrappedDLendToken",
          "type": "address"
        },
        {
          "internalType": "address",
          "name": "_collateralVault",
          "type": "address"
        }
      ],
      "stateMutability": "nonpayable",
      "type": "constructor"
    },
    {
      "inputs": [],
      "name": "AccessControlBadConfirmation",
      "type": "error"
    },
    {
      "inputs": [
        {
          "internalType": "address",
          "name": "account",
          "type": "address"
        },
        {
          "internalType": "bytes32",
          "name": "neededRole",
          "type": "bytes32"
        }
      ],
      "name": "AccessControlUnauthorizedAccount",
      "type": "error"
    },
    {
      "inputs": [
        {
          "internalType": "address",
          "name": "expected",
          "type": "address"
        },
        {
          "internalType": "address",
          "name": "actual",
          "type": "address"
        }
      ],
      "name": "IncorrectStrategyShare",
      "type": "error"
    },
    {
      "inputs": [],
      "name": "InvalidAmount",
      "type": "error"
    },
    {
      "inputs": [
        {
          "internalType": "address",
          "name": "token",
          "type": "address"
        }
      ],
      "name": "SafeERC20FailedOperation",
      "type": "error"
    },
    {
      "inputs": [
        {
          "internalType": "address",
          "name": "expected",
          "type": "address"
        },
        {
          "internalType": "address",
          "name": "actual",
          "type": "address"
        }
      ],
      "name": "StaticATokenUnderlyingMismatch",
      "type": "error"
    },
    {
      "inputs": [
        {
          "internalType": "address",
          "name": "caller",
          "type": "address"
        }
      ],
      "name": "UnauthorizedCaller",
      "type": "error"
    },
    {
      "inputs": [
        {
          "internalType": "bytes",
          "name": "reason",
          "type": "bytes"
        }
      ],
      "name": "WrappedDepositFailed",
      "type": "error"
    },
    {
      "inputs": [],
      "name": "ZeroAddress",
      "type": "error"
    },
    {
      "anonymous": false,
      "inputs": [
        {
          "indexed": true,
          "internalType": "address",
          "name": "caller",
          "type": "address"
        },
        {
          "indexed": false,
          "internalType": "bool",
          "name": "isAuthorized",
          "type": "bool"
        },
        {
          "indexed": true,
          "internalType": "address",
          "name": "admin",
          "type": "address"
        }
      ],
      "name": "AuthorizedCallerUpdated",
      "type": "event"
    },
    {
      "anonymous": false,
      "inputs": [
        {
          "indexed": true,
          "internalType": "address",
          "name": "token",
          "type": "address"
        },
        {
          "indexed": false,
          "internalType": "uint256",
          "name": "amount",
          "type": "uint256"
        },
        {
          "indexed": true,
          "internalType": "address",
          "name": "recipient",
          "type": "address"
        }
      ],
      "name": "EmergencyWithdraw",
      "type": "event"
    },
    {
      "anonymous": false,
      "inputs": [
        {
          "indexed": true,
          "internalType": "bytes32",
          "name": "role",
          "type": "bytes32"
        },
        {
          "indexed": true,
          "internalType": "bytes32",
          "name": "previousAdminRole",
          "type": "bytes32"
        },
        {
          "indexed": true,
          "internalType": "bytes32",
          "name": "newAdminRole",
          "type": "bytes32"
        }
      ],
      "name": "RoleAdminChanged",
      "type": "event"
    },
    {
      "anonymous": false,
      "inputs": [
        {
          "indexed": true,
          "internalType": "bytes32",
          "name": "role",
          "type": "bytes32"
        },
        {
          "indexed": true,
          "internalType": "address",
          "name": "account",
          "type": "address"
        },
        {
          "indexed": true,
          "internalType": "address",
          "name": "sender",
          "type": "address"
        }
      ],
      "name": "RoleGranted",
      "type": "event"
    },
    {
      "anonymous": false,
      "inputs": [
        {
          "indexed": true,
          "internalType": "bytes32",
          "name": "role",
          "type": "bytes32"
        },
        {
          "indexed": true,
          "internalType": "address",
          "name": "account",
          "type": "address"
        },
        {
          "indexed": true,
          "internalType": "address",
          "name": "sender",
          "type": "address"
        }
      ],
      "name": "RoleRevoked",
      "type": "event"
    },
    {
      "inputs": [],
      "name": "AUTHORIZED_CALLER_ROLE",
      "outputs": [
        {
          "internalType": "bytes32",
          "name": "",
          "type": "bytes32"
        }
      ],
      "stateMutability": "view",
      "type": "function"
    },
    {
      "inputs": [],
      "name": "DEFAULT_ADMIN_ROLE",
      "outputs": [
        {
          "internalType": "bytes32",
          "name": "",
          "type": "bytes32"
        }
      ],
      "stateMutability": "view",
      "type": "function"
    },
    {
      "inputs": [],
      "name": "collateralVault",
      "outputs": [
        {
          "internalType": "address",
          "name": "",
          "type": "address"
        }
      ],
      "stateMutability": "view",
      "type": "function"
    },
    {
      "inputs": [],
      "name": "dStable",
      "outputs": [
        {
          "internalType": "address",
          "name": "",
          "type": "address"
        }
      ],
      "stateMutability": "view",
      "type": "function"
    },
    {
      "inputs": [
        {
          "internalType": "uint256",
          "name": "dStableAmount",
          "type": "uint256"
        }
      ],
      "name": "depositIntoStrategy",
      "outputs": [
        {
          "internalType": "address",
          "name": "_strategyShare",
          "type": "address"
        },
        {
          "internalType": "uint256",
          "name": "strategyShareAmount",
          "type": "uint256"
        }
      ],
      "stateMutability": "nonpayable",
      "type": "function"
    },
    {
      "inputs": [
        {
          "internalType": "address",
          "name": "token",
          "type": "address"
        },
        {
          "internalType": "uint256",
          "name": "amount",
          "type": "uint256"
        }
      ],
      "name": "emergencyWithdraw",
      "outputs": [],
      "stateMutability": "nonpayable",
      "type": "function"
    },
    {
      "inputs": [
        {
          "internalType": "bytes32",
          "name": "role",
          "type": "bytes32"
        }
      ],
      "name": "getRoleAdmin",
      "outputs": [
        {
          "internalType": "bytes32",
          "name": "",
          "type": "bytes32"
        }
      ],
      "stateMutability": "view",
      "type": "function"
    },
    {
      "inputs": [
        {
          "internalType": "bytes32",
          "name": "role",
          "type": "bytes32"
        },
        {
          "internalType": "address",
          "name": "account",
          "type": "address"
        }
      ],
      "name": "grantRole",
      "outputs": [],
      "stateMutability": "nonpayable",
      "type": "function"
    },
    {
      "inputs": [
        {
          "internalType": "bytes32",
          "name": "role",
          "type": "bytes32"
        },
        {
          "internalType": "address",
          "name": "account",
          "type": "address"
        }
      ],
      "name": "hasRole",
      "outputs": [
        {
          "internalType": "bool",
          "name": "",
          "type": "bool"
        }
      ],
      "stateMutability": "view",
      "type": "function"
    },
    {
      "inputs": [
        {
          "internalType": "uint256",
          "name": "dStableAmount",
          "type": "uint256"
        }
      ],
      "name": "previewDepositIntoStrategy",
      "outputs": [
        {
          "internalType": "address",
          "name": "_strategyShare",
          "type": "address"
        },
        {
          "internalType": "uint256",
          "name": "strategyShareAmount",
          "type": "uint256"
        }
      ],
      "stateMutability": "view",
      "type": "function"
    },
    {
      "inputs": [
        {
          "internalType": "uint256",
          "name": "strategyShareAmount",
          "type": "uint256"
        }
      ],
      "name": "previewWithdrawFromStrategy",
      "outputs": [
        {
          "internalType": "uint256",
          "name": "dStableAmount",
          "type": "uint256"
        }
      ],
      "stateMutability": "view",
      "type": "function"
    },
    {
      "inputs": [
        {
          "internalType": "bytes32",
          "name": "role",
          "type": "bytes32"
        },
        {
          "internalType": "address",
          "name": "callerConfirmation",
          "type": "address"
        }
      ],
      "name": "renounceRole",
      "outputs": [],
      "stateMutability": "nonpayable",
      "type": "function"
    },
    {
      "inputs": [
        {
          "internalType": "bytes32",
          "name": "role",
          "type": "bytes32"
        },
        {
          "internalType": "address",
          "name": "account",
          "type": "address"
        }
      ],
      "name": "revokeRole",
      "outputs": [],
      "stateMutability": "nonpayable",
      "type": "function"
    },
    {
      "inputs": [
        {
          "internalType": "address",
          "name": "caller",
          "type": "address"
        },
        {
          "internalType": "bool",
          "name": "authorized",
          "type": "bool"
        }
      ],
      "name": "setAuthorizedCaller",
      "outputs": [],
      "stateMutability": "nonpayable",
      "type": "function"
    },
    {
      "inputs": [],
      "name": "strategyShare",
      "outputs": [
        {
          "internalType": "address",
          "name": "",
          "type": "address"
        }
      ],
      "stateMutability": "view",
      "type": "function"
    },
    {
      "inputs": [
        {
          "internalType": "address",
          "name": "_strategyShare",
          "type": "address"
        },
        {
          "internalType": "uint256",
          "name": "strategyShareAmount",
          "type": "uint256"
        }
      ],
      "name": "strategyShareValueInDStable",
      "outputs": [
        {
          "internalType": "uint256",
          "name": "dStableValue",
          "type": "uint256"
        }
      ],
      "stateMutability": "view",
      "type": "function"
    },
    {
      "inputs": [
        {
          "internalType": "bytes4",
          "name": "interfaceId",
          "type": "bytes4"
        }
      ],
      "name": "supportsInterface",
      "outputs": [
        {
          "internalType": "bool",
          "name": "",
          "type": "bool"
        }
      ],
      "stateMutability": "view",
      "type": "function"
    },
    {
      "inputs": [],
      "name": "vaultAsset",
      "outputs": [
        {
          "internalType": "address",
          "name": "",
          "type": "address"
        }
      ],
      "stateMutability": "view",
      "type": "function"
    },
    {
      "inputs": [
        {
          "internalType": "uint256",
          "name": "strategyShareAmount",
          "type": "uint256"
        }
      ],
      "name": "withdrawFromStrategy",
      "outputs": [
        {
          "internalType": "uint256",
          "name": "dStableAmount",
          "type": "uint256"
        }
      ],
      "stateMutability": "nonpayable",
      "type": "function"
    },
    {
      "inputs": [],
      "name": "wrappedDLendToken",
      "outputs": [
        {
          "internalType": "contract IStaticATokenLM",
          "name": "",
          "type": "address"
        }
      ],
      "stateMutability": "view",
      "type": "function"
    }
  ],
  "transactionHash": "0xf485cb333f862f796bd47d7cd537d5c462bacb9d80d824779d9705988a9b16ab",
  "args": [
    "0xb419ecdd222981e7e54cec316797ecb799c6afdc",
    "0xeb5260bAFf0F2018e2fAA4FC81d82d0De1c07776",
    "0xf93Fb0aDd57133AecD56fA48350684B5A7A1A5b9"
  ],
  "numDeployments": 1,
  "solcInputHash": "6a00e9aaba010a341218c5f7ed2041bf",
  "bytecode": "0x60e06040523480156200001157600080fd5b50604051620014a6380380620014a683398101604081905262000034916200029d565b6001600160a01b03831615806200005257506001600160a01b038216155b806200006557506001600160a01b038116155b15620000845760405163d92e233d60e01b815260040160405180910390fd5b6001600160a01b03808416608081905283821660a081905291831660c052604080516338d52e0f60e01b815290519192916338d52e0f916004808201926020929091908290030181865afa158015620000e1573d6000803e3d6000fd5b505050506040513d601f19601f82011682018060405250810190620001079190620002e7565b6001600160a01b031614620001ac5782826001600160a01b03166338d52e0f6040518163ffffffff1660e01b8152600401602060405180830381865afa15801562000156573d6000803e3d6000fd5b505050506040513d601f19601f820116820180604052508101906200017c9190620002e7565b60405163134bcedf60e11b81526001600160a01b0392831660048201529116602482015260440160405180910390fd5b620001b9600033620001d1565b50620001c7600082620001d1565b505050506200030c565b6000828152602081815260408083206001600160a01b038516845290915281205460ff1662000276576000838152602081815260408083206001600160a01b03861684529091529020805460ff191660011790556200022d3390565b6001600160a01b0316826001600160a01b0316847f2f8788117e7eff1d82e926ec794901d17c78024a50270940304540a733656f0d60405160405180910390a45060016200027a565b5060005b92915050565b80516001600160a01b03811681146200029857600080fd5b919050565b600080600060608486031215620002b357600080fd5b620002be8462000280565b9250620002ce6020850162000280565b9150620002de6040850162000280565b90509250925092565b600060208284031215620002fa57600080fd5b620003058262000280565b9392505050565b60805160a05160c0516110ec620003ba6000396000818161017f0152818161087101528181610a360152610a5d01526000818161021d0152818161027a01528181610387015281816103d50152818161042501528181610688015281816106d20152818161082e015281816108990152818161097e015281816109a601528181610ae60152610b6f0152600081816101be015281816107d70152818161080c015261095c01526110ec6000f3fe608060405234801561001057600080fd5b506004361061012c5760003560e01c80634ab9e16b116100ad578063a217fddf11610071578063a217fddf14610309578063a412fa2814610311578063d547741f14610324578063dd5ead8f14610278578063f573388e1461033757600080fd5b80634ab9e16b146102785780636f81a6b01461029e57806391d14854146102d057806395ccea67146102e35780639c544e9f146102f657600080fd5b80632f2ff15d116100f45780632f2ff15d1461020357806331f060781461021857806336568abe1461023f578063454bbd291461025257806348b193351461026557600080fd5b806301ffc9a7146101315780630a3a0a18146101595780630bece79c1461017a5780630cc2f8d2146101b9578063248a9ca3146101e0575b600080fd5b61014461013f366004610f42565b61034c565b60405190151581526020015b60405180910390f35b61016c610167366004610f83565b610383565b604051908152602001610150565b6101a17f000000000000000000000000000000000000000000000000000000000000000081565b6040516001600160a01b039091168152602001610150565b6101a17f000000000000000000000000000000000000000000000000000000000000000081565b61016c6101ee366004610fad565b60009081526020819052604090206001015490565b610216610211366004610fc6565b61049f565b005b6101a17f000000000000000000000000000000000000000000000000000000000000000081565b61021661024d366004610fc6565b6104ca565b610216610260366004610ff2565b610502565b61016c610273366004610fad565b610621565b7f00000000000000000000000000000000000000000000000000000000000000006101a1565b6102b16102ac366004610fad565b61076f565b604080516001600160a01b039093168352602083019190915201610150565b6101446102de366004610fc6565b6109cc565b6102166102f1366004610f83565b6109f5565b61016c610304366004610fad565b610acd565b61016c600081565b6102b161031f366004610fad565b610b59565b610216610332366004610fc6565b610bee565b61016c60008051602061109783398151915281565b60006001600160e01b03198216637965db0b60e01b148061037d57506301ffc9a760e01b6001600160e01b03198316145b92915050565b60007f00000000000000000000000000000000000000000000000000000000000000006001600160a01b0316836001600160a01b03161461040f5760405163995b537d60e01b81526001600160a01b037f000000000000000000000000000000000000000000000000000000000000000081166004830152841660248201526044015b60405180910390fd5b60405163266d6a8360e11b8152600481018390527f00000000000000000000000000000000000000000000000000000000000000006001600160a01b031690634cdad50690602401602060405180830381865afa158015610474573d6000803e3d6000fd5b505050506040513d601f19601f82011682018060405250810190610498919061102e565b9392505050565b6000828152602081905260409020600101546104ba81610c13565b6104c48383610c20565b50505050565b6001600160a01b03811633146104f35760405163334bd91960e11b815260040160405180910390fd5b6104fd8282610cb2565b505050565b600061050d81610c13565b6001600160a01b0383166105345760405163d92e233d60e01b815260040160405180910390fd5b600061054e600080516020611097833981519152856109cc565b905082156105bb57806105b65761057360008051602061109783398151915285610c20565b506040516001815233906001600160a01b038616907f3cd22b2b2ff7e7215b04b0249860992ba1db48eaaaafac4f5638e520b01ab60a9060200160405180910390a35b6104c4565b80156104c4576105d960008051602061109783398151915285610cb2565b506040516000815233906001600160a01b038616907f3cd22b2b2ff7e7215b04b0249860992ba1db48eaaaafac4f5638e520b01ab60a9060200160405180910390a350505050565b600061063b600080516020611097833981519152336109cc565b61065a5760405163d86ad9cf60e01b8152336004820152602401610406565b8160000361067b5760405163162908e360e11b815260040160405180910390fd5b6106b06001600160a01b037f000000000000000000000000000000000000000000000000000000000000000016333085610d1d565b604051635d043b2960e11b8152600481018390523360248201523060448201527f00000000000000000000000000000000000000000000000000000000000000006001600160a01b03169063ba087652906064016020604051808303816000875af1158015610723573d6000803e3d6000fd5b505050506040513d601f19601f82011682018060405250810190610747919061102e565b90508060000361076a5760405163162908e360e11b815260040160405180910390fd5b919050565b60008061078a600080516020611097833981519152336109cc565b6107a95760405163d86ad9cf60e01b8152336004820152602401610406565b826000036107ca5760405163162908e360e11b815260040160405180910390fd5b6107ff6001600160a01b037f000000000000000000000000000000000000000000000000000000000000000016333086610d1d565b6108536001600160a01b037f0000000000000000000000000000000000000000000000000000000000000000167f000000000000000000000000000000000000000000000000000000000000000085610d84565b604051636e553f6560e01b8152600481018490526001600160a01b037f0000000000000000000000000000000000000000000000000000000000000000811660248301527f00000000000000000000000000000000000000000000000000000000000000001690636e553f65906044016020604051808303816000875af19250505080156108fe575060408051601f3d908101601f191682019092526108fb9181019061102e565b60015b61094d573d80801561092c576040519150601f19603f3d011682016040523d82523d6000602084013e610931565b606091505b5080604051635fa3258960e11b81526004016104069190611047565b90506109a46001600160a01b037f0000000000000000000000000000000000000000000000000000000000000000167f00000000000000000000000000000000000000000000000000000000000000006000610d84565b7f00000000000000000000000000000000000000000000000000000000000000009150915091565b6000918252602082815260408084206001600160a01b0393909316845291905290205460ff1690565b6000610a0081610c13565b6001600160a01b038316610a275760405163d92e233d60e01b815260040160405180910390fd5b610a5b6001600160a01b0384167f000000000000000000000000000000000000000000000000000000000000000084610e14565b7f00000000000000000000000000000000000000000000000000000000000000006001600160a01b0316836001600160a01b03167faaeda929aa102e867049528ec7cd2499e3a2f8846e736ae7935f234dfbf500d984604051610ac091815260200190565b60405180910390a3505050565b60405163266d6a8360e11b8152600481018290526000907f00000000000000000000000000000000000000000000000000000000000000006001600160a01b031690634cdad50690602401602060405180830381865afa158015610b35573d6000803e3d6000fd5b505050506040513d601f19601f8201168201806040525081019061037d919061102e565b60405163ef8b30f760e01b8152600481018290527f0000000000000000000000000000000000000000000000000000000000000000906000906001600160a01b0383169063ef8b30f790602401602060405180830381865afa158015610bc3573d6000803e3d6000fd5b505050506040513d601f19601f82011682018060405250810190610be7919061102e565b9050915091565b600082815260208190526040902060010154610c0981610c13565b6104c48383610cb2565b610c1d8133610e45565b50565b6000610c2c83836109cc565b610caa576000838152602081815260408083206001600160a01b03861684529091529020805460ff19166001179055610c623390565b6001600160a01b0316826001600160a01b0316847f2f8788117e7eff1d82e926ec794901d17c78024a50270940304540a733656f0d60405160405180910390a450600161037d565b50600061037d565b6000610cbe83836109cc565b15610caa576000838152602081815260408083206001600160a01b0386168085529252808320805460ff1916905551339286917ff6391f5c32d9c69d2a47ea670b442974b53935d1edc7fd64eb21e047a839171b9190a450600161037d565b6040516001600160a01b0384811660248301528381166044830152606482018390526104c49186918216906323b872dd906084015b604051602081830303815290604052915060e01b6020820180516001600160e01b038381831617835250505050610e82565b604080516001600160a01b038416602482015260448082018490528251808303909101815260649091019091526020810180516001600160e01b031663095ea7b360e01b179052610dd58482610ef3565b6104c4576040516001600160a01b03848116602483015260006044830152610e0a91869182169063095ea7b390606401610d52565b6104c48482610e82565b6040516001600160a01b038381166024830152604482018390526104fd91859182169063a9059cbb90606401610d52565b610e4f82826109cc565b610e7e5760405163e2517d3f60e01b81526001600160a01b038216600482015260248101839052604401610406565b5050565b600080602060008451602086016000885af180610ea5576040513d6000823e3d81fd5b50506000513d91508115610ebd578060011415610eca565b6001600160a01b0384163b155b156104c457604051635274afe760e01b81526001600160a01b0385166004820152602401610406565b6000806000806020600086516020880160008a5af192503d91506000519050828015610f3857508115610f295780600114610f38565b6000866001600160a01b03163b115b9695505050505050565b600060208284031215610f5457600080fd5b81356001600160e01b03198116811461049857600080fd5b80356001600160a01b038116811461076a57600080fd5b60008060408385031215610f9657600080fd5b610f9f83610f6c565b946020939093013593505050565b600060208284031215610fbf57600080fd5b5035919050565b60008060408385031215610fd957600080fd5b82359150610fe960208401610f6c565b90509250929050565b6000806040838503121561100557600080fd5b61100e83610f6c565b91506020830135801515811461102357600080fd5b809150509250929050565b60006020828403121561104057600080fd5b5051919050565b60006020808352835180602085015260005b8181101561107557858101830151858201604001528201611059565b506000604082860101526040601f19601f830116850101925050509291505056fef12fb6eaf1f045883c82d7d192627f7a36a50ce00c45e305919895908135a8a8a2646970667358221220f23a5f9c8a8f26af4afdb5d0fec5fd4b1bbf34fbd67bf998a4ebc915b57c899364736f6c63430008160033",
  "devdoc": {
    "details": "Implements the IDStableConversionAdapterV2 interface.      Interacts with a specific StaticATokenLM contract provided at deployment.",
    "errors": {
      "AccessControlBadConfirmation()": [
        {
          "details": "The caller of a function is not the expected one. NOTE: Don't confuse with {AccessControlUnauthorizedAccount}."
        }
      ],
      "AccessControlUnauthorizedAccount(address,bytes32)": [
        {
          "details": "The `account` is missing a role."
        }
      ],
      "SafeERC20FailedOperation(address)": [
        {
          "details": "An operation with an ERC-20 token failed."
        }
      ]
    },
    "events": {
      "RoleAdminChanged(bytes32,bytes32,bytes32)": {
        "details": "Emitted when `newAdminRole` is set as ``role``'s admin role, replacing `previousAdminRole` `DEFAULT_ADMIN_ROLE` is the starting admin for all roles, despite {RoleAdminChanged} not being emitted to signal this."
      },
      "RoleGranted(bytes32,address,address)": {
        "details": "Emitted when `account` is granted `role`. `sender` is the account that originated the contract call. This account bears the admin role (for the granted role). Expected in cases where the role was granted using the internal {AccessControl-_grantRole}."
      },
      "RoleRevoked(bytes32,address,address)": {
        "details": "Emitted when `account` is revoked `role`. `sender` is the account that originated the contract call:   - if using `revokeRole`, it is the admin role bearer   - if using `renounceRole`, it is the role bearer (i.e. `account`)"
      }
    },
    "kind": "dev",
    "methods": {
      "constructor": {
        "params": {
          "_collateralVault": "The address of the DStakeCollateralVaultV2",
          "_dStable": "The address of the dSTABLE asset (e.g., dUSD)",
          "_wrappedDLendToken": "The address of the wrapped dLEND token (StaticATokenLM, e.g., wddUSD)"
        }
      },
      "depositIntoStrategy(uint256)": {
        "details": "Converts dStable -> wrappedDLendToken by depositing into StaticATokenLM.      The StaticATokenLM contract MUST be pre-approved to spend dStable held by this adapter.      The StaticATokenLM contract mints the wrappedDLendToken directly to the collateralVault.",
        "params": {
          "stableAmount": "The amount of stable asset to convert."
        },
        "returns": {
          "_strategyShare": "The address of the specific `strategy share` token managed by this adapter.",
          "strategyShareAmount": "The amount of `strategyShare` generated from the conversion."
        }
      },
      "emergencyWithdraw(address,uint256)": {
        "params": {
          "amount": "Amount of tokens to transfer",
          "token": "Address of the ERC20 token to recover"
        }
      },
      "getRoleAdmin(bytes32)": {
        "details": "Returns the admin role that controls `role`. See {grantRole} and {revokeRole}. To change a role's admin, use {_setRoleAdmin}."
      },
      "grantRole(bytes32,address)": {
        "details": "Grants `role` to `account`. If `account` had not been already granted `role`, emits a {RoleGranted} event. Requirements: - the caller must have ``role``'s admin role. May emit a {RoleGranted} event."
      },
      "hasRole(bytes32,address)": {
        "details": "Returns `true` if `account` has been granted `role`."
      },
      "previewDepositIntoStrategy(uint256)": {
        "details": "Preview the result of converting a given dSTABLE amount to wrappedDLendToken.",
        "params": {
          "dStableAmount": "Amount of dSTABLE to convert"
        },
        "returns": {
          "_strategyShare": "Address of the strategy share (wrapped dLend token)",
          "strategyShareAmount": "Amount of strategy share that would be received"
        }
      },
      "previewWithdrawFromStrategy(uint256)": {
        "details": "Preview the result of converting a given wrappedDLendToken amount to dSTABLE.",
        "params": {
          "strategyShareAmount": "Amount of strategy share to convert"
        },
        "returns": {
          "dStableAmount": "Amount of dSTABLE that would be received"
        }
      },
      "renounceRole(bytes32,address)": {
        "details": "Revokes `role` from the calling account. Roles are often managed via {grantRole} and {revokeRole}: this function's purpose is to provide a mechanism for accounts to lose their privileges if they are compromised (such as when a trusted device is misplaced). If the calling account had been revoked `role`, emits a {RoleRevoked} event. Requirements: - the caller must be `callerConfirmation`. May emit a {RoleRevoked} event."
      },
      "revokeRole(bytes32,address)": {
        "details": "Revokes `role` from `account`. If `account` had been granted `role`, emits a {RoleRevoked} event. Requirements: - the caller must have ``role``'s admin role. May emit a {RoleRevoked} event."
      },
      "setAuthorizedCaller(address,bool)": {
        "params": {
          "authorized": "Grant (`true`) or revoke (`false`) the caller role",
          "caller": "Address to modify"
        }
      },
      "strategyShare()": {
        "returns": {
          "_0": "The address of the `strategy share`."
        }
      },
      "strategyShareValueInDStable(address,uint256)": {
        "details": "Uses StaticATokenLM's previewRedeem function to get the underlying value (dStable).",
        "params": {
          "strategyShare": "The address of the strategy share token (should match strategyShare()). Included for explicitness.",
          "strategyShareAmount": "The amount of the `strategyShare` to value."
        },
        "returns": {
          "dStableValue": "The equivalent value in the stable asset."
        }
      },
      "supportsInterface(bytes4)": {
        "details": "Returns true if this contract implements the interface defined by `interfaceId`. See the corresponding https://eips.ethereum.org/EIPS/eip-165#how-interfaces-are-identified[ERC section] to learn more about how these ids are created. This function call must use less than 30 000 gas."
      },
      "withdrawFromStrategy(uint256)": {
        "details": "Converts wrappedDLendToken -> dStable by withdrawing from StaticATokenLM.      The StaticATokenLM contract sends the dStable directly to msg.sender.",
        "params": {
          "strategyShareAmount": "The amount of `strategyShare` to convert."
        },
        "returns": {
          "dStableAmount": "The amount of stable asset sent to the caller."
        }
      }
    },
    "title": "WrappedDLendConversionAdapter",
    "version": 1
  },
  "userdoc": {
    "kind": "user",
    "methods": {
      "depositIntoStrategy(uint256)": {
        "notice": "Converts a specified amount of the stable asset into the specific `strategyShare`         managed by this adapter."
      },
      "emergencyWithdraw(address,uint256)": {
        "notice": "Emergency hook to sweep stranded tokens back to the collateral vault"
      },
      "previewDepositIntoStrategy(uint256)": {
        "notice": "Preview the result of converting a given stable amount to strategyShare (without state change)."
      },
      "previewWithdrawFromStrategy(uint256)": {
        "notice": "Preview the result of converting a given strategyShare amount to stable asset (without state change)."
      },
      "setAuthorizedCaller(address,bool)": {
        "notice": "Adds or removes router/automation callers that can trigger conversions"
      },
      "strategyShare()": {
        "notice": "Returns the address of the specific `strategy share` token managed by this adapter."
      },
      "strategyShareValueInDStable(address,uint256)": {
        "notice": "Calculates the value of a given amount of the specific `strategyShare` managed by this adapter         in terms of the stable asset."
      },
      "vaultAsset()": {
        "notice": "Backwards-compatible alias retained for existing tests expecting the legacy adapter API."
      },
      "withdrawFromStrategy(uint256)": {
        "notice": "Converts a specific amount of `strategyShare` back into the stable asset."
      }
    },
    "notice": "Adapter for converting between a dSTABLE asset (like dUSD) and a specific wrapped dLEND aToken         (like wddUSD, implemented via StaticATokenLM). The wrapped dLEND token address must be provided at deployment.",
    "version": 1
  },
  "storageLayout": {
    "storage": [
      {
        "astId": 3317,
        "contract": "contracts/vaults/dstake/adapters/WrappedDLendConversionAdapter.sol:WrappedDLendConversionAdapter",
        "label": "_roles",
        "offset": 0,
        "slot": "0",
        "type": "t_mapping(t_bytes32,t_struct(RoleData)3312_storage)"
      }
    ],
    "types": {
      "t_address": {
        "encoding": "inplace",
        "label": "address",
        "numberOfBytes": "20"
      },
      "t_bool": {
        "encoding": "inplace",
        "label": "bool",
        "numberOfBytes": "1"
      },
      "t_bytes32": {
        "encoding": "inplace",
        "label": "bytes32",
        "numberOfBytes": "32"
      },
      "t_mapping(t_address,t_bool)": {
        "encoding": "mapping",
        "key": "t_address",
        "label": "mapping(address => bool)",
        "numberOfBytes": "32",
        "value": "t_bool"
      },
      "t_mapping(t_bytes32,t_struct(RoleData)3312_storage)": {
        "encoding": "mapping",
        "key": "t_bytes32",
        "label": "mapping(bytes32 => struct AccessControl.RoleData)",
        "numberOfBytes": "32",
        "value": "t_struct(RoleData)3312_storage"
      },
      "t_struct(RoleData)3312_storage": {
        "encoding": "inplace",
        "label": "struct AccessControl.RoleData",
        "members": [
          {
            "astId": 3309,
            "contract": "contracts/vaults/dstake/adapters/WrappedDLendConversionAdapter.sol:WrappedDLendConversionAdapter",
            "label": "hasRole",
            "offset": 0,
            "slot": "0",
            "type": "t_mapping(t_address,t_bool)"
          },
          {
            "astId": 3311,
            "contract": "contracts/vaults/dstake/adapters/WrappedDLendConversionAdapter.sol:WrappedDLendConversionAdapter",
            "label": "adminRole",
            "offset": 0,
            "slot": "1",
            "type": "t_bytes32"
          }
        ],
        "numberOfBytes": "64"
      }
    }
  }
}