{
  "address": "0xF8286328BCD037aEF079783107d0A88578ED8D28",
  "abi": [
    {
      "inputs": [
        {
          "internalType": "string",
          "name": "_name",
          "type": "string"
        },
        {
          "internalType": "string",
          "name": "_symbol",
          "type": "string"
        },
        {
          "internalType": "contract ERC20",
          "name": "_collateralToken",
          "type": "address"
        },
        {
          "internalType": "contract ERC20",
          "name": "_debtToken",
          "type": "address"
        },
        {
          "internalType": "contract IPoolAddressesProvider",
          "name": "_lendingPoolAddressesProvider",
          "type": "address"
        },
        {
          "internalType": "uint32",
          "name": "_targetLeverageBps",
          "type": "uint32"
        },
        {
          "internalType": "uint32",
          "name": "_lowerBoundTargetLeverageBps",
          "type": "uint32"
        },
        {
          "internalType": "uint32",
          "name": "_upperBoundTargetLeverageBps",
          "type": "uint32"
        },
        {
          "internalType": "uint256",
          "name": "_maxSubsidyBps",
          "type": "uint256"
        },
        {
          "internalType": "uint256",
          "name": "_minDeviationBps",
          "type": "uint256"
        },
        {
          "internalType": "uint256",
          "name": "_withdrawalFeeBps",
          "type": "uint256"
        },
        {
          "internalType": "contract IRewardsController",
          "name": "_rewardsController",
          "type": "address"
        },
        {
          "internalType": "address",
          "name": "_dLendAssetToClaimFor",
          "type": "address"
        },
        {
          "internalType": "address",
          "name": "_targetStaticATokenWrapper",
          "type": "address"
        },
        {
          "internalType": "address",
          "name": "_treasury",
          "type": "address"
        },
        {
          "internalType": "uint256",
          "name": "_maxTreasuryFeeBps",
          "type": "uint256"
        },
        {
          "internalType": "uint256",
          "name": "_initialTreasuryFeeBps",
          "type": "uint256"
        },
        {
          "internalType": "uint256",
          "name": "_initialExchangeThreshold",
          "type": "uint256"
        }
      ],
      "stateMutability": "nonpayable",
      "type": "constructor"
    },
    {
      "inputs": [],
      "name": "AccessControlBadConfirmation",
      "type": "error"
    },
    {
      "inputs": [
        {
          "internalType": "address",
          "name": "account",
          "type": "address"
        },
        {
          "internalType": "bytes32",
          "name": "neededRole",
          "type": "bytes32"
        }
      ],
      "name": "AccessControlUnauthorizedAccount",
      "type": "error"
    },
    {
      "inputs": [
        {
          "internalType": "address",
          "name": "asset",
          "type": "address"
        }
      ],
      "name": "AssetPriceIsZero",
      "type": "error"
    },
    {
      "inputs": [
        {
          "internalType": "uint256",
          "name": "totalCollateralBase",
          "type": "uint256"
        },
        {
          "internalType": "uint256",
          "name": "totalDebtBase",
          "type": "uint256"
        }
      ],
      "name": "CollateralLessThanDebt",
      "type": "error"
    },
    {
      "inputs": [
        {
          "internalType": "uint256",
          "name": "newLeverageBps",
          "type": "uint256"
        },
        {
          "internalType": "uint256",
          "name": "targetLeverageBps",
          "type": "uint256"
        },
        {
          "internalType": "uint256",
          "name": "currentLeverageBps",
          "type": "uint256"
        }
      ],
      "name": "DecreaseLeverageOutOfRange",
      "type": "error"
    },
    {
      "inputs": [
        {
          "internalType": "uint256",
          "name": "receivedCollateralTokenAmount",
          "type": "uint256"
        },
        {
          "internalType": "uint256",
          "name": "minReceivedCollateralTokenAmount",
          "type": "uint256"
        }
      ],
      "name": "DecreaseLeverageReceiveLessThanMinAmount",
      "type": "error"
    },
    {
      "inputs": [
        {
          "internalType": "address",
          "name": "spender",
          "type": "address"
        },
        {
          "internalType": "uint256",
          "name": "allowance",
          "type": "uint256"
        },
        {
          "internalType": "uint256",
          "name": "needed",
          "type": "uint256"
        }
      ],
      "name": "ERC20InsufficientAllowance",
      "type": "error"
    },
    {
      "inputs": [
        {
          "internalType": "address",
          "name": "sender",
          "type": "address"
        },
        {
          "internalType": "uint256",
          "name": "balance",
          "type": "uint256"
        },
        {
          "internalType": "uint256",
          "name": "needed",
          "type": "uint256"
        }
      ],
      "name": "ERC20InsufficientBalance",
      "type": "error"
    },
    {
      "inputs": [
        {
          "internalType": "address",
          "name": "approver",
          "type": "address"
        }
      ],
      "name": "ERC20InvalidApprover",
      "type": "error"
    },
    {
      "inputs": [
        {
          "internalType": "address",
          "name": "receiver",
          "type": "address"
        }
      ],
      "name": "ERC20InvalidReceiver",
      "type": "error"
    },
    {
      "inputs": [
        {
          "internalType": "address",
          "name": "sender",
          "type": "address"
        }
      ],
      "name": "ERC20InvalidSender",
      "type": "error"
    },
    {
      "inputs": [
        {
          "internalType": "address",
          "name": "spender",
          "type": "address"
        }
      ],
      "name": "ERC20InvalidSpender",
      "type": "error"
    },
    {
      "inputs": [
        {
          "internalType": "address",
          "name": "receiver",
          "type": "address"
        },
        {
          "internalType": "uint256",
          "name": "assets",
          "type": "uint256"
        },
        {
          "internalType": "uint256",
          "name": "max",
          "type": "uint256"
        }
      ],
      "name": "ERC4626ExceededMaxDeposit",
      "type": "error"
    },
    {
      "inputs": [
        {
          "internalType": "address",
          "name": "receiver",
          "type": "address"
        },
        {
          "internalType": "uint256",
          "name": "shares",
          "type": "uint256"
        },
        {
          "internalType": "uint256",
          "name": "max",
          "type": "uint256"
        }
      ],
      "name": "ERC4626ExceededMaxMint",
      "type": "error"
    },
    {
      "inputs": [
        {
          "internalType": "address",
          "name": "owner",
          "type": "address"
        },
        {
          "internalType": "uint256",
          "name": "shares",
          "type": "uint256"
        },
        {
          "internalType": "uint256",
          "name": "max",
          "type": "uint256"
        }
      ],
      "name": "ERC4626ExceededMaxRedeem",
      "type": "error"
    },
    {
      "inputs": [
        {
          "internalType": "address",
          "name": "owner",
          "type": "address"
        },
        {
          "internalType": "uint256",
          "name": "assets",
          "type": "uint256"
        },
        {
          "internalType": "uint256",
          "name": "max",
          "type": "uint256"
        }
      ],
      "name": "ERC4626ExceededMaxWithdraw",
      "type": "error"
    },
    {
      "inputs": [
        {
          "internalType": "uint256",
          "name": "amount",
          "type": "uint256"
        },
        {
          "internalType": "uint256",
          "name": "threshold",
          "type": "uint256"
        }
      ],
      "name": "ExchangeAmountTooLow",
      "type": "error"
    },
    {
      "inputs": [
        {
          "internalType": "uint256",
          "name": "feeBps",
          "type": "uint256"
        },
        {
          "internalType": "uint256",
          "name": "maxFeeBps",
          "type": "uint256"
        }
      ],
      "name": "FeeTooHigh",
      "type": "error"
    },
    {
      "inputs": [
        {
          "internalType": "uint256",
          "name": "newLeverageBps",
          "type": "uint256"
        },
        {
          "internalType": "uint256",
          "name": "targetLeverageBps",
          "type": "uint256"
        },
        {
          "internalType": "uint256",
          "name": "currentLeverageBps",
          "type": "uint256"
        }
      ],
      "name": "IncreaseLeverageOutOfRange",
      "type": "error"
    },
    {
      "inputs": [
        {
          "internalType": "uint256",
          "name": "receivedDebtTokenAmount",
          "type": "uint256"
        },
        {
          "internalType": "uint256",
          "name": "minReceivedDebtTokenAmount",
          "type": "uint256"
        }
      ],
      "name": "IncreaseLeverageReceiveLessThanMinAmount",
      "type": "error"
    },
    {
      "inputs": [],
      "name": "InputCollateralTokenAmountIsZero",
      "type": "error"
    },
    {
      "inputs": [],
      "name": "InputDebtTokenAmountIsZero",
      "type": "error"
    },
    {
      "inputs": [
        {
          "internalType": "address",
          "name": "owner",
          "type": "address"
        },
        {
          "internalType": "address",
          "name": "spender",
          "type": "address"
        },
        {
          "internalType": "address",
          "name": "collateralAsset",
          "type": "address"
        },
        {
          "internalType": "uint256",
          "name": "requiredAllowance",
          "type": "uint256"
        }
      ],
      "name": "InsufficientAllowanceOfCollateralAssetToSupply",
      "type": "error"
    },
    {
      "inputs": [
        {
          "internalType": "address",
          "name": "owner",
          "type": "address"
        },
        {
          "internalType": "address",
          "name": "spender",
          "type": "address"
        },
        {
          "internalType": "address",
          "name": "debtAsset",
          "type": "address"
        },
        {
          "internalType": "uint256",
          "name": "requiredAllowance",
          "type": "uint256"
        }
      ],
      "name": "InsufficientAllowanceOfDebtAssetToRepay",
      "type": "error"
    },
    {
      "inputs": [
        {
          "internalType": "address",
          "name": "token",
          "type": "address"
        }
      ],
      "name": "InvalidCollateralToken",
      "type": "error"
    },
    {
      "inputs": [
        {
          "internalType": "address",
          "name": "token",
          "type": "address"
        }
      ],
      "name": "InvalidDebtToken",
      "type": "error"
    },
    {
      "inputs": [
        {
          "internalType": "uint256",
          "name": "leverageBps",
          "type": "uint256"
        }
      ],
      "name": "InvalidLeverage",
      "type": "error"
    },
    {
      "inputs": [
        {
          "internalType": "uint256",
          "name": "lowerBound",
          "type": "uint256"
        },
        {
          "internalType": "uint256",
          "name": "targetLeverage",
          "type": "uint256"
        },
        {
          "internalType": "uint256",
          "name": "upperBound",
          "type": "uint256"
        }
      ],
      "name": "InvalidLeverageBounds",
      "type": "error"
    },
    {
      "inputs": [],
      "name": "InvalidRewardsController",
      "type": "error"
    },
    {
      "inputs": [
        {
          "internalType": "uint256",
          "name": "targetLeverageBps",
          "type": "uint256"
        }
      ],
      "name": "InvalidTargetLeverage",
      "type": "error"
    },
    {
      "inputs": [
        {
          "internalType": "uint256",
          "name": "currentLeverageBps",
          "type": "uint256"
        },
        {
          "internalType": "uint256",
          "name": "targetLeverageBps",
          "type": "uint256"
        }
      ],
      "name": "LeverageBelowTarget",
      "type": "error"
    },
    {
      "inputs": [
        {
          "internalType": "uint256",
          "name": "currentLeverageBps",
          "type": "uint256"
        },
        {
          "internalType": "uint256",
          "name": "targetLeverageBps",
          "type": "uint256"
        }
      ],
      "name": "LeverageExceedsTarget",
      "type": "error"
    },
    {
      "inputs": [
        {
          "internalType": "uint256",
          "name": "maxTreasuryFeeBps",
          "type": "uint256"
        }
      ],
      "name": "MaxTreasuryFeeTooHigh",
      "type": "error"
    },
    {
      "inputs": [
        {
          "internalType": "address",
          "name": "owner",
          "type": "address"
        }
      ],
      "name": "OwnableInvalidOwner",
      "type": "error"
    },
    {
      "inputs": [
        {
          "internalType": "address",
          "name": "account",
          "type": "address"
        }
      ],
      "name": "OwnableUnauthorizedAccount",
      "type": "error"
    },
    {
      "inputs": [],
      "name": "ReentrancyGuardReentrantCall",
      "type": "error"
    },
    {
      "inputs": [
        {
          "internalType": "uint256",
          "name": "claimedAmountsLength",
          "type": "uint256"
        },
        {
          "internalType": "uint256",
          "name": "rewardTokensLength",
          "type": "uint256"
        }
      ],
      "name": "RewardAmountsLengthMismatch",
      "type": "error"
    },
    {
      "inputs": [
        {
          "internalType": "address",
          "name": "token",
          "type": "address"
        }
      ],
      "name": "SafeERC20FailedOperation",
      "type": "error"
    },
    {
      "inputs": [
        {
          "internalType": "address",
          "name": "token",
          "type": "address"
        },
        {
          "internalType": "uint256",
          "name": "tokenBalanceBefore",
          "type": "uint256"
        },
        {
          "internalType": "uint256",
          "name": "tokenBalanceAfter",
          "type": "uint256"
        },
        {
          "internalType": "uint256",
          "name": "expectedTokenBalance",
          "type": "uint256"
        }
      ],
      "name": "TokenBalanceNotDecreasedAfterRepay",
      "type": "error"
    },
    {
      "inputs": [
        {
          "internalType": "address",
          "name": "token",
          "type": "address"
        },
        {
          "internalType": "uint256",
          "name": "tokenBalanceBefore",
          "type": "uint256"
        },
        {
          "internalType": "uint256",
          "name": "tokenBalanceAfter",
          "type": "uint256"
        },
        {
          "internalType": "uint256",
          "name": "expectedTokenBalance",
          "type": "uint256"
        }
      ],
      "name": "TokenBalanceNotDecreasedAfterSupply",
      "type": "error"
    },
    {
      "inputs": [
        {
          "internalType": "address",
          "name": "token",
          "type": "address"
        },
        {
          "internalType": "uint256",
          "name": "tokenBalanceBefore",
          "type": "uint256"
        },
        {
          "internalType": "uint256",
          "name": "tokenBalanceAfter",
          "type": "uint256"
        },
        {
          "internalType": "uint256",
          "name": "expectedTokenBalance",
          "type": "uint256"
        }
      ],
      "name": "TokenBalanceNotIncreasedAfterBorrow",
      "type": "error"
    },
    {
      "inputs": [
        {
          "internalType": "address",
          "name": "token",
          "type": "address"
        },
        {
          "internalType": "uint256",
          "name": "tokenBalanceBefore",
          "type": "uint256"
        },
        {
          "internalType": "uint256",
          "name": "tokenBalanceAfter",
          "type": "uint256"
        },
        {
          "internalType": "uint256",
          "name": "expectedTokenBalance",
          "type": "uint256"
        }
      ],
      "name": "TokenBalanceNotIncreasedAfterWithdraw",
      "type": "error"
    },
    {
      "inputs": [
        {
          "internalType": "uint256",
          "name": "currentLeverageBps",
          "type": "uint256"
        },
        {
          "internalType": "uint256",
          "name": "lowerBoundTargetLeverageBps",
          "type": "uint256"
        },
        {
          "internalType": "uint256",
          "name": "upperBoundTargetLeverageBps",
          "type": "uint256"
        }
      ],
      "name": "TooImbalanced",
      "type": "error"
    },
    {
      "inputs": [
        {
          "internalType": "uint256",
          "name": "treasuryFee",
          "type": "uint256"
        },
        {
          "internalType": "uint256",
          "name": "rewardAmount",
          "type": "uint256"
        }
      ],
      "name": "TreasuryFeeExceedsRewardAmount",
      "type": "error"
    },
    {
      "inputs": [
        {
          "internalType": "uint256",
          "name": "treasuryFeeBps",
          "type": "uint256"
        },
        {
          "internalType": "uint256",
          "name": "maxTreasuryFeeBps",
          "type": "uint256"
        }
      ],
      "name": "TreasuryFeeTooHigh",
      "type": "error"
    },
    {
      "inputs": [
        {
          "internalType": "address",
          "name": "token",
          "type": "address"
        },
        {
          "internalType": "uint256",
          "name": "borrowedAmountBefore",
          "type": "uint256"
        },
        {
          "internalType": "uint256",
          "name": "borrowedAmountAfter",
          "type": "uint256"
        },
        {
          "internalType": "uint256",
          "name": "expectedBorrowedAmount",
          "type": "uint256"
        }
      ],
      "name": "UnexpectedBorrowAmountFromPool",
      "type": "error"
    },
    {
      "inputs": [
        {
          "internalType": "address",
          "name": "token",
          "type": "address"
        },
        {
          "internalType": "uint256",
          "name": "tokenBalanceBefore",
          "type": "uint256"
        },
        {
          "internalType": "uint256",
          "name": "tokenBalanceAfter",
          "type": "uint256"
        },
        {
          "internalType": "uint256",
          "name": "expectedTokenBalance",
          "type": "uint256"
        }
      ],
      "name": "UnexpectedRepayAmountToPool",
      "type": "error"
    },
    {
      "inputs": [
        {
          "internalType": "address",
          "name": "token",
          "type": "address"
        },
        {
          "internalType": "uint256",
          "name": "tokenBalanceBefore",
          "type": "uint256"
        },
        {
          "internalType": "uint256",
          "name": "tokenBalanceAfter",
          "type": "uint256"
        },
        {
          "internalType": "uint256",
          "name": "expectedTokenBalance",
          "type": "uint256"
        }
      ],
      "name": "UnexpectedSupplyAmountToPool",
      "type": "error"
    },
    {
      "inputs": [
        {
          "internalType": "address",
          "name": "token",
          "type": "address"
        },
        {
          "internalType": "uint256",
          "name": "withdrawableAmountBefore",
          "type": "uint256"
        },
        {
          "internalType": "uint256",
          "name": "withdrawableAmountAfter",
          "type": "uint256"
        },
        {
          "internalType": "uint256",
          "name": "expectedWithdrawableAmount",
          "type": "uint256"
        }
      ],
      "name": "UnexpectedWithdrawAmountFromPool",
      "type": "error"
    },
    {
      "inputs": [
        {
          "internalType": "uint256",
          "name": "withdrawalFeeBps",
          "type": "uint256"
        },
        {
          "internalType": "uint256",
          "name": "maxWithdrawalFeeBps",
          "type": "uint256"
        }
      ],
      "name": "WithdrawalFeeIsGreaterThanMaxFee",
      "type": "error"
    },
    {
      "inputs": [],
      "name": "ZeroAddress",
      "type": "error"
    },
    {
      "inputs": [],
      "name": "ZeroExchangeAssetAddress",
      "type": "error"
    },
    {
      "inputs": [],
      "name": "ZeroExchangeThreshold",
      "type": "error"
    },
    {
      "inputs": [],
      "name": "ZeroReceiverAddress",
      "type": "error"
    },
    {
      "inputs": [],
      "name": "ZeroRewardTokens",
      "type": "error"
    },
    {
      "inputs": [],
      "name": "ZeroShares",
      "type": "error"
    },
    {
      "inputs": [],
      "name": "ZeroTreasuryAddress",
      "type": "error"
    },
    {
      "anonymous": false,
      "inputs": [
        {
          "indexed": true,
          "internalType": "address",
          "name": "owner",
          "type": "address"
        },
        {
          "indexed": true,
          "internalType": "address",
          "name": "spender",
          "type": "address"
        },
        {
          "indexed": false,
          "internalType": "uint256",
          "name": "value",
          "type": "uint256"
        }
      ],
      "name": "Approval",
      "type": "event"
    },
    {
      "anonymous": false,
      "inputs": [
        {
          "indexed": true,
          "internalType": "address",
          "name": "oldController",
          "type": "address"
        },
        {
          "indexed": true,
          "internalType": "address",
          "name": "newController",
          "type": "address"
        }
      ],
      "name": "DLendRewardsControllerUpdated",
      "type": "event"
    },
    {
      "anonymous": false,
      "inputs": [
        {
          "indexed": true,
          "internalType": "address",
          "name": "caller",
          "type": "address"
        },
        {
          "indexed": false,
          "internalType": "uint256",
          "name": "inputDebtTokenAmount",
          "type": "uint256"
        },
        {
          "indexed": false,
          "internalType": "uint256",
          "name": "minReceivedCollateralTokenAmount",
          "type": "uint256"
        },
        {
          "indexed": false,
          "internalType": "uint256",
          "name": "repaidDebtTokenAmount",
          "type": "uint256"
        },
        {
          "indexed": false,
          "internalType": "uint256",
          "name": "withdrawnCollateralTokenAmount",
          "type": "uint256"
        }
      ],
      "name": "DecreaseLeverage",
      "type": "event"
    },
    {
      "anonymous": false,
      "inputs": [
        {
          "indexed": true,
          "internalType": "address",
          "name": "sender",
          "type": "address"
        },
        {
          "indexed": true,
          "internalType": "address",
          "name": "owner",
          "type": "address"
        },
        {
          "indexed": false,
          "internalType": "uint256",
          "name": "assets",
          "type": "uint256"
        },
        {
          "indexed": false,
          "internalType": "uint256",
          "name": "shares",
          "type": "uint256"
        }
      ],
      "name": "Deposit",
      "type": "event"
    },
    {
      "anonymous": false,
      "inputs": [
        {
          "indexed": false,
          "internalType": "uint256",
          "name": "oldExchangeThreshold",
          "type": "uint256"
        },
        {
          "indexed": false,
          "internalType": "uint256",
          "name": "newExchangeThreshold",
          "type": "uint256"
        }
      ],
      "name": "ExchangeThresholdUpdated",
      "type": "event"
    },
    {
      "anonymous": false,
      "inputs": [
        {
          "indexed": false,
          "internalType": "uint256",
          "name": "oldFeeBps",
          "type": "uint256"
        },
        {
          "indexed": false,
          "internalType": "uint256",
          "name": "newFeeBps",
          "type": "uint256"
        }
      ],
      "name": "FeeBpsSet",
      "type": "event"
    },
    {
      "anonymous": false,
      "inputs": [
        {
          "indexed": true,
          "internalType": "address",
          "name": "caller",
          "type": "address"
        },
        {
          "indexed": false,
          "internalType": "uint256",
          "name": "inputCollateralTokenAmount",
          "type": "uint256"
        },
        {
          "indexed": false,
          "internalType": "uint256",
          "name": "minReceivedDebtTokenAmount",
          "type": "uint256"
        },
        {
          "indexed": false,
          "internalType": "uint256",
          "name": "suppliedCollateralTokenAmount",
          "type": "uint256"
        },
        {
          "indexed": false,
          "internalType": "uint256",
          "name": "borrowedDebtTokenAmount",
          "type": "uint256"
        }
      ],
      "name": "IncreaseLeverage",
      "type": "event"
    },
    {
      "anonymous": false,
      "inputs": [
        {
          "indexed": true,
          "internalType": "address",
          "name": "token",
          "type": "address"
        },
        {
          "indexed": false,
          "internalType": "uint256",
          "name": "amount",
          "type": "uint256"
        },
        {
          "indexed": true,
          "internalType": "address",
          "name": "receiver",
          "type": "address"
        }
      ],
      "name": "LeftoverCollateralTokensTransferred",
      "type": "event"
    },
    {
      "anonymous": false,
      "inputs": [
        {
          "indexed": true,
          "internalType": "address",
          "name": "token",
          "type": "address"
        },
        {
          "indexed": false,
          "internalType": "uint256",
          "name": "amount",
          "type": "uint256"
        },
        {
          "indexed": true,
          "internalType": "address",
          "name": "receiver",
          "type": "address"
        }
      ],
      "name": "LeftoverDebtTokensTransferred",
      "type": "event"
    },
    {
      "anonymous": false,
      "inputs": [
        {
          "indexed": false,
          "internalType": "uint32",
          "name": "lowerBoundTargetLeverageBps",
          "type": "uint32"
        },
        {
          "indexed": false,
          "internalType": "uint32",
          "name": "upperBoundTargetLeverageBps",
          "type": "uint32"
        }
      ],
      "name": "LeverageBoundsSet",
      "type": "event"
    },
    {
      "anonymous": false,
      "inputs": [
        {
          "indexed": false,
          "internalType": "uint256",
          "name": "oldMaxSubsidyBps",
          "type": "uint256"
        },
        {
          "indexed": false,
          "internalType": "uint256",
          "name": "newMaxSubsidyBps",
          "type": "uint256"
        }
      ],
      "name": "MaxSubsidyBpsSet",
      "type": "event"
    },
    {
      "anonymous": false,
      "inputs": [
        {
          "indexed": false,
          "internalType": "uint256",
          "name": "oldMinDeviationBps",
          "type": "uint256"
        },
        {
          "indexed": false,
          "internalType": "uint256",
          "name": "newMinDeviationBps",
          "type": "uint256"
        }
      ],
      "name": "MinDeviationBpsSet",
      "type": "event"
    },
    {
      "anonymous": false,
      "inputs": [
        {
          "indexed": true,
          "internalType": "address",
          "name": "previousOwner",
          "type": "address"
        },
        {
          "indexed": true,
          "internalType": "address",
          "name": "newOwner",
          "type": "address"
        }
      ],
      "name": "OwnershipTransferred",
      "type": "event"
    },
    {
      "anonymous": false,
      "inputs": [
        {
          "indexed": false,
          "internalType": "address",
          "name": "exchangeAsset",
          "type": "address"
        },
        {
          "indexed": false,
          "internalType": "uint256",
          "name": "amount",
          "type": "uint256"
        },
        {
          "indexed": false,
          "internalType": "address[]",
          "name": "rewardTokens",
          "type": "address[]"
        }
      ],
      "name": "RewardCompounded",
      "type": "event"
    },
    {
      "anonymous": false,
      "inputs": [
        {
          "indexed": true,
          "internalType": "bytes32",
          "name": "role",
          "type": "bytes32"
        },
        {
          "indexed": true,
          "internalType": "bytes32",
          "name": "previousAdminRole",
          "type": "bytes32"
        },
        {
          "indexed": true,
          "internalType": "bytes32",
          "name": "newAdminRole",
          "type": "bytes32"
        }
      ],
      "name": "RoleAdminChanged",
      "type": "event"
    },
    {
      "anonymous": false,
      "inputs": [
        {
          "indexed": true,
          "internalType": "bytes32",
          "name": "role",
          "type": "bytes32"
        },
        {
          "indexed": true,
          "internalType": "address",
          "name": "account",
          "type": "address"
        },
        {
          "indexed": true,
          "internalType": "address",
          "name": "sender",
          "type": "address"
        }
      ],
      "name": "RoleGranted",
      "type": "event"
    },
    {
      "anonymous": false,
      "inputs": [
        {
          "indexed": true,
          "internalType": "bytes32",
          "name": "role",
          "type": "bytes32"
        },
        {
          "indexed": true,
          "internalType": "address",
          "name": "account",
          "type": "address"
        },
        {
          "indexed": true,
          "internalType": "address",
          "name": "sender",
          "type": "address"
        }
      ],
      "name": "RoleRevoked",
      "type": "event"
    },
    {
      "anonymous": false,
      "inputs": [
        {
          "indexed": true,
          "internalType": "address",
          "name": "from",
          "type": "address"
        },
        {
          "indexed": true,
          "internalType": "address",
          "name": "to",
          "type": "address"
        },
        {
          "indexed": false,
          "internalType": "uint256",
          "name": "value",
          "type": "uint256"
        }
      ],
      "name": "Transfer",
      "type": "event"
    },
    {
      "anonymous": false,
      "inputs": [
        {
          "indexed": false,
          "internalType": "uint256",
          "name": "oldTreasuryFeeBps",
          "type": "uint256"
        },
        {
          "indexed": false,
          "internalType": "uint256",
          "name": "newTreasuryFeeBps",
          "type": "uint256"
        }
      ],
      "name": "TreasuryFeeBpsUpdated",
      "type": "event"
    },
    {
      "anonymous": false,
      "inputs": [
        {
          "indexed": false,
          "internalType": "address",
          "name": "oldTreasury",
          "type": "address"
        },
        {
          "indexed": false,
          "internalType": "address",
          "name": "newTreasury",
          "type": "address"
        }
      ],
      "name": "TreasuryUpdated",
      "type": "event"
    },
    {
      "anonymous": false,
      "inputs": [
        {
          "indexed": true,
          "internalType": "address",
          "name": "sender",
          "type": "address"
        },
        {
          "indexed": true,
          "internalType": "address",
          "name": "receiver",
          "type": "address"
        },
        {
          "indexed": true,
          "internalType": "address",
          "name": "owner",
          "type": "address"
        },
        {
          "indexed": false,
          "internalType": "uint256",
          "name": "assets",
          "type": "uint256"
        },
        {
          "indexed": false,
          "internalType": "uint256",
          "name": "shares",
          "type": "uint256"
        }
      ],
      "name": "Withdraw",
      "type": "event"
    },
    {
      "anonymous": false,
      "inputs": [
        {
          "indexed": false,
          "internalType": "uint256",
          "name": "oldWithdrawalFeeBps",
          "type": "uint256"
        },
        {
          "indexed": false,
          "internalType": "uint256",
          "name": "newWithdrawalFeeBps",
          "type": "uint256"
        }
      ],
      "name": "WithdrawalFeeBpsSet",
      "type": "event"
    },
    {
      "inputs": [],
      "name": "AAVE_PRICE_ORACLE_DECIMALS",
      "outputs": [
        {
          "internalType": "uint8",
          "name": "",
          "type": "uint8"
        }
      ],
      "stateMutability": "view",
      "type": "function"
    },
    {
      "inputs": [],
      "name": "BALANCE_DIFF_TOLERANCE",
      "outputs": [
        {
          "internalType": "uint256",
          "name": "",
          "type": "uint256"
        }
      ],
      "stateMutability": "view",
      "type": "function"
    },
    {
      "inputs": [],
      "name": "DEFAULT_ADMIN_ROLE",
      "outputs": [
        {
          "internalType": "bytes32",
          "name": "",
          "type": "bytes32"
        }
      ],
      "stateMutability": "view",
      "type": "function"
    },
    {
      "inputs": [],
      "name": "LEVERAGE_DIFF_TOLERANCE",
      "outputs": [
        {
          "internalType": "uint256",
          "name": "",
          "type": "uint256"
        }
      ],
      "stateMutability": "view",
      "type": "function"
    },
    {
      "inputs": [],
      "name": "MAX_WITHDRAWAL_FEE_BPS",
      "outputs": [
        {
          "internalType": "uint256",
          "name": "",
          "type": "uint256"
        }
      ],
      "stateMutability": "view",
      "type": "function"
    },
    {
      "inputs": [],
      "name": "REWARDS_MANAGER_ROLE",
      "outputs": [
        {
          "internalType": "bytes32",
          "name": "",
          "type": "bytes32"
        }
      ],
      "stateMutability": "view",
      "type": "function"
    },
    {
      "inputs": [],
      "name": "VARIABLE_LENDING_INTERST_RATE_MODE",
      "outputs": [
        {
          "internalType": "uint256",
          "name": "",
          "type": "uint256"
        }
      ],
      "stateMutability": "view",
      "type": "function"
    },
    {
      "inputs": [
        {
          "internalType": "address",
          "name": "owner",
          "type": "address"
        },
        {
          "internalType": "address",
          "name": "spender",
          "type": "address"
        }
      ],
      "name": "allowance",
      "outputs": [
        {
          "internalType": "uint256",
          "name": "",
          "type": "uint256"
        }
      ],
      "stateMutability": "view",
      "type": "function"
    },
    {
      "inputs": [
        {
          "internalType": "address",
          "name": "spender",
          "type": "address"
        },
        {
          "internalType": "uint256",
          "name": "value",
          "type": "uint256"
        }
      ],
      "name": "approve",
      "outputs": [
        {
          "internalType": "bool",
          "name": "",
          "type": "bool"
        }
      ],
      "stateMutability": "nonpayable",
      "type": "function"
    },
    {
      "inputs": [],
      "name": "asset",
      "outputs": [
        {
          "internalType": "address",
          "name": "",
          "type": "address"
        }
      ],
      "stateMutability": "view",
      "type": "function"
    },
    {
      "inputs": [
        {
          "internalType": "address",
          "name": "account",
          "type": "address"
        }
      ],
      "name": "balanceOf",
      "outputs": [
        {
          "internalType": "uint256",
          "name": "",
          "type": "uint256"
        }
      ],
      "stateMutability": "view",
      "type": "function"
    },
    {
      "inputs": [],
      "name": "collateralToken",
      "outputs": [
        {
          "internalType": "contract ERC20",
          "name": "",
          "type": "address"
        }
      ],
      "stateMutability": "view",
      "type": "function"
    },
    {
      "inputs": [
        {
          "internalType": "uint256",
          "name": "amount",
          "type": "uint256"
        },
        {
          "internalType": "address[]",
          "name": "rewardTokens",
          "type": "address[]"
        },
        {
          "internalType": "address",
          "name": "receiver",
          "type": "address"
        }
      ],
      "name": "compoundRewards",
      "outputs": [],
      "stateMutability": "nonpayable",
      "type": "function"
    },
    {
      "inputs": [
        {
          "internalType": "uint256",
          "name": "amountInBase",
          "type": "uint256"
        },
        {
          "internalType": "address",
          "name": "token",
          "type": "address"
        }
      ],
      "name": "convertFromBaseCurrencyToToken",
      "outputs": [
        {
          "internalType": "uint256",
          "name": "",
          "type": "uint256"
        }
      ],
      "stateMutability": "view",
      "type": "function"
    },
    {
      "inputs": [
        {
          "internalType": "uint256",
          "name": "amountInToken",
          "type": "uint256"
        },
        {
          "internalType": "address",
          "name": "token",
          "type": "address"
        }
      ],
      "name": "convertFromTokenAmountToBaseCurrency",
      "outputs": [
        {
          "internalType": "uint256",
          "name": "",
          "type": "uint256"
        }
      ],
      "stateMutability": "view",
      "type": "function"
    },
    {
      "inputs": [
        {
          "internalType": "uint256",
          "name": "shares",
          "type": "uint256"
        }
      ],
      "name": "convertToAssets",
      "outputs": [
        {
          "internalType": "uint256",
          "name": "",
          "type": "uint256"
        }
      ],
      "stateMutability": "view",
      "type": "function"
    },
    {
      "inputs": [
        {
          "internalType": "uint256",
          "name": "assets",
          "type": "uint256"
        }
      ],
      "name": "convertToShares",
      "outputs": [
        {
          "internalType": "uint256",
          "name": "",
          "type": "uint256"
        }
      ],
      "stateMutability": "view",
      "type": "function"
    },
    {
      "inputs": [],
      "name": "dLendAssetToClaimFor",
      "outputs": [
        {
          "internalType": "address",
          "name": "",
          "type": "address"
        }
      ],
      "stateMutability": "view",
      "type": "function"
    },
    {
      "inputs": [],
      "name": "dLendRewardsController",
      "outputs": [
        {
          "internalType": "contract IRewardsController",
          "name": "",
          "type": "address"
        }
      ],
      "stateMutability": "view",
      "type": "function"
    },
    {
      "inputs": [],
      "name": "debtToken",
      "outputs": [
        {
          "internalType": "contract ERC20",
          "name": "",
          "type": "address"
        }
      ],
      "stateMutability": "view",
      "type": "function"
    },
    {
      "inputs": [],
      "name": "decimals",
      "outputs": [
        {
          "internalType": "uint8",
          "name": "",
          "type": "uint8"
        }
      ],
      "stateMutability": "view",
      "type": "function"
    },
    {
      "inputs": [
        {
          "internalType": "uint256",
          "name": "inputDebtTokenAmount",
          "type": "uint256"
        },
        {
          "internalType": "uint256",
          "name": "minReceivedCollateralTokenAmount",
          "type": "uint256"
        }
      ],
      "name": "decreaseLeverage",
      "outputs": [],
      "stateMutability": "nonpayable",
      "type": "function"
    },
    {
      "inputs": [
        {
          "internalType": "uint256",
          "name": "assets",
          "type": "uint256"
        },
        {
          "internalType": "address",
          "name": "receiver",
          "type": "address"
        }
      ],
      "name": "deposit",
      "outputs": [
        {
          "internalType": "uint256",
          "name": "",
          "type": "uint256"
        }
      ],
      "stateMutability": "nonpayable",
      "type": "function"
    },
    {
      "inputs": [],
      "name": "exchangeAsset",
      "outputs": [
        {
          "internalType": "address",
          "name": "",
          "type": "address"
        }
      ],
      "stateMutability": "view",
      "type": "function"
    },
    {
      "inputs": [],
      "name": "exchangeThreshold",
      "outputs": [
        {
          "internalType": "uint256",
          "name": "",
          "type": "uint256"
        }
      ],
      "stateMutability": "view",
      "type": "function"
    },
    {
      "inputs": [
        {
          "internalType": "address",
          "name": "asset",
          "type": "address"
        }
      ],
      "name": "getAssetPriceFromOracle",
      "outputs": [
        {
          "internalType": "uint256",
          "name": "",
          "type": "uint256"
        }
      ],
      "stateMutability": "view",
      "type": "function"
    },
    {
      "inputs": [],
      "name": "getCollateralTokenAddress",
      "outputs": [
        {
          "internalType": "address",
          "name": "",
          "type": "address"
        }
      ],
      "stateMutability": "view",
      "type": "function"
    },
    {
      "inputs": [
        {
          "internalType": "address",
          "name": "token",
          "type": "address"
        },
        {
          "internalType": "address",
          "name": "user",
          "type": "address"
        }
      ],
      "name": "getCollateralValueInTokenAmount",
      "outputs": [
        {
          "internalType": "uint256",
          "name": "collateralTokenAmount",
          "type": "uint256"
        }
      ],
      "stateMutability": "view",
      "type": "function"
    },
    {
      "inputs": [],
      "name": "getCurrentLeverageBps",
      "outputs": [
        {
          "internalType": "uint256",
          "name": "",
          "type": "uint256"
        }
      ],
      "stateMutability": "view",
      "type": "function"
    },
    {
      "inputs": [
        {
          "internalType": "uint256",
          "name": "assets",
          "type": "uint256"
        }
      ],
      "name": "getCurrentLeveragedAssets",
      "outputs": [
        {
          "internalType": "uint256",
          "name": "",
          "type": "uint256"
        }
      ],
      "stateMutability": "view",
      "type": "function"
    },
    {
      "inputs": [],
      "name": "getCurrentSubsidyBps",
      "outputs": [
        {
          "internalType": "uint256",
          "name": "",
          "type": "uint256"
        }
      ],
      "stateMutability": "view",
      "type": "function"
    },
    {
      "inputs": [],
      "name": "getDebtTokenAddress",
      "outputs": [
        {
          "internalType": "address",
          "name": "",
          "type": "address"
        }
      ],
      "stateMutability": "view",
      "type": "function"
    },
    {
      "inputs": [
        {
          "internalType": "address",
          "name": "token",
          "type": "address"
        },
        {
          "internalType": "address",
          "name": "user",
          "type": "address"
        }
      ],
      "name": "getDebtValueInTokenAmount",
      "outputs": [
        {
          "internalType": "uint256",
          "name": "debtTokenAmount",
          "type": "uint256"
        }
      ],
      "stateMutability": "view",
      "type": "function"
    },
    {
      "inputs": [],
      "name": "getDefaultMaxSubsidyBps",
      "outputs": [
        {
          "internalType": "uint256",
          "name": "",
          "type": "uint256"
        }
      ],
      "stateMutability": "view",
      "type": "function"
    },
    {
      "inputs": [],
      "name": "getLendingOracle",
      "outputs": [
        {
          "internalType": "contract IPriceOracleGetter",
          "name": "",
          "type": "address"
        }
      ],
      "stateMutability": "view",
      "type": "function"
    },
    {
      "inputs": [],
      "name": "getLendingPool",
      "outputs": [
        {
          "internalType": "contract IPool",
          "name": "",
          "type": "address"
        }
      ],
      "stateMutability": "view",
      "type": "function"
    },
    {
      "inputs": [],
      "name": "getLendingPoolAddress",
      "outputs": [
        {
          "internalType": "address",
          "name": "",
          "type": "address"
        }
      ],
      "stateMutability": "view",
      "type": "function"
    },
    {
      "inputs": [],
      "name": "getOracleAddress",
      "outputs": [
        {
          "internalType": "address",
          "name": "",
          "type": "address"
        }
      ],
      "stateMutability": "view",
      "type": "function"
    },
    {
      "inputs": [],
      "name": "getRestrictedRescueTokens",
      "outputs": [
        {
          "internalType": "address[]",
          "name": "",
          "type": "address[]"
        }
      ],
      "stateMutability": "view",
      "type": "function"
    },
    {
      "inputs": [
        {
          "internalType": "bytes32",
          "name": "role",
          "type": "bytes32"
        }
      ],
      "name": "getRoleAdmin",
      "outputs": [
        {
          "internalType": "bytes32",
          "name": "",
          "type": "bytes32"
        }
      ],
      "stateMutability": "view",
      "type": "function"
    },
    {
      "inputs": [
        {
          "internalType": "uint256",
          "name": "assets",
          "type": "uint256"
        }
      ],
      "name": "getTargetLeveragedAssets",
      "outputs": [
        {
          "internalType": "uint256",
          "name": "",
          "type": "uint256"
        }
      ],
      "stateMutability": "view",
      "type": "function"
    },
    {
      "inputs": [
        {
          "internalType": "address",
          "name": "user",
          "type": "address"
        }
      ],
      "name": "getTotalCollateralAndDebtOfUserInBase",
      "outputs": [
        {
          "internalType": "uint256",
          "name": "totalCollateralBase",
          "type": "uint256"
        },
        {
          "internalType": "uint256",
          "name": "totalDebtBase",
          "type": "uint256"
        }
      ],
      "stateMutability": "view",
      "type": "function"
    },
    {
      "inputs": [
        {
          "internalType": "uint256",
          "name": "amount",
          "type": "uint256"
        }
      ],
      "name": "getTreasuryFee",
      "outputs": [
        {
          "internalType": "uint256",
          "name": "",
          "type": "uint256"
        }
      ],
      "stateMutability": "view",
      "type": "function"
    },
    {
      "inputs": [
        {
          "internalType": "uint256",
          "name": "leveragedAssets",
          "type": "uint256"
        }
      ],
      "name": "getUnleveragedAssetsWithCurrentLeverage",
      "outputs": [
        {
          "internalType": "uint256",
          "name": "",
          "type": "uint256"
        }
      ],
      "stateMutability": "view",
      "type": "function"
    },
    {
      "inputs": [
        {
          "internalType": "uint256",
          "name": "leveragedAssets",
          "type": "uint256"
        }
      ],
      "name": "getUnleveragedAssetsWithTargetLeverage",
      "outputs": [
        {
          "internalType": "uint256",
          "name": "",
          "type": "uint256"
        }
      ],
      "stateMutability": "view",
      "type": "function"
    },
    {
      "inputs": [
        {
          "internalType": "bytes32",
          "name": "role",
          "type": "bytes32"
        },
        {
          "internalType": "address",
          "name": "account",
          "type": "address"
        }
      ],
      "name": "grantRole",
      "outputs": [],
      "stateMutability": "nonpayable",
      "type": "function"
    },
    {
      "inputs": [
        {
          "internalType": "bytes32",
          "name": "role",
          "type": "bytes32"
        },
        {
          "internalType": "address",
          "name": "account",
          "type": "address"
        }
      ],
      "name": "hasRole",
      "outputs": [
        {
          "internalType": "bool",
          "name": "",
          "type": "bool"
        }
      ],
      "stateMutability": "view",
      "type": "function"
    },
    {
      "inputs": [
        {
          "internalType": "uint256",
          "name": "inputCollateralTokenAmount",
          "type": "uint256"
        },
        {
          "internalType": "uint256",
          "name": "minReceivedDebtTokenAmount",
          "type": "uint256"
        }
      ],
      "name": "increaseLeverage",
      "outputs": [],
      "stateMutability": "nonpayable",
      "type": "function"
    },
    {
      "inputs": [],
      "name": "isTooImbalanced",
      "outputs": [
        {
          "internalType": "bool",
          "name": "",
          "type": "bool"
        }
      ],
      "stateMutability": "view",
      "type": "function"
    },
    {
      "inputs": [],
      "name": "lendingPoolAddressesProvider",
      "outputs": [
        {
          "internalType": "contract IPoolAddressesProvider",
          "name": "",
          "type": "address"
        }
      ],
      "stateMutability": "view",
      "type": "function"
    },
    {
      "inputs": [],
      "name": "lowerBoundTargetLeverageBps",
      "outputs": [
        {
          "internalType": "uint32",
          "name": "",
          "type": "uint32"
        }
      ],
      "stateMutability": "view",
      "type": "function"
    },
    {
      "inputs": [
        {
          "internalType": "address",
          "name": "_user",
          "type": "address"
        }
      ],
      "name": "maxDeposit",
      "outputs": [
        {
          "internalType": "uint256",
          "name": "",
          "type": "uint256"
        }
      ],
      "stateMutability": "view",
      "type": "function"
    },
    {
      "inputs": [
        {
          "internalType": "address",
          "name": "_user",
          "type": "address"
        }
      ],
      "name": "maxMint",
      "outputs": [
        {
          "internalType": "uint256",
          "name": "",
          "type": "uint256"
        }
      ],
      "stateMutability": "view",
      "type": "function"
    },
    {
      "inputs": [
        {
          "internalType": "address",
          "name": "_user",
          "type": "address"
        }
      ],
      "name": "maxRedeem",
      "outputs": [
        {
          "internalType": "uint256",
          "name": "",
          "type": "uint256"
        }
      ],
      "stateMutability": "view",
      "type": "function"
    },
    {
      "inputs": [],
      "name": "maxSubsidyBps",
      "outputs": [
        {
          "internalType": "uint256",
          "name": "",
          "type": "uint256"
        }
      ],
      "stateMutability": "view",
      "type": "function"
    },
    {
      "inputs": [],
      "name": "maxTreasuryFeeBps",
      "outputs": [
        {
          "internalType": "uint256",
          "name": "",
          "type": "uint256"
        }
      ],
      "stateMutability": "view",
      "type": "function"
    },
    {
      "inputs": [
        {
          "internalType": "address",
          "name": "_user",
          "type": "address"
        }
      ],
      "name": "maxWithdraw",
      "outputs": [
        {
          "internalType": "uint256",
          "name": "",
          "type": "uint256"
        }
      ],
      "stateMutability": "view",
      "type": "function"
    },
    {
      "inputs": [],
      "name": "minDeviationBps",
      "outputs": [
        {
          "internalType": "uint256",
          "name": "",
          "type": "uint256"
        }
      ],
      "stateMutability": "view",
      "type": "function"
    },
    {
      "inputs": [
        {
          "internalType": "uint256",
          "name": "shares",
          "type": "uint256"
        },
        {
          "internalType": "address",
          "name": "receiver",
          "type": "address"
        }
      ],
      "name": "mint",
      "outputs": [
        {
          "internalType": "uint256",
          "name": "",
          "type": "uint256"
        }
      ],
      "stateMutability": "nonpayable",
      "type": "function"
    },
    {
      "inputs": [],
      "name": "name",
      "outputs": [
        {
          "internalType": "string",
          "name": "",
          "type": "string"
        }
      ],
      "stateMutability": "view",
      "type": "function"
    },
    {
      "inputs": [],
      "name": "owner",
      "outputs": [
        {
          "internalType": "address",
          "name": "",
          "type": "address"
        }
      ],
      "stateMutability": "view",
      "type": "function"
    },
    {
      "inputs": [
        {
          "internalType": "uint256",
          "name": "assets",
          "type": "uint256"
        }
      ],
      "name": "previewDeposit",
      "outputs": [
        {
          "internalType": "uint256",
          "name": "",
          "type": "uint256"
        }
      ],
      "stateMutability": "view",
      "type": "function"
    },
    {
      "inputs": [
        {
          "internalType": "uint256",
          "name": "shares",
          "type": "uint256"
        }
      ],
      "name": "previewMint",
      "outputs": [
        {
          "internalType": "uint256",
          "name": "",
          "type": "uint256"
        }
      ],
      "stateMutability": "view",
      "type": "function"
    },
    {
      "inputs": [
        {
          "internalType": "uint256",
          "name": "shares",
          "type": "uint256"
        }
      ],
      "name": "previewRedeem",
      "outputs": [
        {
          "internalType": "uint256",
          "name": "",
          "type": "uint256"
        }
      ],
      "stateMutability": "view",
      "type": "function"
    },
    {
      "inputs": [
        {
          "internalType": "uint256",
          "name": "assets",
          "type": "uint256"
        }
      ],
      "name": "previewWithdraw",
      "outputs": [
        {
          "internalType": "uint256",
          "name": "",
          "type": "uint256"
        }
      ],
      "stateMutability": "view",
      "type": "function"
    },
    {
      "inputs": [],
      "name": "quoteRebalanceAmountToReachTargetLeverage",
      "outputs": [
        {
          "internalType": "uint256",
          "name": "inputTokenAmount",
          "type": "uint256"
        },
        {
          "internalType": "uint256",
          "name": "estimatedOutputTokenAmount",
          "type": "uint256"
        },
        {
          "internalType": "int8",
          "name": "direction",
          "type": "int8"
        }
      ],
      "stateMutability": "view",
      "type": "function"
    },
    {
      "inputs": [
        {
          "internalType": "uint256",
          "name": "shares",
          "type": "uint256"
        },
        {
          "internalType": "address",
          "name": "receiver",
          "type": "address"
        },
        {
          "internalType": "address",
          "name": "owner",
          "type": "address"
        }
      ],
      "name": "redeem",
      "outputs": [
        {
          "internalType": "uint256",
          "name": "",
          "type": "uint256"
        }
      ],
      "stateMutability": "nonpayable",
      "type": "function"
    },
    {
      "inputs": [],
      "name": "renounceOwnership",
      "outputs": [],
      "stateMutability": "nonpayable",
      "type": "function"
    },
    {
      "inputs": [
        {
          "internalType": "bytes32",
          "name": "role",
          "type": "bytes32"
        },
        {
          "internalType": "address",
          "name": "callerConfirmation",
          "type": "address"
        }
      ],
      "name": "renounceRole",
      "outputs": [],
      "stateMutability": "nonpayable",
      "type": "function"
    },
    {
      "inputs": [
        {
          "internalType": "address",
          "name": "token",
          "type": "address"
        },
        {
          "internalType": "address",
          "name": "receiver",
          "type": "address"
        },
        {
          "internalType": "uint256",
          "name": "amount",
          "type": "uint256"
        }
      ],
      "name": "rescueToken",
      "outputs": [],
      "stateMutability": "nonpayable",
      "type": "function"
    },
    {
      "inputs": [
        {
          "internalType": "bytes32",
          "name": "role",
          "type": "bytes32"
        },
        {
          "internalType": "address",
          "name": "account",
          "type": "address"
        }
      ],
      "name": "revokeRole",
      "outputs": [],
      "stateMutability": "nonpayable",
      "type": "function"
    },
    {
      "inputs": [
        {
          "internalType": "address",
          "name": "_newDLendRewardsController",
          "type": "address"
        }
      ],
      "name": "setDLendRewardsController",
      "outputs": [],
      "stateMutability": "nonpayable",
      "type": "function"
    },
    {
      "inputs": [
        {
          "internalType": "uint256",
          "name": "newExchangeThreshold",
          "type": "uint256"
        }
      ],
      "name": "setExchangeThreshold",
      "outputs": [],
      "stateMutability": "nonpayable",
      "type": "function"
    },
    {
      "inputs": [
        {
          "internalType": "uint32",
          "name": "_lowerBoundTargetLeverageBps",
          "type": "uint32"
        },
        {
          "internalType": "uint32",
          "name": "_upperBoundTargetLeverageBps",
          "type": "uint32"
        }
      ],
      "name": "setLeverageBounds",
      "outputs": [],
      "stateMutability": "nonpayable",
      "type": "function"
    },
    {
      "inputs": [
        {
          "internalType": "uint256",
          "name": "_maxSubsidyBps",
          "type": "uint256"
        }
      ],
      "name": "setMaxSubsidyBps",
      "outputs": [],
      "stateMutability": "nonpayable",
      "type": "function"
    },
    {
      "inputs": [
        {
          "internalType": "uint256",
          "name": "_minDeviationBps",
          "type": "uint256"
        }
      ],
      "name": "setMinDeviationBps",
      "outputs": [],
      "stateMutability": "nonpayable",
      "type": "function"
    },
    {
      "inputs": [
        {
          "internalType": "address",
          "name": "newTreasury",
          "type": "address"
        }
      ],
      "name": "setTreasury",
      "outputs": [],
      "stateMutability": "nonpayable",
      "type": "function"
    },
    {
      "inputs": [
        {
          "internalType": "uint256",
          "name": "newTreasuryFeeBps",
          "type": "uint256"
        }
      ],
      "name": "setTreasuryFeeBps",
      "outputs": [],
      "stateMutability": "nonpayable",
      "type": "function"
    },
    {
      "inputs": [
        {
          "internalType": "uint256",
          "name": "newWithdrawalFeeBps",
          "type": "uint256"
        }
      ],
      "name": "setWithdrawalFeeBps",
      "outputs": [],
      "stateMutability": "nonpayable",
      "type": "function"
    },
    {
      "inputs": [
        {
          "internalType": "bytes4",
          "name": "interfaceId",
          "type": "bytes4"
        }
      ],
      "name": "supportsInterface",
      "outputs": [
        {
          "internalType": "bool",
          "name": "",
          "type": "bool"
        }
      ],
      "stateMutability": "view",
      "type": "function"
    },
    {
      "inputs": [],
      "name": "symbol",
      "outputs": [
        {
          "internalType": "string",
          "name": "",
          "type": "string"
        }
      ],
      "stateMutability": "view",
      "type": "function"
    },
    {
      "inputs": [],
      "name": "targetLeverageBps",
      "outputs": [
        {
          "internalType": "uint32",
          "name": "",
          "type": "uint32"
        }
      ],
      "stateMutability": "view",
      "type": "function"
    },
    {
      "inputs": [],
      "name": "targetStaticATokenWrapper",
      "outputs": [
        {
          "internalType": "address",
          "name": "",
          "type": "address"
        }
      ],
      "stateMutability": "view",
      "type": "function"
    },
    {
      "inputs": [],
      "name": "totalAssets",
      "outputs": [
        {
          "internalType": "uint256",
          "name": "",
          "type": "uint256"
        }
      ],
      "stateMutability": "view",
      "type": "function"
    },
    {
      "inputs": [],
      "name": "totalSupply",
      "outputs": [
        {
          "internalType": "uint256",
          "name": "",
          "type": "uint256"
        }
      ],
      "stateMutability": "view",
      "type": "function"
    },
    {
      "inputs": [
        {
          "internalType": "address",
          "name": "to",
          "type": "address"
        },
        {
          "internalType": "uint256",
          "name": "value",
          "type": "uint256"
        }
      ],
      "name": "transfer",
      "outputs": [
        {
          "internalType": "bool",
          "name": "",
          "type": "bool"
        }
      ],
      "stateMutability": "nonpayable",
      "type": "function"
    },
    {
      "inputs": [
        {
          "internalType": "address",
          "name": "from",
          "type": "address"
        },
        {
          "internalType": "address",
          "name": "to",
          "type": "address"
        },
        {
          "internalType": "uint256",
          "name": "value",
          "type": "uint256"
        }
      ],
      "name": "transferFrom",
      "outputs": [
        {
          "internalType": "bool",
          "name": "",
          "type": "bool"
        }
      ],
      "stateMutability": "nonpayable",
      "type": "function"
    },
    {
      "inputs": [
        {
          "internalType": "address",
          "name": "newOwner",
          "type": "address"
        }
      ],
      "name": "transferOwnership",
      "outputs": [],
      "stateMutability": "nonpayable",
      "type": "function"
    },
    {
      "inputs": [],
      "name": "treasury",
      "outputs": [
        {
          "internalType": "address",
          "name": "",
          "type": "address"
        }
      ],
      "stateMutability": "view",
      "type": "function"
    },
    {
      "inputs": [],
      "name": "treasuryFeeBps",
      "outputs": [
        {
          "internalType": "uint256",
          "name": "",
          "type": "uint256"
        }
      ],
      "stateMutability": "view",
      "type": "function"
    },
    {
      "inputs": [],
      "name": "upperBoundTargetLeverageBps",
      "outputs": [
        {
          "internalType": "uint32",
          "name": "",
          "type": "uint32"
        }
      ],
      "stateMutability": "view",
      "type": "function"
    },
    {
      "inputs": [
        {
          "internalType": "uint256",
          "name": "assets",
          "type": "uint256"
        },
        {
          "internalType": "address",
          "name": "receiver",
          "type": "address"
        },
        {
          "internalType": "address",
          "name": "owner",
          "type": "address"
        }
      ],
      "name": "withdraw",
      "outputs": [
        {
          "internalType": "uint256",
          "name": "",
          "type": "uint256"
        }
      ],
      "stateMutability": "nonpayable",
      "type": "function"
    },
    {
      "inputs": [],
      "name": "withdrawalFeeBps",
      "outputs": [
        {
          "internalType": "uint256",
          "name": "",
          "type": "uint256"
        }
      ],
      "stateMutability": "view",
      "type": "function"
    }
  ],
  "transactionHash": "0x37da9551b94627b26aaec5e8f17f5d2dd84fd44707614811598ee43d163d8ea3",
  "args": [
    "dLOOP 3X stETH dLEND",
    "3X-stETH",
    "0x55F937DEF274C6CBd9444f0857639757C5A2a3E9",
    "0x321b35625e75597411c3558ca2aBDB5e3E3Cb7ee",
    "0x3730153688ec89ce327FE41A7Bd854788754A86F",
    3000000,
    2000000,
    4000000,
    20000,
    20000,
    4000,
    "0x926464420313fb8a283F0e4eccF636f37Ce4Fdf5",
    "0xa47B097c575fe42fD569D6CE36a5071001DabC3F",
    "0x398178c499f79b2a68eb643a871e37b608c583c7",
    "0xd2f775Ff2cD41bfe43C7A8c016eD10393553fe44",
    1000,
    500,
    "100"
  ],
  "numDeployments": 1,
  "solcInputHash": "7fcc925e421f20eca44712dd7afff7f7",
  "bytecode": "0x6101c06040523462000adf5762006393803803809162000022826101c062000ae4565b6101c0396101c0016102406101c082031262000adf576101c0516001600160401b03811162000adf57816200005b916101c00162000b24565b6101e05190916001600160401b03821162000adf576200007f916101c00162000b24565b6200008c61020062000b8e565b916200009a61022062000b8e565b6102405190916001600160a01b038216820362000adf57620000be61026062000ba3565b93620000cc61028062000ba3565b93620000da6102a062000ba3565b6102c0516102e0516103005161032051939993989092906001600160a01b038a168a0362000adf576200010f61034062000b8e565b9a6200011d61036062000b8e565b9c6200012b61038062000b8e565b6103a0516103c0516103e0518d51909d919c929b939a9392916001600160401b038211620009b15760035490600182811c9216801562000ad4575b6020831014620009905781601f84931162000a62575b50602090601f8311600114620009d357600092620009c7575b50508160011b916000199060031b1c1916176003555b8051906001600160401b038211620009b15760045490600182811c92168015620009a6575b6020831014620009905781601f8493116200091e575b50602090601f83116001146200088f5760009262000883575b50508160011b916000199060031b1c1916176004555b6001600160a01b038316926200022b8462000cd9565b90156200087a575b60a052836080523315620008615760058054336001600160a01b0319821681179092556001600160a01b03167f8be0079c531659141344cd1fd0a4f28419497f9722a3daafe3b4186f6b6457e0600080a36001600755816101005260e05263ffffffff92838316620f42408110620008495780858816108015906200083c575b620008145750620002c48162000d9f565b15620007fc57506001600160a01b0316620002df8162000d9f565b15620007e4575060c052600880546001600160401b031916919093161760209190911b67ffffffff0000000016179055600955600a55600b553015620007d2576001600160a01b03811615620007c057620f42408211620007a7578183116200078957831562000777573061012052600c80546001600160a01b0319166001600160a01b039290921691909117905561014052600d55600e55620003833362000bb5565b506200038f3362000c36565b5061016052600f80546001600160a01b0319166001600160a01b03928316179055610180919091526101a091909152600490602090620003ce62000e6f565b166040519283809262e19f4760e81b82525afa908115620006da5760009162000736575b506001600160a01b0316620006e657600460206001600160a01b036200041762000e6f565b1660405192838092638c89b64f60e01b82525afa908115620006da576000916200069a575b506305f5e100036200065557604051615485908162000eee823960805181612ce1015260a05181612e08015260c05181818161057201528181611b5d01528181611dfb01528181611e3c01528181611e880152818161278a01528181612ebf015281816130be0152614c30015260e0518181816104ba01528181610be801528181610c2701528181610db501528181610e0401528181611121015281816113fb015281816117e501528181611825015281816118590152818161189f015281816118de01528181611acf01528181611b0601528181611bf401528181611ed70152818161224f01528181612293015281816122c90152818161230f0152818161234e015281816124fb0152818161310d0152818161366e015281816140430152614e21015261010051818181610431015281816104ff01528181610c6201528181610ca801528181610d0c01528181610d4c01528181610d8001528181610e9101528181610ec801528181610f56015281816111790152818161191901528181611966015281816119d001528181611a1901528181611f2201528181612389015281816123d5015281816124200152818161315b0152614074015261012051818181612633015261283b015261014051818181611dbb0152612d75015261016051818181610b2801528181614f9c015261502701526101805181818161293a015261306901526101a05181818161146c0152612afd0152f35b60405162461bcd60e51b815260206004820152601960248201527f496e76616c6964207072696365206f7261636c6520756e6974000000000000006044820152606490fd5b6020813d602011620006d1575b81620006b66020938362000ae4565b81010312620006cd575190506305f5e1006200043c565b5080fd5b3d9150620006a7565b6040513d6000823e3d90fd5b60405162461bcd60e51b815260206004820152602260248201527f496e76616c6964207072696365206f7261636c6520626173652063757272656e604482015261637960f01b6064820152608490fd5b6020813d6020116200076e575b81620007526020938362000ae4565b81010312620006cd5762000767915062000b8e565b38620003f2565b3d915062000743565b6040516354a62ce560e01b8152600490fd5b6044838360405191636cef961f60e11b835260048301526024820152fd5b60405163a7519f3f60e01b815260048101839052602490fd5b6040516351dc806d60e11b8152600490fd5b604051631810b12760e21b8152600490fd5b6024906040519063a830a4a160e01b82526004820152fd5b6024906040519063c47118b160e01b82526004820152fd5b868587606493826040519463b857eea760e01b86521660048501526024840152166044820152fd5b50848616811015620002b3565b60249060405190632d7e79d160e21b82526004820152fd5b604051631e4fbdf760e01b815260006004820152602490fd5b50601262000233565b015190503880620001ff565b6004600090815293507f8a35acfbc15ff81a39ae7d344fd709f28e8600b4aa8c65c6b64bfe7fe36bd19b91905b601f198416851062000902576001945083601f19811610620008e8575b505050811b0160045562000215565b015160001960f88460031b161c19169055388080620008d9565b81810151835560209485019460019093019290910190620008bc565b60046000529091507f8a35acfbc15ff81a39ae7d344fd709f28e8600b4aa8c65c6b64bfe7fe36bd19b601f840160051c81016020851062000988575b90849392915b601f830160051c8201811062000978575050620001e6565b6000815585945060010162000960565b50806200095a565b634e487b7160e01b600052602260045260246000fd5b91607f1691620001d0565b634e487b7160e01b600052604160045260246000fd5b01519050388062000195565b6003600090815293507fc2575a0e9e593c00f959f8c92f12db2869c3395a3b0502d05e2516446f71f85b91905b601f198416851062000a46576001945083601f1981161062000a2c575b505050811b01600355620001ab565b015160001960f88460031b161c1916905538808062000a1d565b8181015183556020948501946001909301929091019062000a00565b60036000529091507fc2575a0e9e593c00f959f8c92f12db2869c3395a3b0502d05e2516446f71f85b601f840160051c81016020851062000acc575b90849392915b601f830160051c8201811062000abc5750506200017c565b6000815585945060010162000aa4565b508062000a9e565b91607f169162000166565b600080fd5b601f909101601f19168101906001600160401b03821190821017620009b157604052565b6001600160401b038111620009b157601f01601f191660200190565b919080601f8401121562000adf5782519062000b408262000b08565b9162000b50604051938462000ae4565b80835260209182828701011162000adf5760005b81811062000b7a57508260009394955001015290565b858101830151848201840152820162000b64565b51906001600160a01b038216820362000adf57565b519063ffffffff8216820362000adf57565b6001600160a01b031660008181527f54cdd369e4e8a8515e52ca72ec816c2101831ad1f18bf44102ed171459c9b4f8602052604081205490919060ff1662000c325781805260066020526040822081835260205260408220600160ff198254161790553391600080516020620063738339815191528180a4600190565b5090565b6001600160a01b031660008181527ffe34ed5485dc9fe44fe8269f3027eee2e0a6e4cc4be0ba8f7d037ae76cfa28d360205260408120549091907f51785d261c3b3e8c2cfe2d0e108b9ab2b1fb703ff9e9e49aba4ebdc85c36152b9060ff1662000cd45780835260066020526040832082845260205260408320600160ff1982541617905560008051602062006373833981519152339380a4600190565b505090565b6040805163313ce56760e01b60208201908152600482529293929181016001600160401b03811182821017620009b1576040525160009384928392916001600160a01b03165afa3d1562000d96573d9062000d348262000b08565b9162000d44604051938462000ae4565b82523d84602084013e5b8062000d89575b62000d60575b508190565b60208180518101031262000d85576020015160ff811162000d5b576001925060ff1690565b8280fd5b5060208151101562000d55565b60609062000d4e565b6040516318160ddd60e01b81526001600160a01b039190911690602090818082600481875afa918262000e40575b505062000ddb575050600090565b80602492604051938480926370a0823160e01b82523060048301525afa918262000e11575b505062000e0c57600090565b600190565b813d831162000e38575b62000e27818362000ae4565b8101031262000adf57388062000e00565b503d62000e1b565b813d831162000e67575b62000e56818362000ae4565b8101031262000adf57813862000dcd565b503d62000e4a565b61016051604051631f94a27560e31b81526001600160a01b03916020908290600490829086165afa908115620006da5760009162000eac57501690565b906020823d821162000ee4575b8162000ec86020938362000ae4565b8101031262000ee1575062000edd9062000b8e565b1690565b80fd5b3d915062000eb956fe6080604052600436101561001257600080fd5b60003560e01c806301e1d1141461364c57806301ffc9a7146135f65780630261bf8b146135db578063031c53ef146135b557806304336bb31461359757806305eee57e1461357b57806306fdde03146134bd57806307a2d13a1461349f57806309344c9c14613472578063095ea7b3146133ba5780630a28a4771461339657806314cecfbd1461336a57806318160ddd1461334c5780631dc8d818146130985780631f52be64146130535780631ff2d5e31461163657806323b872dd146130315780632416752414612fa5578063248a9ca314612f765780632f293a2014612e7a5780632f2ff15d14612e3b578063313ce56714612df3578063331fb00f14612d5757806336568abe14612d1057806338d52e0f14612ccb578063402d267d14610ac4578063415c506914612cac5780634603be6f146127b25780634677584a1461276d57806349b404021461274f5780634cdad5061461272e578063500fc434146126fe5780635033def7146126cf57806356d1d4a2146126625780635898ec3b1461261d57806359757aa5146125f75780635b3f0549146125db5780635f36a742146125b857806361d027b31461258f5780636d483fe6146113e55780636e553f65146121ca57806370a0823114612191578063715018a614612134578063776efe4714611e645780637a3dca8614611e1f5780637aa7c3c114611dde5780637dd38d9a14611da357806380fbf1dd14611d7f57806385bf8b771461097f578063863df9e714611d645780638bc4ec9b14611d3e5780638c25ac9314611d145780638da5cb5b14611ceb57806391d1485414611c9e57806394bf804d1461175e57806395d89b411461165957806395e6a3ba1461163b5780639d00f10814611636578063a0a94526146115d5578063a1b2736a14611536578063a217fddf1461151a578063a9059cbb146114e9578063a9f1a798146114c4578063acfec6901461149b578063ae37f47914611456578063b18b78dd1461142a578063b2016bd4146113e5578063b3d7f6b9146113c7578063b460af94146110a0578063b6783edd14611082578063ba08765214610b57578063bba00ba514610b12578063c505328b14610ae8578063c63d75b614610ac4578063c6e6f592146107d6578063c7101c1214610aa1578063cd16926914610a75578063ce96cb7714610a52578063d267974c1461041b578063d547741f14610a11578063d905777e146109ee578063dd62ed3e1461099d578063dde35bfd1461097f578063e0dd245714610944578063e5711e8b14610883578063e80cfa5e14610865578063eaff45921461083c578063edea1d48146107db578063ef8b30f7146107d6578063f0f442601461073a578063f2fde38b146106ac578063f53fd98a146104655763f8d898981461041b57600080fd5b34610460576000366003190112610460576040517f00000000000000000000000000000000000000000000000000000000000000006001600160a01b03168152602090f35b600080fd5b346104605760003660031901126104605761047f3061402d565b9061049261048c3061402d565b90614ccb565b9161049b614c13565b60405163313ce56760e01b8082526020959092916001600160a01b03907f000000000000000000000000000000000000000000000000000000000000000082168882600481845afa91821561064857600092610689575b506104fc9061409b565b917f000000000000000000000000000000000000000000000000000000000000000016936040519586528886600481885afa9384156106485760ff96600095610654575b5061054d8794959661409b565b976040519963c9a47a9b60e01b8b5260048b015260248a0152604489015263ffffffff7f000000000000000000000000000000000000000000000000000000000000000016606489015260848801521660a486015260c48501521660e483015261010482015260608161012481736c4720e24d67f63eb810235708f6ea4e1d5f63e85af48015610648576000916000906000926105fc575b5060609360405193845283015260000b6040820152f35b925050506060813d8211610640575b8161061860609383613a50565b81010312610460578051916040818301519201518060000b81036104605790929160606105e5565b3d915061060b565b6040513d6000823e3d90fd5b8794955061067a61054d918c8d3d10610682575b6106728183613a50565b810190614136565b959450610540565b503d610668565b6104fc9192506106a5908a3d8c11610682576106728183613a50565b91906104f2565b34610460576020366003190112610460576106c56136b2565b6106cd61399f565b6001600160a01b0390811690811561072157600554826bffffffffffffffffffffffff60a01b821617600555167f8be0079c531659141344cd1fd0a4f28419497f9722a3daafe3b4186f6b6457e0600080a3005b604051631e4fbdf760e01b815260006004820152602490fd5b34610460576020366003190112610460576107536136b2565b61075b613808565b6001600160a01b0381811680156107c457600c80546001600160a01b03198116929092179055604080516001600160a01b0393909216831682529290911660208201527f4ab5be82436d353e61ca18726e984e561f5c1cc7c6d38b29d2553c790434705a9190a1005b6040516351dc806d60e11b8152600490fd5b6137ea565b34610460576020366003190112610460577fffac9ebcb954b47fd18acb3426a66b70dcb4c43c237303630c568d0062d8db1a604060043561081a61399f565b61082261400a565b600a549080600a5582519182526020820152a16001600755005b3461046057602036600319011261046057602061085d600d54600435613e31565b604051908152f35b34610460576000366003190112610460576020600d54604051908152f35b346104605761089136613743565b61089c92919261399f565b6108a461400a565b6108ac614e14565b9060005b8251811015610929576001600160a01b03806108cc8386613f57565b5116908516146108e4576108df90613f25565b6108b0565b60405162461bcd60e51b815260206004820152601e60248201527f43616e6e6f7420726573637565207265737472696374656420746f6b656e00006044820152606490fd5b61093d82866001600160a01b038716613f6b565b6001600755005b346104605760003660031901126104605760206040517f51785d261c3b3e8c2cfe2d0e108b9ab2b1fb703ff9e9e49aba4ebdc85c36152b8152f35b34610460576000366003190112610460576020600954604051908152f35b34610460576040366003190112610460576109b66136b2565b6109be61369c565b9060018060a01b038091166000526001602052604060002091166000526020526020604060002054604051908152f35b3461046057602036600319011261046057602061085d610a0c6136b2565b614ca4565b3461046057604036600319011261046057610a50600435610a3061369c565b90806000526006602052610a4b600160406000200154613882565b613928565b005b3461046057602036600319011261046057602061085d610a706136b2565b614c6d565b3461046057604036600319011261046057602061085d610a936136b2565b610a9b61369c565b906152b3565b3461046057602036600319011261046057602061085d610abf6136b2565b61409b565b3461046057602036600319011261046057610add6136b2565b50602061085d614c56565b3461046057602036600319011261046057602061085d610b0a61048c3061402d565b600435613e31565b34610460576000366003190112610460576040517f00000000000000000000000000000000000000000000000000000000000000006001600160a01b03168152602090f35b3461046057610b65366137b5565b90610b6f82614ca4565b80841161104e5750610b94610b8384613cf7565b610b8e600b54614278565b90613e31565b91610b9d61400a565b336001600160a01b0382160361103e575b610bb88482614780565b610bc0614231565b610ffc57610bd061048c3061402d565b60405163313ce56760e01b80825291906020816004817f00000000000000000000000000000000000000000000000000000000000000006001600160a01b03165afa90811561064857600091610fdd575b50610c547f00000000000000000000000000000000000000000000000000000000000000006001600160a01b031661409b565b6040519384526020846004817f00000000000000000000000000000000000000000000000000000000000000006001600160a01b03165afa92831561064857610ce094600094610fbc575b5060ff80610cd57f00000000000000000000000000000000000000000000000000000000000000006001600160a01b031661409b565b951693169088614dc9565b604051636eb1769f60e11b81523360048201523060248201529091906020816044816001600160a01b037f0000000000000000000000000000000000000000000000000000000000000000165afa8015610648578391600091610f87575b5010610f3357610d798230337f00000000000000000000000000000000000000000000000000000000000000006001600160a01b03166142a7565b610dad30837f00000000000000000000000000000000000000000000000000000000000000006001600160a01b031661481f565b94610de230867f00000000000000000000000000000000000000000000000000000000000000006001600160a01b0316614a2d565b92600019810196818811610f1d576020978110610e81575b50610e31905083857f00000000000000000000000000000000000000000000000000000000000000006001600160a01b0316613f6b565b60408051938452868401919091526001600160a01b03918216939091169133917ffbde797d201c681b91056529119e0b02407c7bb96a4a2c75c01fc9667232c8db91a46001600755604051908152f35b610e8a9161429a565b610ebe81337f00000000000000000000000000000000000000000000000000000000000000006001600160a01b0316613f6b565b60405190815233907f00000000000000000000000000000000000000000000000000000000000000006001600160a01b0316907f858a27e141780954fe5d38ba55127b6c35f8f5904c3a088438a18578d5d71eee908990a38680610dfa565b634e487b7160e01b600052601160045260246000fd5b6040516326938fb560e01b81523360048201523060248201526001600160a01b037f000000000000000000000000000000000000000000000000000000000000000016604482015260648101839052608490fd5b9150506020813d602011610fb4575b81610fa360209383613a50565b810103126104605782905187610d3e565b3d9150610f96565b610fd691945060203d602011610682576106728183613a50565b9289610c9f565b610ff6915060203d602011610682576106728183613a50565b87610c21565b61100861048c3061402d565b60085460405163391f5eb560e01b8152600481019290925263ffffffff808216602484015260209190911c166044820152606490fd5b611049843383613bc3565b610bae565b604051632e52afbb60e21b81526001600160a01b039390931660048401526024830193909352506044810191909152606490fd5b34610460576000366003190112610460576020604051620186a08152f35b34610460576110ae366137b5565b6110ba81939293614c6d565b80831161139457506110de6110d96110d3600b54614278565b84613d91565b613c96565b916110e761400a565b6001600160a01b038281169261110590859033860361138457614780565b61110d614231565b610ffc5761111d61048c3061402d565b94817f000000000000000000000000000000000000000000000000000000000000000016926040519063313ce56760e01b80835260209889846004818a5afa93841561064857600094611365575b506111758761409b565b93867f000000000000000000000000000000000000000000000000000000000000000016946040519384528b84600481895afa928315610648576111d394600094611346575b5060ff806111c88961409b565b951693169086614dc9565b604051636eb1769f60e11b81523360048201523060248201529092908981604481855afa8015610648578491600091611315575b50106112dd57611219833033846142a7565b61123061122730858461481f565b92309088614a2d565b95600019840191848311610f1d57611255948487948a9610611295575b505050613f6b565b604051928352848684015216907ffbde797d201c681b91056529119e0b02407c7bb96a4a2c75c01fc9667232c8db60403392a46001600755604051908152f35b61129e9161429a565b906112aa823383613f6b565b6040519182527f858a27e141780954fe5d38ba55127b6c35f8f5904c3a088438a18578d5d71eee8c3393a38a808061124d565b6040516326938fb560e01b81523360048201523060248201526001600160a01b03919091166044820152606481019290925250608490fd5b8092508b8092503d831161133f575b61132e8183613a50565b81010312610460578390518b611207565b503d611324565b61135e9194508d803d10610682576106728183613a50565b928d6111bb565b61137d9194508a3d8c11610682576106728183613a50565b928a61116b565b61138f823383613bc3565b614780565b604051633fa733bb60e21b81526001600160a01b0392909216600483015260248201929092526044810191909152606490fd5b3461046057602036600319011261046057602061085d600435613d26565b34610460576000366003190112610460576040517f00000000000000000000000000000000000000000000000000000000000000006001600160a01b03168152602090f35b346104605760003660031901126104605760206001600160a01b0361144d614f7e565b16604051908152f35b34610460576000366003190112610460576040517f00000000000000000000000000000000000000000000000000000000000000006001600160a01b03168152602090f35b3461046057600036600319011261046057600f546040516001600160a01b039091168152602090f35b346104605760003660031901126104605760206114df614231565b6040519015158152f35b346104605760403660031901126104605761150f6115056136b2565b6024359033613a72565b602060405160018152f35b3461046057600036600319011261046057602060405160008152f35b346104605760203660031901126104605761154f6136b2565b61155761399f565b6001600160a01b038181169182156115c3573b156115b157600f54826bffffffffffffffffffffffff60a01b821617600f55167fd41ddf0add6cf5f4e7067e117b677c4bf3a6b26973090e908241a081fae54a4b600080a3005b6040516309c7768560e41b8152600490fd5b60405163d92e233d60e01b8152600490fd5b34610460576020366003190112610460577f67fef5f7f784ddd197d63c3a14901057b9271a11b8b97a118471777da6fede4c604060043561161461399f565b61161c61400a565b600954908060095582519182526020820152a16001600755005b613727565b34610460576000366003190112610460576020600a54604051908152f35b3461046057600036600319011261046057604051600090600454600181811c90808316928315611754575b602093848410811461173e5783865290811561171e57506001146116c3575b6116bf846116b381880382613a50565b604051918291826136c8565b0390f35b600460009081529294507f8a35acfbc15ff81a39ae7d344fd709f28e8600b4aa8c65c6b64bfe7fe36bd19b5b82841061170b57505050816116bf936116b392820101936116a3565b80548585018701529285019281016116ef565b60ff1916858501525050151560051b82010191506116b3816116bf6116a3565b634e487b7160e01b600052602260045260246000fd5b91607f1691611684565b346104605760403660031901126104605761177761369c565b61177f614c56565b8060043511611c6c5750611794600435613d26565b61179c61400a565b60043515611c5a576117ac614231565b610ffc576117bc61048c3061402d565b604051636eb1769f60e11b81523360048201523060248201526020816044816001600160a01b037f0000000000000000000000000000000000000000000000000000000000000000165afa8015610648578391600091611c25575b5010611bd1576118528230337f00000000000000000000000000000000000000000000000000000000000000006001600160a01b03166142a7565b61188630837f00000000000000000000000000000000000000000000000000000000000000006001600160a01b0316614300565b60405163313ce56760e01b8082529192906020816004817f00000000000000000000000000000000000000000000000000000000000000006001600160a01b03165afa90811561064857600091611bb2575b5061190b7f00000000000000000000000000000000000000000000000000000000000000006001600160a01b031661409b565b6040519384526020846004817f00000000000000000000000000000000000000000000000000000000000000006001600160a01b03165afa918215610648576119fd94600093611b89575b5091926119ce926119c1916119937f00000000000000000000000000000000000000000000000000000000000000006001600160a01b031661409b565b938115611b5b575b6119ab60ff6119b2939416614dbb565b9089613eae565b6119bb82614289565b90613eae565b6119bb60ff309516614dbb565b7f00000000000000000000000000000000000000000000000000000000000000006001600160a01b03166145b8565b600019830191838311610f1d57611a46928110611abe575b50837f00000000000000000000000000000000000000000000000000000000000000006001600160a01b0316613f6b565b6001600160a01b0382168015611aa557611a6560209360043590613b55565b604051828152600435848201527fdcbc1c05240f31ff3ad067ef1ee35ce4997762752e3a095284754544f4c709d760403392a36001600755604051908152f35b60405163ec442f0560e01b815260006004820152602490fd5b611ac8908461429a565b611afc81337f00000000000000000000000000000000000000000000000000000000000000006001600160a01b0316613f6b565b60405190815233907f00000000000000000000000000000000000000000000000000000000000000006001600160a01b0316907f21fa991d1ca60543187d2a0de62e5ea0ce1a703a3f0021354ae2f9a75dc0e34d90602090a384611a15565b7f000000000000000000000000000000000000000000000000000000000000000063ffffffff16915061199b565b6119ce935090611baa6119c19260203d602011610682576106728183613a50565b935090611956565b611bcb915060203d602011610682576106728183613a50565b866118d8565b604051631518e3a360e01b81523360048201523060248201526001600160a01b037f000000000000000000000000000000000000000000000000000000000000000016604482015260648101839052608490fd5b9150506020813d602011611c52575b81611c4160209383613a50565b810103126104605782905185611817565b3d9150611c34565b604051639811e0c760e01b8152600490fd5b60405163284ff66760e01b81526001600160a01b03929092166004808401919091523560248301526044820152606490fd5b3461046057604036600319011261046057611cb761369c565b600435600052600660205260406000209060018060a01b0316600052602052602060ff604060002054166040519015158152f35b34610460576000366003190112610460576005546040516001600160a01b039091168152602090f35b3461046057602036600319011261046057602061085d611d3661048c3061402d565b600435613d91565b3461046057600036600319011261046057602060085463ffffffff60405191831c168152f35b3461046057600036600319011261046057602061085d614c13565b3461046057600036600319011261046057602063ffffffff60085416604051908152f35b346104605760003660031901126104605760206040517f00000000000000000000000000000000000000000000000000000000000000008152f35b3461046057600036600319011261046057602060405163ffffffff7f0000000000000000000000000000000000000000000000000000000000000000168152f35b3461046057602036600319011261046057602061085d63ffffffff7f000000000000000000000000000000000000000000000000000000000000000016600435613d91565b3461046057611e7236613711565b611e7a61400a565b611e8661048c3061402d565b7f00000000000000000000000000000000000000000000000000000000000000009263ffffffff84168083111561210f57611ebf614c13565b60405163313ce56760e01b8082526001600160a01b037f0000000000000000000000000000000000000000000000000000000000000000811694939260209182826004818a5afa918215610648576000926120f0575b50611f1f8761409b565b907f000000000000000000000000000000000000000000000000000000000000000016936040519081528381600481885afa938415610648576000946120d1575b5050611f6b8461409b565b9188156120bf576119bb60ff611fbb611fe098620f4240611fa7611fa18f611fc29a611f9b88611fd79e16614dbb565b91613eae565b92613b37565b611fb18184613e31565b9209151590613b48565b9216614dbb565b91611fcf873033846142a7565b86309161481f565b50309084614a2d565b938585106120a157611ff461048c3061402d565b9182108015612097575b61206c5750507fae5e19ae4628c7ce8fe13292352b899b81124046fe5f2bb08004d24866fd45c8939450828061205a575b50506040805182815260208101959095528401526060830152339180608081015b0390a26001600755005b612065913390613f6b565b848261202f565b604051636a3f633560e11b8152600481019290925263ffffffff871660248301526044820152606490fd5b5080821015611ffe565b6044858760405191636fe9fab760e01b835260048301526024820152fd5b60405163681b8c4360e01b8152600490fd5b6120e8929450803d10610682576106728183613a50565b918b80611f60565b612108919250833d8511610682576106728183613a50565b908b611f15565b60405163de9f90d760e01b81526004810184905263ffffffff86166024820152604490fd5b346104605760003660031901126104605761214d61399f565b600580546001600160a01b031981169091556000906001600160a01b03167f8be0079c531659141344cd1fd0a4f28419497f9722a3daafe3b4186f6b6457e08280a3005b3461046057602036600319011261046057602061085d6121af6136b2565b6001600160a01b031660009081526020819052604090205490565b34610460576040366003190112610460576121e361369c565b6121eb614c56565b806004351161255d5750612200600435613cc8565b61220861400a565b8015611c5a57612216614231565b610ffc5761222661048c3061402d565b604051636eb1769f60e11b81523360048201523060248201526020816044816001600160a01b037f0000000000000000000000000000000000000000000000000000000000000000165afa9081156106485760009161252b575b50600435116124d4576122c060043530337f00000000000000000000000000000000000000000000000000000000000000006001600160a01b03166142a7565b6122f6306004357f00000000000000000000000000000000000000000000000000000000000000006001600160a01b0316614300565b60405163313ce56760e01b8082529192906020816004817f00000000000000000000000000000000000000000000000000000000000000006001600160a01b03165afa908115610648576000916124b5575b5061237b7f00000000000000000000000000000000000000000000000000000000000000006001600160a01b031661409b565b6040519384526020846004817f00000000000000000000000000000000000000000000000000000000000000006001600160a01b03165afa9182156106485761240294600093611b89575091926119ce926119c1916119937f00000000000000000000000000000000000000000000000000000000000000006001600160a01b031661409b565b600435600019810192908311610f1d5761244d9281106124a95750837f00000000000000000000000000000000000000000000000000000000000000006001600160a01b0316613f6b565b6001600160a01b0382168015611aa55761246982602094613b55565b604051600435815282848201527fdcbc1c05240f31ff3ad067ef1ee35ce4997762752e3a095284754544f4c709d760403392a36001600755604051908152f35b611ac89060043561429a565b6124ce915060203d602011610682576106728183613a50565b86612348565b604051631518e3a360e01b8152336004808301919091523060248301526001600160a01b037f0000000000000000000000000000000000000000000000000000000000000000166044830152356064820152608490fd5b90506020813d602011612555575b8161254660209383613a50565b81010312610460575184612280565b3d9150612539565b604051633c8097d960e11b81526001600160a01b03929092166004808401919091523560248301526044820152606490fd5b3461046057600036600319011261046057600c546040516001600160a01b039091168152602090f35b346104605760003660031901126104605760206001600160a01b0361144d615009565b3461046057600036600319011261046057602060405160028152f35b3461046057604036600319011261046057602061085d61261561369c565b60043561414f565b34610460576000366003190112610460576040517f00000000000000000000000000000000000000000000000000000000000000006001600160a01b03168152602090f35b346104605760203660031901126104605760043561267e613808565b80156126bd5760407f46c287b860f967b39d89a1692e6486d60e4d66ea2cde369816239edaf4e0656991600e549080600e5582519182526020820152a1005b6040516354a62ce560e01b8152600490fd5b346104605760203660031901126104605760406126f26126ed6136b2565b61402d565b82519182526020820152f35b34610460576000366003190112610460576116bf61271a614e14565b604051918291602083526020830190613778565b3461046057602036600319011261046057602061085d610b83600435613cf7565b34610460576000366003190112610460576020600e54604051908152f35b3461046057602036600319011261046057602061085d63ffffffff7f000000000000000000000000000000000000000000000000000000000000000016600435613e31565b346104605760603660031901126104605760243560043567ffffffffffffffff8083116104605736602384011215610460578083600401351161046057366024846004013560051b85010111610460576044356001600160a01b038116908190036104605761281f61400a565b600e54808410612c8e575015612c4057826004013515612c7c577f00000000000000000000000000000000000000000000000000000000000000006001600160a01b031661286f833033846142a7565b60405190606082019082528360208301526060604083015284600401359052608081019060248501918260005b87600401358110612c5257505090807fc8efbc392b57771291983f003bd32ae9dc5e87ff1388a259b9acf272db4531d8920390a13015612c40576128e38460040135614dfc565b916128f16040519384613a50565b6004850135808452601f199061290690614dfc565b0136602085013760405190604082019082821090821117612c2a57604052600181526020368183013761293881613f34565b7f00000000000000000000000000000000000000000000000000000000000000006001600160a01b0316905260005b85600401358110612a6e575050815184600401358103612a4c575060005b8460040135811061299a5761093d8430614780565b6129a48184613f57565b516129b1600d5482613e31565b818111612a2f578291612a1b826129fa612a25948b6129e76129e2612a2a9a60018060a01b0393600401358d61542b565b61543b565b600c546001600160a01b03169116613f6b565b6001600160a01b03612a146129e28760048e01358b61542b565b169261429a565b9060443590613f6b565b613f25565b612985565b6044916040519163270c46bf60e01b835260048301526024820152fd5b6044908560405191631aff8a1160e01b83526004830152600401356024820152fd5b6001600160a01b03612a886129e28360048a01358761542b565b169081156115c3576040516370a0823160e01b815230600482015291602083602481845afa92831561064857600093612bf6575b50600f546040516333028b9960e01b815260a060048201529060209082906001600160a01b031681600081612af460a482018c613778565b821960248301527f00000000000000000000000000000000000000000000000000000000000000006001600160a01b031660448301523060648301526084820189905203925af1801561064857612bcb575b506020602491604051928380926370a0823160e01b82523060048301525afa90811561064857600091612b97575b50612b9292612b829161429a565b612b8c8287613f57565b52613f25565b612967565b90506020813d602011612bc3575b81612bb260209383613a50565b810103126104605751612b92612b74565b3d9150612ba5565b602090813d8311612bef575b612be18183613a50565b810103126104605788612b46565b503d612bd7565b9092506020813d602011612c22575b81612c1260209383613a50565b8101031261046057519188612abc565b3d9150612c05565b634e487b7160e01b600052604160045260246000fd5b6040516313e6c64360e31b8152600490fd5b909182356001600160a01b038116919082900361046057602081600193829352019301910161289c565b604051633ce287ef60e21b8152600490fd5b83604491604051916301959e9f60e51b835260048301526024820152fd5b3461046057600036600319011261046057602061085d61048c3061402d565b34610460576000366003190112610460576040517f00000000000000000000000000000000000000000000000000000000000000006001600160a01b03168152602090f35b3461046057604036600319011261046057612d2961369c565b336001600160a01b03821603612d4557610a5090600435613928565b60405163334bd91960e11b8152600490fd5b3461046057602036600319011261046057600435612d73613808565b7f0000000000000000000000000000000000000000000000000000000000000000808211612dd4577f7af7c1a20ca2d95ef775c520be0e875415f760d01d8ab209ad45bfe84839d68e604083600d549080600d5582519182526020820152a1005b604051636cef961f60e11b815260048101929092526024820152604490fd5b346104605760003660031901126104605760ff7f00000000000000000000000000000000000000000000000000000000000000001660ff8111610f1d57602090604051908152f35b3461046057604036600319011261046057610a50600435612e5a61369c565b90806000526006602052612e75600160406000200154613882565b6138a8565b346104605760403660031901126104605760043563ffffffff9081811680910361046057602435918083169081840361046057612eb561399f565b612ebd61400a565b7f000000000000000000000000000000000000000000000000000000000000000016808310801590612f6c575b612f49577fe181be2639e8d7c912d71af8c1c57c83a06fe411204b0bc3fdeb64c935ccd4cf60408484878267ffffffff000000006008549260201b169167ffffffffffffffff1916171760085582519182526020820152a16001600755005b606493506040519263b857eea760e01b8452600484015260248301526044820152fd5b5081811015612eea565b346104605760203660031901126104605760043560005260066020526020600160406000200154604051908152f35b3461046057602036600319011261046057600435612fc161399f565b612fc961400a565b620186a0808211613012577fe07cd71654bf041221cc79adf2c12d88abbc33e847b9a2ac73c4e1002628a7d5604083600b549080600b5582519182526020820152a16001600755005b604051630e037d7560e41b815260048101929092526024820152604490fd5b346104605761150f61304236613743565b9161304e833383613bc3565b613a72565b34610460576000366003190112610460576040517f00000000000000000000000000000000000000000000000000000000000000006001600160a01b03168152602090f35b34610460576130a636613711565b906130af61400a565b6130bb61048c3061402d565b917f00000000000000000000000000000000000000000000000000000000000000009063ffffffff821680851015613327576130f5614c13565b60405163313ce56760e01b8082526001600160a01b037f0000000000000000000000000000000000000000000000000000000000000000811696919491939192602080826004818c5afa91821561064857600092613308575b506131588961409b565b927f0000000000000000000000000000000000000000000000000000000000000000169660405190815281816004818b5afa918215610648576000926132eb575b50506131a48761409b565b908a156132d9576119bb60ff611fbb6131f597610b8e8f6131d1906131ec9a611f9b876131d79c16614dbb565b91613b37565b966131e4893033846142a7565b883091614300565b953090856145b8565b968488106132bb5761320961048c3061402d565b91821180156132b1575b613281575050508461205091817f72b9341ae324ee7e9a41986f370caf7ffb0c989c3c5d7be4b0d94b93bec5a286969761326f575b50506040519384933397859094939260609260808301968352602083015260408201520152565b61327a913390613f6b565b8681613248565b604051630262805f60e11b8152600481019290925263ffffffff9290921660248201526044810191909152606490fd5b5080821115613213565b604488866040519163ec02e43f60e01b835260048301526024820152fd5b604051631501bbed60e31b8152600490fd5b6133019250803d10610682576106728183613a50565b8b80613199565b816133209293503d8411610682576106728183613a50565b908b61314e565b6040516312e9fceb60e21b81526004810186905263ffffffff84166024820152604490fd5b34610460576000366003190112610460576020600254604051908152f35b3461046057604036600319011261046057602061085d6133886136b2565b61339061369c565b9061532f565b3461046057602036600319011261046057602061085d6110d9611d36600b54614278565b34610460576040366003190112610460576133d36136b2565b602435903315613459576001600160a01b031690811561344057336000526001602052604060002082600052602052806040600020556040519081527f8c5be1e5ebec7d5bd14f71427d1e84f3dd0314c0f7b2291e5b200ac8c7c3b92560203392a3602060405160018152f35b604051634a1406b160e11b815260006004820152602490fd5b60405163e602df0560e01b815260006004820152602490fd5b3461046057600036600319011261046057602061348d614f7e565b6040516001600160a01b039091168152f35b3461046057602036600319011261046057602061085d600435613cf7565b3461046057600036600319011261046057604051600090600354600181811c90808316928315613571575b602093848410811461173e5783865290811561171e5750600114613516576116bf846116b381880382613a50565b600360009081529294507fc2575a0e9e593c00f959f8c92f12db2869c3395a3b0502d05e2516446f71f85b5b82841061355e57505050816116bf936116b392820101936116a3565b8054858501870152928501928101613542565b91607f16916134e8565b3461046057600036600319011261046057602060405160088152f35b34610460576000366003190112610460576020600b54604051908152f35b3461046057604036600319011261046057602061085d6135d361369c565b6004356141c4565b3461046057600036600319011261046057602061348d615009565b346104605760203660031901126104605760043563ffffffff60e01b811680910361046057602090637965db0b60e01b811490811561363b575b506040519015158152f35b6301ffc9a760e01b14905082613630565b3461046057600036600319011261046057602061085d61366b3061402d565b507f00000000000000000000000000000000000000000000000000000000000000006001600160a01b03169061414f565b602435906001600160a01b038216820361046057565b600435906001600160a01b038216820361046057565b6020808252825181830181905290939260005b8281106136fd57505060409293506000838284010152601f8019910116010190565b8181018601518482016040015285016136db565b6040906003190112610460576004359060243590565b3461046057600036600319011261046057602060405160018152f35b6060906003190112610460576001600160a01b0390600435828116810361046057916024359081168103610460579060443590565b90815180825260208080930193019160005b828110613798575050505090565b83516001600160a01b03168552938101939281019260010161378a565b606090600319011261046057600435906001600160a01b03906024358281168103610460579160443590811681036104605790565b3461046057602036600319011261046057602061085d600435613cc8565b3360009081527ffe34ed5485dc9fe44fe8269f3027eee2e0a6e4cc4be0ba8f7d037ae76cfa28d360205260409020547f51785d261c3b3e8c2cfe2d0e108b9ab2b1fb703ff9e9e49aba4ebdc85c36152b9060ff16156138645750565b6044906040519063e2517d3f60e01b82523360048301526024820152fd5b80600052600660205260406000203360005260205260ff60406000205416156138645750565b906000918083526006602052604083209160018060a01b03169182845260205260ff604084205416156000146139235780835260066020526040832082845260205260408320600160ff198254161790557f2f8788117e7eff1d82e926ec794901d17c78024a50270940304540a733656f0d339380a4600190565b505090565b906000918083526006602052604083209160018060a01b03169182845260205260ff604084205416600014613923578083526006602052604083208284526020526040832060ff1981541690557ff6391f5c32d9c69d2a47ea670b442974b53935d1edc7fd64eb21e047a839171b339380a4600190565b6005546001600160a01b031633036139b357565b60405163118cdaa760e01b8152336004820152602490fd5b67ffffffffffffffff8111612c2a57604052565b6060810190811067ffffffffffffffff821117612c2a57604052565b6101e0810190811067ffffffffffffffff821117612c2a57604052565b6020810190811067ffffffffffffffff821117612c2a57604052565b6080810190811067ffffffffffffffff821117612c2a57604052565b90601f8019910116810190811067ffffffffffffffff821117612c2a57604052565b916001600160a01b03808416928315613b1e5716928315611aa55760009083825281602052604082205490838210613aec575091604082827fddf252ad1be2c89b69c2b068fc378daa952ba7f163c4a11628f55a4df523b3ef958760209652828652038282205586815220818154019055604051908152a3565b60405163391434e360e21b81526001600160a01b03919091166004820152602481019190915260448101839052606490fd5b604051634b637e8f60e11b815260006004820152602490fd5b90620f4240918201809211610f1d57565b91908201809211610f1d57565b7fddf252ad1be2c89b69c2b068fc378daa952ba7f163c4a11628f55a4df523b3ef6020600092613b8785600254613b48565b6002556001600160a01b03169384158414613bae5780600254036002555b604051908152a3565b84845283825260408420818154019055613ba5565b9160018060a01b038093169160009383855260016020526040938486209183169182875260205284862054926000198410613c02575b50505050505050565b848410613c6657508015613c4e578115613c3657855260016020528385209085526020520391205538808080808080613bf9565b8451634a1406b160e11b815260048101879052602490fd5b845163e602df0560e01b815260048101879052602490fd5b8551637dc7a0d960e11b81526001600160a01b039190911660048201526024810184905260448101859052606490fd5b60025460018101809111610f1d57613cb061366b3061402d565b9060018201809211610f1d57613cc592613d51565b90565b60025460018101809111610f1d57613ce261366b3061402d565b9060018201809211610f1d57613cc592613eae565b613d0361366b3061402d565b60018101809111610f1d576002549060018201809211610f1d57613cc592613eae565b613d3261366b3061402d565b60018101809111610f1d576002549060018201809211610f1d57613cc5925b91613d5d818385613eae565b918115613d7157613cc59309151590613b48565b634e487b7160e01b600052601260045260246000fd5b8115613d71570490565b620f4240916000198383099280830292838086109503948086039514613e245784831115613e0b579082910981600003821680920460028082600302188083028203028083028203028083028203028083028203028083028203028092029003029360018380600003040190848311900302920304170290565b82634e487b71600052156003026011186020526024601cfd5b505090613cc59250613d87565b9060001981830981830291828083109203918083039214613ea257620f42409082821115613e8f577fde8f6cefed634549b62c77574f722e1ac57e23f24d8fd5cb790fb65668c26139940990828211900360fa1b910360061c170290565b634e487b7160005260116020526024601cfd5b5050620f424091500490565b90916000198383099280830292838086109503948086039514613e245784831115613e0b579082910981600003821680920460028082600302188083028203028083028203028083028203028083028203028083028203028092029003029360018380600003040190848311900302920304170290565b6000198114610f1d5760010190565b805115613f415760200190565b634e487b7160e01b600052603260045260246000fd5b8051821015613f415760209160051b010190565b60405163a9059cbb60e01b60208201526001600160a01b03929092166024830152604480830193909352918152613fac91613fa7606483613a50565b613fae565b565b906000602091828151910182855af115610648576000513d61400157506001600160a01b0381163b155b613fdf5750565b604051635274afe760e01b81526001600160a01b039091166004820152602490fd5b60011415613fd8565b60026007541461401b576002600755565b604051633ee5aeb560e01b8152600490fd5b6001600160a01b039190613cc59061406c6140717f000000000000000000000000000000000000000000000000000000000000000086168284826152b3565b6141c4565b947f000000000000000000000000000000000000000000000000000000000000000016918261532f565b6001600160a01b03906020826140af614f7e565b169160246040518095819363b3596f0760e01b835216948560048301525afa91821561064857600092614100575b5081156140e8575090565b6024906040519063339c9fa160e21b82526004820152fd5b90916020823d821161412e575b8161411a60209383613a50565b8101031261412b57505190386140dd565b80fd5b3d915061410d565b90816020910312610460575160ff811681036104605790565b60405163313ce56760e01b815291906020836004816001600160a01b0386165afa91821561064857613cc593600093614199575b5060ff6141926119bb9261409b565b9316614dbb565b6119bb9193506141926141bb60ff9260203d8111610682576106728183613a50565b94925050614183565b60405163313ce56760e01b8152916020836004816001600160a01b0385165afa90811561064857613cc593600092614206575b5060ff611fbb611f9b9261409b565b611f9b919250611fbb61422860ff9260203d8111610682576106728183613a50565b939250506141f7565b61423d61048c3061402d565b600854811515918261424e57505090565b90915063ffffffff8083168210928315614269575b50505090565b60201c16109050388080614263565b90620f4240918203918211610f1d57565b620f423f19810191908211610f1d57565b91908203918211610f1d57565b6040516323b872dd60e01b60208201526001600160a01b03928316602482015292909116604483015260648083019390935291815260a081019181831067ffffffffffffffff841117612c2a57613fac92604052613fae565b604080516370a0823160e01b8082526001600160a01b0395861660048301819052602096939592949360009281861692918988602481875afa9788156144a85785986144b6575b50614350615009565b1661435c868286614ea4565b803b156144b25784809160848b518094819363617ba03760e01b83528960048401528b60248401528860448401528160648401525af180156144a857908a939291614494575b5060249089519485938492835260048301525afa918215614489579161445c575b506143cf8282866144e5565b948551156144235780860151156143ea575050505050015190565b5163758ad4e760e01b81526001600160a01b03939093166004840152602483019390935260448201929092526064810191909152608490fd5b5163648195a560e11b81526001600160a01b03939093166004840152602483019390935260448201929092526064810191909152608490fd5b90508581813d8311614482575b6144738183613a50565b810103126104605751386143c3565b503d614469565b8651903d90823e3d90fd5b946144a1602492966139cb565b94906143a2565b89513d87823e3d90fd5b8480fd5b9097508981813d83116144de575b6144ce8183613a50565b810103126144b257519638614347565b503d6144c4565b919091604051906144f5826139df565b60208201600081526040830191600083528395818110808652614541575b50505081511561453757505061452d906020830151614596565b1515604082015290565b6000905292915050565b61454a9161429a565b9052388080614513565b919060405190614563826139df565b602082016000815260408301916000835283958082118086526145415750505081511561453757505061452d9060208301515b6001918082116145af57906145aa9161429a565b111590565b6145aa9161429a565b604080516370a0823160e01b8082526001600160a01b0395861660048301819052602096939592949360009281861692918988602481875afa9788156144a8578598614751575b50614608615009565b16803b156144b25784809160a48b518094819363a415bcad60e01b83528960048401528b6024840152600260448401528160648401528860848401525af180156144a857908a93929161473d575b5060249089519485938492835260048301525afa9182156144895791614710575b50614683828286614554565b948551156146d757808601511561469e575050505050015190565b516371e5ed5360e01b81526001600160a01b03939093166004840152602483019390935260448201929092526064810191909152608490fd5b51631216cb9b60e11b81526001600160a01b03939093166004840152602483019390935260448201929092526064810191909152608490fd5b90508581813d8311614736575b6147278183613a50565b81010312610460575138614677565b503d61471d565b9461474a602492966139cb565b9490614656565b9097508981813d8311614779575b6147698183613a50565b810103126144b2575196386145ff565b503d61475f565b906001600160a01b038216908115613b1e57600092828452836020526040842054908282106147ed5750817fddf252ad1be2c89b69c2b068fc378daa952ba7f163c4a11628f55a4df523b3ef926020928587528684520360408620558060025403600255604051908152a3565b60405163391434e360e21b81526001600160a01b03919091166004820152602481019190915260448101829052606490fd5b919061482b828461532f565b9081808210911802189060018060a01b039283811692604093845193866370a0823160e01b9182875216908160048701526020978887602481875afa9687156149ef579089916000986149fa575b5090600091614886615009565b16614892878288614ea4565b60848a518094819363573ade8160e01b83528960048401528a6024840152600260448401528860648401525af180156149ef5790899392916149c3575b5060249088519485938492835260048301525afa9081156149b85760009161498b575b506148fe8282866144e5565b94855115614952578086015115614919575050505050015190565b51634023dad760e11b81526001600160a01b03939093166004840152602483019390935260448201929092526064810191909152608490fd5b516301b6cca560e11b81526001600160a01b03939093166004840152602483019390935260448201929092526064810191909152608490fd5b908682813d83116149b1575b6149a18183613a50565b8101031261412b575051386148f2565b503d614997565b85513d6000823e3d90fd5b8391933d83116149e8575b6149d88183613a50565b81010312610460578791386148cf565b503d6149ce565b88513d6000823e3d90fd5b9182819992993d8311614a26575b614a128183613a50565b8101031261412b5750519588906000614879565b503d614a08565b9190614a3982846152b3565b9081808210911802189060018060a01b039283811692604093845193866370a0823160e01b9182875216908160048701526020978887602481875afa9687156149ef57908991600098614be0575b5090600091614a94615009565b1660648a5180948193631a4ca37b60e21b83528960048401528a60248401528860448401525af180156149ef579089939291614bb4575b5060249088519485938492835260048301525afa9081156149b857600091614b87575b50614afa828286614554565b94855115614b4e578086015115614b15575050505050015190565b51633b6d51ff60e21b81526001600160a01b03939093166004840152602483019390935260448201929092526064810191909152608490fd5b5163eefde95560e01b81526001600160a01b03939093166004840152602483019390935260448201929092526064810191909152608490fd5b908682813d8311614bad575b614b9d8183613a50565b8101031261412b57505138614aee565b503d614b93565b8391933d8311614bd9575b614bc98183613a50565b8101031261046057879138614acb565b503d614bbf565b9182819992993d8311614c0c575b614bf88183613a50565b8101031261412b5750519588906000614a87565b503d614bee565b613cc5614c2261048c3061402d565b600954600a549163ffffffff7f00000000000000000000000000000000000000000000000000000000000000001690614d54565b614c5e614231565b614c685760001990565b600090565b614c75614231565b614c9e576001600160a01b0316600090815260208190526040902054613cc590610b8390613cf7565b50600090565b614cac614231565b614c9e576001600160a01b031660009081526020819052604090205490565b90808210614d36578115614d2f57808214614d2757620f424091828102908082048403610f1d57614d0592614cff9161429a565b90613d87565b908110614d0f5790565b602490604051906369bb335560e01b82526004820152fd5b505060001990565b5050600090565b60449250604051916378ea417b60e11b835260048301526024820152fd5b919291600082821115614d96575081614d6c9161429a565b918210614d8e57614d7c91613d91565b905b808211614d89575090565b905090565b505050600090565b939290614da3908361429a565b90811061426357614db5929350613d91565b90614d7e565b604d8111610f1d57600a0a90565b91949392908015614df1576119b26119bb93614deb93611f9b613cc599614dbb565b91614dbb565b505050505050600090565b67ffffffffffffffff8111612c2a5760051b60200190565b6001600160a01b03614e477f0000000000000000000000000000000000000000000000000000000000000000821661507a565b9060405191614e5583613a34565b6003835260603660208501378161010082015116614e7284613f34565b52816101408201511690835160011015613f4157610120916040850152015116815160021015613f4157606082015290565b60405163095ea7b360e01b60208083018281526001600160a01b03861660248501526044808501979097529583529094919391600090614ee5606487613a50565b85519082865af16000513d82614f45575b505015614f04575b50505050565b614f3c93613fa79160405191602083015260018060a01b031660248201526000604482015260448152614f3681613a34565b82613fae565b38808080614efe565b909150614f6257506001600160a01b0382163b15155b3880614ef6565b600114614f5b565b51906001600160a01b038216820361046057565b604051631f94a27560e31b81526001600160a01b03906020816004817f000000000000000000000000000000000000000000000000000000000000000086165afa90811561064857600091614fd257501690565b906020823d8211615001575b81614feb60209383613a50565b8101031261412b5750614ffd90614f6a565b1690565b3d9150614fde565b60405163026b1d5f60e01b81526001600160a01b03906020816004817f000000000000000000000000000000000000000000000000000000000000000086165afa90811561064857600091614fd257501690565b51906fffffffffffffffffffffffffffffffff8216820361046057565b6040908151615088816139fb565b82519161509483613a18565b600092838152825282602083015282848301528260608301528260808301528260a08301528260c08301528260e08301526101008381840152610120848185015261014085818601526101609086828701526101809287848801526101a0948886890152886101c08099015260018060a01b039889615111615009565b168b519a8b996335ea6a7560e01b8b521660048a01528860246101e09c8d935afa9a8b156152a957819b61514e575b505050505050505050505090565b90919293949596978a819a9b9c503d8d116152a2575b61516e8183613a50565b8101039a8b1261529e57602081519b6151868d6139fb565b1261529e57805161519681613a18565b895181528b526151a860208a0161505d565b60208c01526151b8818a0161505d565b908b01526151c86060890161505d565b60608b01526151d96080890161505d565b60808b01526151ea60a0890161505d565b60a08b015260c088015164ffffffffff8116810361529e5760c08b015260e08801519061ffff8216820361412b57509161528a979593918997959360e08c0152615235818801614f6a565b908b0152615244818701614f6a565b908a0152615253818601614f6a565b90890152615262818501614f6a565b9088015261527181840161505d565b9087015261528081830161505d565b908601520161505d565b908201523880808080808080808080615140565b5080fd5b503d615164565b51903d90823e3d90fd5b6020906001600160a01b03906024908290610100906152d19061507a565b0151169360405194859384926370a0823160e01b84521660048301525afa90811561064857600091615301575090565b906020823d8211615327575b8161531a60209383613a50565b8101031261412b57505190565b3d915061530d565b61533b9092919261507a565b6101408101516040516370a0823160e01b8082526001600160a01b0395861660048301819052602096919390919087908490602490829085165afa9485156106485787936000966153f3575b5090610120602492015116936040519485938492835260048301525afa938415610648576000946153c0575b505091613cc59192613b48565b81813d83116153ec575b6153d48183613a50565b810103126153e857519250613cc5386153b3565b8380fd5b503d6153ca565b91929382819792973d8311615424575b61540d8183613a50565b8101031261412b5750519386929190610120615387565b503d615403565b9190811015613f415760051b0190565b356001600160a01b0381168103610460579056fea2646970667358221220ef322c5bfe9e7fad95530e3e4f9bf61f5abc27a65637587bcdf5b1ea2841751464736f6c634300081400332f8788117e7eff1d82e926ec794901d17c78024a50270940304540a733656f0d",
  "deployedBytecode": "0x6080604052600436101561001257600080fd5b60003560e01c806301e1d1141461364c57806301ffc9a7146135f65780630261bf8b146135db578063031c53ef146135b557806304336bb31461359757806305eee57e1461357b57806306fdde03146134bd57806307a2d13a1461349f57806309344c9c14613472578063095ea7b3146133ba5780630a28a4771461339657806314cecfbd1461336a57806318160ddd1461334c5780631dc8d818146130985780631f52be64146130535780631ff2d5e31461163657806323b872dd146130315780632416752414612fa5578063248a9ca314612f765780632f293a2014612e7a5780632f2ff15d14612e3b578063313ce56714612df3578063331fb00f14612d5757806336568abe14612d1057806338d52e0f14612ccb578063402d267d14610ac4578063415c506914612cac5780634603be6f146127b25780634677584a1461276d57806349b404021461274f5780634cdad5061461272e578063500fc434146126fe5780635033def7146126cf57806356d1d4a2146126625780635898ec3b1461261d57806359757aa5146125f75780635b3f0549146125db5780635f36a742146125b857806361d027b31461258f5780636d483fe6146113e55780636e553f65146121ca57806370a0823114612191578063715018a614612134578063776efe4714611e645780637a3dca8614611e1f5780637aa7c3c114611dde5780637dd38d9a14611da357806380fbf1dd14611d7f57806385bf8b771461097f578063863df9e714611d645780638bc4ec9b14611d3e5780638c25ac9314611d145780638da5cb5b14611ceb57806391d1485414611c9e57806394bf804d1461175e57806395d89b411461165957806395e6a3ba1461163b5780639d00f10814611636578063a0a94526146115d5578063a1b2736a14611536578063a217fddf1461151a578063a9059cbb146114e9578063a9f1a798146114c4578063acfec6901461149b578063ae37f47914611456578063b18b78dd1461142a578063b2016bd4146113e5578063b3d7f6b9146113c7578063b460af94146110a0578063b6783edd14611082578063ba08765214610b57578063bba00ba514610b12578063c505328b14610ae8578063c63d75b614610ac4578063c6e6f592146107d6578063c7101c1214610aa1578063cd16926914610a75578063ce96cb7714610a52578063d267974c1461041b578063d547741f14610a11578063d905777e146109ee578063dd62ed3e1461099d578063dde35bfd1461097f578063e0dd245714610944578063e5711e8b14610883578063e80cfa5e14610865578063eaff45921461083c578063edea1d48146107db578063ef8b30f7146107d6578063f0f442601461073a578063f2fde38b146106ac578063f53fd98a146104655763f8d898981461041b57600080fd5b34610460576000366003190112610460576040517f00000000000000000000000000000000000000000000000000000000000000006001600160a01b03168152602090f35b600080fd5b346104605760003660031901126104605761047f3061402d565b9061049261048c3061402d565b90614ccb565b9161049b614c13565b60405163313ce56760e01b8082526020959092916001600160a01b03907f000000000000000000000000000000000000000000000000000000000000000082168882600481845afa91821561064857600092610689575b506104fc9061409b565b917f000000000000000000000000000000000000000000000000000000000000000016936040519586528886600481885afa9384156106485760ff96600095610654575b5061054d8794959661409b565b976040519963c9a47a9b60e01b8b5260048b015260248a0152604489015263ffffffff7f000000000000000000000000000000000000000000000000000000000000000016606489015260848801521660a486015260c48501521660e48301526101048201526060816101248173__$38db3340cd8a046b928a070cd02a24807d$__5af48015610648576000916000906000926105fc575b5060609360405193845283015260000b6040820152f35b925050506060813d8211610640575b8161061860609383613a50565b81010312610460578051916040818301519201518060000b81036104605790929160606105e5565b3d915061060b565b6040513d6000823e3d90fd5b8794955061067a61054d918c8d3d10610682575b6106728183613a50565b810190614136565b959450610540565b503d610668565b6104fc9192506106a5908a3d8c11610682576106728183613a50565b91906104f2565b34610460576020366003190112610460576106c56136b2565b6106cd61399f565b6001600160a01b0390811690811561072157600554826bffffffffffffffffffffffff60a01b821617600555167f8be0079c531659141344cd1fd0a4f28419497f9722a3daafe3b4186f6b6457e0600080a3005b604051631e4fbdf760e01b815260006004820152602490fd5b34610460576020366003190112610460576107536136b2565b61075b613808565b6001600160a01b0381811680156107c457600c80546001600160a01b03198116929092179055604080516001600160a01b0393909216831682529290911660208201527f4ab5be82436d353e61ca18726e984e561f5c1cc7c6d38b29d2553c790434705a9190a1005b6040516351dc806d60e11b8152600490fd5b6137ea565b34610460576020366003190112610460577fffac9ebcb954b47fd18acb3426a66b70dcb4c43c237303630c568d0062d8db1a604060043561081a61399f565b61082261400a565b600a549080600a5582519182526020820152a16001600755005b3461046057602036600319011261046057602061085d600d54600435613e31565b604051908152f35b34610460576000366003190112610460576020600d54604051908152f35b346104605761089136613743565b61089c92919261399f565b6108a461400a565b6108ac614e14565b9060005b8251811015610929576001600160a01b03806108cc8386613f57565b5116908516146108e4576108df90613f25565b6108b0565b60405162461bcd60e51b815260206004820152601e60248201527f43616e6e6f7420726573637565207265737472696374656420746f6b656e00006044820152606490fd5b61093d82866001600160a01b038716613f6b565b6001600755005b346104605760003660031901126104605760206040517f51785d261c3b3e8c2cfe2d0e108b9ab2b1fb703ff9e9e49aba4ebdc85c36152b8152f35b34610460576000366003190112610460576020600954604051908152f35b34610460576040366003190112610460576109b66136b2565b6109be61369c565b9060018060a01b038091166000526001602052604060002091166000526020526020604060002054604051908152f35b3461046057602036600319011261046057602061085d610a0c6136b2565b614ca4565b3461046057604036600319011261046057610a50600435610a3061369c565b90806000526006602052610a4b600160406000200154613882565b613928565b005b3461046057602036600319011261046057602061085d610a706136b2565b614c6d565b3461046057604036600319011261046057602061085d610a936136b2565b610a9b61369c565b906152b3565b3461046057602036600319011261046057602061085d610abf6136b2565b61409b565b3461046057602036600319011261046057610add6136b2565b50602061085d614c56565b3461046057602036600319011261046057602061085d610b0a61048c3061402d565b600435613e31565b34610460576000366003190112610460576040517f00000000000000000000000000000000000000000000000000000000000000006001600160a01b03168152602090f35b3461046057610b65366137b5565b90610b6f82614ca4565b80841161104e5750610b94610b8384613cf7565b610b8e600b54614278565b90613e31565b91610b9d61400a565b336001600160a01b0382160361103e575b610bb88482614780565b610bc0614231565b610ffc57610bd061048c3061402d565b60405163313ce56760e01b80825291906020816004817f00000000000000000000000000000000000000000000000000000000000000006001600160a01b03165afa90811561064857600091610fdd575b50610c547f00000000000000000000000000000000000000000000000000000000000000006001600160a01b031661409b565b6040519384526020846004817f00000000000000000000000000000000000000000000000000000000000000006001600160a01b03165afa92831561064857610ce094600094610fbc575b5060ff80610cd57f00000000000000000000000000000000000000000000000000000000000000006001600160a01b031661409b565b951693169088614dc9565b604051636eb1769f60e11b81523360048201523060248201529091906020816044816001600160a01b037f0000000000000000000000000000000000000000000000000000000000000000165afa8015610648578391600091610f87575b5010610f3357610d798230337f00000000000000000000000000000000000000000000000000000000000000006001600160a01b03166142a7565b610dad30837f00000000000000000000000000000000000000000000000000000000000000006001600160a01b031661481f565b94610de230867f00000000000000000000000000000000000000000000000000000000000000006001600160a01b0316614a2d565b92600019810196818811610f1d576020978110610e81575b50610e31905083857f00000000000000000000000000000000000000000000000000000000000000006001600160a01b0316613f6b565b60408051938452868401919091526001600160a01b03918216939091169133917ffbde797d201c681b91056529119e0b02407c7bb96a4a2c75c01fc9667232c8db91a46001600755604051908152f35b610e8a9161429a565b610ebe81337f00000000000000000000000000000000000000000000000000000000000000006001600160a01b0316613f6b565b60405190815233907f00000000000000000000000000000000000000000000000000000000000000006001600160a01b0316907f858a27e141780954fe5d38ba55127b6c35f8f5904c3a088438a18578d5d71eee908990a38680610dfa565b634e487b7160e01b600052601160045260246000fd5b6040516326938fb560e01b81523360048201523060248201526001600160a01b037f000000000000000000000000000000000000000000000000000000000000000016604482015260648101839052608490fd5b9150506020813d602011610fb4575b81610fa360209383613a50565b810103126104605782905187610d3e565b3d9150610f96565b610fd691945060203d602011610682576106728183613a50565b9289610c9f565b610ff6915060203d602011610682576106728183613a50565b87610c21565b61100861048c3061402d565b60085460405163391f5eb560e01b8152600481019290925263ffffffff808216602484015260209190911c166044820152606490fd5b611049843383613bc3565b610bae565b604051632e52afbb60e21b81526001600160a01b039390931660048401526024830193909352506044810191909152606490fd5b34610460576000366003190112610460576020604051620186a08152f35b34610460576110ae366137b5565b6110ba81939293614c6d565b80831161139457506110de6110d96110d3600b54614278565b84613d91565b613c96565b916110e761400a565b6001600160a01b038281169261110590859033860361138457614780565b61110d614231565b610ffc5761111d61048c3061402d565b94817f000000000000000000000000000000000000000000000000000000000000000016926040519063313ce56760e01b80835260209889846004818a5afa93841561064857600094611365575b506111758761409b565b93867f000000000000000000000000000000000000000000000000000000000000000016946040519384528b84600481895afa928315610648576111d394600094611346575b5060ff806111c88961409b565b951693169086614dc9565b604051636eb1769f60e11b81523360048201523060248201529092908981604481855afa8015610648578491600091611315575b50106112dd57611219833033846142a7565b61123061122730858461481f565b92309088614a2d565b95600019840191848311610f1d57611255948487948a9610611295575b505050613f6b565b604051928352848684015216907ffbde797d201c681b91056529119e0b02407c7bb96a4a2c75c01fc9667232c8db60403392a46001600755604051908152f35b61129e9161429a565b906112aa823383613f6b565b6040519182527f858a27e141780954fe5d38ba55127b6c35f8f5904c3a088438a18578d5d71eee8c3393a38a808061124d565b6040516326938fb560e01b81523360048201523060248201526001600160a01b03919091166044820152606481019290925250608490fd5b8092508b8092503d831161133f575b61132e8183613a50565b81010312610460578390518b611207565b503d611324565b61135e9194508d803d10610682576106728183613a50565b928d6111bb565b61137d9194508a3d8c11610682576106728183613a50565b928a61116b565b61138f823383613bc3565b614780565b604051633fa733bb60e21b81526001600160a01b0392909216600483015260248201929092526044810191909152606490fd5b3461046057602036600319011261046057602061085d600435613d26565b34610460576000366003190112610460576040517f00000000000000000000000000000000000000000000000000000000000000006001600160a01b03168152602090f35b346104605760003660031901126104605760206001600160a01b0361144d614f7e565b16604051908152f35b34610460576000366003190112610460576040517f00000000000000000000000000000000000000000000000000000000000000006001600160a01b03168152602090f35b3461046057600036600319011261046057600f546040516001600160a01b039091168152602090f35b346104605760003660031901126104605760206114df614231565b6040519015158152f35b346104605760403660031901126104605761150f6115056136b2565b6024359033613a72565b602060405160018152f35b3461046057600036600319011261046057602060405160008152f35b346104605760203660031901126104605761154f6136b2565b61155761399f565b6001600160a01b038181169182156115c3573b156115b157600f54826bffffffffffffffffffffffff60a01b821617600f55167fd41ddf0add6cf5f4e7067e117b677c4bf3a6b26973090e908241a081fae54a4b600080a3005b6040516309c7768560e41b8152600490fd5b60405163d92e233d60e01b8152600490fd5b34610460576020366003190112610460577f67fef5f7f784ddd197d63c3a14901057b9271a11b8b97a118471777da6fede4c604060043561161461399f565b61161c61400a565b600954908060095582519182526020820152a16001600755005b613727565b34610460576000366003190112610460576020600a54604051908152f35b3461046057600036600319011261046057604051600090600454600181811c90808316928315611754575b602093848410811461173e5783865290811561171e57506001146116c3575b6116bf846116b381880382613a50565b604051918291826136c8565b0390f35b600460009081529294507f8a35acfbc15ff81a39ae7d344fd709f28e8600b4aa8c65c6b64bfe7fe36bd19b5b82841061170b57505050816116bf936116b392820101936116a3565b80548585018701529285019281016116ef565b60ff1916858501525050151560051b82010191506116b3816116bf6116a3565b634e487b7160e01b600052602260045260246000fd5b91607f1691611684565b346104605760403660031901126104605761177761369c565b61177f614c56565b8060043511611c6c5750611794600435613d26565b61179c61400a565b60043515611c5a576117ac614231565b610ffc576117bc61048c3061402d565b604051636eb1769f60e11b81523360048201523060248201526020816044816001600160a01b037f0000000000000000000000000000000000000000000000000000000000000000165afa8015610648578391600091611c25575b5010611bd1576118528230337f00000000000000000000000000000000000000000000000000000000000000006001600160a01b03166142a7565b61188630837f00000000000000000000000000000000000000000000000000000000000000006001600160a01b0316614300565b60405163313ce56760e01b8082529192906020816004817f00000000000000000000000000000000000000000000000000000000000000006001600160a01b03165afa90811561064857600091611bb2575b5061190b7f00000000000000000000000000000000000000000000000000000000000000006001600160a01b031661409b565b6040519384526020846004817f00000000000000000000000000000000000000000000000000000000000000006001600160a01b03165afa918215610648576119fd94600093611b89575b5091926119ce926119c1916119937f00000000000000000000000000000000000000000000000000000000000000006001600160a01b031661409b565b938115611b5b575b6119ab60ff6119b2939416614dbb565b9089613eae565b6119bb82614289565b90613eae565b6119bb60ff309516614dbb565b7f00000000000000000000000000000000000000000000000000000000000000006001600160a01b03166145b8565b600019830191838311610f1d57611a46928110611abe575b50837f00000000000000000000000000000000000000000000000000000000000000006001600160a01b0316613f6b565b6001600160a01b0382168015611aa557611a6560209360043590613b55565b604051828152600435848201527fdcbc1c05240f31ff3ad067ef1ee35ce4997762752e3a095284754544f4c709d760403392a36001600755604051908152f35b60405163ec442f0560e01b815260006004820152602490fd5b611ac8908461429a565b611afc81337f00000000000000000000000000000000000000000000000000000000000000006001600160a01b0316613f6b565b60405190815233907f00000000000000000000000000000000000000000000000000000000000000006001600160a01b0316907f21fa991d1ca60543187d2a0de62e5ea0ce1a703a3f0021354ae2f9a75dc0e34d90602090a384611a15565b7f000000000000000000000000000000000000000000000000000000000000000063ffffffff16915061199b565b6119ce935090611baa6119c19260203d602011610682576106728183613a50565b935090611956565b611bcb915060203d602011610682576106728183613a50565b866118d8565b604051631518e3a360e01b81523360048201523060248201526001600160a01b037f000000000000000000000000000000000000000000000000000000000000000016604482015260648101839052608490fd5b9150506020813d602011611c52575b81611c4160209383613a50565b810103126104605782905185611817565b3d9150611c34565b604051639811e0c760e01b8152600490fd5b60405163284ff66760e01b81526001600160a01b03929092166004808401919091523560248301526044820152606490fd5b3461046057604036600319011261046057611cb761369c565b600435600052600660205260406000209060018060a01b0316600052602052602060ff604060002054166040519015158152f35b34610460576000366003190112610460576005546040516001600160a01b039091168152602090f35b3461046057602036600319011261046057602061085d611d3661048c3061402d565b600435613d91565b3461046057600036600319011261046057602060085463ffffffff60405191831c168152f35b3461046057600036600319011261046057602061085d614c13565b3461046057600036600319011261046057602063ffffffff60085416604051908152f35b346104605760003660031901126104605760206040517f00000000000000000000000000000000000000000000000000000000000000008152f35b3461046057600036600319011261046057602060405163ffffffff7f0000000000000000000000000000000000000000000000000000000000000000168152f35b3461046057602036600319011261046057602061085d63ffffffff7f000000000000000000000000000000000000000000000000000000000000000016600435613d91565b3461046057611e7236613711565b611e7a61400a565b611e8661048c3061402d565b7f00000000000000000000000000000000000000000000000000000000000000009263ffffffff84168083111561210f57611ebf614c13565b60405163313ce56760e01b8082526001600160a01b037f0000000000000000000000000000000000000000000000000000000000000000811694939260209182826004818a5afa918215610648576000926120f0575b50611f1f8761409b565b907f000000000000000000000000000000000000000000000000000000000000000016936040519081528381600481885afa938415610648576000946120d1575b5050611f6b8461409b565b9188156120bf576119bb60ff611fbb611fe098620f4240611fa7611fa18f611fc29a611f9b88611fd79e16614dbb565b91613eae565b92613b37565b611fb18184613e31565b9209151590613b48565b9216614dbb565b91611fcf873033846142a7565b86309161481f565b50309084614a2d565b938585106120a157611ff461048c3061402d565b9182108015612097575b61206c5750507fae5e19ae4628c7ce8fe13292352b899b81124046fe5f2bb08004d24866fd45c8939450828061205a575b50506040805182815260208101959095528401526060830152339180608081015b0390a26001600755005b612065913390613f6b565b848261202f565b604051636a3f633560e11b8152600481019290925263ffffffff871660248301526044820152606490fd5b5080821015611ffe565b6044858760405191636fe9fab760e01b835260048301526024820152fd5b60405163681b8c4360e01b8152600490fd5b6120e8929450803d10610682576106728183613a50565b918b80611f60565b612108919250833d8511610682576106728183613a50565b908b611f15565b60405163de9f90d760e01b81526004810184905263ffffffff86166024820152604490fd5b346104605760003660031901126104605761214d61399f565b600580546001600160a01b031981169091556000906001600160a01b03167f8be0079c531659141344cd1fd0a4f28419497f9722a3daafe3b4186f6b6457e08280a3005b3461046057602036600319011261046057602061085d6121af6136b2565b6001600160a01b031660009081526020819052604090205490565b34610460576040366003190112610460576121e361369c565b6121eb614c56565b806004351161255d5750612200600435613cc8565b61220861400a565b8015611c5a57612216614231565b610ffc5761222661048c3061402d565b604051636eb1769f60e11b81523360048201523060248201526020816044816001600160a01b037f0000000000000000000000000000000000000000000000000000000000000000165afa9081156106485760009161252b575b50600435116124d4576122c060043530337f00000000000000000000000000000000000000000000000000000000000000006001600160a01b03166142a7565b6122f6306004357f00000000000000000000000000000000000000000000000000000000000000006001600160a01b0316614300565b60405163313ce56760e01b8082529192906020816004817f00000000000000000000000000000000000000000000000000000000000000006001600160a01b03165afa908115610648576000916124b5575b5061237b7f00000000000000000000000000000000000000000000000000000000000000006001600160a01b031661409b565b6040519384526020846004817f00000000000000000000000000000000000000000000000000000000000000006001600160a01b03165afa9182156106485761240294600093611b89575091926119ce926119c1916119937f00000000000000000000000000000000000000000000000000000000000000006001600160a01b031661409b565b600435600019810192908311610f1d5761244d9281106124a95750837f00000000000000000000000000000000000000000000000000000000000000006001600160a01b0316613f6b565b6001600160a01b0382168015611aa55761246982602094613b55565b604051600435815282848201527fdcbc1c05240f31ff3ad067ef1ee35ce4997762752e3a095284754544f4c709d760403392a36001600755604051908152f35b611ac89060043561429a565b6124ce915060203d602011610682576106728183613a50565b86612348565b604051631518e3a360e01b8152336004808301919091523060248301526001600160a01b037f0000000000000000000000000000000000000000000000000000000000000000166044830152356064820152608490fd5b90506020813d602011612555575b8161254660209383613a50565b81010312610460575184612280565b3d9150612539565b604051633c8097d960e11b81526001600160a01b03929092166004808401919091523560248301526044820152606490fd5b3461046057600036600319011261046057600c546040516001600160a01b039091168152602090f35b346104605760003660031901126104605760206001600160a01b0361144d615009565b3461046057600036600319011261046057602060405160028152f35b3461046057604036600319011261046057602061085d61261561369c565b60043561414f565b34610460576000366003190112610460576040517f00000000000000000000000000000000000000000000000000000000000000006001600160a01b03168152602090f35b346104605760203660031901126104605760043561267e613808565b80156126bd5760407f46c287b860f967b39d89a1692e6486d60e4d66ea2cde369816239edaf4e0656991600e549080600e5582519182526020820152a1005b6040516354a62ce560e01b8152600490fd5b346104605760203660031901126104605760406126f26126ed6136b2565b61402d565b82519182526020820152f35b34610460576000366003190112610460576116bf61271a614e14565b604051918291602083526020830190613778565b3461046057602036600319011261046057602061085d610b83600435613cf7565b34610460576000366003190112610460576020600e54604051908152f35b3461046057602036600319011261046057602061085d63ffffffff7f000000000000000000000000000000000000000000000000000000000000000016600435613e31565b346104605760603660031901126104605760243560043567ffffffffffffffff8083116104605736602384011215610460578083600401351161046057366024846004013560051b85010111610460576044356001600160a01b038116908190036104605761281f61400a565b600e54808410612c8e575015612c4057826004013515612c7c577f00000000000000000000000000000000000000000000000000000000000000006001600160a01b031661286f833033846142a7565b60405190606082019082528360208301526060604083015284600401359052608081019060248501918260005b87600401358110612c5257505090807fc8efbc392b57771291983f003bd32ae9dc5e87ff1388a259b9acf272db4531d8920390a13015612c40576128e38460040135614dfc565b916128f16040519384613a50565b6004850135808452601f199061290690614dfc565b0136602085013760405190604082019082821090821117612c2a57604052600181526020368183013761293881613f34565b7f00000000000000000000000000000000000000000000000000000000000000006001600160a01b0316905260005b85600401358110612a6e575050815184600401358103612a4c575060005b8460040135811061299a5761093d8430614780565b6129a48184613f57565b516129b1600d5482613e31565b818111612a2f578291612a1b826129fa612a25948b6129e76129e2612a2a9a60018060a01b0393600401358d61542b565b61543b565b600c546001600160a01b03169116613f6b565b6001600160a01b03612a146129e28760048e01358b61542b565b169261429a565b9060443590613f6b565b613f25565b612985565b6044916040519163270c46bf60e01b835260048301526024820152fd5b6044908560405191631aff8a1160e01b83526004830152600401356024820152fd5b6001600160a01b03612a886129e28360048a01358761542b565b169081156115c3576040516370a0823160e01b815230600482015291602083602481845afa92831561064857600093612bf6575b50600f546040516333028b9960e01b815260a060048201529060209082906001600160a01b031681600081612af460a482018c613778565b821960248301527f00000000000000000000000000000000000000000000000000000000000000006001600160a01b031660448301523060648301526084820189905203925af1801561064857612bcb575b506020602491604051928380926370a0823160e01b82523060048301525afa90811561064857600091612b97575b50612b9292612b829161429a565b612b8c8287613f57565b52613f25565b612967565b90506020813d602011612bc3575b81612bb260209383613a50565b810103126104605751612b92612b74565b3d9150612ba5565b602090813d8311612bef575b612be18183613a50565b810103126104605788612b46565b503d612bd7565b9092506020813d602011612c22575b81612c1260209383613a50565b8101031261046057519188612abc565b3d9150612c05565b634e487b7160e01b600052604160045260246000fd5b6040516313e6c64360e31b8152600490fd5b909182356001600160a01b038116919082900361046057602081600193829352019301910161289c565b604051633ce287ef60e21b8152600490fd5b83604491604051916301959e9f60e51b835260048301526024820152fd5b3461046057600036600319011261046057602061085d61048c3061402d565b34610460576000366003190112610460576040517f00000000000000000000000000000000000000000000000000000000000000006001600160a01b03168152602090f35b3461046057604036600319011261046057612d2961369c565b336001600160a01b03821603612d4557610a5090600435613928565b60405163334bd91960e11b8152600490fd5b3461046057602036600319011261046057600435612d73613808565b7f0000000000000000000000000000000000000000000000000000000000000000808211612dd4577f7af7c1a20ca2d95ef775c520be0e875415f760d01d8ab209ad45bfe84839d68e604083600d549080600d5582519182526020820152a1005b604051636cef961f60e11b815260048101929092526024820152604490fd5b346104605760003660031901126104605760ff7f00000000000000000000000000000000000000000000000000000000000000001660ff8111610f1d57602090604051908152f35b3461046057604036600319011261046057610a50600435612e5a61369c565b90806000526006602052612e75600160406000200154613882565b6138a8565b346104605760403660031901126104605760043563ffffffff9081811680910361046057602435918083169081840361046057612eb561399f565b612ebd61400a565b7f000000000000000000000000000000000000000000000000000000000000000016808310801590612f6c575b612f49577fe181be2639e8d7c912d71af8c1c57c83a06fe411204b0bc3fdeb64c935ccd4cf60408484878267ffffffff000000006008549260201b169167ffffffffffffffff1916171760085582519182526020820152a16001600755005b606493506040519263b857eea760e01b8452600484015260248301526044820152fd5b5081811015612eea565b346104605760203660031901126104605760043560005260066020526020600160406000200154604051908152f35b3461046057602036600319011261046057600435612fc161399f565b612fc961400a565b620186a0808211613012577fe07cd71654bf041221cc79adf2c12d88abbc33e847b9a2ac73c4e1002628a7d5604083600b549080600b5582519182526020820152a16001600755005b604051630e037d7560e41b815260048101929092526024820152604490fd5b346104605761150f61304236613743565b9161304e833383613bc3565b613a72565b34610460576000366003190112610460576040517f00000000000000000000000000000000000000000000000000000000000000006001600160a01b03168152602090f35b34610460576130a636613711565b906130af61400a565b6130bb61048c3061402d565b917f00000000000000000000000000000000000000000000000000000000000000009063ffffffff821680851015613327576130f5614c13565b60405163313ce56760e01b8082526001600160a01b037f0000000000000000000000000000000000000000000000000000000000000000811696919491939192602080826004818c5afa91821561064857600092613308575b506131588961409b565b927f0000000000000000000000000000000000000000000000000000000000000000169660405190815281816004818b5afa918215610648576000926132eb575b50506131a48761409b565b908a156132d9576119bb60ff611fbb6131f597610b8e8f6131d1906131ec9a611f9b876131d79c16614dbb565b91613b37565b966131e4893033846142a7565b883091614300565b953090856145b8565b968488106132bb5761320961048c3061402d565b91821180156132b1575b613281575050508461205091817f72b9341ae324ee7e9a41986f370caf7ffb0c989c3c5d7be4b0d94b93bec5a286969761326f575b50506040519384933397859094939260609260808301968352602083015260408201520152565b61327a913390613f6b565b8681613248565b604051630262805f60e11b8152600481019290925263ffffffff9290921660248201526044810191909152606490fd5b5080821115613213565b604488866040519163ec02e43f60e01b835260048301526024820152fd5b604051631501bbed60e31b8152600490fd5b6133019250803d10610682576106728183613a50565b8b80613199565b816133209293503d8411610682576106728183613a50565b908b61314e565b6040516312e9fceb60e21b81526004810186905263ffffffff84166024820152604490fd5b34610460576000366003190112610460576020600254604051908152f35b3461046057604036600319011261046057602061085d6133886136b2565b61339061369c565b9061532f565b3461046057602036600319011261046057602061085d6110d9611d36600b54614278565b34610460576040366003190112610460576133d36136b2565b602435903315613459576001600160a01b031690811561344057336000526001602052604060002082600052602052806040600020556040519081527f8c5be1e5ebec7d5bd14f71427d1e84f3dd0314c0f7b2291e5b200ac8c7c3b92560203392a3602060405160018152f35b604051634a1406b160e11b815260006004820152602490fd5b60405163e602df0560e01b815260006004820152602490fd5b3461046057600036600319011261046057602061348d614f7e565b6040516001600160a01b039091168152f35b3461046057602036600319011261046057602061085d600435613cf7565b3461046057600036600319011261046057604051600090600354600181811c90808316928315613571575b602093848410811461173e5783865290811561171e5750600114613516576116bf846116b381880382613a50565b600360009081529294507fc2575a0e9e593c00f959f8c92f12db2869c3395a3b0502d05e2516446f71f85b5b82841061355e57505050816116bf936116b392820101936116a3565b8054858501870152928501928101613542565b91607f16916134e8565b3461046057600036600319011261046057602060405160088152f35b34610460576000366003190112610460576020600b54604051908152f35b3461046057604036600319011261046057602061085d6135d361369c565b6004356141c4565b3461046057600036600319011261046057602061348d615009565b346104605760203660031901126104605760043563ffffffff60e01b811680910361046057602090637965db0b60e01b811490811561363b575b506040519015158152f35b6301ffc9a760e01b14905082613630565b3461046057600036600319011261046057602061085d61366b3061402d565b507f00000000000000000000000000000000000000000000000000000000000000006001600160a01b03169061414f565b602435906001600160a01b038216820361046057565b600435906001600160a01b038216820361046057565b6020808252825181830181905290939260005b8281106136fd57505060409293506000838284010152601f8019910116010190565b8181018601518482016040015285016136db565b6040906003190112610460576004359060243590565b3461046057600036600319011261046057602060405160018152f35b6060906003190112610460576001600160a01b0390600435828116810361046057916024359081168103610460579060443590565b90815180825260208080930193019160005b828110613798575050505090565b83516001600160a01b03168552938101939281019260010161378a565b606090600319011261046057600435906001600160a01b03906024358281168103610460579160443590811681036104605790565b3461046057602036600319011261046057602061085d600435613cc8565b3360009081527ffe34ed5485dc9fe44fe8269f3027eee2e0a6e4cc4be0ba8f7d037ae76cfa28d360205260409020547f51785d261c3b3e8c2cfe2d0e108b9ab2b1fb703ff9e9e49aba4ebdc85c36152b9060ff16156138645750565b6044906040519063e2517d3f60e01b82523360048301526024820152fd5b80600052600660205260406000203360005260205260ff60406000205416156138645750565b906000918083526006602052604083209160018060a01b03169182845260205260ff604084205416156000146139235780835260066020526040832082845260205260408320600160ff198254161790557f2f8788117e7eff1d82e926ec794901d17c78024a50270940304540a733656f0d339380a4600190565b505090565b906000918083526006602052604083209160018060a01b03169182845260205260ff604084205416600014613923578083526006602052604083208284526020526040832060ff1981541690557ff6391f5c32d9c69d2a47ea670b442974b53935d1edc7fd64eb21e047a839171b339380a4600190565b6005546001600160a01b031633036139b357565b60405163118cdaa760e01b8152336004820152602490fd5b67ffffffffffffffff8111612c2a57604052565b6060810190811067ffffffffffffffff821117612c2a57604052565b6101e0810190811067ffffffffffffffff821117612c2a57604052565b6020810190811067ffffffffffffffff821117612c2a57604052565b6080810190811067ffffffffffffffff821117612c2a57604052565b90601f8019910116810190811067ffffffffffffffff821117612c2a57604052565b916001600160a01b03808416928315613b1e5716928315611aa55760009083825281602052604082205490838210613aec575091604082827fddf252ad1be2c89b69c2b068fc378daa952ba7f163c4a11628f55a4df523b3ef958760209652828652038282205586815220818154019055604051908152a3565b60405163391434e360e21b81526001600160a01b03919091166004820152602481019190915260448101839052606490fd5b604051634b637e8f60e11b815260006004820152602490fd5b90620f4240918201809211610f1d57565b91908201809211610f1d57565b7fddf252ad1be2c89b69c2b068fc378daa952ba7f163c4a11628f55a4df523b3ef6020600092613b8785600254613b48565b6002556001600160a01b03169384158414613bae5780600254036002555b604051908152a3565b84845283825260408420818154019055613ba5565b9160018060a01b038093169160009383855260016020526040938486209183169182875260205284862054926000198410613c02575b50505050505050565b848410613c6657508015613c4e578115613c3657855260016020528385209085526020520391205538808080808080613bf9565b8451634a1406b160e11b815260048101879052602490fd5b845163e602df0560e01b815260048101879052602490fd5b8551637dc7a0d960e11b81526001600160a01b039190911660048201526024810184905260448101859052606490fd5b60025460018101809111610f1d57613cb061366b3061402d565b9060018201809211610f1d57613cc592613d51565b90565b60025460018101809111610f1d57613ce261366b3061402d565b9060018201809211610f1d57613cc592613eae565b613d0361366b3061402d565b60018101809111610f1d576002549060018201809211610f1d57613cc592613eae565b613d3261366b3061402d565b60018101809111610f1d576002549060018201809211610f1d57613cc5925b91613d5d818385613eae565b918115613d7157613cc59309151590613b48565b634e487b7160e01b600052601260045260246000fd5b8115613d71570490565b620f4240916000198383099280830292838086109503948086039514613e245784831115613e0b579082910981600003821680920460028082600302188083028203028083028203028083028203028083028203028083028203028092029003029360018380600003040190848311900302920304170290565b82634e487b71600052156003026011186020526024601cfd5b505090613cc59250613d87565b9060001981830981830291828083109203918083039214613ea257620f42409082821115613e8f577fde8f6cefed634549b62c77574f722e1ac57e23f24d8fd5cb790fb65668c26139940990828211900360fa1b910360061c170290565b634e487b7160005260116020526024601cfd5b5050620f424091500490565b90916000198383099280830292838086109503948086039514613e245784831115613e0b579082910981600003821680920460028082600302188083028203028083028203028083028203028083028203028083028203028092029003029360018380600003040190848311900302920304170290565b6000198114610f1d5760010190565b805115613f415760200190565b634e487b7160e01b600052603260045260246000fd5b8051821015613f415760209160051b010190565b60405163a9059cbb60e01b60208201526001600160a01b03929092166024830152604480830193909352918152613fac91613fa7606483613a50565b613fae565b565b906000602091828151910182855af115610648576000513d61400157506001600160a01b0381163b155b613fdf5750565b604051635274afe760e01b81526001600160a01b039091166004820152602490fd5b60011415613fd8565b60026007541461401b576002600755565b604051633ee5aeb560e01b8152600490fd5b6001600160a01b039190613cc59061406c6140717f000000000000000000000000000000000000000000000000000000000000000086168284826152b3565b6141c4565b947f000000000000000000000000000000000000000000000000000000000000000016918261532f565b6001600160a01b03906020826140af614f7e565b169160246040518095819363b3596f0760e01b835216948560048301525afa91821561064857600092614100575b5081156140e8575090565b6024906040519063339c9fa160e21b82526004820152fd5b90916020823d821161412e575b8161411a60209383613a50565b8101031261412b57505190386140dd565b80fd5b3d915061410d565b90816020910312610460575160ff811681036104605790565b60405163313ce56760e01b815291906020836004816001600160a01b0386165afa91821561064857613cc593600093614199575b5060ff6141926119bb9261409b565b9316614dbb565b6119bb9193506141926141bb60ff9260203d8111610682576106728183613a50565b94925050614183565b60405163313ce56760e01b8152916020836004816001600160a01b0385165afa90811561064857613cc593600092614206575b5060ff611fbb611f9b9261409b565b611f9b919250611fbb61422860ff9260203d8111610682576106728183613a50565b939250506141f7565b61423d61048c3061402d565b600854811515918261424e57505090565b90915063ffffffff8083168210928315614269575b50505090565b60201c16109050388080614263565b90620f4240918203918211610f1d57565b620f423f19810191908211610f1d57565b91908203918211610f1d57565b6040516323b872dd60e01b60208201526001600160a01b03928316602482015292909116604483015260648083019390935291815260a081019181831067ffffffffffffffff841117612c2a57613fac92604052613fae565b604080516370a0823160e01b8082526001600160a01b0395861660048301819052602096939592949360009281861692918988602481875afa9788156144a85785986144b6575b50614350615009565b1661435c868286614ea4565b803b156144b25784809160848b518094819363617ba03760e01b83528960048401528b60248401528860448401528160648401525af180156144a857908a939291614494575b5060249089519485938492835260048301525afa918215614489579161445c575b506143cf8282866144e5565b948551156144235780860151156143ea575050505050015190565b5163758ad4e760e01b81526001600160a01b03939093166004840152602483019390935260448201929092526064810191909152608490fd5b5163648195a560e11b81526001600160a01b03939093166004840152602483019390935260448201929092526064810191909152608490fd5b90508581813d8311614482575b6144738183613a50565b810103126104605751386143c3565b503d614469565b8651903d90823e3d90fd5b946144a1602492966139cb565b94906143a2565b89513d87823e3d90fd5b8480fd5b9097508981813d83116144de575b6144ce8183613a50565b810103126144b257519638614347565b503d6144c4565b919091604051906144f5826139df565b60208201600081526040830191600083528395818110808652614541575b50505081511561453757505061452d906020830151614596565b1515604082015290565b6000905292915050565b61454a9161429a565b9052388080614513565b919060405190614563826139df565b602082016000815260408301916000835283958082118086526145415750505081511561453757505061452d9060208301515b6001918082116145af57906145aa9161429a565b111590565b6145aa9161429a565b604080516370a0823160e01b8082526001600160a01b0395861660048301819052602096939592949360009281861692918988602481875afa9788156144a8578598614751575b50614608615009565b16803b156144b25784809160a48b518094819363a415bcad60e01b83528960048401528b6024840152600260448401528160648401528860848401525af180156144a857908a93929161473d575b5060249089519485938492835260048301525afa9182156144895791614710575b50614683828286614554565b948551156146d757808601511561469e575050505050015190565b516371e5ed5360e01b81526001600160a01b03939093166004840152602483019390935260448201929092526064810191909152608490fd5b51631216cb9b60e11b81526001600160a01b03939093166004840152602483019390935260448201929092526064810191909152608490fd5b90508581813d8311614736575b6147278183613a50565b81010312610460575138614677565b503d61471d565b9461474a602492966139cb565b9490614656565b9097508981813d8311614779575b6147698183613a50565b810103126144b2575196386145ff565b503d61475f565b906001600160a01b038216908115613b1e57600092828452836020526040842054908282106147ed5750817fddf252ad1be2c89b69c2b068fc378daa952ba7f163c4a11628f55a4df523b3ef926020928587528684520360408620558060025403600255604051908152a3565b60405163391434e360e21b81526001600160a01b03919091166004820152602481019190915260448101829052606490fd5b919061482b828461532f565b9081808210911802189060018060a01b039283811692604093845193866370a0823160e01b9182875216908160048701526020978887602481875afa9687156149ef579089916000986149fa575b5090600091614886615009565b16614892878288614ea4565b60848a518094819363573ade8160e01b83528960048401528a6024840152600260448401528860648401525af180156149ef5790899392916149c3575b5060249088519485938492835260048301525afa9081156149b85760009161498b575b506148fe8282866144e5565b94855115614952578086015115614919575050505050015190565b51634023dad760e11b81526001600160a01b03939093166004840152602483019390935260448201929092526064810191909152608490fd5b516301b6cca560e11b81526001600160a01b03939093166004840152602483019390935260448201929092526064810191909152608490fd5b908682813d83116149b1575b6149a18183613a50565b8101031261412b575051386148f2565b503d614997565b85513d6000823e3d90fd5b8391933d83116149e8575b6149d88183613a50565b81010312610460578791386148cf565b503d6149ce565b88513d6000823e3d90fd5b9182819992993d8311614a26575b614a128183613a50565b8101031261412b5750519588906000614879565b503d614a08565b9190614a3982846152b3565b9081808210911802189060018060a01b039283811692604093845193866370a0823160e01b9182875216908160048701526020978887602481875afa9687156149ef57908991600098614be0575b5090600091614a94615009565b1660648a5180948193631a4ca37b60e21b83528960048401528a60248401528860448401525af180156149ef579089939291614bb4575b5060249088519485938492835260048301525afa9081156149b857600091614b87575b50614afa828286614554565b94855115614b4e578086015115614b15575050505050015190565b51633b6d51ff60e21b81526001600160a01b03939093166004840152602483019390935260448201929092526064810191909152608490fd5b5163eefde95560e01b81526001600160a01b03939093166004840152602483019390935260448201929092526064810191909152608490fd5b908682813d8311614bad575b614b9d8183613a50565b8101031261412b57505138614aee565b503d614b93565b8391933d8311614bd9575b614bc98183613a50565b8101031261046057879138614acb565b503d614bbf565b9182819992993d8311614c0c575b614bf88183613a50565b8101031261412b5750519588906000614a87565b503d614bee565b613cc5614c2261048c3061402d565b600954600a549163ffffffff7f00000000000000000000000000000000000000000000000000000000000000001690614d54565b614c5e614231565b614c685760001990565b600090565b614c75614231565b614c9e576001600160a01b0316600090815260208190526040902054613cc590610b8390613cf7565b50600090565b614cac614231565b614c9e576001600160a01b031660009081526020819052604090205490565b90808210614d36578115614d2f57808214614d2757620f424091828102908082048403610f1d57614d0592614cff9161429a565b90613d87565b908110614d0f5790565b602490604051906369bb335560e01b82526004820152fd5b505060001990565b5050600090565b60449250604051916378ea417b60e11b835260048301526024820152fd5b919291600082821115614d96575081614d6c9161429a565b918210614d8e57614d7c91613d91565b905b808211614d89575090565b905090565b505050600090565b939290614da3908361429a565b90811061426357614db5929350613d91565b90614d7e565b604d8111610f1d57600a0a90565b91949392908015614df1576119b26119bb93614deb93611f9b613cc599614dbb565b91614dbb565b505050505050600090565b67ffffffffffffffff8111612c2a5760051b60200190565b6001600160a01b03614e477f0000000000000000000000000000000000000000000000000000000000000000821661507a565b9060405191614e5583613a34565b6003835260603660208501378161010082015116614e7284613f34565b52816101408201511690835160011015613f4157610120916040850152015116815160021015613f4157606082015290565b60405163095ea7b360e01b60208083018281526001600160a01b03861660248501526044808501979097529583529094919391600090614ee5606487613a50565b85519082865af16000513d82614f45575b505015614f04575b50505050565b614f3c93613fa79160405191602083015260018060a01b031660248201526000604482015260448152614f3681613a34565b82613fae565b38808080614efe565b909150614f6257506001600160a01b0382163b15155b3880614ef6565b600114614f5b565b51906001600160a01b038216820361046057565b604051631f94a27560e31b81526001600160a01b03906020816004817f000000000000000000000000000000000000000000000000000000000000000086165afa90811561064857600091614fd257501690565b906020823d8211615001575b81614feb60209383613a50565b8101031261412b5750614ffd90614f6a565b1690565b3d9150614fde565b60405163026b1d5f60e01b81526001600160a01b03906020816004817f000000000000000000000000000000000000000000000000000000000000000086165afa90811561064857600091614fd257501690565b51906fffffffffffffffffffffffffffffffff8216820361046057565b6040908151615088816139fb565b82519161509483613a18565b600092838152825282602083015282848301528260608301528260808301528260a08301528260c08301528260e08301526101008381840152610120848185015261014085818601526101609086828701526101809287848801526101a0948886890152886101c08099015260018060a01b039889615111615009565b168b519a8b996335ea6a7560e01b8b521660048a01528860246101e09c8d935afa9a8b156152a957819b61514e575b505050505050505050505090565b90919293949596978a819a9b9c503d8d116152a2575b61516e8183613a50565b8101039a8b1261529e57602081519b6151868d6139fb565b1261529e57805161519681613a18565b895181528b526151a860208a0161505d565b60208c01526151b8818a0161505d565b908b01526151c86060890161505d565b60608b01526151d96080890161505d565b60808b01526151ea60a0890161505d565b60a08b015260c088015164ffffffffff8116810361529e5760c08b015260e08801519061ffff8216820361412b57509161528a979593918997959360e08c0152615235818801614f6a565b908b0152615244818701614f6a565b908a0152615253818601614f6a565b90890152615262818501614f6a565b9088015261527181840161505d565b9087015261528081830161505d565b908601520161505d565b908201523880808080808080808080615140565b5080fd5b503d615164565b51903d90823e3d90fd5b6020906001600160a01b03906024908290610100906152d19061507a565b0151169360405194859384926370a0823160e01b84521660048301525afa90811561064857600091615301575090565b906020823d8211615327575b8161531a60209383613a50565b8101031261412b57505190565b3d915061530d565b61533b9092919261507a565b6101408101516040516370a0823160e01b8082526001600160a01b0395861660048301819052602096919390919087908490602490829085165afa9485156106485787936000966153f3575b5090610120602492015116936040519485938492835260048301525afa938415610648576000946153c0575b505091613cc59192613b48565b81813d83116153ec575b6153d48183613a50565b810103126153e857519250613cc5386153b3565b8380fd5b503d6153ca565b91929382819792973d8311615424575b61540d8183613a50565b8101031261412b5750519386929190610120615387565b503d615403565b9190811015613f415760051b0190565b356001600160a01b0381168103610460579056fea2646970667358221220ef322c5bfe9e7fad95530e3e4f9bf61f5abc27a65637587bcdf5b1ea2841751464736f6c63430008140033",
  "libraries": {
    "DLoopCoreLogic": "0x6c4720e24d67f63eb810235708f6ea4e1d5f63e8"
  }
}