{
  "address": "0xDB54A40a4f0F130Ab1EA22D644FBDA9d5e27e5C6",
  "abi": [
    {
      "inputs": [
        {
          "internalType": "address",
          "name": "_dStakeCollateralVault",
          "type": "address"
        },
        {
          "internalType": "address",
          "name": "_dStakeRouter",
          "type": "address"
        },
        {
          "internalType": "address",
          "name": "_dLendRewardsController",
          "type": "address"
        },
        {
          "internalType": "address",
          "name": "_targetStaticATokenWrapper",
          "type": "address"
        },
        {
          "internalType": "address",
          "name": "_dLendAssetToClaimFor",
          "type": "address"
        },
        {
          "internalType": "address",
          "name": "_treasury",
          "type": "address"
        },
        {
          "internalType": "uint256",
          "name": "_maxTreasuryFeeBps",
          "type": "uint256"
        },
        {
          "internalType": "uint256",
          "name": "_initialTreasuryFeeBps",
          "type": "uint256"
        },
        {
          "internalType": "uint256",
          "name": "_initialExchangeThreshold",
          "type": "uint256"
        }
      ],
      "stateMutability": "nonpayable",
      "type": "constructor"
    },
    {
      "inputs": [],
      "name": "AccessControlBadConfirmation",
      "type": "error"
    },
    {
      "inputs": [
        {
          "internalType": "address",
          "name": "account",
          "type": "address"
        },
        {
          "internalType": "bytes32",
          "name": "neededRole",
          "type": "bytes32"
        }
      ],
      "name": "AccessControlUnauthorizedAccount",
      "type": "error"
    },
    {
      "inputs": [],
      "name": "AdapterNotSetForDefaultAsset",
      "type": "error"
    },
    {
      "inputs": [
        {
          "internalType": "address",
          "name": "expected",
          "type": "address"
        },
        {
          "internalType": "address",
          "name": "actual",
          "type": "address"
        }
      ],
      "name": "AdapterReturnedUnexpectedAsset",
      "type": "error"
    },
    {
      "inputs": [],
      "name": "DefaultDepositAssetNotSet",
      "type": "error"
    },
    {
      "inputs": [
        {
          "internalType": "uint256",
          "name": "amount",
          "type": "uint256"
        },
        {
          "internalType": "uint256",
          "name": "threshold",
          "type": "uint256"
        }
      ],
      "name": "ExchangeAmountTooLow",
      "type": "error"
    },
    {
      "inputs": [
        {
          "internalType": "address",
          "name": "adapter",
          "type": "address"
        }
      ],
      "name": "InvalidAdapter",
      "type": "error"
    },
    {
      "inputs": [],
      "name": "InvalidRouter",
      "type": "error"
    },
    {
      "inputs": [
        {
          "internalType": "uint256",
          "name": "maxTreasuryFeeBps",
          "type": "uint256"
        }
      ],
      "name": "MaxTreasuryFeeTooHigh",
      "type": "error"
    },
    {
      "inputs": [],
      "name": "ReentrancyGuardReentrantCall",
      "type": "error"
    },
    {
      "inputs": [
        {
          "internalType": "uint256",
          "name": "claimedAmountsLength",
          "type": "uint256"
        },
        {
          "internalType": "uint256",
          "name": "rewardTokensLength",
          "type": "uint256"
        }
      ],
      "name": "RewardAmountsLengthMismatch",
      "type": "error"
    },
    {
      "inputs": [
        {
          "internalType": "address",
          "name": "token",
          "type": "address"
        }
      ],
      "name": "SafeERC20FailedOperation",
      "type": "error"
    },
    {
      "inputs": [
        {
          "internalType": "uint256",
          "name": "treasuryFee",
          "type": "uint256"
        },
        {
          "internalType": "uint256",
          "name": "rewardAmount",
          "type": "uint256"
        }
      ],
      "name": "TreasuryFeeExceedsRewardAmount",
      "type": "error"
    },
    {
      "inputs": [
        {
          "internalType": "uint256",
          "name": "treasuryFeeBps",
          "type": "uint256"
        },
        {
          "internalType": "uint256",
          "name": "maxTreasuryFeeBps",
          "type": "uint256"
        }
      ],
      "name": "TreasuryFeeTooHigh",
      "type": "error"
    },
    {
      "inputs": [],
      "name": "ZeroAddress",
      "type": "error"
    },
    {
      "inputs": [],
      "name": "ZeroExchangeAssetAddress",
      "type": "error"
    },
    {
      "inputs": [],
      "name": "ZeroExchangeThreshold",
      "type": "error"
    },
    {
      "inputs": [],
      "name": "ZeroReceiverAddress",
      "type": "error"
    },
    {
      "inputs": [],
      "name": "ZeroRewardTokens",
      "type": "error"
    },
    {
      "inputs": [],
      "name": "ZeroTreasuryAddress",
      "type": "error"
    },
    {
      "anonymous": false,
      "inputs": [
        {
          "indexed": false,
          "internalType": "address",
          "name": "oldController",
          "type": "address"
        },
        {
          "indexed": false,
          "internalType": "address",
          "name": "newController",
          "type": "address"
        }
      ],
      "name": "DLendRewardsControllerUpdated",
      "type": "event"
    },
    {
      "anonymous": false,
      "inputs": [
        {
          "indexed": true,
          "internalType": "address",
          "name": "vaultAsset",
          "type": "address"
        },
        {
          "indexed": false,
          "internalType": "uint256",
          "name": "vaultAssetAmount",
          "type": "uint256"
        },
        {
          "indexed": false,
          "internalType": "uint256",
          "name": "dStableCompoundedAmount",
          "type": "uint256"
        }
      ],
      "name": "ExchangeAssetProcessed",
      "type": "event"
    },
    {
      "anonymous": false,
      "inputs": [
        {
          "indexed": false,
          "internalType": "uint256",
          "name": "oldExchangeThreshold",
          "type": "uint256"
        },
        {
          "indexed": false,
          "internalType": "uint256",
          "name": "newExchangeThreshold",
          "type": "uint256"
        }
      ],
      "name": "ExchangeThresholdUpdated",
      "type": "event"
    },
    {
      "anonymous": false,
      "inputs": [
        {
          "indexed": false,
          "internalType": "address",
          "name": "exchangeAsset",
          "type": "address"
        },
        {
          "indexed": false,
          "internalType": "uint256",
          "name": "amount",
          "type": "uint256"
        },
        {
          "indexed": false,
          "internalType": "address[]",
          "name": "rewardTokens",
          "type": "address[]"
        }
      ],
      "name": "RewardCompounded",
      "type": "event"
    },
    {
      "anonymous": false,
      "inputs": [
        {
          "indexed": true,
          "internalType": "bytes32",
          "name": "role",
          "type": "bytes32"
        },
        {
          "indexed": true,
          "internalType": "bytes32",
          "name": "previousAdminRole",
          "type": "bytes32"
        },
        {
          "indexed": true,
          "internalType": "bytes32",
          "name": "newAdminRole",
          "type": "bytes32"
        }
      ],
      "name": "RoleAdminChanged",
      "type": "event"
    },
    {
      "anonymous": false,
      "inputs": [
        {
          "indexed": true,
          "internalType": "bytes32",
          "name": "role",
          "type": "bytes32"
        },
        {
          "indexed": true,
          "internalType": "address",
          "name": "account",
          "type": "address"
        },
        {
          "indexed": true,
          "internalType": "address",
          "name": "sender",
          "type": "address"
        }
      ],
      "name": "RoleGranted",
      "type": "event"
    },
    {
      "anonymous": false,
      "inputs": [
        {
          "indexed": true,
          "internalType": "bytes32",
          "name": "role",
          "type": "bytes32"
        },
        {
          "indexed": true,
          "internalType": "address",
          "name": "account",
          "type": "address"
        },
        {
          "indexed": true,
          "internalType": "address",
          "name": "sender",
          "type": "address"
        }
      ],
      "name": "RoleRevoked",
      "type": "event"
    },
    {
      "anonymous": false,
      "inputs": [
        {
          "indexed": false,
          "internalType": "uint256",
          "name": "oldTreasuryFeeBps",
          "type": "uint256"
        },
        {
          "indexed": false,
          "internalType": "uint256",
          "name": "newTreasuryFeeBps",
          "type": "uint256"
        }
      ],
      "name": "TreasuryFeeBpsUpdated",
      "type": "event"
    },
    {
      "anonymous": false,
      "inputs": [
        {
          "indexed": false,
          "internalType": "address",
          "name": "oldTreasury",
          "type": "address"
        },
        {
          "indexed": false,
          "internalType": "address",
          "name": "newTreasury",
          "type": "address"
        }
      ],
      "name": "TreasuryUpdated",
      "type": "event"
    },
    {
      "inputs": [],
      "name": "DEFAULT_ADMIN_ROLE",
      "outputs": [
        {
          "internalType": "bytes32",
          "name": "",
          "type": "bytes32"
        }
      ],
      "stateMutability": "view",
      "type": "function"
    },
    {
      "inputs": [],
      "name": "REWARDS_MANAGER_ROLE",
      "outputs": [
        {
          "internalType": "bytes32",
          "name": "",
          "type": "bytes32"
        }
      ],
      "stateMutability": "view",
      "type": "function"
    },
    {
      "inputs": [
        {
          "internalType": "uint256",
          "name": "amount",
          "type": "uint256"
        },
        {
          "internalType": "address[]",
          "name": "rewardTokens",
          "type": "address[]"
        },
        {
          "internalType": "address",
          "name": "receiver",
          "type": "address"
        }
      ],
      "name": "compoundRewards",
      "outputs": [],
      "stateMutability": "nonpayable",
      "type": "function"
    },
    {
      "inputs": [],
      "name": "dLendAssetToClaimFor",
      "outputs": [
        {
          "internalType": "address",
          "name": "",
          "type": "address"
        }
      ],
      "stateMutability": "view",
      "type": "function"
    },
    {
      "inputs": [],
      "name": "dLendRewardsController",
      "outputs": [
        {
          "internalType": "contract IDLendRewardsController",
          "name": "",
          "type": "address"
        }
      ],
      "stateMutability": "view",
      "type": "function"
    },
    {
      "inputs": [],
      "name": "dStakeCollateralVault",
      "outputs": [
        {
          "internalType": "address",
          "name": "",
          "type": "address"
        }
      ],
      "stateMutability": "view",
      "type": "function"
    },
    {
      "inputs": [],
      "name": "dStakeRouter",
      "outputs": [
        {
          "internalType": "contract IDStakeRouterV2",
          "name": "",
          "type": "address"
        }
      ],
      "stateMutability": "view",
      "type": "function"
    },
    {
      "inputs": [],
      "name": "exchangeAsset",
      "outputs": [
        {
          "internalType": "address",
          "name": "",
          "type": "address"
        }
      ],
      "stateMutability": "view",
      "type": "function"
    },
    {
      "inputs": [],
      "name": "exchangeThreshold",
      "outputs": [
        {
          "internalType": "uint256",
          "name": "",
          "type": "uint256"
        }
      ],
      "stateMutability": "view",
      "type": "function"
    },
    {
      "inputs": [
        {
          "internalType": "bytes32",
          "name": "role",
          "type": "bytes32"
        }
      ],
      "name": "getRoleAdmin",
      "outputs": [
        {
          "internalType": "bytes32",
          "name": "",
          "type": "bytes32"
        }
      ],
      "stateMutability": "view",
      "type": "function"
    },
    {
      "inputs": [
        {
          "internalType": "uint256",
          "name": "amount",
          "type": "uint256"
        }
      ],
      "name": "getTreasuryFee",
      "outputs": [
        {
          "internalType": "uint256",
          "name": "",
          "type": "uint256"
        }
      ],
      "stateMutability": "view",
      "type": "function"
    },
    {
      "inputs": [
        {
          "internalType": "bytes32",
          "name": "role",
          "type": "bytes32"
        },
        {
          "internalType": "address",
          "name": "account",
          "type": "address"
        }
      ],
      "name": "grantRole",
      "outputs": [],
      "stateMutability": "nonpayable",
      "type": "function"
    },
    {
      "inputs": [
        {
          "internalType": "bytes32",
          "name": "role",
          "type": "bytes32"
        },
        {
          "internalType": "address",
          "name": "account",
          "type": "address"
        }
      ],
      "name": "hasRole",
      "outputs": [
        {
          "internalType": "bool",
          "name": "",
          "type": "bool"
        }
      ],
      "stateMutability": "view",
      "type": "function"
    },
    {
      "inputs": [],
      "name": "maxTreasuryFeeBps",
      "outputs": [
        {
          "internalType": "uint256",
          "name": "",
          "type": "uint256"
        }
      ],
      "stateMutability": "view",
      "type": "function"
    },
    {
      "inputs": [
        {
          "internalType": "bytes32",
          "name": "role",
          "type": "bytes32"
        },
        {
          "internalType": "address",
          "name": "callerConfirmation",
          "type": "address"
        }
      ],
      "name": "renounceRole",
      "outputs": [],
      "stateMutability": "nonpayable",
      "type": "function"
    },
    {
      "inputs": [
        {
          "internalType": "bytes32",
          "name": "role",
          "type": "bytes32"
        },
        {
          "internalType": "address",
          "name": "account",
          "type": "address"
        }
      ],
      "name": "revokeRole",
      "outputs": [],
      "stateMutability": "nonpayable",
      "type": "function"
    },
    {
      "inputs": [
        {
          "internalType": "address",
          "name": "_newDLendRewardsController",
          "type": "address"
        }
      ],
      "name": "setDLendRewardsController",
      "outputs": [],
      "stateMutability": "nonpayable",
      "type": "function"
    },
    {
      "inputs": [
        {
          "internalType": "uint256",
          "name": "newExchangeThreshold",
          "type": "uint256"
        }
      ],
      "name": "setExchangeThreshold",
      "outputs": [],
      "stateMutability": "nonpayable",
      "type": "function"
    },
    {
      "inputs": [
        {
          "internalType": "address",
          "name": "newTreasury",
          "type": "address"
        }
      ],
      "name": "setTreasury",
      "outputs": [],
      "stateMutability": "nonpayable",
      "type": "function"
    },
    {
      "inputs": [
        {
          "internalType": "uint256",
          "name": "newTreasuryFeeBps",
          "type": "uint256"
        }
      ],
      "name": "setTreasuryFeeBps",
      "outputs": [],
      "stateMutability": "nonpayable",
      "type": "function"
    },
    {
      "inputs": [
        {
          "internalType": "bytes4",
          "name": "interfaceId",
          "type": "bytes4"
        }
      ],
      "name": "supportsInterface",
      "outputs": [
        {
          "internalType": "bool",
          "name": "",
          "type": "bool"
        }
      ],
      "stateMutability": "view",
      "type": "function"
    },
    {
      "inputs": [],
      "name": "targetStaticATokenWrapper",
      "outputs": [
        {
          "internalType": "address",
          "name": "",
          "type": "address"
        }
      ],
      "stateMutability": "view",
      "type": "function"
    },
    {
      "inputs": [],
      "name": "treasury",
      "outputs": [
        {
          "internalType": "address",
          "name": "",
          "type": "address"
        }
      ],
      "stateMutability": "view",
      "type": "function"
    },
    {
      "inputs": [],
      "name": "treasuryFeeBps",
      "outputs": [
        {
          "internalType": "uint256",
          "name": "",
          "type": "uint256"
        }
      ],
      "stateMutability": "view",
      "type": "function"
    }
  ],
  "transactionHash": "0x9fe59fe19014edc8826dd3e28906c8fd5b744dc85e491986c5bcbc877b2d264a",
  "args": [
    "0xEFDfC73966750b4A3da4566A949D3F396ca036f9",
    "0xd3Ea15809F6ffcE522491e220EC31fb868357a0d",
    "0xf49284DA5cb00b04228437edB1776a7D74A8A2Bd",
    "0x195E961a51B7217889B64D95a80da3ddb1c56B7F",
    "0xfb3Dc1de220190c3ED34b8B6FdFe87cF68763A6c",
    "0xd2f775Ff2cD41bfe43C7A8c016eD10393553fe44",
    50000,
    10000,
    "1000000000000000000"
  ],
  "numDeployments": 1,
  "solcInputHash": "97241693b44c95075b0d9e9bf76eb77a",
  "bytecode": "0x6101406040818152346200030b57819062001a1f803803809162000024828662000310565b8439610120928391810103126200030b5762000040836200034a565b6200004e602085016200034a565b6200005b8386016200034a565b916200006a606087016200034a565b9162000079608088016200034a565b936200008860a089016200034a565b60c089015160e08a01516101009a8b015189516306617c6960e11b8152966001600160a01b0396949093600493888616939290919060208b8781885afa9a8b15620003005760009b620002ba575b5060018055898b1615620002aa578916998a156200029a57620f424082116200028357818311620002655783156200025557608052600280546001600160a01b0319908116909b17905560a052600355825562000133336200035f565b506200013f33620003df565b501580156200024a575b80156200023f575b801562000234575b801562000229575b6200021b578460805116156200020d575090839160c0521660e052169060055416176005558452825262000195336200035f565b50620001a133620003df565b50519061157d9283620004828439608051838181610516015281816106b501526111fa015260a05183818161046f0152610c78015260c051836104d1015260e051838181610be401526111550152518281816102a701526109b10152518181816107d00152610d7a0152f35b885163466d7fef60e01b8152fd5b885163d92e233d60e01b8152fd5b508488161562000161565b508487161562000159565b508484161562000151565b508483161562000149565b8d516354a62ce560e01b81528690fd5b508c51636cef961f60e11b8152808601929092526024820152604490fd5b50846024918e519163a7519f3f60e01b8352820152fd5b8d516351dc806d60e11b81528690fd5b8d51631810b12760e21b81528690fd5b909a6020823d8211620002f7575b81620002d76020938362000310565b81010312620002f45750620002ec906200034a565b9938620000d6565b80fd5b3d9150620002c8565b8e513d6000823e3d90fd5b600080fd5b601f909101601f19168101906001600160401b038211908210176200033457604052565b634e487b7160e01b600052604160045260246000fd5b51906001600160a01b03821682036200030b57565b6001600160a01b031660008181527fad3228b676f7d3cd4284a5443f17f1962b36e491b30a40b2405849e597ba5fb5602052604081205490919060ff16620003db57818052816020526040822081835260205260408220600160ff198254161790553391600080516020620019ff8339815191528180a4600190565b5090565b6001600160a01b031660008181527ff6c17da3865d9645546db4630d07c45803fb99f9b61dd452de8de1cd2159d25460205260408120549091907f51785d261c3b3e8c2cfe2d0e108b9ab2b1fb703ff9e9e49aba4ebdc85c36152b9060ff166200047c57808352826020526040832082845260205260408320600160ff19825416179055600080516020620019ff833981519152339380a4600190565b50509056fe608080604052600436101561001357600080fd5b60003560e01c90816301ffc9a714610da9575080631f52be6414610d64578063248a9ca314610d355780632f2ff15d14610cf6578063331fb00f14610c5a57806336568abe14610c135780633c9f23f014610bce5780634603be6f146105d057806349b40402146105b257806356d1d4a2146105455780635898ec3b1461050057806358a87913146104bb57806361d027b3146104925780637dd38d9a1461045757806391d148541461040a578063a1b2736a1461031b578063a217fddf146102ff578063acfec690146102d6578063ae37f47914610291578063d547741f14610250578063e0dd245714610215578063e80cfa5e146101f7578063eaff4592146101ce5763f0f442601461012757600080fd5b346101c95760203660031901126101c957610140610e12565b610148610e28565b6001600160a01b0381811680156101b757600280546001600160a01b031981169092179055604080516001600160a01b0393909216831682529190921660208301527f4ab5be82436d353e61ca18726e984e561f5c1cc7c6d38b29d2553c790434705a9190819081015b0390a1005b6040516351dc806d60e11b8152600490fd5b600080fd5b346101c95760203660031901126101c95760206101ef6003546004356114ca565b604051908152f35b346101c95760003660031901126101c9576020600354604051908152f35b346101c95760003660031901126101c95760206040517f51785d261c3b3e8c2cfe2d0e108b9ab2b1fb703ff9e9e49aba4ebdc85c36152b8152f35b346101c95760403660031901126101c95761028f60043561026f610dfc565b9080600052600060205261028a600160406000200154610ea2565b610f46565b005b346101c95760003660031901126101c9576040517f00000000000000000000000000000000000000000000000000000000000000006001600160a01b03168152602090f35b346101c95760003660031901126101c9576005546040516001600160a01b039091168152602090f35b346101c95760003660031901126101c957602060405160008152f35b346101c95760203660031901126101c957610334610e12565b3360009081527fad3228b676f7d3cd4284a5443f17f1962b36e491b30a40b2405849e597ba5fb5602052604090205460ff16156103eb576001600160a01b0381811680156103d957600580546001600160a01b031981169092179055604080516001600160a01b0393909216831682529190921660208301527fd41ddf0add6cf5f4e7067e117b677c4bf3a6b26973090e908241a081fae54a4b9190819081016101b2565b60405163d92e233d60e01b8152600490fd5b60405163e2517d3f60e01b815233600482015260006024820152604490fd5b346101c95760403660031901126101c957610423610dfc565b600435600052600060205260406000209060018060a01b0316600052602052602060ff604060002054166040519015158152f35b346101c95760003660031901126101c95760206040517f00000000000000000000000000000000000000000000000000000000000000008152f35b346101c95760003660031901126101c9576002546040516001600160a01b039091168152602090f35b346101c95760003660031901126101c9576040517f00000000000000000000000000000000000000000000000000000000000000006001600160a01b03168152602090f35b346101c95760003660031901126101c9576040517f00000000000000000000000000000000000000000000000000000000000000006001600160a01b03168152602090f35b346101c95760203660031901126101c957600435610561610e28565b80156105a05760407f46c287b860f967b39d89a1692e6486d60e4d66ea2cde369816239edaf4e0656991600454908060045582519182526020820152a1005b6040516354a62ce560e01b8152600490fd5b346101c95760003660031901126101c9576020600454604051908152f35b346101c95760603660031901126101c95767ffffffffffffffff602435116101c9573660236024350112156101c95767ffffffffffffffff60243560040135116101c95736602480356004013560051b81350101116101c9576044356001600160a01b038116908190036101c957600260015414610bbc5760026001556004548060043510610b9c575015610b46576024356004013515610b8a576040516323b872dd60e01b60208201523360248201523060448201526004356064820152606481528060a081011067ffffffffffffffff60a083011117610b305760a081016040527f00000000000000000000000000000000000000000000000000000000000000006001600160a01b0316906106e890826110a6565b6106f360043561112e565b604051906060820190825260043560208301526060604083015260243560040135905260808101906024803501918260005b602435600401358110610b5857847fc8efbc392b57771291983f003bd32ae9dc5e87ff1388a259b9acf272db4531d885850386a13015610b465761076e60243560040135611102565b61077b6040519182611041565b60046024350135808252601f199061079290611102565b0136602083013760405180604081011067ffffffffffffffff604083011117610b3057604081016040526001815260203681830137805115610b1a577f00000000000000000000000000000000000000000000000000000000000000006001600160a01b0316602082015260005b60243560040135811061091057505080516024356004013581036108ec575060005b6024356004013581106108355760018055005b61083f8183610fe0565b5161084c600354826114ca565b8181116108cf576108ca92916108c5916108bb90610898816001600160a01b0361088561088089600460243501358e610ff4565b611004565b6002546001600160a01b03169116611063565b6001600160a01b036108b461088087600460243501358c610ff4565b1692611018565b9060443590611063565b610fbb565b610822565b6044916040519163270c46bf60e01b835260048301526024820152fd5b60449060405190631aff8a1160e01b82526004820152602435600401356024820152fd5b6001600160a01b0361092c610880836004602435013588610ff4565b169081156103d9576040516370a0823160e01b815230600482015291602083602481845afa928315610a8a57600093610ae6575b506005546040516333028b9960e01b815260a06004820152855160a4820181905290916001600160a01b031690829060c482019060208901906000905b808210610ac15750506000196024840152507f00000000000000000000000000000000000000000000000000000000000000006001600160a01b0316604483015230606483015260848201859052602092908290039082906000905af18015610a8a57610a96575b506020602491604051928380926370a0823160e01b82523060048301525afa908115610a8a57600091610a56575b50610a5192610a4191611018565b610a4b8286610fe0565b52610fbb565b610800565b90506020813d602011610a82575b81610a7160209383611041565b810103126101c95751610a51610a33565b3d9150610a64565b6040513d6000823e3d90fd5b602090813d8311610aba575b610aac8183611041565b810103126101c95786610a05565b503d610aa2565b82516001600160a01b031684528694506020938401939092019160019091019061099d565b9092506020813d602011610b12575b81610b0260209383611041565b810103126101c957519186610960565b3d9150610af5565b634e487b7160e01b600052603260045260246000fd5b634e487b7160e01b600052604160045260246000fd5b6040516313e6c64360e31b8152600490fd5b90918235906001600160a01b03821682036101c9576001600160a01b0390911681526020908101920190600101610725565b604051633ce287ef60e21b8152600490fd5b604490604051906301959e9f60e51b825260043560048301526024820152fd5b604051633ee5aeb560e01b8152600490fd5b346101c95760003660031901126101c9576040517f00000000000000000000000000000000000000000000000000000000000000006001600160a01b03168152602090f35b346101c95760403660031901126101c957610c2c610dfc565b336001600160a01b03821603610c485761028f90600435610f46565b60405163334bd91960e11b8152600490fd5b346101c95760203660031901126101c957600435610c76610e28565b7f0000000000000000000000000000000000000000000000000000000000000000808211610cd7577f7af7c1a20ca2d95ef775c520be0e875415f760d01d8ab209ad45bfe84839d68e604083600354908060035582519182526020820152a1005b604051636cef961f60e11b815260048101929092526024820152604490fd5b346101c95760403660031901126101c95761028f600435610d15610dfc565b90806000526000602052610d30600160406000200154610ea2565b610ec8565b346101c95760203660031901126101c95760043560005260006020526020600160406000200154604051908152f35b346101c95760003660031901126101c9576040517f00000000000000000000000000000000000000000000000000000000000000006001600160a01b03168152602090f35b346101c95760203660031901126101c9576004359063ffffffff60e01b82168092036101c957602091637965db0b60e01b8114908115610deb575b5015158152f35b6301ffc9a760e01b14905083610de4565b602435906001600160a01b03821682036101c957565b600435906001600160a01b03821682036101c957565b3360009081527ff6c17da3865d9645546db4630d07c45803fb99f9b61dd452de8de1cd2159d25460205260409020547f51785d261c3b3e8c2cfe2d0e108b9ab2b1fb703ff9e9e49aba4ebdc85c36152b9060ff1615610e845750565b6044906040519063e2517d3f60e01b82523360048301526024820152fd5b80600052600060205260406000203360005260205260ff6040600020541615610e845750565b9060009180835282602052604083209160018060a01b03169182845260205260ff60408420541615600014610f4157808352826020526040832082845260205260408320600160ff198254161790557f2f8788117e7eff1d82e926ec794901d17c78024a50270940304540a733656f0d339380a4600190565b505090565b9060009180835282602052604083209160018060a01b03169182845260205260ff604084205416600014610f415780835282602052604083208284526020526040832060ff1981541690557ff6391f5c32d9c69d2a47ea670b442974b53935d1edc7fd64eb21e047a839171b339380a4600190565b6000198114610fca5760010190565b634e487b7160e01b600052601160045260246000fd5b8051821015610b1a5760209160051b010190565b9190811015610b1a5760051b0190565b356001600160a01b03811681036101c95790565b91908203918211610fca57565b6080810190811067ffffffffffffffff821117610b3057604052565b90601f8019910116810190811067ffffffffffffffff821117610b3057604052565b60405163a9059cbb60e01b60208201526001600160a01b039290921660248301526044808301939093529181526110a49161109f606483611041565b6110a6565b565b906000602091828151910182855af115610a8a576000513d6110f957506001600160a01b0381163b155b6110d75750565b604051635274afe760e01b81526001600160a01b039091166004820152602490fd5b600114156110d0565b67ffffffffffffffff8111610b305760051b60200190565b51906001600160a01b03821682036101c957565b9081156114c657604080516356c5766360e11b8152926001600160a01b03919060209060047f0000000000000000000000000000000000000000000000000000000000000000851683888381845afa9788156114bb57600098611484575b508588169586156114745790849291865195868093630b4da09f60e41b82528a8683015260249889915afa91821561146957600092611432575b50808216801561142257875163095ea7b360e01b8187018181526001600160a01b03909516828a01908152602081018990527f000000000000000000000000000000000000000000000000000000000000000085169591929188916000919061123c90859060400103601f198101865285611041565b83519082895af16000513d82611406575b5050156113cd575b5088516306f81a6b60e41b81528581018890529389858a816000875af19889156113c257600095869a611382575b508a51928860008186018381528785880152816044880152604487526112a887611025565b86519082875af16000513d82611366575b505015611330575b505050505081169687036113015750507f34ae61830bdb58e6775b07f85ca1a832e6ea8a2485a6730c4f2399ddb6b9bf8f949596508351928352820152a2565b8551634ccd3caf60e01b81526001600160a01b03808b1693820193845290911660208301529081906040010390fd5b61135c9461109f928d51928b840152820152600060448201526044815261135681611025565b826110a6565b38808080806112c1565b90915061137a5750823b15155b38806112b9565b600114611373565b959099508a86813d83116113bb575b61139b8183611041565b810103126113b85750866113ae8661111a565b9501519838611283565b80fd5b503d611391565b8a513d6000823e3d90fd5b611400906113fa8b51848a820152858c82015260006044820152604481526113f481611025565b876110a6565b856110a6565b38611255565b90915061141a5750843b15155b388061124d565b600114611413565b8751630de1e8a360e41b81528490fd5b90918482813d8311611462575b6114498183611041565b810103126113b8575061145b9061111a565b90386111c6565b503d61143f565b87513d6000823e3d90fd5b855163130e394160e01b81528390fd5b90978482813d83116114b4575b61149b8183611041565b810103126113b857506114ad9061111a565b963861118c565b503d611491565b85513d6000823e3d90fd5b9050565b906000198183098183029182808310920391808303921461153b57620f42409082821115611528577fde8f6cefed634549b62c77574f722e1ac57e23f24d8fd5cb790fb65668c26139940990828211900360fa1b910360061c170290565b634e487b7160005260116020526024601cfd5b5050620f42409150049056fea2646970667358221220246107e42075e23585ff08c0db6fb878b0c1150d2e5880c3b6a9ab8662a64fa764736f6c634300081400332f8788117e7eff1d82e926ec794901d17c78024a50270940304540a733656f0d"
}