{
  "address": "0x78107EFdA1818C5990a0c946889602D8428139f5",
  "abi": [
    {
      "inputs": [
        {
          "internalType": "address",
          "name": "_dStakeVaultShare",
          "type": "address"
        },
        {
          "internalType": "address",
          "name": "_dStableAsset",
          "type": "address"
        }
      ],
      "stateMutability": "nonpayable",
      "type": "constructor"
    },
    {
      "inputs": [],
      "name": "AccessControlBadConfirmation",
      "type": "error"
    },
    {
      "inputs": [
        {
          "internalType": "address",
          "name": "account",
          "type": "address"
        },
        {
          "internalType": "bytes32",
          "name": "neededRole",
          "type": "bytes32"
        }
      ],
      "name": "AccessControlUnauthorizedAccount",
      "type": "error"
    },
    {
      "inputs": [
        {
          "internalType": "address",
          "name": "strategyShare",
          "type": "address"
        }
      ],
      "name": "AdapterValuationUnavailable",
      "type": "error"
    },
    {
      "inputs": [
        {
          "internalType": "address",
          "name": "token",
          "type": "address"
        }
      ],
      "name": "CannotRescueRestrictedToken",
      "type": "error"
    },
    {
      "inputs": [
        {
          "internalType": "address",
          "name": "receiver",
          "type": "address"
        },
        {
          "internalType": "uint256",
          "name": "amount",
          "type": "uint256"
        }
      ],
      "name": "ETHTransferFailed",
      "type": "error"
    },
    {
      "inputs": [
        {
          "internalType": "address",
          "name": "asset",
          "type": "address"
        }
      ],
      "name": "NonZeroBalance",
      "type": "error"
    },
    {
      "inputs": [],
      "name": "ReentrancyGuardReentrantCall",
      "type": "error"
    },
    {
      "inputs": [
        {
          "internalType": "address",
          "name": "token",
          "type": "address"
        }
      ],
      "name": "SafeERC20FailedOperation",
      "type": "error"
    },
    {
      "inputs": [
        {
          "internalType": "address",
          "name": "strategyShare",
          "type": "address"
        }
      ],
      "name": "StrategyShareAlreadySupported",
      "type": "error"
    },
    {
      "inputs": [
        {
          "internalType": "address",
          "name": "strategyShare",
          "type": "address"
        }
      ],
      "name": "StrategyShareNotSupported",
      "type": "error"
    },
    {
      "inputs": [],
      "name": "ZeroAddress",
      "type": "error"
    },
    {
      "anonymous": false,
      "inputs": [
        {
          "indexed": true,
          "internalType": "address",
          "name": "receiver",
          "type": "address"
        },
        {
          "indexed": false,
          "internalType": "uint256",
          "name": "amount",
          "type": "uint256"
        }
      ],
      "name": "ETHRescued",
      "type": "event"
    },
    {
      "anonymous": false,
      "inputs": [
        {
          "indexed": true,
          "internalType": "bytes32",
          "name": "role",
          "type": "bytes32"
        },
        {
          "indexed": true,
          "internalType": "bytes32",
          "name": "previousAdminRole",
          "type": "bytes32"
        },
        {
          "indexed": true,
          "internalType": "bytes32",
          "name": "newAdminRole",
          "type": "bytes32"
        }
      ],
      "name": "RoleAdminChanged",
      "type": "event"
    },
    {
      "anonymous": false,
      "inputs": [
        {
          "indexed": true,
          "internalType": "bytes32",
          "name": "role",
          "type": "bytes32"
        },
        {
          "indexed": true,
          "internalType": "address",
          "name": "account",
          "type": "address"
        },
        {
          "indexed": true,
          "internalType": "address",
          "name": "sender",
          "type": "address"
        }
      ],
      "name": "RoleGranted",
      "type": "event"
    },
    {
      "anonymous": false,
      "inputs": [
        {
          "indexed": true,
          "internalType": "bytes32",
          "name": "role",
          "type": "bytes32"
        },
        {
          "indexed": true,
          "internalType": "address",
          "name": "account",
          "type": "address"
        },
        {
          "indexed": true,
          "internalType": "address",
          "name": "sender",
          "type": "address"
        }
      ],
      "name": "RoleRevoked",
      "type": "event"
    },
    {
      "anonymous": false,
      "inputs": [
        {
          "indexed": true,
          "internalType": "address",
          "name": "router",
          "type": "address"
        }
      ],
      "name": "RouterSet",
      "type": "event"
    },
    {
      "anonymous": false,
      "inputs": [
        {
          "indexed": true,
          "internalType": "address",
          "name": "strategyShare",
          "type": "address"
        }
      ],
      "name": "StrategyShareRemoved",
      "type": "event"
    },
    {
      "anonymous": false,
      "inputs": [
        {
          "indexed": true,
          "internalType": "address",
          "name": "strategyShare",
          "type": "address"
        }
      ],
      "name": "StrategyShareSupported",
      "type": "event"
    },
    {
      "anonymous": false,
      "inputs": [
        {
          "indexed": true,
          "internalType": "address",
          "name": "token",
          "type": "address"
        },
        {
          "indexed": true,
          "internalType": "address",
          "name": "receiver",
          "type": "address"
        },
        {
          "indexed": false,
          "internalType": "uint256",
          "name": "amount",
          "type": "uint256"
        }
      ],
      "name": "TokenRescued",
      "type": "event"
    },
    {
      "inputs": [],
      "name": "DEFAULT_ADMIN_ROLE",
      "outputs": [
        {
          "internalType": "bytes32",
          "name": "",
          "type": "bytes32"
        }
      ],
      "stateMutability": "view",
      "type": "function"
    },
    {
      "inputs": [],
      "name": "ROUTER_ROLE",
      "outputs": [
        {
          "internalType": "bytes32",
          "name": "",
          "type": "bytes32"
        }
      ],
      "stateMutability": "view",
      "type": "function"
    },
    {
      "inputs": [
        {
          "internalType": "address",
          "name": "strategyShare",
          "type": "address"
        }
      ],
      "name": "addSupportedStrategyShare",
      "outputs": [],
      "stateMutability": "nonpayable",
      "type": "function"
    },
    {
      "inputs": [],
      "name": "dStable",
      "outputs": [
        {
          "internalType": "address",
          "name": "",
          "type": "address"
        }
      ],
      "stateMutability": "view",
      "type": "function"
    },
    {
      "inputs": [],
      "name": "dStakeToken",
      "outputs": [
        {
          "internalType": "address",
          "name": "",
          "type": "address"
        }
      ],
      "stateMutability": "view",
      "type": "function"
    },
    {
      "inputs": [
        {
          "internalType": "bytes32",
          "name": "role",
          "type": "bytes32"
        }
      ],
      "name": "getRoleAdmin",
      "outputs": [
        {
          "internalType": "bytes32",
          "name": "",
          "type": "bytes32"
        }
      ],
      "stateMutability": "view",
      "type": "function"
    },
    {
      "inputs": [],
      "name": "getSupportedStrategyShares",
      "outputs": [
        {
          "internalType": "address[]",
          "name": "",
          "type": "address[]"
        }
      ],
      "stateMutability": "view",
      "type": "function"
    },
    {
      "inputs": [
        {
          "internalType": "bytes32",
          "name": "role",
          "type": "bytes32"
        },
        {
          "internalType": "address",
          "name": "account",
          "type": "address"
        }
      ],
      "name": "grantRole",
      "outputs": [],
      "stateMutability": "nonpayable",
      "type": "function"
    },
    {
      "inputs": [
        {
          "internalType": "bytes32",
          "name": "role",
          "type": "bytes32"
        },
        {
          "internalType": "address",
          "name": "account",
          "type": "address"
        }
      ],
      "name": "hasRole",
      "outputs": [
        {
          "internalType": "bool",
          "name": "",
          "type": "bool"
        }
      ],
      "stateMutability": "view",
      "type": "function"
    },
    {
      "inputs": [
        {
          "internalType": "address",
          "name": "strategyShare",
          "type": "address"
        }
      ],
      "name": "removeSupportedStrategyShare",
      "outputs": [],
      "stateMutability": "nonpayable",
      "type": "function"
    },
    {
      "inputs": [
        {
          "internalType": "bytes32",
          "name": "role",
          "type": "bytes32"
        },
        {
          "internalType": "address",
          "name": "callerConfirmation",
          "type": "address"
        }
      ],
      "name": "renounceRole",
      "outputs": [],
      "stateMutability": "nonpayable",
      "type": "function"
    },
    {
      "inputs": [
        {
          "internalType": "address",
          "name": "receiver",
          "type": "address"
        },
        {
          "internalType": "uint256",
          "name": "amount",
          "type": "uint256"
        }
      ],
      "name": "rescueETH",
      "outputs": [],
      "stateMutability": "nonpayable",
      "type": "function"
    },
    {
      "inputs": [
        {
          "internalType": "address",
          "name": "token",
          "type": "address"
        },
        {
          "internalType": "address",
          "name": "receiver",
          "type": "address"
        },
        {
          "internalType": "uint256",
          "name": "amount",
          "type": "uint256"
        }
      ],
      "name": "rescueToken",
      "outputs": [],
      "stateMutability": "nonpayable",
      "type": "function"
    },
    {
      "inputs": [
        {
          "internalType": "bytes32",
          "name": "role",
          "type": "bytes32"
        },
        {
          "internalType": "address",
          "name": "account",
          "type": "address"
        }
      ],
      "name": "revokeRole",
      "outputs": [],
      "stateMutability": "nonpayable",
      "type": "function"
    },
    {
      "inputs": [],
      "name": "router",
      "outputs": [
        {
          "internalType": "address",
          "name": "",
          "type": "address"
        }
      ],
      "stateMutability": "view",
      "type": "function"
    },
    {
      "inputs": [
        {
          "internalType": "address",
          "name": "strategyShare",
          "type": "address"
        },
        {
          "internalType": "uint256",
          "name": "amount",
          "type": "uint256"
        },
        {
          "internalType": "address",
          "name": "recipient",
          "type": "address"
        }
      ],
      "name": "sendAsset",
      "outputs": [],
      "stateMutability": "nonpayable",
      "type": "function"
    },
    {
      "inputs": [
        {
          "internalType": "address",
          "name": "_newRouter",
          "type": "address"
        }
      ],
      "name": "setRouter",
      "outputs": [],
      "stateMutability": "nonpayable",
      "type": "function"
    },
    {
      "inputs": [
        {
          "internalType": "uint256",
          "name": "index",
          "type": "uint256"
        }
      ],
      "name": "supportedStrategyShares",
      "outputs": [
        {
          "internalType": "address",
          "name": "",
          "type": "address"
        }
      ],
      "stateMutability": "view",
      "type": "function"
    },
    {
      "inputs": [
        {
          "internalType": "bytes4",
          "name": "interfaceId",
          "type": "bytes4"
        }
      ],
      "name": "supportsInterface",
      "outputs": [
        {
          "internalType": "bool",
          "name": "",
          "type": "bool"
        }
      ],
      "stateMutability": "view",
      "type": "function"
    },
    {
      "inputs": [],
      "name": "totalValueInDStable",
      "outputs": [
        {
          "internalType": "uint256",
          "name": "dStableValue",
          "type": "uint256"
        }
      ],
      "stateMutability": "view",
      "type": "function"
    },
    {
      "inputs": [
        {
          "internalType": "address",
          "name": "strategyShare",
          "type": "address"
        },
        {
          "internalType": "uint256",
          "name": "amount",
          "type": "uint256"
        },
        {
          "internalType": "address",
          "name": "recipient",
          "type": "address"
        }
      ],
      "name": "transferStrategyShares",
      "outputs": [],
      "stateMutability": "nonpayable",
      "type": "function"
    },
    {
      "stateMutability": "payable",
      "type": "receive"
    }
  ],
  "transactionHash": "0xd9f5a61bbfa81f4ed8d60ea971ec13b8186d75eff1ace36f7d460960bcfd03cd",
  "args": [
    "0x3970c491976C52923cf8706d9076d9165aa3B8C2",
    "0xB1d9bB4090C1004E13EDAD898C84A1c1dc7cf95F"
  ],
  "numDeployments": 1,
  "solcInputHash": "4d872c1ad7b03047ea4304286e3eac06",
  "bytecode": "0x60c0346100c757601f620012db38819003918201601f19168301916001600160401b038311848410176100cc5780849260409485528339810103126100c757610053602061004c836100e2565b92016100e2565b60018055906001600160a01b03808216159081156100bc575b506100aa5760805260a052610080336100f6565b50604051611154908162000187823960805181610793015260a0518181816101b201526109250152f35b60405163d92e233d60e01b8152600490fd5b90508216153861006c565b600080fd5b634e487b7160e01b600052604160045260246000fd5b51906001600160a01b03821682036100c757565b6001600160a01b031660008181527fad3228b676f7d3cd4284a5443f17f1962b36e491b30a40b2405849e597ba5fb5602052604081205490919060ff1661018257818052816020526040822081835260205260408220600160ff1982541617905533917f2f8788117e7eff1d82e926ec794901d17c78024a50270940304540a733656f0d8180a4600190565b509056fe6080604081815260049182361015610022575b505050361561002057600080fd5b005b600092833560e01c91826301ffc9a714610a5f57508163099a04e5146109545781630cc2f8d21461091057816316ddcae714610885578163248a9ca31461085b5781632f2ff15d1461083157816330d643b51461080857816336568abe146107c257816338ff92e6146105c35781635c47df421461077e57816376d4eb58146106c2578163820a11871461062c57816391d14854146105e6578163989a5e67146105c3578163a217fddf146105a8578163bbf553681461056f578163c0d78655146104c8578163d547741f14610489578163e015e70614610256578163e5711e8b14610144575063f887ea40146101195780610012565b3461014057816003193601126101405760025490516001600160a01b039091168152602090f35b5080fd5b9050346102525760603660031901126102525761015f610ab2565b91610168610acd565b9060443591610175610b17565b61017d6110db565b6001600160a01b03818116959094908615610243578516946101ac866000526004602052604060002054151590565b61022c577f0000000000000000000000000000000000000000000000000000000000000000168514610215575091602091610209827f4143f7b5cb6ea007914c32b8a3e64cebc051d7f493fa0755454da1e47701e1259587610ed1565b51908152a36001805580f35b82516341d6bb6960e01b8152908101859052602490fd5b83516341d6bb6960e01b8152808301879052602490fd5b50825163d92e233d60e01b8152fd5b8280fd5b9190503461025257826003193601126102525790826003548160018060a01b038060025416925b80831061028e576020888851908152f35b8161029c8498969798610e3e565b90549060031b1c16958551986370a0823160e01b8a5230898b0152602060249a81818d818d5afa90811561047f578491610452575b508015610442578851630b4da09f60e41b8152808c018b905282818e818c5afa9081156104385790879186916103fa575b50168061031f57895163d4fcdee560e01b8152808d018c90528d90fd5b8951630147414360e31b81526001600160a01b03909b168b8d019081526020810192909252979b969a9899959794969395929491929183918391908290819060400103915afa9182156103f05785926103be575b505082018092116103ad5750955b600019811461039a57600101919692909394959661027d565b634e487b7160e01b825260118552602482fd5b634e487b7160e01b83526011865282fd5b90809250813d83116103e9575b6103d58183610e06565b810103126103e557513880610373565b8380fd5b503d6103cb565b89513d87823e3d90fd5b809250848092503d8311610431575b6104138183610e06565b8101031261042d5751868116810361042d57869038610302565b8480fd5b503d610409565b8a513d87823e3d90fd5b5050979596509193975091610381565b90508181813d8311610478575b6104698183610e06565b810103126103e55751386102d1565b503d61045f565b89513d86823e3d90fd5b919050346102525780600319360112610252576104c491356104bf60016104ae610acd565b938387528660205286200154610bb9565b610d91565b5080f35b905034610252576020366003190112610252576104e3610ab2565b906104ec610b17565b6001600160a01b0382811693909190841561056257505090610518916002541680610552575b50610bdf565b50600280546001600160a01b031916821790557fc6b438e6a8a59579ce6a4406cbd203b740e0d47b458aae6596339bcd40c40d158280a280f35b61055b90610cf8565b5038610512565b5163d92e233d60e01b8152fd5b8284346105a55760203660031901126105a5575061058f60209235610e3e565b905491519160018060a01b039160031b1c168152f35b80fd5b50503461014057816003193601126101405751908152602090f35b83346105a5576105e36105d536610ae3565b916105de610b6f565b610e8b565b80f35b9050346102525781600319360112610252578160209360ff92610607610acd565b903582528186528282206001600160a01b039091168252855220549151911615158152f35b90503461025257602036600319011261025257610647610ab2565b61064f610b6f565b6001600160a01b031691821561056257610676836000526004602052604060002054151590565b6106ad57505061068581610f70565b507ffb1fc2923ce18ee4299e9b5148b4d36f2f75f80891e18fa33fcc72e0d215494c8280a280f35b9160249251916318a3cd8760e11b8352820152fd5b8284346105a557806003193601126105a5579080519182906003549182855260208095018093600384527fc2575a0e9e593c00f959f8c92f12db2869c3395a3b0502d05e2516446f71f85b90845b81811061076a5750505081610726910382610e06565b83519485948186019282875251809352850193925b82811061074a57505050500390f35b83516001600160a01b03168552869550938101939281019260010161073b565b825484529288019260019283019201610710565b505034610140578160031936011261014057517f00000000000000000000000000000000000000000000000000000000000000006001600160a01b03168152602090f35b8383346101405780600319360112610140576107dc610acd565b90336001600160a01b038316036107f957506104c4919235610d91565b5163334bd91960e11b81528390fd5b505034610140578160031936011261014057602090516000805160206110ff8339815191528152f35b919050346102525780600319360112610252576104c4913561085660016104ae610acd565b610c7f565b90503461025257602036600319011261025257816020936001923581528085522001549051908152f35b905034610252576020366003190112610252576108a0610ab2565b6108a8610b6f565b6001600160a01b0316600081815260046020526040902054909290156108fb5750506108d381610ff2565b507f33b42bdf6f0296af0be7bb6c0e2295b1822716a1b7a2de4a337b1e3d8962b5fc8280a280f35b9160249251916321db539f60e21b8352820152fd5b505034610140578160031936011261014057517f00000000000000000000000000000000000000000000000000000000000000006001600160a01b03168152602090f35b9190503461025257806003193601126102525761096f610ab2565b906024359161097c610b17565b6109846110db565b6001600160a01b038116938415610a51578580808087865af13d15610a4c573d67ffffffffffffffff8111610a39578451906109ca601f8201601f191660200183610e06565b81528760203d92013e5b15610a0c5750507fb3579861130e4da8bb7b87c54d2d139937f23bcd6e4ebed9e75d0f78ab1cc1189160209151908152a26001805580f35b8251635e0a829b60e01b81526001600160a01b039092169082019081526020810184905281906040010390fd5b634e487b7160e01b885260418352602488fd5b6109d4565b825163d92e233d60e01b8152fd5b849134610252576020366003190112610252573563ffffffff60e01b81168091036102525760209250637965db0b60e01b8114908115610aa1575b5015158152f35b6301ffc9a760e01b14905083610a9a565b600435906001600160a01b0382168203610ac857565b600080fd5b602435906001600160a01b0382168203610ac857565b6060906003190112610ac8576001600160a01b036004358181168103610ac85791602435916044359081168103610ac85790565b3360009081527fad3228b676f7d3cd4284a5443f17f1962b36e491b30a40b2405849e597ba5fb5602052604081205460ff1615610b515750565b6044906040519063e2517d3f60e01b82523360048301526024820152fd5b3360009081527fb5816a4d525ce17c45785e5fbae4518f6f00ef4e9d31d4d7bb129b76152ed32f60205260409020546000805160206110ff8339815191529060ff1615610b515750565b80600052600060205260406000203360005260205260ff6040600020541615610b515750565b6001600160a01b031660008181527fb5816a4d525ce17c45785e5fbae4518f6f00ef4e9d31d4d7bb129b76152ed32f60205260408120549091906000805160206110ff8339815191529060ff16610c7a57808352826020526040832082845260205260408320600160ff198254161790557f2f8788117e7eff1d82e926ec794901d17c78024a50270940304540a733656f0d339380a4600190565b505090565b9060009180835282602052604083209160018060a01b03169182845260205260ff60408420541615600014610c7a57808352826020526040832082845260205260408320600160ff198254161790557f2f8788117e7eff1d82e926ec794901d17c78024a50270940304540a733656f0d339380a4600190565b6001600160a01b031660008181527fb5816a4d525ce17c45785e5fbae4518f6f00ef4e9d31d4d7bb129b76152ed32f60205260408120549091906000805160206110ff8339815191529060ff1615610c7a5780835282602052604083208284526020526040832060ff1981541690557ff6391f5c32d9c69d2a47ea670b442974b53935d1edc7fd64eb21e047a839171b339380a4600190565b9060009180835282602052604083209160018060a01b03169182845260205260ff604084205416600014610c7a5780835282602052604083208284526020526040832060ff1981541690557ff6391f5c32d9c69d2a47ea670b442974b53935d1edc7fd64eb21e047a839171b339380a4600190565b90601f8019910116810190811067ffffffffffffffff821117610e2857604052565b634e487b7160e01b600052604160045260246000fd5b600354811015610e755760036000527fc2575a0e9e593c00f959f8c92f12db2869c3395a3b0502d05e2516446f71f85b0190600090565b634e487b7160e01b600052603260045260246000fd5b6001600160a01b03166000818152600460205260409020549093929015610eb857610eb69293610ed1565b565b6040516321db539f60e21b815260048101859052602490fd5b60405163a9059cbb60e01b60208083019182526001600160a01b039490941660248301526044808301959095529381529092600091610f11606482610e06565b519082855af115610f64576000513d610f5b57506001600160a01b0381163b155b610f395750565b604051635274afe760e01b81526001600160a01b039091166004820152602490fd5b60011415610f32565b6040513d6000823e3d90fd5b600081815260046020526040812054610fed5760035468010000000000000000811015610fd9579082610fc5610fae84600160409601600355610e3e565b819391549060031b91821b91600019901b19161790565b905560035492815260046020522055600190565b634e487b7160e01b82526041600452602482fd5b905090565b6000908082526004908160205260408320548015156000146110d557600019908082018181116110c257600354908382019182116110af5781810361107c575b50505060035480156110695781019061104a82610e3e565b909182549160031b1b1916905560035582526020526040812055600190565b634e487b7160e01b855260318452602485fd5b61109a61108b610fae93610e3e565b90549060031b1c928392610e3e565b90558552836020526040852055388080611032565b634e487b7160e01b875260118652602487fd5b634e487b7160e01b865260118552602486fd5b50505090565b6002600154146110ec576002600155565b604051633ee5aeb560e01b8152600490fdfe7a05a596cb0ce7fdea8a1e1ec73be300bdb35097c944ce1897202f7a13122eb2a2646970667358221220b72a07adf972e838664f4d9723165cd5926c4869a2e1a39342d4569245f015b664736f6c63430008140033"
}