{
  "address": "0x48D6A00056a652Da57116704Be65a9203D490DE3",
  "abi": [
    {
      "inputs": [
        {
          "internalType": "contract IPriceOracleGetter",
          "name": "_oracle",
          "type": "address"
        },
        {
          "internalType": "contract AmoDebtToken",
          "name": "_debtToken",
          "type": "address"
        },
        {
          "internalType": "contract IMintableERC20",
          "name": "_dstable",
          "type": "address"
        },
        {
          "internalType": "address",
          "name": "_collateralVault",
          "type": "address"
        }
      ],
      "stateMutability": "nonpayable",
      "type": "constructor"
    },
    {
      "inputs": [],
      "name": "AccessControlBadConfirmation",
      "type": "error"
    },
    {
      "inputs": [
        {
          "internalType": "address",
          "name": "account",
          "type": "address"
        },
        {
          "internalType": "bytes32",
          "name": "neededRole",
          "type": "bytes32"
        }
      ],
      "name": "AccessControlUnauthorizedAccount",
      "type": "error"
    },
    {
      "inputs": [],
      "name": "DebtTokenProhibited",
      "type": "error"
    },
    {
      "inputs": [
        {
          "internalType": "uint256",
          "name": "baseCurrencyUnit",
          "type": "uint256"
        }
      ],
      "name": "IncorrectBaseCurrencyUnit",
      "type": "error"
    },
    {
      "inputs": [
        {
          "internalType": "uint256",
          "name": "pre",
          "type": "uint256"
        },
        {
          "internalType": "uint256",
          "name": "post",
          "type": "uint256"
        }
      ],
      "name": "InvariantViolation",
      "type": "error"
    },
    {
      "inputs": [
        {
          "internalType": "address",
          "name": "asset",
          "type": "address"
        },
        {
          "internalType": "uint256",
          "name": "price",
          "type": "uint256"
        },
        {
          "internalType": "uint256",
          "name": "baseUnit",
          "type": "uint256"
        },
        {
          "internalType": "uint256",
          "name": "maxDeviationBps",
          "type": "uint256"
        }
      ],
      "name": "PegDeviationExceeded",
      "type": "error"
    },
    {
      "inputs": [
        {
          "internalType": "uint256",
          "name": "requested",
          "type": "uint256"
        },
        {
          "internalType": "uint256",
          "name": "maxAllowed",
          "type": "uint256"
        }
      ],
      "name": "PegDeviationOutOfRange",
      "type": "error"
    },
    {
      "inputs": [],
      "name": "ReentrancyGuardReentrantCall",
      "type": "error"
    },
    {
      "inputs": [
        {
          "internalType": "address",
          "name": "token",
          "type": "address"
        }
      ],
      "name": "SafeERC20FailedOperation",
      "type": "error"
    },
    {
      "inputs": [
        {
          "internalType": "uint256",
          "name": "actualDebtBurned",
          "type": "uint256"
        },
        {
          "internalType": "uint256",
          "name": "maxDebtBurned",
          "type": "uint256"
        }
      ],
      "name": "SlippageDebtBurnTooHigh",
      "type": "error"
    },
    {
      "inputs": [
        {
          "internalType": "uint256",
          "name": "actualDebtMinted",
          "type": "uint256"
        },
        {
          "internalType": "uint256",
          "name": "minDebtMinted",
          "type": "uint256"
        }
      ],
      "name": "SlippageDebtMintTooLow",
      "type": "error"
    },
    {
      "inputs": [
        {
          "internalType": "address",
          "name": "wallet",
          "type": "address"
        }
      ],
      "name": "UnsupportedAmoWallet",
      "type": "error"
    },
    {
      "inputs": [
        {
          "internalType": "address",
          "name": "asset",
          "type": "address"
        }
      ],
      "name": "UnsupportedCollateral",
      "type": "error"
    },
    {
      "inputs": [
        {
          "internalType": "address",
          "name": "vault",
          "type": "address"
        }
      ],
      "name": "UnsupportedVault",
      "type": "error"
    },
    {
      "anonymous": false,
      "inputs": [
        {
          "indexed": true,
          "internalType": "address",
          "name": "wallet",
          "type": "address"
        },
        {
          "indexed": false,
          "internalType": "bool",
          "name": "allowed",
          "type": "bool"
        }
      ],
      "name": "AmoWalletAllowedSet",
      "type": "event"
    },
    {
      "anonymous": false,
      "inputs": [
        {
          "indexed": true,
          "internalType": "address",
          "name": "vault",
          "type": "address"
        },
        {
          "indexed": true,
          "internalType": "address",
          "name": "wallet",
          "type": "address"
        },
        {
          "indexed": true,
          "internalType": "address",
          "name": "asset",
          "type": "address"
        },
        {
          "indexed": false,
          "internalType": "uint256",
          "name": "collateralAmount",
          "type": "uint256"
        },
        {
          "indexed": false,
          "internalType": "uint256",
          "name": "debtMinted",
          "type": "uint256"
        }
      ],
      "name": "Borrowed",
      "type": "event"
    },
    {
      "anonymous": false,
      "inputs": [
        {
          "indexed": true,
          "internalType": "address",
          "name": "oldVault",
          "type": "address"
        },
        {
          "indexed": true,
          "internalType": "address",
          "name": "newVault",
          "type": "address"
        }
      ],
      "name": "CollateralVaultSet",
      "type": "event"
    },
    {
      "anonymous": false,
      "inputs": [
        {
          "indexed": true,
          "internalType": "address",
          "name": "newOracle",
          "type": "address"
        }
      ],
      "name": "OracleSet",
      "type": "event"
    },
    {
      "anonymous": false,
      "inputs": [
        {
          "indexed": false,
          "internalType": "uint256",
          "name": "oldDeviationBps",
          "type": "uint256"
        },
        {
          "indexed": false,
          "internalType": "uint256",
          "name": "newDeviationBps",
          "type": "uint256"
        }
      ],
      "name": "PegDeviationBpsSet",
      "type": "event"
    },
    {
      "anonymous": false,
      "inputs": [
        {
          "indexed": true,
          "internalType": "address",
          "name": "vault",
          "type": "address"
        },
        {
          "indexed": true,
          "internalType": "address",
          "name": "wallet",
          "type": "address"
        },
        {
          "indexed": true,
          "internalType": "address",
          "name": "asset",
          "type": "address"
        },
        {
          "indexed": false,
          "internalType": "uint256",
          "name": "collateralAmount",
          "type": "uint256"
        },
        {
          "indexed": false,
          "internalType": "uint256",
          "name": "debtBurned",
          "type": "uint256"
        }
      ],
      "name": "Repaid",
      "type": "event"
    },
    {
      "anonymous": false,
      "inputs": [
        {
          "indexed": true,
          "internalType": "bytes32",
          "name": "role",
          "type": "bytes32"
        },
        {
          "indexed": true,
          "internalType": "bytes32",
          "name": "previousAdminRole",
          "type": "bytes32"
        },
        {
          "indexed": true,
          "internalType": "bytes32",
          "name": "newAdminRole",
          "type": "bytes32"
        }
      ],
      "name": "RoleAdminChanged",
      "type": "event"
    },
    {
      "anonymous": false,
      "inputs": [
        {
          "indexed": true,
          "internalType": "bytes32",
          "name": "role",
          "type": "bytes32"
        },
        {
          "indexed": true,
          "internalType": "address",
          "name": "account",
          "type": "address"
        },
        {
          "indexed": true,
          "internalType": "address",
          "name": "sender",
          "type": "address"
        }
      ],
      "name": "RoleGranted",
      "type": "event"
    },
    {
      "anonymous": false,
      "inputs": [
        {
          "indexed": true,
          "internalType": "bytes32",
          "name": "role",
          "type": "bytes32"
        },
        {
          "indexed": true,
          "internalType": "address",
          "name": "account",
          "type": "address"
        },
        {
          "indexed": true,
          "internalType": "address",
          "name": "sender",
          "type": "address"
        }
      ],
      "name": "RoleRevoked",
      "type": "event"
    },
    {
      "anonymous": false,
      "inputs": [
        {
          "indexed": false,
          "internalType": "uint256",
          "name": "oldTolerance",
          "type": "uint256"
        },
        {
          "indexed": false,
          "internalType": "uint256",
          "name": "newTolerance",
          "type": "uint256"
        }
      ],
      "name": "ToleranceSet",
      "type": "event"
    },
    {
      "inputs": [],
      "name": "AMO_DECREASE_ROLE",
      "outputs": [
        {
          "internalType": "bytes32",
          "name": "",
          "type": "bytes32"
        }
      ],
      "stateMutability": "view",
      "type": "function"
    },
    {
      "inputs": [],
      "name": "AMO_INCREASE_ROLE",
      "outputs": [
        {
          "internalType": "bytes32",
          "name": "",
          "type": "bytes32"
        }
      ],
      "stateMutability": "view",
      "type": "function"
    },
    {
      "inputs": [],
      "name": "DEFAULT_ADMIN_ROLE",
      "outputs": [
        {
          "internalType": "bytes32",
          "name": "",
          "type": "bytes32"
        }
      ],
      "stateMutability": "view",
      "type": "function"
    },
    {
      "inputs": [],
      "name": "baseCurrencyUnit",
      "outputs": [
        {
          "internalType": "uint256",
          "name": "",
          "type": "uint256"
        }
      ],
      "stateMutability": "view",
      "type": "function"
    },
    {
      "inputs": [
        {
          "internalType": "uint256",
          "name": "baseValue",
          "type": "uint256"
        }
      ],
      "name": "baseToDebtUnits",
      "outputs": [
        {
          "internalType": "uint256",
          "name": "",
          "type": "uint256"
        }
      ],
      "stateMutability": "view",
      "type": "function"
    },
    {
      "inputs": [
        {
          "internalType": "address",
          "name": "wallet",
          "type": "address"
        },
        {
          "internalType": "address",
          "name": "asset",
          "type": "address"
        },
        {
          "internalType": "uint256",
          "name": "amount",
          "type": "uint256"
        },
        {
          "internalType": "uint256",
          "name": "minDebtMinted",
          "type": "uint256"
        }
      ],
      "name": "borrowTo",
      "outputs": [],
      "stateMutability": "nonpayable",
      "type": "function"
    },
    {
      "inputs": [],
      "name": "collateralVault",
      "outputs": [
        {
          "internalType": "address",
          "name": "",
          "type": "address"
        }
      ],
      "stateMutability": "view",
      "type": "function"
    },
    {
      "inputs": [],
      "name": "debtToken",
      "outputs": [
        {
          "internalType": "contract AmoDebtToken",
          "name": "",
          "type": "address"
        }
      ],
      "stateMutability": "view",
      "type": "function"
    },
    {
      "inputs": [
        {
          "internalType": "uint256",
          "name": "amount",
          "type": "uint256"
        },
        {
          "internalType": "address",
          "name": "wallet",
          "type": "address"
        }
      ],
      "name": "decreaseAmoSupply",
      "outputs": [],
      "stateMutability": "nonpayable",
      "type": "function"
    },
    {
      "inputs": [],
      "name": "dstable",
      "outputs": [
        {
          "internalType": "contract IMintableERC20",
          "name": "",
          "type": "address"
        }
      ],
      "stateMutability": "view",
      "type": "function"
    },
    {
      "inputs": [
        {
          "internalType": "uint256",
          "name": "dstableAmount",
          "type": "uint256"
        }
      ],
      "name": "dstableAmountToBaseValue",
      "outputs": [
        {
          "internalType": "uint256",
          "name": "",
          "type": "uint256"
        }
      ],
      "stateMutability": "view",
      "type": "function"
    },
    {
      "inputs": [],
      "name": "getAllowedAmoWallets",
      "outputs": [
        {
          "internalType": "address[]",
          "name": "",
          "type": "address[]"
        }
      ],
      "stateMutability": "view",
      "type": "function"
    },
    {
      "inputs": [],
      "name": "getAllowedAmoWalletsLength",
      "outputs": [
        {
          "internalType": "uint256",
          "name": "",
          "type": "uint256"
        }
      ],
      "stateMutability": "view",
      "type": "function"
    },
    {
      "inputs": [
        {
          "internalType": "bytes32",
          "name": "role",
          "type": "bytes32"
        }
      ],
      "name": "getRoleAdmin",
      "outputs": [
        {
          "internalType": "bytes32",
          "name": "",
          "type": "bytes32"
        }
      ],
      "stateMutability": "view",
      "type": "function"
    },
    {
      "inputs": [
        {
          "internalType": "bytes32",
          "name": "role",
          "type": "bytes32"
        },
        {
          "internalType": "address",
          "name": "account",
          "type": "address"
        }
      ],
      "name": "grantRole",
      "outputs": [],
      "stateMutability": "nonpayable",
      "type": "function"
    },
    {
      "inputs": [
        {
          "internalType": "bytes32",
          "name": "role",
          "type": "bytes32"
        },
        {
          "internalType": "address",
          "name": "account",
          "type": "address"
        }
      ],
      "name": "hasRole",
      "outputs": [
        {
          "internalType": "bool",
          "name": "",
          "type": "bool"
        }
      ],
      "stateMutability": "view",
      "type": "function"
    },
    {
      "inputs": [
        {
          "internalType": "uint256",
          "name": "amount",
          "type": "uint256"
        },
        {
          "internalType": "address",
          "name": "wallet",
          "type": "address"
        }
      ],
      "name": "increaseAmoSupply",
      "outputs": [],
      "stateMutability": "nonpayable",
      "type": "function"
    },
    {
      "inputs": [
        {
          "internalType": "address",
          "name": "wallet",
          "type": "address"
        }
      ],
      "name": "isAmoWalletAllowed",
      "outputs": [
        {
          "internalType": "bool",
          "name": "",
          "type": "bool"
        }
      ],
      "stateMutability": "view",
      "type": "function"
    },
    {
      "inputs": [],
      "name": "oracle",
      "outputs": [
        {
          "internalType": "contract IPriceOracleGetter",
          "name": "",
          "type": "address"
        }
      ],
      "stateMutability": "view",
      "type": "function"
    },
    {
      "inputs": [],
      "name": "pegDeviationBps",
      "outputs": [
        {
          "internalType": "uint256",
          "name": "",
          "type": "uint256"
        }
      ],
      "stateMutability": "view",
      "type": "function"
    },
    {
      "inputs": [
        {
          "internalType": "bytes32",
          "name": "role",
          "type": "bytes32"
        },
        {
          "internalType": "address",
          "name": "callerConfirmation",
          "type": "address"
        }
      ],
      "name": "renounceRole",
      "outputs": [],
      "stateMutability": "nonpayable",
      "type": "function"
    },
    {
      "inputs": [
        {
          "internalType": "address",
          "name": "wallet",
          "type": "address"
        },
        {
          "internalType": "address",
          "name": "asset",
          "type": "address"
        },
        {
          "internalType": "uint256",
          "name": "amount",
          "type": "uint256"
        },
        {
          "internalType": "uint256",
          "name": "maxDebtBurned",
          "type": "uint256"
        }
      ],
      "name": "repayFrom",
      "outputs": [],
      "stateMutability": "nonpayable",
      "type": "function"
    },
    {
      "inputs": [
        {
          "internalType": "address",
          "name": "wallet",
          "type": "address"
        },
        {
          "internalType": "address",
          "name": "asset",
          "type": "address"
        },
        {
          "internalType": "uint256",
          "name": "amount",
          "type": "uint256"
        },
        {
          "internalType": "uint256",
          "name": "maxDebtBurned",
          "type": "uint256"
        },
        {
          "internalType": "uint256",
          "name": "deadline",
          "type": "uint256"
        },
        {
          "internalType": "uint8",
          "name": "v",
          "type": "uint8"
        },
        {
          "internalType": "bytes32",
          "name": "r",
          "type": "bytes32"
        },
        {
          "internalType": "bytes32",
          "name": "s",
          "type": "bytes32"
        }
      ],
      "name": "repayWithPermit",
      "outputs": [],
      "stateMutability": "nonpayable",
      "type": "function"
    },
    {
      "inputs": [
        {
          "internalType": "bytes32",
          "name": "role",
          "type": "bytes32"
        },
        {
          "internalType": "address",
          "name": "account",
          "type": "address"
        }
      ],
      "name": "revokeRole",
      "outputs": [],
      "stateMutability": "nonpayable",
      "type": "function"
    },
    {
      "inputs": [
        {
          "internalType": "address",
          "name": "wallet",
          "type": "address"
        },
        {
          "internalType": "bool",
          "name": "allowed",
          "type": "bool"
        }
      ],
      "name": "setAmoWalletAllowed",
      "outputs": [],
      "stateMutability": "nonpayable",
      "type": "function"
    },
    {
      "inputs": [
        {
          "internalType": "uint256",
          "name": "_newBaseCurrencyUnit",
          "type": "uint256"
        }
      ],
      "name": "setBaseCurrencyUnit",
      "outputs": [],
      "stateMutability": "nonpayable",
      "type": "function"
    },
    {
      "inputs": [
        {
          "internalType": "address",
          "name": "newVault",
          "type": "address"
        }
      ],
      "name": "setCollateralVault",
      "outputs": [],
      "stateMutability": "nonpayable",
      "type": "function"
    },
    {
      "inputs": [
        {
          "internalType": "contract IPriceOracleGetter",
          "name": "newOracle",
          "type": "address"
        }
      ],
      "name": "setOracle",
      "outputs": [],
      "stateMutability": "nonpayable",
      "type": "function"
    },
    {
      "inputs": [
        {
          "internalType": "uint256",
          "name": "newPegDeviationBps",
          "type": "uint256"
        }
      ],
      "name": "setPegDeviationBps",
      "outputs": [],
      "stateMutability": "nonpayable",
      "type": "function"
    },
    {
      "inputs": [
        {
          "internalType": "uint256",
          "name": "newTolerance",
          "type": "uint256"
        }
      ],
      "name": "setTolerance",
      "outputs": [],
      "stateMutability": "nonpayable",
      "type": "function"
    },
    {
      "inputs": [
        {
          "internalType": "bytes4",
          "name": "interfaceId",
          "type": "bytes4"
        }
      ],
      "name": "supportsInterface",
      "outputs": [
        {
          "internalType": "bool",
          "name": "",
          "type": "bool"
        }
      ],
      "stateMutability": "view",
      "type": "function"
    },
    {
      "inputs": [],
      "name": "tolerance",
      "outputs": [
        {
          "internalType": "uint256",
          "name": "",
          "type": "uint256"
        }
      ],
      "stateMutability": "view",
      "type": "function"
    },
    {
      "inputs": [],
      "name": "totalDebtSupply",
      "outputs": [
        {
          "internalType": "uint256",
          "name": "",
          "type": "uint256"
        }
      ],
      "stateMutability": "view",
      "type": "function"
    }
  ],
  "transactionHash": "0xbdd48c13d40c92a74fa6750d676c90434504f62f25b2209b4ce9a99c81041df6",
  "args": [
    "0xe379F8461A28e26956D7afe7CA9BB1c873d34A43",
    "0xFF03664eA4D079Cc0AeAc0b8eBB18BD669Af26F3",
    "0xB1d9bB4090C1004E13EDAD898C84A1c1dc7cf95F",
    "0x3135BC29dc715a70cd89dfA3576c070149E1e974"
  ],
  "numDeployments": 2,
  "solcInputHash": "e67ff5144bb5272c1ab52ba847b7942e",
  "bytecode": "0x60c060409080825234620001ca5760808162002a278038038091620000258285620001cf565b833981010312620001ca5780516001600160a01b039182821691829003620001ca5760208101518381168103620001ca5784820151918483168303620001ca5760600151938416809403620001ca578451638c89b64f60e01b8152602081600481875afa908115620001bf5760009162000185575b50600180546001600160a01b03199081169095179055600255620000be3362000209565b50600160035560805260a052600160075561271060085581156200016e576004541617600455620000ef3362000209565b50620000fa6200029a565b5161258890816200049f82396080518181816101e1015281816102370152818161044e01528181610ca80152818161106f01528181611405015281816118100152818161202b0152612454015260a0518181816109a601528181610cf701528181611450015281816121f0015261242c0152f35b506024915190635e10ffb360e01b82526004820152fd5b906020823d8211620001b6575b81620001a160209383620001cf565b81010312620001b3575051386200009a565b80fd5b3d915062000192565b86513d6000823e3d90fd5b600080fd5b601f909101601f19168101906001600160401b03821190821017620001f357604052565b634e487b7160e01b600052604160045260246000fd5b6001600160a01b031660008181527fad3228b676f7d3cd4284a5443f17f1962b36e491b30a40b2405849e597ba5fb5602052604081205490919060ff166200029657818052816020526040822081835260205260408220600160ff1982541617905533917f2f8788117e7eff1d82e926ec794901d17c78024a50270940304540a733656f0d8180a4600190565b5090565b6008548015620002cc57620002ca9060018060a01b03620002c0828260a05116620002f3565b60805116620002f3565b565b50565b91908203918211620002dd57565b634e487b7160e01b600052601160045260246000fd5b60025460015460405163b3596f0760e01b81526001600160a01b03938416600482018190529493909160209183916024918391165afa908115620003d857600091620003a1575b508181106200038f57826200035b83620003558185620002cf565b620003e4565b11620003675750505050565b6084945060405193630907397b60e21b85526004850152602484015260448301526064820152fd5b826200035b83620003558482620002cf565b906020823d8211620003cf575b81620003bd60209383620001cf565b81010312620001b3575051386200033a565b3d9150620003ae565b6040513d6000823e3d90fd5b620f424091600019838309928083029283808610950394808603951462000479578483111562000460579082910981600003821680920460028082600302188083028203028083028203028083028203028083028203028083028203028092029003029360018380600003040190848311900302920304170290565b82634e487b71600052156003026011186020526024601cfd5b50508092501562000488570490565b634e487b7160e01b600052601260045260246000fdfe608060408181526004918236101561001657600080fd5b600092833560e01c91826301ffc9a714611ba8575081630bece79c14611b805781631921a00414611b035781631b57927a14611ae4578163248a9ca314611aba57816329d1ff7b146117935781632f2ff15d1461176957816336568abe146117235781633c5fd982146116ce5781633f4c555c146113a157816343ce5ecb14610ff35781634a0bbabb14610fd15781635e570c8014610c3b57816364192f2a14610c1b57816368a806c414610b945781637a96fa9514610b5a5781637adbf97314610a6a5781637dc0d1d014610a4157816391d14854146109fc57816391e5287b146109d557816397fe30ef146109915781639f7aee83146108f4578163a217fddf146108d9578163ac906e751461089e578163beab6e941461087f578163caf5a397146107c0578163d2c2e7c01461033d578163d547741f146102fa578163dce52dfa146102db578163f3bddde1146102bc578163f6300bf51461021057508063f8d89898146101cd5763fe1bf3241461019057600080fd5b346101c957816003193601126101c957602090517f855d04232aa491f9e84353b3958a225d6be593571f1d863256669b6e8229525d8152f35b5080fd5b50346101c957816003193601126101c957517f00000000000000000000000000000000000000000000000000000000000000006001600160a01b03168152602090f35b8383346101c957816003193601126101c95780516318160ddd60e01b8152926020908490817f00000000000000000000000000000000000000000000000000000000000000006001600160a01b03165afa9182156102b15791610278575b6020925051908152f35b90506020823d82116102a9575b8161029260209383611eb3565b810103126102a457602091519061026e565b600080fd5b3d9150610285565b9051903d90823e3d90fd5b5050346101c957816003193601126101c9576020906002549051908152f35b5050346101c957816003193601126101c9576020906007549051908152f35b919050346103395780600319360112610339576103359135610330600161031f611bfb565b938387528660205286200154611d70565b611e14565b5080f35b8280fd5b9050346103395761010036600319011261033957610359611c11565b91610362611bfb565b9060443560643560a4359560ff87168097036107bc57610380611cb8565b610388611f05565b6001600160a01b0385811697909690883b156107b85785519763d505accf60e01b89528a818516998a8582015260249330858301528860448301526084356064830152608482015260c43560a482015260e43560c482015281818d81835a9260e493f180156107ae57610796575b5050610400611cb8565b610408611f05565b888b5260209360068552878c20541561078057818454168c8951637d35e97760e11b81528d8782015287818781865afa9182156107755791610748575b501561073257827f00000000000000000000000000000000000000000000000000000000000000001691828d1461072257908d94939291610484612411565b8a516306a61f7560e51b808252909c9096898e8a81875afa9d8e1561071657819e6106e2575b508c5163e00cb4a560e01b8152808a018d81526001600160a01b039093166020840152918a90839081906040010381875afa9081156106d757906106a8575b6104f39150612015565b98808a1161068d5750898f93928f9261050b93611f28565b82865416803b15610339578a5163627160f360e11b815230818901908152602081018b90526001600160a01b03841660408201529091849183919082908490829060600103925af180156106835790839161066f575b5050803b156101c957818091858c5180948193630852cd8d60e31b83528d8c8401525af180156106655761064d575b5050835416978751928352848385818c5afa928315610643578c93610614575b50806105be60075485611ef8565b106105fb575050855194855250508201527f54d05ce5149ffe32f556bf78597c93c53f8a03ccaef629c485236f3e7c2229bb9190a4600160035580f35b8751638a21b25f60e01b81529384015282015260449150fd5b9092508481813d831161063c575b61062c8183611eb3565b810103126102a4575191386105b0565b503d610622565b88513d8e823e3d90fd5b61065690611e89565b610661578b38610590565b8b80fd5b8a513d84823e3d90fd5b61067890611e89565b6101c9578138610561565b8b513d85823e3d90fd5b87604491878c8f5193633288636560e01b8552840152820152fd5b508881813d83116106d0575b6106be8183611eb3565b810103126102a4576104f390516104e9565b503d6106b4565b8d51903d90823e3d90fd5b809d9e508a8092503d831161070f575b6106fc8183611eb3565b810103126102a4579a519b9a8f896104aa565b503d6106f2565b508c51903d90823e3d90fd5b895163c908adb560e01b81528690fd5b8851632762993f60e11b81528086018d90528490fd5b6107689150873d891161076e575b6107608183611eb3565b810190611fd3565b38610445565b503d610756565b8b51903d90823e3d90fd5b87516332184be360e21b81528085018b90528390fd5b61079f90611e89565b6107aa578a386103f6565b8a80fd5b89513d84823e3d90fd5b8980fd5b8780fd5b82843461087c578060031936011261087c579080519182906005549182855260208095018093600584527f036b6384b5eca791c62761152d0c79bb0604c104a5fb6f4eb0703f3154bb3db090845b8181106108685750505081610824910382611eb3565b83519485948186019282875251809352850193925b82811061084857505050500390f35b83516001600160a01b031685528695509381019392810192600101610839565b82548452928801926001928301920161080e565b80fd5b5050346101c957816003193601126101c9576020906005549051908152f35b5050346101c957816003193601126101c957602090517f9d6bad8599e4b9d405228287b23a6b0b8ce3cd1a8a88dd6f33fbba48615b4f558152f35b5050346101c957816003193601126101c95751908152602090f35b5050346101c957806003193601126101c95761090e611c11565b906024358015159283820361098d577f4d1bcba22909ed929b2123a5d5c9a270f58fb0db0ecd28fe603d90eaacb42f2d9260209261094a611c60565b15610975576109616001600160a01b0383166122aa565b505b519384526001600160a01b031692a280f35b6109876001600160a01b03831661232c565b50610963565b8480fd5b5050346101c957816003193601126101c957517f00000000000000000000000000000000000000000000000000000000000000006001600160a01b03168152602090f35b82843461087c57602036600319011261087c57506109f5602092356121da565b9051908152f35b90503461033957816003193601126103395781602093610a1a611bfb565b92358152808552209060018060a01b0316600052825260ff81600020541690519015158152f35b5050346101c957816003193601126101c95760015490516001600160a01b039091168152602090f35b9050346103395760203660031901126103395780356001600160a01b0381169290839003610b5657610a9a611c60565b8051638c89b64f60e01b8152906020828481875afa918215610b4c578592610b19575b50600254809203610b04575050600180546001600160a01b03191683179055507f3f32684a32a11dabdbb8c0177de80aa3ae36a004d75210335b49e544e48cd0aa8280a280f35b51639b6812b960e01b81529182015260249150fd5b9091506020813d8211610b44575b81610b3460209383611eb3565b810103126102a457519038610abd565b3d9150610b27565b81513d87823e3d90fd5b8380fd5b5050346101c95760203660031901126101c95760209181906001600160a01b03610b82611c11565b16815260068452205415159051908152f35b90503461033957602036600319011261033957610baf611c11565b90610bb8611c60565b6001600160a01b03918216928315610c05575080546001600160a01b031981168417909155167f2c9b4f5a59006f173f084ddbe758822a07431d43f4ef400a955472ddf8f91d0c8380a380f35b51635e10ffb360e01b8152908101839052602490fd5b82843461087c57602036600319011261087c57506109f560209235612015565b905034610339578160031936011261033957803591610c58611bfb565b90610c61611d14565b610c69611f05565b60018060a01b0391828116928360005260209360068552836000205415610fbb5750610c93612411565b610ca4610c9f876121da565b612015565b91817f000000000000000000000000000000000000000000000000000000000000000016888551986318160ddd60e01b93848b52888b8b81875afa968715610fb1578a9b849b999a9b98610f7b575b50867f000000000000000000000000000000000000000000000000000000000000000016968b8b51809b898252818b5afa998a15610f7157859a610f3e575b508c5416853b1561098d578a51631fa6592360e11b81526001600160a01b03909116818e01908152602081019290925290849082908190604001038183895af18015610f3457908491610f20575b5050853b156103395788516340c10f1960e01b81526001600160a01b03909116818c01908152602081019290925290829082908190604001038183895af18015610f1657918a959493918a93610ef6575b50508751948580928582525afa928315610eec579087918a94610ebb575b508887518094819382525afa958615610eb1578896610e7d575b5050610e2a92610e1f610c9f93610e2593611ed5565b95611ed5565b6121da565b9060075482610e398286611ef8565b10908115610e6a575b50610e505784600160035580f35b51638a21b25f60e01b815292830152602482015260449150fd5b610e75915083611ef8565b831138610e42565b908093929650813d8311610eaa575b610e968183611eb3565b810103126102a45790519382610e1f610e09565b503d610e8c565b85513d8a823e3d90fd5b8281939295503d8311610ee5575b610ed38183611eb3565b810103126102a4578690519238610def565b503d610ec9565b86513d8b823e3d90fd5b909250610f04919550611e89565b610f12578688938a38610dd1565b8880fd5b88513d84823e3d90fd5b610f2990611e89565b610339578238610d80565b8a513d86823e3d90fd5b8c80929b508196503d8311610f6a575b610f588183611eb3565b810103126102a4578c93519838610d32565b503d610f4e565b8b513d87823e3d90fd5b9350965096508882813d8311610faa575b610f968183611eb3565b810103126102a45789968b92519638610cf3565b503d610f8c565b88513d85823e3d90fd5b856024918551916332184be360e21b8352820152fd5b8390346101c95760203660031901126101c957610fec611c60565b3560025580f35b9050346103395761100336611c27565b61100f95929395611d14565b611017611f05565b60018060a01b038087169586895260209160068352858a20541561138a578082541696865199637d35e97760e11b8b528282169a8b8582015285816024818d5afa908115611380578d91611363575b501561134c57827f00000000000000000000000000000000000000000000000000000000000000001698898c1461133c57908c9392916110a4612411565b89519a6306a61f7560e51b95868d52888d8981865afa9c8d1561133057819d6112fc575b508b5163e00cb4a560e01b81528089018c81526001600160a01b03871660208201529091908a90839081906040010381875afa9081156106d757906112cd575b6111129150612015565b98808a106112b1575090818f9493923b1561098d578b51631fa6592360e11b81526001600160a01b03909216828901908152602081018b90528591839182908490829060400103925af180156112a757908491611293575b50508386541690813b15610b56578a5163627160f360e11b81526001600160a01b03918216818901908152602081018c90529190931660408201528391839182908490829060600103925af180156107ae5761127f575b5050825416968651918252838284818b5afa918215611275578b92611246575b50806111ef60075484611ef8565b1061122b5750508451938452508201527f8d2cf1d80f06f87e6690c4e9bbe4750f3f8affc42dea16d0d82687c849c4f4229190a4600160035580f35b8651638a21b25f60e01b815292830152602482015260449150fd5b9091508381813d831161126e575b61125e8183611eb3565b810103126102a4575190386111e1565b503d611254565b87513d8d823e3d90fd5b61128890611e89565b6107aa578a386111c1565b61129c90611e89565b61033957823861116a565b8b513d86823e3d90fd5b876044918b8e5192638ce27f3160e01b84528301526024820152fd5b508881813d83116112f5575b6112e38183611eb3565b810103126102a4576111129051611108565b503d6112d9565b809c9d50898092503d8311611329575b6113168183611eb3565b810103126102a45799519a998e846110c8565b503d61130c565b508b51903d90823e3d90fd5b885163c908adb560e01b81528590fd5b8751632762993f60e11b81528085018c9052602490fd5b61137a9150863d881161076e576107608183611eb3565b38611066565b89513d8f823e3d90fd5b85516332184be360e21b8152808301899052602490fd5b9050346103395781600319360112610339578035916113be611bfb565b6113c6611cb8565b6113ce611f05565b60018060a01b0390818116908187526020916006835284882054156116b857506113f6612411565b611402610c9f876121da565b837f000000000000000000000000000000000000000000000000000000000000000016888651986318160ddd60e01b93848b52868b8b81875afa9788156116ae578a9b8499611678575b50807f00000000000000000000000000000000000000000000000000000000000000001696888b51809d898252818b5afa9b8c15610f7157859c611643575b50836114999130908a611f28565b863b15610b56578951630852cd8d60e31b938482528d8201528481602481838c5af18015610f715790859161162f575b50508b5416803b15610b5657895163627160f360e11b815230818e01908152602081018490526001600160a01b03871660408201529091859183919082908490829060600103925af18015610f345790849161161b575b5050833b156103395788519182528a820152818160248183875af18015610f1657918a9594939187936115ff575b50508751948580928582525afa928315610eec579084918a946115ce575b508887518094819382525afa928315610eb157889361159c575b5050610c9f91610e1f610e2592610e2a95611ed5565b90809350813d83116115c7575b6115b38183611eb3565b810103126102a45790519082610e1f611586565b503d6115a9565b8281939295503d83116115f8575b6115e68183611eb3565b810103126102a457839051923861156c565b503d6115dc565b90925061160d919550611e89565b610f12578388938a3861154e565b61162490611e89565b610339578238611520565b61163890611e89565b610b565783386114c9565b8980929d508196503d8311611671575b61165d8183611eb3565b810103126102a4579251998c93908361148b565b503d611653565b9350975098508582813d83116116a7575b6116938183611eb3565b810103126102a45789988b9251973861144c565b503d611689565b89513d85823e3d90fd5b856024918651916332184be360e21b8352820152fd5b91905034610339576020366003190112610339577f5711bde41b4f4146c2148af54d749f794c7016f066897809f58d83b338bb6e03913561170d611c60565b600754908060075582519182526020820152a180f35b8383346101c957806003193601126101c95761173d611bfb565b90336001600160a01b0383160361175a5750610335919235611e14565b5163334bd91960e11b81528390fd5b91905034610339578060031936011261033957610335913561178e600161031f611bfb565b611d96565b905034610339576117a336611c27565b6117ae959295611cb8565b6117b6611f05565b60018060a01b03958685169586895260209160068352858a20541561138a5781548651637d35e97760e11b8152828b168185018190529a918216908581602481855afa908115611380578d91611a9d575b501561134c57817f00000000000000000000000000000000000000000000000000000000000000001690818c1461133c57611840612411565b8851998d6306a61f7560e51b95868d52888d8981875afa9c8d15611a9357829d611a60575b508b5163e00cb4a560e01b81528881018c81526001600160a01b03909216602083015291908990839081906040010381875afa908115611a555790611a22575b6118af9150612015565b97808911611a0657506118c49189918e611f28565b818454168c813b1561087c57895163627160f360e11b815230878201908152602081018a90526001600160a01b03851660408201529092839182908490829060600103925af18015611380576119f3575b50808c913b156101c95781809160248b5180948193630852cd8d60e31b83528c8b8401525af180156107ae576119df575b5050825416968651918252838284818b5afa918215611275578b926119b0575b508061197460075484611ef8565b1061122b5750508451938452508201527f54d05ce5149ffe32f556bf78597c93c53f8a03ccaef629c485236f3e7c2229bb9190a4600160035580f35b9091508381813d83116119d8575b6119c88183611eb3565b810103126102a457519038611966565b503d6119be565b6119e890611e89565b6107aa578a38611946565b6119ff909c919c611e89565b9a38611915565b866044918a8d5192633288636560e01b84528301526024820152fd5b508781813d8311611a4e575b611a388183611eb3565b81010312611a4a576118af90516118a5565b8e80fd5b503d611a2e565b8c51903d90823e3d90fd5b9b9c5090888c813d8311611a8c575b611a798183611eb3565b8101031261087c579a519b9a9088611865565b503d611a6f565b8c513d84823e3d90fd5b611ab49150863d881161076e576107608183611eb3565b38611807565b90503461033957602036600319011261033957816020936001923581528085522001549051908152f35b5050346101c957816003193601126101c9576020906008549051908152f35b8383346101c95760203660031901126101c9578235611b20611c60565b620f4240808211611b655750907fa7988e31f84de01a1549a4220748e0900a4584640effc2b72696fb8a4db88a0291600854908060085582519182526020820152a180f35b8491604493519263228a16b560e01b84528301526024820152fd5b9050346103395782600319360112610339575490516001600160a01b03909116815260209150f35b849134610339576020366003190112610339573563ffffffff60e01b81168091036103395760209250637965db0b60e01b8114908115611bea575b5015158152f35b6301ffc9a760e01b14905083611be3565b602435906001600160a01b03821682036102a457565b600435906001600160a01b03821682036102a457565b60809060031901126102a4576001600160a01b039060043582811681036102a4579160243590811681036102a457906044359060643590565b3360009081527fad3228b676f7d3cd4284a5443f17f1962b36e491b30a40b2405849e597ba5fb5602052604081205460ff1615611c9a5750565b6044906040519063e2517d3f60e01b82523360048301526024820152fd5b3360009081527f1c025d3a48b273ee95b866673d455ded2354b3fec99fd245da369c419654b09d60205260409020547f9d6bad8599e4b9d405228287b23a6b0b8ce3cd1a8a88dd6f33fbba48615b4f559060ff1615611c9a5750565b3360009081527fdd7f85de517f2aa32b3532e7e369f65c4c2e6dcda6cd3ec83972be7965ca7aa060205260409020547f855d04232aa491f9e84353b3958a225d6be593571f1d863256669b6e8229525d9060ff1615611c9a5750565b80600052600060205260406000203360005260205260ff6040600020541615611c9a5750565b9060009180835282602052604083209160018060a01b03169182845260205260ff60408420541615600014611e0f57808352826020526040832082845260205260408320600160ff198254161790557f2f8788117e7eff1d82e926ec794901d17c78024a50270940304540a733656f0d339380a4600190565b505090565b9060009180835282602052604083209160018060a01b03169182845260205260ff604084205416600014611e0f5780835282602052604083208284526020526040832060ff1981541690557ff6391f5c32d9c69d2a47ea670b442974b53935d1edc7fd64eb21e047a839171b339380a4600190565b67ffffffffffffffff8111611e9d57604052565b634e487b7160e01b600052604160045260246000fd5b90601f8019910116810190811067ffffffffffffffff821117611e9d57604052565b91908203918211611ee257565b634e487b7160e01b600052601160045260246000fd5b91908201809211611ee257565b600260035414611f16576002600355565b604051633ee5aeb560e01b8152600490fd5b6040516323b872dd60e01b602082019081526001600160a01b039384166024830152938316604482015260648082019590955293845292909160a082019067ffffffffffffffff821183831017611e9d57602092600092604052519082865af115611fc7576000513d611fbe57508082163b155b611fa4575050565b604051635274afe760e01b81529116600482015260249150fd5b60011415611f9c565b6040513d6000823e3d90fd5b908160209103126102a4575180151581036102a45790565b908160209103126102a4575160ff811681036102a45790565b60ff16604d8111611ee257600a0a90565b60405163313ce56760e01b8152906020826004817f00000000000000000000000000000000000000000000000000000000000000006001600160a01b03165afa918215611fc75761207b926120729160009161207e575b50612004565b60025491612163565b90565b61209f915060203d81116120a5575b6120978183611eb3565b810190611feb565b3861206c565b503d61208d565b620f424091600019838309928083029283808610950394808603951461213f5784831115612126579082910981600003821680920460028082600302188083028203028083028203028083028203028083028203028083028203028092029003029360018380600003040190848311900302920304170290565b82634e487b71600052156003026011186020526024601cfd5b50508092501561214d570490565b634e487b7160e01b600052601260045260246000fd5b9091600019838309928083029283808610950394808603951461213f5784831115612126579082910981600003821680920460028082600302188083028203028083028203028083028203028083028203028083028203028092029003029360018380600003040190848311900302920304170290565b60405163313ce56760e01b8152906020826004817f00000000000000000000000000000000000000000000000000000000000000006001600160a01b03165afa8015611fc75761207b9260009161223f575b5061223960025491612004565b91612163565b612257915060203d81116120a5576120978183611eb3565b3861222c565b6005548110156122945760056000527f036b6384b5eca791c62761152d0c79bb0604c104a5fb6f4eb0703f3154bb3db00190600090565b634e487b7160e01b600052603260045260246000fd5b60008181526006602052604081205461232757600554680100000000000000008110156123135790826122ff6122e88460016040960160055561225d565b819391549060031b91821b91600019901b19161790565b905560055492815260066020522055600190565b634e487b7160e01b82526041600452602482fd5b905090565b6000818152600660205260408120549091908015611e0f57600019908082018181116123fd57600554908382019182116123e9578181036123b5575b50505060055480156123a1578101906123808261225d565b909182549160031b1b19169055600555815260066020526040812055600190565b634e487b7160e01b84526031600452602484fd5b6123d36123c46122e89361225d565b90549060031b1c92839261225d565b9055845260066020526040842055388080612368565b634e487b7160e01b86526011600452602486fd5b634e487b7160e01b85526011600452602485fd5b600854801561247b57612479906001600160a01b03612452827f0000000000000000000000000000000000000000000000000000000000000000831661247e565b7f00000000000000000000000000000000000000000000000000000000000000001661247e565b565b50565b60025460015460405163b3596f0760e01b81526001600160a01b03938416600482018190529493909160209183916024918391165afa908115611fc757600091612521575b5081811061251257826124df836124da8185611ed5565b6120ac565b116124ea5750505050565b6084945060405193630907397b60e21b85526004850152602484015260448301526064820152fd5b826124df836124da8482611ed5565b906020823d821161254a575b8161253a60209383611eb3565b8101031261087c575051386124c3565b3d915061252d56fea2646970667358221220bd2de87c5855ba0fb7224e1c1eba079d83979bf6c56e96bc3d86dea19142f15d64736f6c63430008140033"
}