{
  "address": "0x9CE864a256635CD06B6731C699E74373D8062C05",
  "abi": [
    {
      "inputs": [
        {
          "internalType": "address",
          "name": "_baseCurrency",
          "type": "address"
        },
        {
          "internalType": "uint256",
          "name": "_baseCurrencyUnit",
          "type": "uint256"
        },
        {
          "internalType": "uint256",
          "name": "_pricePeg",
          "type": "uint256"
        }
      ],
      "stateMutability": "nonpayable",
      "type": "constructor"
    },
    {
      "inputs": [],
      "name": "BASE_CURRENCY",
      "outputs": [
        {
          "internalType": "address",
          "name": "",
          "type": "address"
        }
      ],
      "stateMutability": "view",
      "type": "function"
    },
    {
      "inputs": [],
      "name": "BASE_CURRENCY_UNIT",
      "outputs": [
        {
          "internalType": "uint256",
          "name": "",
          "type": "uint256"
        }
      ],
      "stateMutability": "view",
      "type": "function"
    },
    {
      "inputs": [
        {
          "internalType": "address",
          "name": "",
          "type": "address"
        }
      ],
      "name": "getAssetPrice",
      "outputs": [
        {
          "internalType": "uint256",
          "name": "",
          "type": "uint256"
        }
      ],
      "stateMutability": "view",
      "type": "function"
    },
    {
      "inputs": [
        {
          "internalType": "address",
          "name": "",
          "type": "address"
        }
      ],
      "name": "getPriceInfo",
      "outputs": [
        {
          "internalType": "uint256",
          "name": "price",
          "type": "uint256"
        },
        {
          "internalType": "bool",
          "name": "isAlive",
          "type": "bool"
        }
      ],
      "stateMutability": "view",
      "type": "function"
    },
    {
      "inputs": [],
      "name": "pricePeg",
      "outputs": [
        {
          "internalType": "uint256",
          "name": "",
          "type": "uint256"
        }
      ],
      "stateMutability": "view",
      "type": "function"
    }
  ],
  "transactionHash": "0x4c56320ad30e15152de9e4dbdcbeaebb870e7abca75c3806bf31212f2030f2e1",
  "args": [
    "0x0000000000000000000000000000000000000000",
    "1000000000000000000",
    "1000000000000000000"
  ],
  "numDeployments": 1,
  "solcInputHash": "2c165edb4979b88f24d7ea66b8494d21",
  "bytecode": "0x60e060405234801561001057600080fd5b506040516102a53803806102a583398101604081905261002f91610048565b6001600160a01b0390921660a05260c05260805261008b565b60008060006060848603121561005d57600080fd5b83516001600160a01b038116811461007457600080fd5b602085015160409095015190969495509392505050565b60805160a05160c0516101e06100c56000396000609b0152600061014001526000818160610152818160ce015261011901526101e06000f3fe608060405234801561001057600080fd5b50600436106100575760003560e01c80636af8ecae1461005c5780638c89b64f146100965780638edbf436146100bd578063b3596f0714610108578063e19f47001461013b575b600080fd5b6100837f000000000000000000000000000000000000000000000000000000000000000081565b6040519081526020015b60405180910390f35b6100837f000000000000000000000000000000000000000000000000000000000000000081565b6100f36100cb36600461017a565b507f000000000000000000000000000000000000000000000000000000000000000090600190565b6040805192835290151560208301520161008d565b61008361011636600461017a565b507f000000000000000000000000000000000000000000000000000000000000000090565b6101627f000000000000000000000000000000000000000000000000000000000000000081565b6040516001600160a01b03909116815260200161008d565b60006020828403121561018c57600080fd5b81356001600160a01b03811681146101a357600080fd5b939250505056fea2646970667358221220042c36e0090010007aa41610905e1ee3eea5eb7e93cf7821538a3ec5229d817564736f6c63430008160033",
  "devdoc": {
    "kind": "dev",
    "methods": {
      "getAssetPrice(address)": {
        "details": "Get the price of an asset"
      },
      "getPriceInfo(address)": {
        "details": "Get the price info of an asset"
      }
    },
    "stateVariables": {
      "BASE_CURRENCY": {
        "details": "Address 0x0 is commonly used for USD, but can be any token address based on the implementation.",
        "return": "Returns the base currency address.",
        "returns": {
          "_0": "Returns the base currency address."
        }
      },
      "BASE_CURRENCY_UNIT": {
        "details": "Represents the decimal precision of the base currency (e.g., 1e8 for USD, 1e18 for ETH).",
        "return": "Returns the base currency unit.",
        "returns": {
          "_0": "Returns the base currency unit."
        }
      }
    },
    "version": 1
  },
  "userdoc": {
    "kind": "user",
    "methods": {
      "BASE_CURRENCY()": {
        "notice": "Returns the base currency address"
      },
      "BASE_CURRENCY_UNIT()": {
        "notice": "Returns the base currency unit"
      }
    },
    "version": 1
  },
  "storageLayout": {
    "storage": [],
    "types": null
  }
}