{
  "address": "0xe379F8461A28e26956D7afe7CA9BB1c873d34A43",
  "abi": [
    {
      "inputs": [
        {
          "internalType": "address",
          "name": "_baseCurrency",
          "type": "address"
        },
        {
          "internalType": "uint256",
          "name": "_baseCurrencyUnit",
          "type": "uint256"
        }
      ],
      "stateMutability": "nonpayable",
      "type": "constructor"
    },
    {
      "inputs": [],
      "name": "AccessControlBadConfirmation",
      "type": "error"
    },
    {
      "inputs": [
        {
          "internalType": "address",
          "name": "account",
          "type": "address"
        },
        {
          "internalType": "bytes32",
          "name": "neededRole",
          "type": "bytes32"
        }
      ],
      "name": "AccessControlUnauthorizedAccount",
      "type": "error"
    },
    {
      "inputs": [
        {
          "internalType": "address",
          "name": "oracle",
          "type": "address"
        }
      ],
      "name": "OracleNotContract",
      "type": "error"
    },
    {
      "inputs": [
        {
          "internalType": "address",
          "name": "asset",
          "type": "address"
        }
      ],
      "name": "OracleNotSet",
      "type": "error"
    },
    {
      "inputs": [
        {
          "internalType": "address",
          "name": "asset",
          "type": "address"
        }
      ],
      "name": "PriceNotAlive",
      "type": "error"
    },
    {
      "inputs": [
        {
          "internalType": "address",
          "name": "asset",
          "type": "address"
        },
        {
          "internalType": "address",
          "name": "oracle",
          "type": "address"
        },
        {
          "internalType": "address",
          "name": "expectedBaseCurrency",
          "type": "address"
        },
        {
          "internalType": "address",
          "name": "oracleBaseCurrency",
          "type": "address"
        }
      ],
      "name": "UnexpectedBaseCurrency",
      "type": "error"
    },
    {
      "inputs": [
        {
          "internalType": "address",
          "name": "asset",
          "type": "address"
        },
        {
          "internalType": "address",
          "name": "oracle",
          "type": "address"
        },
        {
          "internalType": "uint256",
          "name": "expectedBaseUnit",
          "type": "uint256"
        },
        {
          "internalType": "uint256",
          "name": "oracleBaseUnit",
          "type": "uint256"
        }
      ],
      "name": "UnexpectedBaseUnit",
      "type": "error"
    },
    {
      "inputs": [
        {
          "internalType": "string",
          "name": "param",
          "type": "string"
        }
      ],
      "name": "ZeroAddress",
      "type": "error"
    },
    {
      "anonymous": false,
      "inputs": [
        {
          "indexed": true,
          "internalType": "address",
          "name": "asset",
          "type": "address"
        },
        {
          "indexed": true,
          "internalType": "address",
          "name": "oracle",
          "type": "address"
        }
      ],
      "name": "OracleUpdated",
      "type": "event"
    },
    {
      "anonymous": false,
      "inputs": [
        {
          "indexed": true,
          "internalType": "bytes32",
          "name": "role",
          "type": "bytes32"
        },
        {
          "indexed": true,
          "internalType": "bytes32",
          "name": "previousAdminRole",
          "type": "bytes32"
        },
        {
          "indexed": true,
          "internalType": "bytes32",
          "name": "newAdminRole",
          "type": "bytes32"
        }
      ],
      "name": "RoleAdminChanged",
      "type": "event"
    },
    {
      "anonymous": false,
      "inputs": [
        {
          "indexed": true,
          "internalType": "bytes32",
          "name": "role",
          "type": "bytes32"
        },
        {
          "indexed": true,
          "internalType": "address",
          "name": "account",
          "type": "address"
        },
        {
          "indexed": true,
          "internalType": "address",
          "name": "sender",
          "type": "address"
        }
      ],
      "name": "RoleGranted",
      "type": "event"
    },
    {
      "anonymous": false,
      "inputs": [
        {
          "indexed": true,
          "internalType": "bytes32",
          "name": "role",
          "type": "bytes32"
        },
        {
          "indexed": true,
          "internalType": "address",
          "name": "account",
          "type": "address"
        },
        {
          "indexed": true,
          "internalType": "address",
          "name": "sender",
          "type": "address"
        }
      ],
      "name": "RoleRevoked",
      "type": "event"
    },
    {
      "inputs": [],
      "name": "BASE_CURRENCY",
      "outputs": [
        {
          "internalType": "address",
          "name": "",
          "type": "address"
        }
      ],
      "stateMutability": "view",
      "type": "function"
    },
    {
      "inputs": [],
      "name": "BASE_CURRENCY_UNIT",
      "outputs": [
        {
          "internalType": "uint256",
          "name": "",
          "type": "uint256"
        }
      ],
      "stateMutability": "view",
      "type": "function"
    },
    {
      "inputs": [],
      "name": "DEFAULT_ADMIN_ROLE",
      "outputs": [
        {
          "internalType": "bytes32",
          "name": "",
          "type": "bytes32"
        }
      ],
      "stateMutability": "view",
      "type": "function"
    },
    {
      "inputs": [],
      "name": "ORACLE_MANAGER_ROLE",
      "outputs": [
        {
          "internalType": "bytes32",
          "name": "",
          "type": "bytes32"
        }
      ],
      "stateMutability": "view",
      "type": "function"
    },
    {
      "inputs": [
        {
          "internalType": "address",
          "name": "",
          "type": "address"
        }
      ],
      "name": "assetOracles",
      "outputs": [
        {
          "internalType": "address",
          "name": "",
          "type": "address"
        }
      ],
      "stateMutability": "view",
      "type": "function"
    },
    {
      "inputs": [],
      "name": "baseCurrency",
      "outputs": [
        {
          "internalType": "address",
          "name": "",
          "type": "address"
        }
      ],
      "stateMutability": "view",
      "type": "function"
    },
    {
      "inputs": [],
      "name": "baseCurrencyUnit",
      "outputs": [
        {
          "internalType": "uint256",
          "name": "",
          "type": "uint256"
        }
      ],
      "stateMutability": "view",
      "type": "function"
    },
    {
      "inputs": [
        {
          "internalType": "address",
          "name": "asset",
          "type": "address"
        }
      ],
      "name": "getAssetPrice",
      "outputs": [
        {
          "internalType": "uint256",
          "name": "",
          "type": "uint256"
        }
      ],
      "stateMutability": "view",
      "type": "function"
    },
    {
      "inputs": [
        {
          "internalType": "address",
          "name": "asset",
          "type": "address"
        }
      ],
      "name": "getPriceInfo",
      "outputs": [
        {
          "internalType": "uint256",
          "name": "price",
          "type": "uint256"
        },
        {
          "internalType": "bool",
          "name": "isAlive",
          "type": "bool"
        }
      ],
      "stateMutability": "view",
      "type": "function"
    },
    {
      "inputs": [
        {
          "internalType": "bytes32",
          "name": "role",
          "type": "bytes32"
        }
      ],
      "name": "getRoleAdmin",
      "outputs": [
        {
          "internalType": "bytes32",
          "name": "",
          "type": "bytes32"
        }
      ],
      "stateMutability": "view",
      "type": "function"
    },
    {
      "inputs": [
        {
          "internalType": "bytes32",
          "name": "role",
          "type": "bytes32"
        },
        {
          "internalType": "address",
          "name": "account",
          "type": "address"
        }
      ],
      "name": "grantRole",
      "outputs": [],
      "stateMutability": "nonpayable",
      "type": "function"
    },
    {
      "inputs": [
        {
          "internalType": "bytes32",
          "name": "role",
          "type": "bytes32"
        },
        {
          "internalType": "address",
          "name": "account",
          "type": "address"
        }
      ],
      "name": "hasRole",
      "outputs": [
        {
          "internalType": "bool",
          "name": "",
          "type": "bool"
        }
      ],
      "stateMutability": "view",
      "type": "function"
    },
    {
      "inputs": [
        {
          "internalType": "address",
          "name": "asset",
          "type": "address"
        }
      ],
      "name": "removeOracle",
      "outputs": [],
      "stateMutability": "nonpayable",
      "type": "function"
    },
    {
      "inputs": [
        {
          "internalType": "bytes32",
          "name": "role",
          "type": "bytes32"
        },
        {
          "internalType": "address",
          "name": "callerConfirmation",
          "type": "address"
        }
      ],
      "name": "renounceRole",
      "outputs": [],
      "stateMutability": "nonpayable",
      "type": "function"
    },
    {
      "inputs": [
        {
          "internalType": "bytes32",
          "name": "role",
          "type": "bytes32"
        },
        {
          "internalType": "address",
          "name": "account",
          "type": "address"
        }
      ],
      "name": "revokeRole",
      "outputs": [],
      "stateMutability": "nonpayable",
      "type": "function"
    },
    {
      "inputs": [
        {
          "internalType": "address",
          "name": "asset",
          "type": "address"
        },
        {
          "internalType": "address",
          "name": "oracle",
          "type": "address"
        }
      ],
      "name": "setOracle",
      "outputs": [],
      "stateMutability": "nonpayable",
      "type": "function"
    },
    {
      "inputs": [
        {
          "internalType": "bytes4",
          "name": "interfaceId",
          "type": "bytes4"
        }
      ],
      "name": "supportsInterface",
      "outputs": [
        {
          "internalType": "bool",
          "name": "",
          "type": "bool"
        }
      ],
      "stateMutability": "view",
      "type": "function"
    }
  ],
  "transactionHash": "0xce0ec87f938a02b205e1d660d9d7bfd3b1a144945bbc1bc64478e313b5efc8f5",
  "args": [
    "0x0000000000000000000000000000000000000000",
    "1000000000000000000"
  ],
  "numDeployments": 1,
  "solcInputHash": "2c165edb4979b88f24d7ea66b8494d21",
  "bytecode": "0x60c060405234801561001057600080fd5b50604051610cd8380380610cd883398101604081905261002f9161012b565b6001600160a01b03821660a052608081905261004c60003361007f565b506100777fced6982f480260bdd8ad5cb18ff2854f0306d78d904ad6cc107e8f3a0f526c183361007f565b505050610165565b6000828152602081815260408083206001600160a01b038516845290915281205460ff16610121576000838152602081815260408083206001600160a01b03861684529091529020805460ff191660011790556100d93390565b6001600160a01b0316826001600160a01b0316847f2f8788117e7eff1d82e926ec794901d17c78024a50270940304540a733656f0d60405160405180910390a4506001610125565b5060005b92915050565b6000806040838503121561013e57600080fd5b82516001600160a01b038116811461015557600080fd5b6020939093015192949293505050565b60805160a051610b246101b46000396000818161024b015281816102c4015281816107fe015261085c0152600081816101e7015281816102ed015281816108f901526109440152610b246000f3fe608060405234801561001057600080fd5b506004361061010b5760003560e01c806391d14854116100a2578063bfc69e1c11610071578063bfc69e1c14610288578063d547741f146102af578063e19f4700146102c2578063f3bddde1146102e8578063fdc85fc41461030f57600080fd5b806391d148541461023357806392a85fde14610246578063a217fddf1461026d578063b3596f071461027557600080fd5b806336568abe116100de57806336568abe146101bf5780635c38eb3a146101d25780638c89b64f146101e55780638edbf4361461020b57600080fd5b806301ffc9a714610110578063248a9ca3146101385780632b663986146101695780632f2ff15d146101aa575b600080fd5b61012361011e3660046109b4565b610322565b60405190151581526020015b60405180910390f35b61015b6101463660046109e5565b60009081526020819052604090206001015490565b60405190815260200161012f565b610192610177366004610a13565b6001602052600090815260409020546001600160a01b031681565b6040516001600160a01b03909116815260200161012f565b6101bd6101b8366004610a30565b610359565b005b6101bd6101cd366004610a30565b610384565b6101bd6101e0366004610a60565b6103bc565b7f000000000000000000000000000000000000000000000000000000000000000061015b565b61021e610219366004610a13565b610448565b6040805192835290151560208301520161012f565b610123610241366004610a30565b610508565b6101927f000000000000000000000000000000000000000000000000000000000000000081565b61015b600081565b61015b610283366004610a13565b610531565b61015b7fced6982f480260bdd8ad5cb18ff2854f0306d78d904ad6cc107e8f3a0f526c1881565b6101bd6102bd366004610a30565b610573565b7f0000000000000000000000000000000000000000000000000000000000000000610192565b61015b7f000000000000000000000000000000000000000000000000000000000000000081565b6101bd61031d366004610a13565b610598565b60006001600160e01b03198216637965db0b60e01b148061035357506301ffc9a760e01b6001600160e01b03198316145b92915050565b60008281526020819052604090206001015461037481610616565b61037e8383610623565b50505050565b6001600160a01b03811633146103ad5760405163334bd91960e11b815260040160405180910390fd5b6103b782826106b5565b505050565b7fced6982f480260bdd8ad5cb18ff2854f0306d78d904ad6cc107e8f3a0f526c186103e681610616565b6103f08383610720565b6001600160a01b0383811660008181526001602052604080822080546001600160a01b0319169487169485179055517f078c3b417dadf69374a59793b829c52001247130433427049317bde56607b1b79190a3505050565b6001600160a01b0380821660009081526001602052604081205490918291168061049557604051634bf9754b60e11b81526001600160a01b03851660048201526024015b60405180910390fd5b60405163476dfa1b60e11b81526001600160a01b038581166004830152821690638edbf436906024016040805180830381865afa1580156104da573d6000803e3d6000fd5b505050506040513d601f19601f820116820180604052508101906104fe9190610a8e565b9250925050915091565b6000918252602082815260408084206001600160a01b0393909316845291905290205460ff1690565b600080600061053f84610448565b915091508061056c5760405163118297e560e01b81526001600160a01b038516600482015260240161048c565b5092915050565b60008281526020819052604090206001015461058e81610616565b61037e83836106b5565b7fced6982f480260bdd8ad5cb18ff2854f0306d78d904ad6cc107e8f3a0f526c186105c281610616565b6001600160a01b03821660008181526001602052604080822080546001600160a01b0319169055519091907f078c3b417dadf69374a59793b829c52001247130433427049317bde56607b1b7908390a35050565b6106208133610977565b50565b600061062f8383610508565b6106ad576000838152602081815260408083206001600160a01b03861684529091529020805460ff191660011790556106653390565b6001600160a01b0316826001600160a01b0316847f2f8788117e7eff1d82e926ec794901d17c78024a50270940304540a733656f0d60405160405180910390a4506001610353565b506000610353565b60006106c18383610508565b156106ad576000838152602081815260408083206001600160a01b0386168085529252808320805460ff1916905551339286917ff6391f5c32d9c69d2a47ea670b442974b53935d1edc7fd64eb21e047a839171b9190a4506001610353565b6001600160a01b0381166107605760405163eac0d38960e01b81526020600482015260066024820152656f7261636c6560d01b604482015260640161048c565b806001600160a01b03163b6000036107965760405163f4993f4360e01b81526001600160a01b038216600482015260240161048c565b6000816001600160a01b031663e19f47006040518163ffffffff1660e01b8152600401602060405180830381865afa1580156107d6573d6000803e3d6000fd5b505050506040513d601f19601f820116820180604052508101906107fa9190610ab8565b90507f00000000000000000000000000000000000000000000000000000000000000006001600160a01b0316816001600160a01b031614610891576040516360e70fd160e01b81526001600160a01b03808516600483015280841660248301527f0000000000000000000000000000000000000000000000000000000000000000811660448301528216606482015260840161048c565b6000826001600160a01b0316638c89b64f6040518163ffffffff1660e01b8152600401602060405180830381865afa1580156108d1573d6000803e3d6000fd5b505050506040513d601f19601f820116820180604052508101906108f59190610ad5565b90507f0000000000000000000000000000000000000000000000000000000000000000811461037e5760405163ef09a31360e01b81526001600160a01b038086166004830152841660248201527f000000000000000000000000000000000000000000000000000000000000000060448201526064810182905260840161048c565b6109818282610508565b6109b05760405163e2517d3f60e01b81526001600160a01b03821660048201526024810183905260440161048c565b5050565b6000602082840312156109c657600080fd5b81356001600160e01b0319811681146109de57600080fd5b9392505050565b6000602082840312156109f757600080fd5b5035919050565b6001600160a01b038116811461062057600080fd5b600060208284031215610a2557600080fd5b81356109de816109fe565b60008060408385031215610a4357600080fd5b823591506020830135610a55816109fe565b809150509250929050565b60008060408385031215610a7357600080fd5b8235610a7e816109fe565b91506020830135610a55816109fe565b60008060408385031215610aa157600080fd5b8251915060208301518015158114610a5557600080fd5b600060208284031215610aca57600080fd5b81516109de816109fe565b600060208284031215610ae757600080fd5b505191905056fea264697066735822122011cc37f805ee8c7696517ec26583bab0b4faf8c495943315218ca5fafbe8918764736f6c63430008160033",
  "devdoc": {
    "details": "Implements IPriceOracleGetter for compatibility with Aave",
    "errors": {
      "AccessControlBadConfirmation()": [
        {
          "details": "The caller of a function is not the expected one. NOTE: Don't confuse with {AccessControlUnauthorizedAccount}."
        }
      ],
      "AccessControlUnauthorizedAccount(address,bytes32)": [
        {
          "details": "The `account` is missing a role."
        }
      ]
    },
    "events": {
      "RoleAdminChanged(bytes32,bytes32,bytes32)": {
        "details": "Emitted when `newAdminRole` is set as ``role``'s admin role, replacing `previousAdminRole` `DEFAULT_ADMIN_ROLE` is the starting admin for all roles, despite {RoleAdminChanged} not being emitted to signal this."
      },
      "RoleGranted(bytes32,address,address)": {
        "details": "Emitted when `account` is granted `role`. `sender` is the account that originated the contract call. This account bears the admin role (for the granted role). Expected in cases where the role was granted using the internal {AccessControl-_grantRole}."
      },
      "RoleRevoked(bytes32,address,address)": {
        "details": "Emitted when `account` is revoked `role`. `sender` is the account that originated the contract call:   - if using `revokeRole`, it is the admin role bearer   - if using `renounceRole`, it is the role bearer (i.e. `account`)"
      }
    },
    "kind": "dev",
    "methods": {
      "BASE_CURRENCY()": {
        "returns": {
          "_0": "Address representing the base currency"
        }
      },
      "BASE_CURRENCY_UNIT()": {
        "returns": {
          "_0": "Base currency unit (10^priceDecimals)"
        }
      },
      "constructor": {
        "params": {
          "_baseCurrency": "Address of the base currency",
          "_baseCurrencyUnit": "Number of decimal places for price values"
        }
      },
      "getAssetPrice(address)": {
        "params": {
          "asset": "Address of the asset"
        },
        "returns": {
          "_0": "Price of the asset"
        }
      },
      "getPriceInfo(address)": {
        "params": {
          "asset": "Address of the asset"
        },
        "returns": {
          "isAlive": "Whether the price is considered valid",
          "price": "Price of the asset"
        }
      },
      "getRoleAdmin(bytes32)": {
        "details": "Returns the admin role that controls `role`. See {grantRole} and {revokeRole}. To change a role's admin, use {_setRoleAdmin}."
      },
      "grantRole(bytes32,address)": {
        "details": "Grants `role` to `account`. If `account` had not been already granted `role`, emits a {RoleGranted} event. Requirements: - the caller must have ``role``'s admin role. May emit a {RoleGranted} event."
      },
      "hasRole(bytes32,address)": {
        "details": "Returns `true` if `account` has been granted `role`."
      },
      "removeOracle(address)": {
        "params": {
          "asset": "Address of the asset"
        }
      },
      "renounceRole(bytes32,address)": {
        "details": "Revokes `role` from the calling account. Roles are often managed via {grantRole} and {revokeRole}: this function's purpose is to provide a mechanism for accounts to lose their privileges if they are compromised (such as when a trusted device is misplaced). If the calling account had been revoked `role`, emits a {RoleRevoked} event. Requirements: - the caller must be `callerConfirmation`. May emit a {RoleRevoked} event."
      },
      "revokeRole(bytes32,address)": {
        "details": "Revokes `role` from `account`. If `account` had been granted `role`, emits a {RoleRevoked} event. Requirements: - the caller must have ``role``'s admin role. May emit a {RoleRevoked} event."
      },
      "setOracle(address,address)": {
        "params": {
          "asset": "Address of the asset",
          "oracle": "Address of the oracle for the asset"
        }
      },
      "supportsInterface(bytes4)": {
        "details": "Returns true if this contract implements the interface defined by `interfaceId`. See the corresponding https://eips.ethereum.org/EIPS/eip-165#how-interfaces-are-identified[ERC section] to learn more about how these ids are created. This function call must use less than 30 000 gas."
      }
    },
    "title": "OracleAggregatorV1_1",
    "version": 1
  },
  "userdoc": {
    "kind": "user",
    "methods": {
      "BASE_CURRENCY()": {
        "notice": "Returns the base currency"
      },
      "BASE_CURRENCY_UNIT()": {
        "notice": "Returns the base currency unit"
      },
      "ORACLE_MANAGER_ROLE()": {
        "notice": "Role for managing oracles"
      },
      "assetOracles(address)": {
        "notice": "Mapping from asset address to oracle address"
      },
      "baseCurrency()": {
        "notice": "Address representing the base currency"
      },
      "baseCurrencyUnit()": {
        "notice": "1 Unit of base currency (10^priceDecimals)"
      },
      "constructor": {
        "notice": "Constructor to initialize the OracleAggregator"
      },
      "getAssetPrice(address)": {
        "notice": "Gets the price of an asset"
      },
      "getPriceInfo(address)": {
        "notice": "Gets the price info of an asset"
      },
      "removeOracle(address)": {
        "notice": "Removes the oracle for a specific asset"
      },
      "setOracle(address,address)": {
        "notice": "Sets the oracle for a specific asset"
      }
    },
    "notice": "Aggregates price data from multiple oracles",
    "version": 1
  },
  "storageLayout": {
    "storage": [
      {
        "astId": 3317,
        "contract": "contracts/oracle_aggregator/OracleAggregatorV1_1.sol:OracleAggregatorV1_1",
        "label": "_roles",
        "offset": 0,
        "slot": "0",
        "type": "t_mapping(t_bytes32,t_struct(RoleData)3312_storage)"
      },
      {
        "astId": 77348,
        "contract": "contracts/oracle_aggregator/OracleAggregatorV1_1.sol:OracleAggregatorV1_1",
        "label": "assetOracles",
        "offset": 0,
        "slot": "1",
        "type": "t_mapping(t_address,t_address)"
      }
    ],
    "types": {
      "t_address": {
        "encoding": "inplace",
        "label": "address",
        "numberOfBytes": "20"
      },
      "t_bool": {
        "encoding": "inplace",
        "label": "bool",
        "numberOfBytes": "1"
      },
      "t_bytes32": {
        "encoding": "inplace",
        "label": "bytes32",
        "numberOfBytes": "32"
      },
      "t_mapping(t_address,t_address)": {
        "encoding": "mapping",
        "key": "t_address",
        "label": "mapping(address => address)",
        "numberOfBytes": "32",
        "value": "t_address"
      },
      "t_mapping(t_address,t_bool)": {
        "encoding": "mapping",
        "key": "t_address",
        "label": "mapping(address => bool)",
        "numberOfBytes": "32",
        "value": "t_bool"
      },
      "t_mapping(t_bytes32,t_struct(RoleData)3312_storage)": {
        "encoding": "mapping",
        "key": "t_bytes32",
        "label": "mapping(bytes32 => struct AccessControl.RoleData)",
        "numberOfBytes": "32",
        "value": "t_struct(RoleData)3312_storage"
      },
      "t_struct(RoleData)3312_storage": {
        "encoding": "inplace",
        "label": "struct AccessControl.RoleData",
        "members": [
          {
            "astId": 3309,
            "contract": "contracts/oracle_aggregator/OracleAggregatorV1_1.sol:OracleAggregatorV1_1",
            "label": "hasRole",
            "offset": 0,
            "slot": "0",
            "type": "t_mapping(t_address,t_bool)"
          },
          {
            "astId": 3311,
            "contract": "contracts/oracle_aggregator/OracleAggregatorV1_1.sol:OracleAggregatorV1_1",
            "label": "adminRole",
            "offset": 0,
            "slot": "1",
            "type": "t_bytes32"
          }
        ],
        "numberOfBytes": "64"
      }
    }
  }
}